{
	"1014/HookERC20/TokenBankV2.sol": {
		"TokenBankV2": {
			"abi": [
				{
					"inputs": [
						{
							"internalType": "contract IERC20",
							"name": "_token",
							"type": "address"
						}
					],
					"stateMutability": "nonpayable",
					"type": "constructor"
				},
				{
					"inputs": [
						{
							"internalType": "address",
							"name": "",
							"type": "address"
						}
					],
					"name": "balances",
					"outputs": [
						{
							"internalType": "uint256",
							"name": "",
							"type": "uint256"
						}
					],
					"stateMutability": "view",
					"type": "function"
				},
				{
					"inputs": [
						{
							"internalType": "uint256",
							"name": "amount",
							"type": "uint256"
						}
					],
					"name": "deposit",
					"outputs": [],
					"stateMutability": "nonpayable",
					"type": "function"
				},
				{
					"inputs": [],
					"name": "token",
					"outputs": [
						{
							"internalType": "contract IERC20",
							"name": "",
							"type": "address"
						}
					],
					"stateMutability": "view",
					"type": "function"
				},
				{
					"inputs": [
						{
							"internalType": "address",
							"name": "from",
							"type": "address"
						},
						{
							"internalType": "uint256",
							"name": "value",
							"type": "uint256"
						}
					],
					"name": "tokenReceived",
					"outputs": [],
					"stateMutability": "nonpayable",
					"type": "function"
				},
				{
					"inputs": [
						{
							"internalType": "uint256",
							"name": "value",
							"type": "uint256"
						}
					],
					"name": "withdraw",
					"outputs": [],
					"stateMutability": "nonpayable",
					"type": "function"
				}
			],
			"devdoc": {
				"kind": "dev",
				"methods": {},
				"version": 1
			},
			"evm": {
				"assembly": "    /* \"1014/HookERC20/TokenBankV2.sol\":128:350  contract TokenBankV2 is TokenBank, ITokenReceiver {... */\n  mstore(0x40, 0x80)\n    /* \"1014/HookERC20/TokenBankV2.sol\":189:242  constructor(IERC20 _token) TokenBank(_token) {... */\n  callvalue\n  dup1\n  iszero\n  tag_1\n  jumpi\n  0x00\n  dup1\n  revert\ntag_1:\n  pop\n  mload(0x40)\n  sub(codesize, bytecodeSize)\n  dup1\n  bytecodeSize\n  dup4\n  codecopy\n  dup2\n  dup2\n  add\n  0x40\n  mstore\n  dup2\n  add\n  swap1\n  tag_2\n  swap2\n  swap1\n  tag_3\n  jump\t// in\ntag_2:\n    /* \"1014/HookERC20/TokenBankV2.sol\":226:232  _token */\n  dup1\n    /* \"1013/TokenBank.sol\":229:235  _token */\n  dup1\n    /* \"1013/TokenBank.sol\":221:226  token */\n  0x00\n  dup1\n    /* \"1013/TokenBank.sol\":221:235  token = _token */\n  0x0100\n  exp\n  dup2\n  sload\n  dup2\n  0xffffffffffffffffffffffffffffffffffffffff\n  mul\n  not\n  and\n  swap1\n  dup4\n  0xffffffffffffffffffffffffffffffffffffffff\n  and\n  mul\n  or\n  swap1\n  sstore\n  pop\n    /* \"1013/TokenBank.sol\":183:242  constructor (IERC20 _token) {... */\n  pop\n    /* \"1014/HookERC20/TokenBankV2.sol\":189:242  constructor(IERC20 _token) TokenBank(_token) {... */\n  pop\n    /* \"1014/HookERC20/TokenBankV2.sol\":128:350  contract TokenBankV2 is TokenBank, ITokenReceiver {... */\n  jump(tag_8)\n    /* \"#utility.yul\":88:205   */\ntag_10:\n    /* \"#utility.yul\":197:198   */\n  0x00\n    /* \"#utility.yul\":194:195   */\n  dup1\n    /* \"#utility.yul\":187:199   */\n  revert\n    /* \"#utility.yul\":334:460   */\ntag_12:\n    /* \"#utility.yul\":371:378   */\n  0x00\n    /* \"#utility.yul\":411:453   */\n  0xffffffffffffffffffffffffffffffffffffffff\n    /* \"#utility.yul\":404:409   */\n  dup3\n    /* \"#utility.yul\":400:454   */\n  and\n    /* \"#utility.yul\":389:454   */\n  swap1\n  pop\n    /* \"#utility.yul\":334:460   */\n  swap2\n  swap1\n  pop\n  jump\t// out\n    /* \"#utility.yul\":466:562   */\ntag_13:\n    /* \"#utility.yul\":503:510   */\n  0x00\n    /* \"#utility.yul\":532:556   */\n  tag_23\n    /* \"#utility.yul\":550:555   */\n  dup3\n    /* \"#utility.yul\":532:556   */\n  tag_12\n  jump\t// in\ntag_23:\n    /* \"#utility.yul\":521:556   */\n  swap1\n  pop\n    /* \"#utility.yul\":466:562   */\n  swap2\n  swap1\n  pop\n  jump\t// out\n    /* \"#utility.yul\":568:678   */\ntag_14:\n    /* \"#utility.yul\":619:626   */\n  0x00\n    /* \"#utility.yul\":648:672   */\n  tag_25\n    /* \"#utility.yul\":666:671   */\n  dup3\n    /* \"#utility.yul\":648:672   */\n  tag_13\n  jump\t// in\ntag_25:\n    /* \"#utility.yul\":637:672   */\n  swap1\n  pop\n    /* \"#utility.yul\":568:678   */\n  swap2\n  swap1\n  pop\n  jump\t// out\n    /* \"#utility.yul\":684:834   */\ntag_15:\n    /* \"#utility.yul\":771:809   */\n  tag_27\n    /* \"#utility.yul\":803:808   */\n  dup2\n    /* \"#utility.yul\":771:809   */\n  tag_14\n  jump\t// in\ntag_27:\n    /* \"#utility.yul\":764:769   */\n  dup2\n    /* \"#utility.yul\":761:810   */\n  eq\n    /* \"#utility.yul\":751:828   */\n  tag_28\n  jumpi\n    /* \"#utility.yul\":824:825   */\n  0x00\n    /* \"#utility.yul\":821:822   */\n  dup1\n    /* \"#utility.yul\":814:826   */\n  revert\n    /* \"#utility.yul\":751:828   */\ntag_28:\n    /* \"#utility.yul\":684:834   */\n  pop\n  jump\t// out\n    /* \"#utility.yul\":840:1011   */\ntag_16:\n    /* \"#utility.yul\":911:916   */\n  0x00\n    /* \"#utility.yul\":942:948   */\n  dup2\n    /* \"#utility.yul\":936:949   */\n  mload\n    /* \"#utility.yul\":927:949   */\n  swap1\n  pop\n    /* \"#utility.yul\":958:1005   */\n  tag_30\n    /* \"#utility.yul\":999:1004   */\n  dup2\n    /* \"#utility.yul\":958:1005   */\n  tag_15\n  jump\t// in\ntag_30:\n    /* \"#utility.yul\":840:1011   */\n  swap3\n  swap2\n  pop\n  pop\n  jump\t// out\n    /* \"#utility.yul\":1017:1396   */\ntag_3:\n    /* \"#utility.yul\":1101:1107   */\n  0x00\n    /* \"#utility.yul\":1150:1152   */\n  0x20\n    /* \"#utility.yul\":1138:1147   */\n  dup3\n    /* \"#utility.yul\":1129:1136   */\n  dup5\n    /* \"#utility.yul\":1125:1148   */\n  sub\n    /* \"#utility.yul\":1121:1153   */\n  slt\n    /* \"#utility.yul\":1118:1237   */\n  iszero\n  tag_32\n  jumpi\n    /* \"#utility.yul\":1156:1235   */\n  tag_33\n  tag_10\n  jump\t// in\ntag_33:\n    /* \"#utility.yul\":1118:1237   */\ntag_32:\n    /* \"#utility.yul\":1276:1277   */\n  0x00\n    /* \"#utility.yul\":1301:1379   */\n  tag_34\n    /* \"#utility.yul\":1371:1378   */\n  dup5\n    /* \"#utility.yul\":1362:1368   */\n  dup3\n    /* \"#utility.yul\":1351:1360   */\n  dup6\n    /* \"#utility.yul\":1347:1369   */\n  add\n    /* \"#utility.yul\":1301:1379   */\n  tag_16\n  jump\t// in\ntag_34:\n    /* \"#utility.yul\":1291:1379   */\n  swap2\n  pop\n    /* \"#utility.yul\":1247:1389   */\n  pop\n    /* \"#utility.yul\":1017:1396   */\n  swap3\n  swap2\n  pop\n  pop\n  jump\t// out\n    /* \"1014/HookERC20/TokenBankV2.sol\":128:350  contract TokenBankV2 is TokenBank, ITokenReceiver {... */\ntag_8:\n  dataSize(sub_0)\n  dup1\n  dataOffset(sub_0)\n  0x00\n  codecopy\n  0x00\n  return\nstop\n\nsub_0: assembly {\n        /* \"1014/HookERC20/TokenBankV2.sol\":128:350  contract TokenBankV2 is TokenBank, ITokenReceiver {... */\n      mstore(0x40, 0x80)\n      callvalue\n      dup1\n      iszero\n      tag_1\n      jumpi\n      0x00\n      dup1\n      revert\n    tag_1:\n      pop\n      jumpi(tag_2, lt(calldatasize, 0x04))\n      shr(0xe0, calldataload(0x00))\n      dup1\n      0x27e235e3\n      eq\n      tag_3\n      jumpi\n      dup1\n      0x2e1a7d4d\n      eq\n      tag_4\n      jumpi\n      dup1\n      0xb6b55f25\n      eq\n      tag_5\n      jumpi\n      dup1\n      0xcae15051\n      eq\n      tag_6\n      jumpi\n      dup1\n      0xfc0c546a\n      eq\n      tag_7\n      jumpi\n    tag_2:\n      0x00\n      dup1\n      revert\n        /* \"1013/TokenBank.sol\":132:176  mapping (address => uint256) public balances */\n    tag_3:\n      tag_8\n      0x04\n      dup1\n      calldatasize\n      sub\n      dup2\n      add\n      swap1\n      tag_9\n      swap2\n      swap1\n      tag_10\n      jump\t// in\n    tag_9:\n      tag_11\n      jump\t// in\n    tag_8:\n      mload(0x40)\n      tag_12\n      swap2\n      swap1\n      tag_13\n      jump\t// in\n    tag_12:\n      mload(0x40)\n      dup1\n      swap2\n      sub\n      swap1\n      return\n        /* \"1013/TokenBank.sol\":571:836  function withdraw(uint256 value) public {... */\n    tag_4:\n      tag_14\n      0x04\n      dup1\n      calldatasize\n      sub\n      dup2\n      add\n      swap1\n      tag_15\n      swap2\n      swap1\n      tag_16\n      jump\t// in\n    tag_15:\n      tag_17\n      jump\t// in\n    tag_14:\n      stop\n        /* \"1013/TokenBank.sol\":286:565  function deposit(uint256 amount) public {... */\n    tag_5:\n      tag_18\n      0x04\n      dup1\n      calldatasize\n      sub\n      dup2\n      add\n      swap1\n      tag_19\n      swap2\n      swap1\n      tag_16\n      jump\t// in\n    tag_19:\n      tag_20\n      jump\t// in\n    tag_18:\n      stop\n        /* \"1014/HookERC20/TokenBankV2.sol\":248:348  function tokenReceived(address from, uint256 value) external{... */\n    tag_6:\n      tag_21\n      0x04\n      dup1\n      calldatasize\n      sub\n      dup2\n      add\n      swap1\n      tag_22\n      swap2\n      swap1\n      tag_23\n      jump\t// in\n    tag_22:\n      tag_24\n      jump\t// in\n    tag_21:\n      stop\n        /* \"1013/TokenBank.sol\":107:126  IERC20 public token */\n    tag_7:\n      tag_25\n      tag_26\n      jump\t// in\n    tag_25:\n      mload(0x40)\n      tag_27\n      swap2\n      swap1\n      tag_28\n      jump\t// in\n    tag_27:\n      mload(0x40)\n      dup1\n      swap2\n      sub\n      swap1\n      return\n        /* \"1013/TokenBank.sol\":132:176  mapping (address => uint256) public balances */\n    tag_11:\n      mstore(0x20, 0x01)\n      dup1\n      0x00\n      mstore\n      keccak256(0x00, 0x40)\n      0x00\n      swap2\n      pop\n      swap1\n      pop\n      sload\n      dup2\n      jump\t// out\n        /* \"1013/TokenBank.sol\":571:836  function withdraw(uint256 value) public {... */\n    tag_17:\n        /* \"1013/TokenBank.sol\":636:644  balances */\n      0x01\n        /* \"1013/TokenBank.sol\":636:656  balances[msg.sender] */\n      0x00\n        /* \"1013/TokenBank.sol\":645:655  msg.sender */\n      caller\n        /* \"1013/TokenBank.sol\":636:656  balances[msg.sender] */\n      0xffffffffffffffffffffffffffffffffffffffff\n      and\n      0xffffffffffffffffffffffffffffffffffffffff\n      and\n      dup2\n      mstore\n      0x20\n      add\n      swap1\n      dup2\n      mstore\n      0x20\n      add\n      0x00\n      keccak256\n      sload\n        /* \"1013/TokenBank.sol\":629:634  value */\n      dup2\n        /* \"1013/TokenBank.sol\":629:656  value<=balances[msg.sender] */\n      gt\n      iszero\n        /* \"1013/TokenBank.sol\":621:681  require(value<=balances[msg.sender], \"Insufficient balance\") */\n      tag_30\n      jumpi\n      mload(0x40)\n      0x08c379a000000000000000000000000000000000000000000000000000000000\n      dup2\n      mstore\n      0x04\n      add\n      tag_31\n      swap1\n      tag_32\n      jump\t// in\n    tag_31:\n      mload(0x40)\n      dup1\n      swap2\n      sub\n      swap1\n      revert\n    tag_30:\n        /* \"1013/TokenBank.sol\":691:703  bool success */\n      0x00\n        /* \"1013/TokenBank.sol\":706:711  token */\n      dup1\n      0x00\n      swap1\n      sload\n      swap1\n      0x0100\n      exp\n      swap1\n      div\n      0xffffffffffffffffffffffffffffffffffffffff\n      and\n        /* \"1013/TokenBank.sol\":706:720  token.transfer */\n      0xffffffffffffffffffffffffffffffffffffffff\n      and\n      0xa9059cbb\n        /* \"1013/TokenBank.sol\":721:731  msg.sender */\n      caller\n        /* \"1013/TokenBank.sol\":733:738  value */\n      dup5\n        /* \"1013/TokenBank.sol\":706:739  token.transfer(msg.sender, value) */\n      mload(0x40)\n      dup4\n      0xffffffff\n      and\n      0xe0\n      shl\n      dup2\n      mstore\n      0x04\n      add\n      tag_33\n      swap3\n      swap2\n      swap1\n      tag_34\n      jump\t// in\n    tag_33:\n      0x20\n      mload(0x40)\n      dup1\n      dup4\n      sub\n      dup2\n      0x00\n      dup8\n      gas\n      call\n      iszero\n      dup1\n      iszero\n      tag_36\n      jumpi\n      returndatasize\n      0x00\n      dup1\n      returndatacopy\n      revert(0x00, returndatasize)\n    tag_36:\n      pop\n      pop\n      pop\n      pop\n      mload(0x40)\n      returndatasize\n      not(0x1f)\n      0x1f\n      dup3\n      add\n      and\n      dup3\n      add\n      dup1\n      0x40\n      mstore\n      pop\n      dup2\n      add\n      swap1\n      tag_37\n      swap2\n      swap1\n      tag_38\n      jump\t// in\n    tag_37:\n        /* \"1013/TokenBank.sol\":691:739  bool success = token.transfer(msg.sender, value) */\n      swap1\n      pop\n        /* \"1013/TokenBank.sol\":757:764  success */\n      dup1\n        /* \"1013/TokenBank.sol\":749:790  require(success, \"Token transfer failed\") */\n      tag_39\n      jumpi\n      mload(0x40)\n      0x08c379a000000000000000000000000000000000000000000000000000000000\n      dup2\n      mstore\n      0x04\n      add\n      tag_40\n      swap1\n      tag_41\n      jump\t// in\n    tag_40:\n      mload(0x40)\n      dup1\n      swap2\n      sub\n      swap1\n      revert\n    tag_39:\n        /* \"1013/TokenBank.sol\":824:829  value */\n      dup2\n        /* \"1013/TokenBank.sol\":800:808  balances */\n      0x01\n        /* \"1013/TokenBank.sol\":800:820  balances[msg.sender] */\n      0x00\n        /* \"1013/TokenBank.sol\":809:819  msg.sender */\n      caller\n        /* \"1013/TokenBank.sol\":800:820  balances[msg.sender] */\n      0xffffffffffffffffffffffffffffffffffffffff\n      and\n      0xffffffffffffffffffffffffffffffffffffffff\n      and\n      dup2\n      mstore\n      0x20\n      add\n      swap1\n      dup2\n      mstore\n      0x20\n      add\n      0x00\n      keccak256\n      0x00\n        /* \"1013/TokenBank.sol\":800:829  balances[msg.sender] -= value */\n      dup3\n      dup3\n      sload\n      tag_42\n      swap2\n      swap1\n      tag_43\n      jump\t// in\n    tag_42:\n      swap3\n      pop\n      pop\n      dup2\n      swap1\n      sstore\n      pop\n        /* \"1013/TokenBank.sol\":611:836  {... */\n      pop\n        /* \"1013/TokenBank.sol\":571:836  function withdraw(uint256 value) public {... */\n      pop\n      jump\t// out\n        /* \"1013/TokenBank.sol\":286:565  function deposit(uint256 amount) public {... */\n    tag_20:\n        /* \"1013/TokenBank.sol\":351:352  0 */\n      0x00\n        /* \"1013/TokenBank.sol\":344:350  amount */\n      dup2\n        /* \"1013/TokenBank.sol\":344:352  amount>0 */\n      gt\n        /* \"1013/TokenBank.sol\":336:389  require(amount>0, \"Amount must be greater than zero\") */\n      tag_45\n      jumpi\n      mload(0x40)\n      0x08c379a000000000000000000000000000000000000000000000000000000000\n      dup2\n      mstore\n      0x04\n      add\n      tag_46\n      swap1\n      tag_47\n      jump\t// in\n    tag_46:\n      mload(0x40)\n      dup1\n      swap2\n      sub\n      swap1\n      revert\n    tag_45:\n        /* \"1013/TokenBank.sol\":399:411  bool success */\n      0x00\n        /* \"1013/TokenBank.sol\":414:419  token */\n      dup1\n      0x00\n      swap1\n      sload\n      swap1\n      0x0100\n      exp\n      swap1\n      div\n      0xffffffffffffffffffffffffffffffffffffffff\n      and\n        /* \"1013/TokenBank.sol\":414:432  token.transferFrom */\n      0xffffffffffffffffffffffffffffffffffffffff\n      and\n      0x23b872dd\n        /* \"1013/TokenBank.sol\":433:443  msg.sender */\n      caller\n        /* \"1013/TokenBank.sol\":453:457  this */\n      address\n        /* \"1013/TokenBank.sol\":460:466  amount */\n      dup6\n        /* \"1013/TokenBank.sol\":414:467  token.transferFrom(msg.sender, address(this), amount) */\n      mload(0x40)\n      dup5\n      0xffffffff\n      and\n      0xe0\n      shl\n      dup2\n      mstore\n      0x04\n      add\n      tag_48\n      swap4\n      swap3\n      swap2\n      swap1\n      tag_49\n      jump\t// in\n    tag_48:\n      0x20\n      mload(0x40)\n      dup1\n      dup4\n      sub\n      dup2\n      0x00\n      dup8\n      gas\n      call\n      iszero\n      dup1\n      iszero\n      tag_51\n      jumpi\n      returndatasize\n      0x00\n      dup1\n      returndatacopy\n      revert(0x00, returndatasize)\n    tag_51:\n      pop\n      pop\n      pop\n      pop\n      mload(0x40)\n      returndatasize\n      not(0x1f)\n      0x1f\n      dup3\n      add\n      and\n      dup3\n      add\n      dup1\n      0x40\n      mstore\n      pop\n      dup2\n      add\n      swap1\n      tag_52\n      swap2\n      swap1\n      tag_38\n      jump\t// in\n    tag_52:\n        /* \"1013/TokenBank.sol\":399:467  bool success = token.transferFrom(msg.sender, address(this), amount) */\n      swap1\n      pop\n        /* \"1013/TokenBank.sol\":485:492  success */\n      dup1\n        /* \"1013/TokenBank.sol\":477:518  require(success, \"Token transfer failed\") */\n      tag_53\n      jumpi\n      mload(0x40)\n      0x08c379a000000000000000000000000000000000000000000000000000000000\n      dup2\n      mstore\n      0x04\n      add\n      tag_54\n      swap1\n      tag_41\n      jump\t// in\n    tag_54:\n      mload(0x40)\n      dup1\n      swap2\n      sub\n      swap1\n      revert\n    tag_53:\n        /* \"1013/TokenBank.sol\":552:558  amount */\n      dup2\n        /* \"1013/TokenBank.sol\":528:536  balances */\n      0x01\n        /* \"1013/TokenBank.sol\":528:548  balances[msg.sender] */\n      0x00\n        /* \"1013/TokenBank.sol\":537:547  msg.sender */\n      caller\n        /* \"1013/TokenBank.sol\":528:548  balances[msg.sender] */\n      0xffffffffffffffffffffffffffffffffffffffff\n      and\n      0xffffffffffffffffffffffffffffffffffffffff\n      and\n      dup2\n      mstore\n      0x20\n      add\n      swap1\n      dup2\n      mstore\n      0x20\n      add\n      0x00\n      keccak256\n      0x00\n        /* \"1013/TokenBank.sol\":528:558  balances[msg.sender] += amount */\n      dup3\n      dup3\n      sload\n      tag_55\n      swap2\n      swap1\n      tag_56\n      jump\t// in\n    tag_55:\n      swap3\n      pop\n      pop\n      dup2\n      swap1\n      sstore\n      pop\n        /* \"1013/TokenBank.sol\":326:565  {... */\n      pop\n        /* \"1013/TokenBank.sol\":286:565  function deposit(uint256 amount) public {... */\n      pop\n      jump\t// out\n        /* \"1014/HookERC20/TokenBankV2.sol\":248:348  function tokenReceived(address from, uint256 value) external{... */\n    tag_24:\n        /* \"1014/HookERC20/TokenBankV2.sol\":336:341  value */\n      dup1\n        /* \"1014/HookERC20/TokenBankV2.sol\":318:326  balances */\n      0x01\n        /* \"1014/HookERC20/TokenBankV2.sol\":318:332  balances[from] */\n      0x00\n        /* \"1014/HookERC20/TokenBankV2.sol\":327:331  from */\n      dup5\n        /* \"1014/HookERC20/TokenBankV2.sol\":318:332  balances[from] */\n      0xffffffffffffffffffffffffffffffffffffffff\n      and\n      0xffffffffffffffffffffffffffffffffffffffff\n      and\n      dup2\n      mstore\n      0x20\n      add\n      swap1\n      dup2\n      mstore\n      0x20\n      add\n      0x00\n      keccak256\n      0x00\n        /* \"1014/HookERC20/TokenBankV2.sol\":318:341  balances[from] += value */\n      dup3\n      dup3\n      sload\n      tag_58\n      swap2\n      swap1\n      tag_56\n      jump\t// in\n    tag_58:\n      swap3\n      pop\n      pop\n      dup2\n      swap1\n      sstore\n      pop\n        /* \"1014/HookERC20/TokenBankV2.sol\":248:348  function tokenReceived(address from, uint256 value) external{... */\n      pop\n      pop\n      jump\t// out\n        /* \"1013/TokenBank.sol\":107:126  IERC20 public token */\n    tag_26:\n      0x00\n      dup1\n      sload\n      swap1\n      0x0100\n      exp\n      swap1\n      div\n      0xffffffffffffffffffffffffffffffffffffffff\n      and\n      dup2\n      jump\t// out\n        /* \"#utility.yul\":88:205   */\n    tag_60:\n        /* \"#utility.yul\":197:198   */\n      0x00\n        /* \"#utility.yul\":194:195   */\n      dup1\n        /* \"#utility.yul\":187:199   */\n      revert\n        /* \"#utility.yul\":334:460   */\n    tag_62:\n        /* \"#utility.yul\":371:378   */\n      0x00\n        /* \"#utility.yul\":411:453   */\n      0xffffffffffffffffffffffffffffffffffffffff\n        /* \"#utility.yul\":404:409   */\n      dup3\n        /* \"#utility.yul\":400:454   */\n      and\n        /* \"#utility.yul\":389:454   */\n      swap1\n      pop\n        /* \"#utility.yul\":334:460   */\n      swap2\n      swap1\n      pop\n      jump\t// out\n        /* \"#utility.yul\":466:562   */\n    tag_63:\n        /* \"#utility.yul\":503:510   */\n      0x00\n        /* \"#utility.yul\":532:556   */\n      tag_93\n        /* \"#utility.yul\":550:555   */\n      dup3\n        /* \"#utility.yul\":532:556   */\n      tag_62\n      jump\t// in\n    tag_93:\n        /* \"#utility.yul\":521:556   */\n      swap1\n      pop\n        /* \"#utility.yul\":466:562   */\n      swap2\n      swap1\n      pop\n      jump\t// out\n        /* \"#utility.yul\":568:690   */\n    tag_64:\n        /* \"#utility.yul\":641:665   */\n      tag_95\n        /* \"#utility.yul\":659:664   */\n      dup2\n        /* \"#utility.yul\":641:665   */\n      tag_63\n      jump\t// in\n    tag_95:\n        /* \"#utility.yul\":634:639   */\n      dup2\n        /* \"#utility.yul\":631:666   */\n      eq\n        /* \"#utility.yul\":621:684   */\n      tag_96\n      jumpi\n        /* \"#utility.yul\":680:681   */\n      0x00\n        /* \"#utility.yul\":677:678   */\n      dup1\n        /* \"#utility.yul\":670:682   */\n      revert\n        /* \"#utility.yul\":621:684   */\n    tag_96:\n        /* \"#utility.yul\":568:690   */\n      pop\n      jump\t// out\n        /* \"#utility.yul\":696:835   */\n    tag_65:\n        /* \"#utility.yul\":742:747   */\n      0x00\n        /* \"#utility.yul\":780:786   */\n      dup2\n        /* \"#utility.yul\":767:787   */\n      calldataload\n        /* \"#utility.yul\":758:787   */\n      swap1\n      pop\n        /* \"#utility.yul\":796:829   */\n      tag_98\n        /* \"#utility.yul\":823:828   */\n      dup2\n        /* \"#utility.yul\":796:829   */\n      tag_64\n      jump\t// in\n    tag_98:\n        /* \"#utility.yul\":696:835   */\n      swap3\n      swap2\n      pop\n      pop\n      jump\t// out\n        /* \"#utility.yul\":841:1170   */\n    tag_10:\n        /* \"#utility.yul\":900:906   */\n      0x00\n        /* \"#utility.yul\":949:951   */\n      0x20\n        /* \"#utility.yul\":937:946   */\n      dup3\n        /* \"#utility.yul\":928:935   */\n      dup5\n        /* \"#utility.yul\":924:947   */\n      sub\n        /* \"#utility.yul\":920:952   */\n      slt\n        /* \"#utility.yul\":917:1036   */\n      iszero\n      tag_100\n      jumpi\n        /* \"#utility.yul\":955:1034   */\n      tag_101\n      tag_60\n      jump\t// in\n    tag_101:\n        /* \"#utility.yul\":917:1036   */\n    tag_100:\n        /* \"#utility.yul\":1075:1076   */\n      0x00\n        /* \"#utility.yul\":1100:1153   */\n      tag_102\n        /* \"#utility.yul\":1145:1152   */\n      dup5\n        /* \"#utility.yul\":1136:1142   */\n      dup3\n        /* \"#utility.yul\":1125:1134   */\n      dup6\n        /* \"#utility.yul\":1121:1143   */\n      add\n        /* \"#utility.yul\":1100:1153   */\n      tag_65\n      jump\t// in\n    tag_102:\n        /* \"#utility.yul\":1090:1153   */\n      swap2\n      pop\n        /* \"#utility.yul\":1046:1163   */\n      pop\n        /* \"#utility.yul\":841:1170   */\n      swap3\n      swap2\n      pop\n      pop\n      jump\t// out\n        /* \"#utility.yul\":1176:1253   */\n    tag_66:\n        /* \"#utility.yul\":1213:1220   */\n      0x00\n        /* \"#utility.yul\":1242:1247   */\n      dup2\n        /* \"#utility.yul\":1231:1247   */\n      swap1\n      pop\n        /* \"#utility.yul\":1176:1253   */\n      swap2\n      swap1\n      pop\n      jump\t// out\n        /* \"#utility.yul\":1259:1377   */\n    tag_67:\n        /* \"#utility.yul\":1346:1370   */\n      tag_105\n        /* \"#utility.yul\":1364:1369   */\n      dup2\n        /* \"#utility.yul\":1346:1370   */\n      tag_66\n      jump\t// in\n    tag_105:\n        /* \"#utility.yul\":1341:1344   */\n      dup3\n        /* \"#utility.yul\":1334:1371   */\n      mstore\n        /* \"#utility.yul\":1259:1377   */\n      pop\n      pop\n      jump\t// out\n        /* \"#utility.yul\":1383:1605   */\n    tag_13:\n        /* \"#utility.yul\":1476:1480   */\n      0x00\n        /* \"#utility.yul\":1514:1516   */\n      0x20\n        /* \"#utility.yul\":1503:1512   */\n      dup3\n        /* \"#utility.yul\":1499:1517   */\n      add\n        /* \"#utility.yul\":1491:1517   */\n      swap1\n      pop\n        /* \"#utility.yul\":1527:1598   */\n      tag_107\n        /* \"#utility.yul\":1595:1596   */\n      0x00\n        /* \"#utility.yul\":1584:1593   */\n      dup4\n        /* \"#utility.yul\":1580:1597   */\n      add\n        /* \"#utility.yul\":1571:1577   */\n      dup5\n        /* \"#utility.yul\":1527:1598   */\n      tag_67\n      jump\t// in\n    tag_107:\n        /* \"#utility.yul\":1383:1605   */\n      swap3\n      swap2\n      pop\n      pop\n      jump\t// out\n        /* \"#utility.yul\":1611:1733   */\n    tag_68:\n        /* \"#utility.yul\":1684:1708   */\n      tag_109\n        /* \"#utility.yul\":1702:1707   */\n      dup2\n        /* \"#utility.yul\":1684:1708   */\n      tag_66\n      jump\t// in\n    tag_109:\n        /* \"#utility.yul\":1677:1682   */\n      dup2\n        /* \"#utility.yul\":1674:1709   */\n      eq\n        /* \"#utility.yul\":1664:1727   */\n      tag_110\n      jumpi\n        /* \"#utility.yul\":1723:1724   */\n      0x00\n        /* \"#utility.yul\":1720:1721   */\n      dup1\n        /* \"#utility.yul\":1713:1725   */\n      revert\n        /* \"#utility.yul\":1664:1727   */\n    tag_110:\n        /* \"#utility.yul\":1611:1733   */\n      pop\n      jump\t// out\n        /* \"#utility.yul\":1739:1878   */\n    tag_69:\n        /* \"#utility.yul\":1785:1790   */\n      0x00\n        /* \"#utility.yul\":1823:1829   */\n      dup2\n        /* \"#utility.yul\":1810:1830   */\n      calldataload\n        /* \"#utility.yul\":1801:1830   */\n      swap1\n      pop\n        /* \"#utility.yul\":1839:1872   */\n      tag_112\n        /* \"#utility.yul\":1866:1871   */\n      dup2\n        /* \"#utility.yul\":1839:1872   */\n      tag_68\n      jump\t// in\n    tag_112:\n        /* \"#utility.yul\":1739:1878   */\n      swap3\n      swap2\n      pop\n      pop\n      jump\t// out\n        /* \"#utility.yul\":1884:2213   */\n    tag_16:\n        /* \"#utility.yul\":1943:1949   */\n      0x00\n        /* \"#utility.yul\":1992:1994   */\n      0x20\n        /* \"#utility.yul\":1980:1989   */\n      dup3\n        /* \"#utility.yul\":1971:1978   */\n      dup5\n        /* \"#utility.yul\":1967:1990   */\n      sub\n        /* \"#utility.yul\":1963:1995   */\n      slt\n        /* \"#utility.yul\":1960:2079   */\n      iszero\n      tag_114\n      jumpi\n        /* \"#utility.yul\":1998:2077   */\n      tag_115\n      tag_60\n      jump\t// in\n    tag_115:\n        /* \"#utility.yul\":1960:2079   */\n    tag_114:\n        /* \"#utility.yul\":2118:2119   */\n      0x00\n        /* \"#utility.yul\":2143:2196   */\n      tag_116\n        /* \"#utility.yul\":2188:2195   */\n      dup5\n        /* \"#utility.yul\":2179:2185   */\n      dup3\n        /* \"#utility.yul\":2168:2177   */\n      dup6\n        /* \"#utility.yul\":2164:2186   */\n      add\n        /* \"#utility.yul\":2143:2196   */\n      tag_69\n      jump\t// in\n    tag_116:\n        /* \"#utility.yul\":2133:2196   */\n      swap2\n      pop\n        /* \"#utility.yul\":2089:2206   */\n      pop\n        /* \"#utility.yul\":1884:2213   */\n      swap3\n      swap2\n      pop\n      pop\n      jump\t// out\n        /* \"#utility.yul\":2219:2693   */\n    tag_23:\n        /* \"#utility.yul\":2287:2293   */\n      0x00\n        /* \"#utility.yul\":2295:2301   */\n      dup1\n        /* \"#utility.yul\":2344:2346   */\n      0x40\n        /* \"#utility.yul\":2332:2341   */\n      dup4\n        /* \"#utility.yul\":2323:2330   */\n      dup6\n        /* \"#utility.yul\":2319:2342   */\n      sub\n        /* \"#utility.yul\":2315:2347   */\n      slt\n        /* \"#utility.yul\":2312:2431   */\n      iszero\n      tag_118\n      jumpi\n        /* \"#utility.yul\":2350:2429   */\n      tag_119\n      tag_60\n      jump\t// in\n    tag_119:\n        /* \"#utility.yul\":2312:2431   */\n    tag_118:\n        /* \"#utility.yul\":2470:2471   */\n      0x00\n        /* \"#utility.yul\":2495:2548   */\n      tag_120\n        /* \"#utility.yul\":2540:2547   */\n      dup6\n        /* \"#utility.yul\":2531:2537   */\n      dup3\n        /* \"#utility.yul\":2520:2529   */\n      dup7\n        /* \"#utility.yul\":2516:2538   */\n      add\n        /* \"#utility.yul\":2495:2548   */\n      tag_65\n      jump\t// in\n    tag_120:\n        /* \"#utility.yul\":2485:2548   */\n      swap3\n      pop\n        /* \"#utility.yul\":2441:2558   */\n      pop\n        /* \"#utility.yul\":2597:2599   */\n      0x20\n        /* \"#utility.yul\":2623:2676   */\n      tag_121\n        /* \"#utility.yul\":2668:2675   */\n      dup6\n        /* \"#utility.yul\":2659:2665   */\n      dup3\n        /* \"#utility.yul\":2648:2657   */\n      dup7\n        /* \"#utility.yul\":2644:2666   */\n      add\n        /* \"#utility.yul\":2623:2676   */\n      tag_69\n      jump\t// in\n    tag_121:\n        /* \"#utility.yul\":2613:2676   */\n      swap2\n      pop\n        /* \"#utility.yul\":2568:2686   */\n      pop\n        /* \"#utility.yul\":2219:2693   */\n      swap3\n      pop\n      swap3\n      swap1\n      pop\n      jump\t// out\n        /* \"#utility.yul\":2699:2759   */\n    tag_70:\n        /* \"#utility.yul\":2727:2730   */\n      0x00\n        /* \"#utility.yul\":2748:2753   */\n      dup2\n        /* \"#utility.yul\":2741:2753   */\n      swap1\n      pop\n        /* \"#utility.yul\":2699:2759   */\n      swap2\n      swap1\n      pop\n      jump\t// out\n        /* \"#utility.yul\":2765:2907   */\n    tag_71:\n        /* \"#utility.yul\":2815:2824   */\n      0x00\n        /* \"#utility.yul\":2848:2901   */\n      tag_124\n        /* \"#utility.yul\":2866:2900   */\n      tag_125\n        /* \"#utility.yul\":2875:2899   */\n      tag_126\n        /* \"#utility.yul\":2893:2898   */\n      dup5\n        /* \"#utility.yul\":2875:2899   */\n      tag_62\n      jump\t// in\n    tag_126:\n        /* \"#utility.yul\":2866:2900   */\n      tag_70\n      jump\t// in\n    tag_125:\n        /* \"#utility.yul\":2848:2901   */\n      tag_62\n      jump\t// in\n    tag_124:\n        /* \"#utility.yul\":2835:2901   */\n      swap1\n      pop\n        /* \"#utility.yul\":2765:2907   */\n      swap2\n      swap1\n      pop\n      jump\t// out\n        /* \"#utility.yul\":2913:3039   */\n    tag_72:\n        /* \"#utility.yul\":2963:2972   */\n      0x00\n        /* \"#utility.yul\":2996:3033   */\n      tag_128\n        /* \"#utility.yul\":3027:3032   */\n      dup3\n        /* \"#utility.yul\":2996:3033   */\n      tag_71\n      jump\t// in\n    tag_128:\n        /* \"#utility.yul\":2983:3033   */\n      swap1\n      pop\n        /* \"#utility.yul\":2913:3039   */\n      swap2\n      swap1\n      pop\n      jump\t// out\n        /* \"#utility.yul\":3045:3185   */\n    tag_73:\n        /* \"#utility.yul\":3109:3118   */\n      0x00\n        /* \"#utility.yul\":3142:3179   */\n      tag_130\n        /* \"#utility.yul\":3173:3178   */\n      dup3\n        /* \"#utility.yul\":3142:3179   */\n      tag_72\n      jump\t// in\n    tag_130:\n        /* \"#utility.yul\":3129:3179   */\n      swap1\n      pop\n        /* \"#utility.yul\":3045:3185   */\n      swap2\n      swap1\n      pop\n      jump\t// out\n        /* \"#utility.yul\":3191:3350   */\n    tag_74:\n        /* \"#utility.yul\":3292:3343   */\n      tag_132\n        /* \"#utility.yul\":3337:3342   */\n      dup2\n        /* \"#utility.yul\":3292:3343   */\n      tag_73\n      jump\t// in\n    tag_132:\n        /* \"#utility.yul\":3287:3290   */\n      dup3\n        /* \"#utility.yul\":3280:3344   */\n      mstore\n        /* \"#utility.yul\":3191:3350   */\n      pop\n      pop\n      jump\t// out\n        /* \"#utility.yul\":3356:3606   */\n    tag_28:\n        /* \"#utility.yul\":3463:3467   */\n      0x00\n        /* \"#utility.yul\":3501:3503   */\n      0x20\n        /* \"#utility.yul\":3490:3499   */\n      dup3\n        /* \"#utility.yul\":3486:3504   */\n      add\n        /* \"#utility.yul\":3478:3504   */\n      swap1\n      pop\n        /* \"#utility.yul\":3514:3599   */\n      tag_134\n        /* \"#utility.yul\":3596:3597   */\n      0x00\n        /* \"#utility.yul\":3585:3594   */\n      dup4\n        /* \"#utility.yul\":3581:3598   */\n      add\n        /* \"#utility.yul\":3572:3578   */\n      dup5\n        /* \"#utility.yul\":3514:3599   */\n      tag_74\n      jump\t// in\n    tag_134:\n        /* \"#utility.yul\":3356:3606   */\n      swap3\n      swap2\n      pop\n      pop\n      jump\t// out\n        /* \"#utility.yul\":3612:3781   */\n    tag_75:\n        /* \"#utility.yul\":3696:3707   */\n      0x00\n        /* \"#utility.yul\":3730:3736   */\n      dup3\n        /* \"#utility.yul\":3725:3728   */\n      dup3\n        /* \"#utility.yul\":3718:3737   */\n      mstore\n        /* \"#utility.yul\":3770:3774   */\n      0x20\n        /* \"#utility.yul\":3765:3768   */\n      dup3\n        /* \"#utility.yul\":3761:3775   */\n      add\n        /* \"#utility.yul\":3746:3775   */\n      swap1\n      pop\n        /* \"#utility.yul\":3612:3781   */\n      swap3\n      swap2\n      pop\n      pop\n      jump\t// out\n        /* \"#utility.yul\":3787:3957   */\n    tag_76:\n        /* \"#utility.yul\":3927:3949   */\n      0x496e73756666696369656e742062616c616e6365000000000000000000000000\n        /* \"#utility.yul\":3923:3924   */\n      0x00\n        /* \"#utility.yul\":3915:3921   */\n      dup3\n        /* \"#utility.yul\":3911:3925   */\n      add\n        /* \"#utility.yul\":3904:3950   */\n      mstore\n        /* \"#utility.yul\":3787:3957   */\n      pop\n      jump\t// out\n        /* \"#utility.yul\":3963:4329   */\n    tag_77:\n        /* \"#utility.yul\":4105:4108   */\n      0x00\n        /* \"#utility.yul\":4126:4193   */\n      tag_138\n        /* \"#utility.yul\":4190:4192   */\n      0x14\n        /* \"#utility.yul\":4185:4188   */\n      dup4\n        /* \"#utility.yul\":4126:4193   */\n      tag_75\n      jump\t// in\n    tag_138:\n        /* \"#utility.yul\":4119:4193   */\n      swap2\n      pop\n        /* \"#utility.yul\":4202:4295   */\n      tag_139\n        /* \"#utility.yul\":4291:4294   */\n      dup3\n        /* \"#utility.yul\":4202:4295   */\n      tag_76\n      jump\t// in\n    tag_139:\n        /* \"#utility.yul\":4320:4322   */\n      0x20\n        /* \"#utility.yul\":4315:4318   */\n      dup3\n        /* \"#utility.yul\":4311:4323   */\n      add\n        /* \"#utility.yul\":4304:4323   */\n      swap1\n      pop\n        /* \"#utility.yul\":3963:4329   */\n      swap2\n      swap1\n      pop\n      jump\t// out\n        /* \"#utility.yul\":4335:4754   */\n    tag_32:\n        /* \"#utility.yul\":4501:4505   */\n      0x00\n        /* \"#utility.yul\":4539:4541   */\n      0x20\n        /* \"#utility.yul\":4528:4537   */\n      dup3\n        /* \"#utility.yul\":4524:4542   */\n      add\n        /* \"#utility.yul\":4516:4542   */\n      swap1\n      pop\n        /* \"#utility.yul\":4588:4597   */\n      dup2\n        /* \"#utility.yul\":4582:4586   */\n      dup2\n        /* \"#utility.yul\":4578:4598   */\n      sub\n        /* \"#utility.yul\":4574:4575   */\n      0x00\n        /* \"#utility.yul\":4563:4572   */\n      dup4\n        /* \"#utility.yul\":4559:4576   */\n      add\n        /* \"#utility.yul\":4552:4599   */\n      mstore\n        /* \"#utility.yul\":4616:4747   */\n      tag_141\n        /* \"#utility.yul\":4742:4746   */\n      dup2\n        /* \"#utility.yul\":4616:4747   */\n      tag_77\n      jump\t// in\n    tag_141:\n        /* \"#utility.yul\":4608:4747   */\n      swap1\n      pop\n        /* \"#utility.yul\":4335:4754   */\n      swap2\n      swap1\n      pop\n      jump\t// out\n        /* \"#utility.yul\":4760:4878   */\n    tag_78:\n        /* \"#utility.yul\":4847:4871   */\n      tag_143\n        /* \"#utility.yul\":4865:4870   */\n      dup2\n        /* \"#utility.yul\":4847:4871   */\n      tag_63\n      jump\t// in\n    tag_143:\n        /* \"#utility.yul\":4842:4845   */\n      dup3\n        /* \"#utility.yul\":4835:4872   */\n      mstore\n        /* \"#utility.yul\":4760:4878   */\n      pop\n      pop\n      jump\t// out\n        /* \"#utility.yul\":4884:5216   */\n    tag_34:\n        /* \"#utility.yul\":5005:5009   */\n      0x00\n        /* \"#utility.yul\":5043:5045   */\n      0x40\n        /* \"#utility.yul\":5032:5041   */\n      dup3\n        /* \"#utility.yul\":5028:5046   */\n      add\n        /* \"#utility.yul\":5020:5046   */\n      swap1\n      pop\n        /* \"#utility.yul\":5056:5127   */\n      tag_145\n        /* \"#utility.yul\":5124:5125   */\n      0x00\n        /* \"#utility.yul\":5113:5122   */\n      dup4\n        /* \"#utility.yul\":5109:5126   */\n      add\n        /* \"#utility.yul\":5100:5106   */\n      dup6\n        /* \"#utility.yul\":5056:5127   */\n      tag_78\n      jump\t// in\n    tag_145:\n        /* \"#utility.yul\":5137:5209   */\n      tag_146\n        /* \"#utility.yul\":5205:5207   */\n      0x20\n        /* \"#utility.yul\":5194:5203   */\n      dup4\n        /* \"#utility.yul\":5190:5208   */\n      add\n        /* \"#utility.yul\":5181:5187   */\n      dup5\n        /* \"#utility.yul\":5137:5209   */\n      tag_67\n      jump\t// in\n    tag_146:\n        /* \"#utility.yul\":4884:5216   */\n      swap4\n      swap3\n      pop\n      pop\n      pop\n      jump\t// out\n        /* \"#utility.yul\":5222:5312   */\n    tag_79:\n        /* \"#utility.yul\":5256:5263   */\n      0x00\n        /* \"#utility.yul\":5299:5304   */\n      dup2\n        /* \"#utility.yul\":5292:5305   */\n      iszero\n        /* \"#utility.yul\":5285:5306   */\n      iszero\n        /* \"#utility.yul\":5274:5306   */\n      swap1\n      pop\n        /* \"#utility.yul\":5222:5312   */\n      swap2\n      swap1\n      pop\n      jump\t// out\n        /* \"#utility.yul\":5318:5434   */\n    tag_80:\n        /* \"#utility.yul\":5388:5409   */\n      tag_149\n        /* \"#utility.yul\":5403:5408   */\n      dup2\n        /* \"#utility.yul\":5388:5409   */\n      tag_79\n      jump\t// in\n    tag_149:\n        /* \"#utility.yul\":5381:5386   */\n      dup2\n        /* \"#utility.yul\":5378:5410   */\n      eq\n        /* \"#utility.yul\":5368:5428   */\n      tag_150\n      jumpi\n        /* \"#utility.yul\":5424:5425   */\n      0x00\n        /* \"#utility.yul\":5421:5422   */\n      dup1\n        /* \"#utility.yul\":5414:5426   */\n      revert\n        /* \"#utility.yul\":5368:5428   */\n    tag_150:\n        /* \"#utility.yul\":5318:5434   */\n      pop\n      jump\t// out\n        /* \"#utility.yul\":5440:5577   */\n    tag_81:\n        /* \"#utility.yul\":5494:5499   */\n      0x00\n        /* \"#utility.yul\":5525:5531   */\n      dup2\n        /* \"#utility.yul\":5519:5532   */\n      mload\n        /* \"#utility.yul\":5510:5532   */\n      swap1\n      pop\n        /* \"#utility.yul\":5541:5571   */\n      tag_152\n        /* \"#utility.yul\":5565:5570   */\n      dup2\n        /* \"#utility.yul\":5541:5571   */\n      tag_80\n      jump\t// in\n    tag_152:\n        /* \"#utility.yul\":5440:5577   */\n      swap3\n      swap2\n      pop\n      pop\n      jump\t// out\n        /* \"#utility.yul\":5583:5928   */\n    tag_38:\n        /* \"#utility.yul\":5650:5656   */\n      0x00\n        /* \"#utility.yul\":5699:5701   */\n      0x20\n        /* \"#utility.yul\":5687:5696   */\n      dup3\n        /* \"#utility.yul\":5678:5685   */\n      dup5\n        /* \"#utility.yul\":5674:5697   */\n      sub\n        /* \"#utility.yul\":5670:5702   */\n      slt\n        /* \"#utility.yul\":5667:5786   */\n      iszero\n      tag_154\n      jumpi\n        /* \"#utility.yul\":5705:5784   */\n      tag_155\n      tag_60\n      jump\t// in\n    tag_155:\n        /* \"#utility.yul\":5667:5786   */\n    tag_154:\n        /* \"#utility.yul\":5825:5826   */\n      0x00\n        /* \"#utility.yul\":5850:5911   */\n      tag_156\n        /* \"#utility.yul\":5903:5910   */\n      dup5\n        /* \"#utility.yul\":5894:5900   */\n      dup3\n        /* \"#utility.yul\":5883:5892   */\n      dup6\n        /* \"#utility.yul\":5879:5901   */\n      add\n        /* \"#utility.yul\":5850:5911   */\n      tag_81\n      jump\t// in\n    tag_156:\n        /* \"#utility.yul\":5840:5911   */\n      swap2\n      pop\n        /* \"#utility.yul\":5796:5921   */\n      pop\n        /* \"#utility.yul\":5583:5928   */\n      swap3\n      swap2\n      pop\n      pop\n      jump\t// out\n        /* \"#utility.yul\":5934:6105   */\n    tag_82:\n        /* \"#utility.yul\":6074:6097   */\n      0x546f6b656e207472616e73666572206661696c65640000000000000000000000\n        /* \"#utility.yul\":6070:6071   */\n      0x00\n        /* \"#utility.yul\":6062:6068   */\n      dup3\n        /* \"#utility.yul\":6058:6072   */\n      add\n        /* \"#utility.yul\":6051:6098   */\n      mstore\n        /* \"#utility.yul\":5934:6105   */\n      pop\n      jump\t// out\n        /* \"#utility.yul\":6111:6477   */\n    tag_83:\n        /* \"#utility.yul\":6253:6256   */\n      0x00\n        /* \"#utility.yul\":6274:6341   */\n      tag_159\n        /* \"#utility.yul\":6338:6340   */\n      0x15\n        /* \"#utility.yul\":6333:6336   */\n      dup4\n        /* \"#utility.yul\":6274:6341   */\n      tag_75\n      jump\t// in\n    tag_159:\n        /* \"#utility.yul\":6267:6341   */\n      swap2\n      pop\n        /* \"#utility.yul\":6350:6443   */\n      tag_160\n        /* \"#utility.yul\":6439:6442   */\n      dup3\n        /* \"#utility.yul\":6350:6443   */\n      tag_82\n      jump\t// in\n    tag_160:\n        /* \"#utility.yul\":6468:6470   */\n      0x20\n        /* \"#utility.yul\":6463:6466   */\n      dup3\n        /* \"#utility.yul\":6459:6471   */\n      add\n        /* \"#utility.yul\":6452:6471   */\n      swap1\n      pop\n        /* \"#utility.yul\":6111:6477   */\n      swap2\n      swap1\n      pop\n      jump\t// out\n        /* \"#utility.yul\":6483:6902   */\n    tag_41:\n        /* \"#utility.yul\":6649:6653   */\n      0x00\n        /* \"#utility.yul\":6687:6689   */\n      0x20\n        /* \"#utility.yul\":6676:6685   */\n      dup3\n        /* \"#utility.yul\":6672:6690   */\n      add\n        /* \"#utility.yul\":6664:6690   */\n      swap1\n      pop\n        /* \"#utility.yul\":6736:6745   */\n      dup2\n        /* \"#utility.yul\":6730:6734   */\n      dup2\n        /* \"#utility.yul\":6726:6746   */\n      sub\n        /* \"#utility.yul\":6722:6723   */\n      0x00\n        /* \"#utility.yul\":6711:6720   */\n      dup4\n        /* \"#utility.yul\":6707:6724   */\n      add\n        /* \"#utility.yul\":6700:6747   */\n      mstore\n        /* \"#utility.yul\":6764:6895   */\n      tag_162\n        /* \"#utility.yul\":6890:6894   */\n      dup2\n        /* \"#utility.yul\":6764:6895   */\n      tag_83\n      jump\t// in\n    tag_162:\n        /* \"#utility.yul\":6756:6895   */\n      swap1\n      pop\n        /* \"#utility.yul\":6483:6902   */\n      swap2\n      swap1\n      pop\n      jump\t// out\n        /* \"#utility.yul\":6908:7088   */\n    tag_84:\n        /* \"#utility.yul\":6956:7033   */\n      0x4e487b7100000000000000000000000000000000000000000000000000000000\n        /* \"#utility.yul\":6953:6954   */\n      0x00\n        /* \"#utility.yul\":6946:7034   */\n      mstore\n        /* \"#utility.yul\":7053:7057   */\n      0x11\n        /* \"#utility.yul\":7050:7051   */\n      0x04\n        /* \"#utility.yul\":7043:7058   */\n      mstore\n        /* \"#utility.yul\":7077:7081   */\n      0x24\n        /* \"#utility.yul\":7074:7075   */\n      0x00\n        /* \"#utility.yul\":7067:7082   */\n      revert\n        /* \"#utility.yul\":7094:7288   */\n    tag_43:\n        /* \"#utility.yul\":7134:7138   */\n      0x00\n        /* \"#utility.yul\":7154:7174   */\n      tag_165\n        /* \"#utility.yul\":7172:7173   */\n      dup3\n        /* \"#utility.yul\":7154:7174   */\n      tag_66\n      jump\t// in\n    tag_165:\n        /* \"#utility.yul\":7149:7174   */\n      swap2\n      pop\n        /* \"#utility.yul\":7188:7208   */\n      tag_166\n        /* \"#utility.yul\":7206:7207   */\n      dup4\n        /* \"#utility.yul\":7188:7208   */\n      tag_66\n      jump\t// in\n    tag_166:\n        /* \"#utility.yul\":7183:7208   */\n      swap3\n      pop\n        /* \"#utility.yul\":7232:7233   */\n      dup3\n        /* \"#utility.yul\":7229:7230   */\n      dup3\n        /* \"#utility.yul\":7225:7234   */\n      sub\n        /* \"#utility.yul\":7217:7234   */\n      swap1\n      pop\n        /* \"#utility.yul\":7256:7257   */\n      dup2\n        /* \"#utility.yul\":7250:7254   */\n      dup2\n        /* \"#utility.yul\":7247:7258   */\n      gt\n        /* \"#utility.yul\":7244:7281   */\n      iszero\n      tag_167\n      jumpi\n        /* \"#utility.yul\":7261:7279   */\n      tag_168\n      tag_84\n      jump\t// in\n    tag_168:\n        /* \"#utility.yul\":7244:7281   */\n    tag_167:\n        /* \"#utility.yul\":7094:7288   */\n      swap3\n      swap2\n      pop\n      pop\n      jump\t// out\n        /* \"#utility.yul\":7294:7476   */\n    tag_85:\n        /* \"#utility.yul\":7434:7468   */\n      0x416d6f756e74206d7573742062652067726561746572207468616e207a65726f\n        /* \"#utility.yul\":7430:7431   */\n      0x00\n        /* \"#utility.yul\":7422:7428   */\n      dup3\n        /* \"#utility.yul\":7418:7432   */\n      add\n        /* \"#utility.yul\":7411:7469   */\n      mstore\n        /* \"#utility.yul\":7294:7476   */\n      pop\n      jump\t// out\n        /* \"#utility.yul\":7482:7848   */\n    tag_86:\n        /* \"#utility.yul\":7624:7627   */\n      0x00\n        /* \"#utility.yul\":7645:7712   */\n      tag_171\n        /* \"#utility.yul\":7709:7711   */\n      0x20\n        /* \"#utility.yul\":7704:7707   */\n      dup4\n        /* \"#utility.yul\":7645:7712   */\n      tag_75\n      jump\t// in\n    tag_171:\n        /* \"#utility.yul\":7638:7712   */\n      swap2\n      pop\n        /* \"#utility.yul\":7721:7814   */\n      tag_172\n        /* \"#utility.yul\":7810:7813   */\n      dup3\n        /* \"#utility.yul\":7721:7814   */\n      tag_85\n      jump\t// in\n    tag_172:\n        /* \"#utility.yul\":7839:7841   */\n      0x20\n        /* \"#utility.yul\":7834:7837   */\n      dup3\n        /* \"#utility.yul\":7830:7842   */\n      add\n        /* \"#utility.yul\":7823:7842   */\n      swap1\n      pop\n        /* \"#utility.yul\":7482:7848   */\n      swap2\n      swap1\n      pop\n      jump\t// out\n        /* \"#utility.yul\":7854:8273   */\n    tag_47:\n        /* \"#utility.yul\":8020:8024   */\n      0x00\n        /* \"#utility.yul\":8058:8060   */\n      0x20\n        /* \"#utility.yul\":8047:8056   */\n      dup3\n        /* \"#utility.yul\":8043:8061   */\n      add\n        /* \"#utility.yul\":8035:8061   */\n      swap1\n      pop\n        /* \"#utility.yul\":8107:8116   */\n      dup2\n        /* \"#utility.yul\":8101:8105   */\n      dup2\n        /* \"#utility.yul\":8097:8117   */\n      sub\n        /* \"#utility.yul\":8093:8094   */\n      0x00\n        /* \"#utility.yul\":8082:8091   */\n      dup4\n        /* \"#utility.yul\":8078:8095   */\n      add\n        /* \"#utility.yul\":8071:8118   */\n      mstore\n        /* \"#utility.yul\":8135:8266   */\n      tag_174\n        /* \"#utility.yul\":8261:8265   */\n      dup2\n        /* \"#utility.yul\":8135:8266   */\n      tag_86\n      jump\t// in\n    tag_174:\n        /* \"#utility.yul\":8127:8266   */\n      swap1\n      pop\n        /* \"#utility.yul\":7854:8273   */\n      swap2\n      swap1\n      pop\n      jump\t// out\n        /* \"#utility.yul\":8279:8721   */\n    tag_49:\n        /* \"#utility.yul\":8428:8432   */\n      0x00\n        /* \"#utility.yul\":8466:8468   */\n      0x60\n        /* \"#utility.yul\":8455:8464   */\n      dup3\n        /* \"#utility.yul\":8451:8469   */\n      add\n        /* \"#utility.yul\":8443:8469   */\n      swap1\n      pop\n        /* \"#utility.yul\":8479:8550   */\n      tag_176\n        /* \"#utility.yul\":8547:8548   */\n      0x00\n        /* \"#utility.yul\":8536:8545   */\n      dup4\n        /* \"#utility.yul\":8532:8549   */\n      add\n        /* \"#utility.yul\":8523:8529   */\n      dup7\n        /* \"#utility.yul\":8479:8550   */\n      tag_78\n      jump\t// in\n    tag_176:\n        /* \"#utility.yul\":8560:8632   */\n      tag_177\n        /* \"#utility.yul\":8628:8630   */\n      0x20\n        /* \"#utility.yul\":8617:8626   */\n      dup4\n        /* \"#utility.yul\":8613:8631   */\n      add\n        /* \"#utility.yul\":8604:8610   */\n      dup6\n        /* \"#utility.yul\":8560:8632   */\n      tag_78\n      jump\t// in\n    tag_177:\n        /* \"#utility.yul\":8642:8714   */\n      tag_178\n        /* \"#utility.yul\":8710:8712   */\n      0x40\n        /* \"#utility.yul\":8699:8708   */\n      dup4\n        /* \"#utility.yul\":8695:8713   */\n      add\n        /* \"#utility.yul\":8686:8692   */\n      dup5\n        /* \"#utility.yul\":8642:8714   */\n      tag_67\n      jump\t// in\n    tag_178:\n        /* \"#utility.yul\":8279:8721   */\n      swap5\n      swap4\n      pop\n      pop\n      pop\n      pop\n      jump\t// out\n        /* \"#utility.yul\":8727:8918   */\n    tag_56:\n        /* \"#utility.yul\":8767:8770   */\n      0x00\n        /* \"#utility.yul\":8786:8806   */\n      tag_180\n        /* \"#utility.yul\":8804:8805   */\n      dup3\n        /* \"#utility.yul\":8786:8806   */\n      tag_66\n      jump\t// in\n    tag_180:\n        /* \"#utility.yul\":8781:8806   */\n      swap2\n      pop\n        /* \"#utility.yul\":8820:8840   */\n      tag_181\n        /* \"#utility.yul\":8838:8839   */\n      dup4\n        /* \"#utility.yul\":8820:8840   */\n      tag_66\n      jump\t// in\n    tag_181:\n        /* \"#utility.yul\":8815:8840   */\n      swap3\n      pop\n        /* \"#utility.yul\":8863:8864   */\n      dup3\n        /* \"#utility.yul\":8860:8861   */\n      dup3\n        /* \"#utility.yul\":8856:8865   */\n      add\n        /* \"#utility.yul\":8849:8865   */\n      swap1\n      pop\n        /* \"#utility.yul\":8884:8887   */\n      dup1\n        /* \"#utility.yul\":8881:8882   */\n      dup3\n        /* \"#utility.yul\":8878:8888   */\n      gt\n        /* \"#utility.yul\":8875:8911   */\n      iszero\n      tag_182\n      jumpi\n        /* \"#utility.yul\":8891:8909   */\n      tag_183\n      tag_84\n      jump\t// in\n    tag_183:\n        /* \"#utility.yul\":8875:8911   */\n    tag_182:\n        /* \"#utility.yul\":8727:8918   */\n      swap3\n      swap2\n      pop\n      pop\n      jump\t// out\n\n    auxdata: 0xa2646970667358221220102cde4d2ee885de3cc32e28ee7c8b669adebbca7b31b326845dafc373a9aa4b64736f6c634300081a0033\n}\n",
				"bytecode": {
					"linkReferences": {},
					"object": "608060405234801561000f575f80fd5b50604051610a74380380610a74833981810160405281019061003191906100e7565b80805f806101000a81548173ffffffffffffffffffffffffffffffffffffffff021916908373ffffffffffffffffffffffffffffffffffffffff1602179055505050610112565b5f80fd5b5f73ffffffffffffffffffffffffffffffffffffffff82169050919050565b5f6100a58261007c565b9050919050565b5f6100b68261009b565b9050919050565b6100c6816100ac565b81146100d0575f80fd5b50565b5f815190506100e1816100bd565b92915050565b5f602082840312156100fc576100fb610078565b5b5f610109848285016100d3565b91505092915050565b6109558061011f5f395ff3fe608060405234801561000f575f80fd5b5060043610610055575f3560e01c806327e235e3146100595780632e1a7d4d14610089578063b6b55f25146100a5578063cae15051146100c1578063fc0c546a146100dd575b5f80fd5b610073600480360381019061006e9190610516565b6100fb565b6040516100809190610559565b60405180910390f35b6100a3600480360381019061009e919061059c565b610110565b005b6100bf60048036038101906100ba919061059c565b6102c5565b005b6100db60048036038101906100d691906105c7565b61043e565b005b6100e5610495565b6040516100f29190610660565b60405180910390f35b6001602052805f5260405f205f915090505481565b60015f3373ffffffffffffffffffffffffffffffffffffffff1673ffffffffffffffffffffffffffffffffffffffff1681526020019081526020015f2054811115610190576040517f08c379a0000000000000000000000000000000000000000000000000000000008152600401610187906106d3565b60405180910390fd5b5f805f9054906101000a900473ffffffffffffffffffffffffffffffffffffffff1673ffffffffffffffffffffffffffffffffffffffff1663a9059cbb33846040518363ffffffff1660e01b81526004016101ec929190610700565b6020604051808303815f875af1158015610208573d5f803e3d5ffd5b505050506040513d601f19601f8201168201806040525081019061022c919061075c565b90508061026e576040517f08c379a0000000000000000000000000000000000000000000000000000000008152600401610265906107d1565b60405180910390fd5b8160015f3373ffffffffffffffffffffffffffffffffffffffff1673ffffffffffffffffffffffffffffffffffffffff1681526020019081526020015f205f8282546102ba919061081c565b925050819055505050565b5f8111610307576040517f08c379a00000000000000000000000000000000000000000000000000000000081526004016102fe90610899565b60405180910390fd5b5f805f9054906101000a900473ffffffffffffffffffffffffffffffffffffffff1673ffffffffffffffffffffffffffffffffffffffff166323b872dd3330856040518463ffffffff1660e01b8152600401610365939291906108b7565b6020604051808303815f875af1158015610381573d5f803e3d5ffd5b505050506040513d601f19601f820116820180604052508101906103a5919061075c565b9050806103e7576040517f08c379a00000000000000000000000000000000000000000000000000000000081526004016103de906107d1565b60405180910390fd5b8160015f3373ffffffffffffffffffffffffffffffffffffffff1673ffffffffffffffffffffffffffffffffffffffff1681526020019081526020015f205f82825461043391906108ec565b925050819055505050565b8060015f8473ffffffffffffffffffffffffffffffffffffffff1673ffffffffffffffffffffffffffffffffffffffff1681526020019081526020015f205f82825461048a91906108ec565b925050819055505050565b5f8054906101000a900473ffffffffffffffffffffffffffffffffffffffff1681565b5f80fd5b5f73ffffffffffffffffffffffffffffffffffffffff82169050919050565b5f6104e5826104bc565b9050919050565b6104f5816104db565b81146104ff575f80fd5b50565b5f81359050610510816104ec565b92915050565b5f6020828403121561052b5761052a6104b8565b5b5f61053884828501610502565b91505092915050565b5f819050919050565b61055381610541565b82525050565b5f60208201905061056c5f83018461054a565b92915050565b61057b81610541565b8114610585575f80fd5b50565b5f8135905061059681610572565b92915050565b5f602082840312156105b1576105b06104b8565b5b5f6105be84828501610588565b91505092915050565b5f80604083850312156105dd576105dc6104b8565b5b5f6105ea85828601610502565b92505060206105fb85828601610588565b9150509250929050565b5f819050919050565b5f61062861062361061e846104bc565b610605565b6104bc565b9050919050565b5f6106398261060e565b9050919050565b5f61064a8261062f565b9050919050565b61065a81610640565b82525050565b5f6020820190506106735f830184610651565b92915050565b5f82825260208201905092915050565b7f496e73756666696369656e742062616c616e63650000000000000000000000005f82015250565b5f6106bd601483610679565b91506106c882610689565b602082019050919050565b5f6020820190508181035f8301526106ea816106b1565b9050919050565b6106fa816104db565b82525050565b5f6040820190506107135f8301856106f1565b610720602083018461054a565b9392505050565b5f8115159050919050565b61073b81610727565b8114610745575f80fd5b50565b5f8151905061075681610732565b92915050565b5f60208284031215610771576107706104b8565b5b5f61077e84828501610748565b91505092915050565b7f546f6b656e207472616e73666572206661696c656400000000000000000000005f82015250565b5f6107bb601583610679565b91506107c682610787565b602082019050919050565b5f6020820190508181035f8301526107e8816107af565b9050919050565b7f4e487b71000000000000000000000000000000000000000000000000000000005f52601160045260245ffd5b5f61082682610541565b915061083183610541565b9250828203905081811115610849576108486107ef565b5b92915050565b7f416d6f756e74206d7573742062652067726561746572207468616e207a65726f5f82015250565b5f610883602083610679565b915061088e8261084f565b602082019050919050565b5f6020820190508181035f8301526108b081610877565b9050919050565b5f6060820190506108ca5f8301866106f1565b6108d760208301856106f1565b6108e4604083018461054a565b949350505050565b5f6108f682610541565b915061090183610541565b9250828201905080821115610919576109186107ef565b5b9291505056fea2646970667358221220102cde4d2ee885de3cc32e28ee7c8b669adebbca7b31b326845dafc373a9aa4b64736f6c634300081a0033",
					"opcodes": "PUSH1 0x80 PUSH1 0x40 MSTORE CALLVALUE DUP1 ISZERO PUSH2 0xF JUMPI PUSH0 DUP1 REVERT JUMPDEST POP PUSH1 0x40 MLOAD PUSH2 0xA74 CODESIZE SUB DUP1 PUSH2 0xA74 DUP4 CODECOPY DUP2 DUP2 ADD PUSH1 0x40 MSTORE DUP2 ADD SWAP1 PUSH2 0x31 SWAP2 SWAP1 PUSH2 0xE7 JUMP JUMPDEST DUP1 DUP1 PUSH0 DUP1 PUSH2 0x100 EXP DUP2 SLOAD DUP2 PUSH20 0xFFFFFFFFFFFFFFFFFFFFFFFFFFFFFFFFFFFFFFFF MUL NOT AND SWAP1 DUP4 PUSH20 0xFFFFFFFFFFFFFFFFFFFFFFFFFFFFFFFFFFFFFFFF AND MUL OR SWAP1 SSTORE POP POP POP PUSH2 0x112 JUMP JUMPDEST PUSH0 DUP1 REVERT JUMPDEST PUSH0 PUSH20 0xFFFFFFFFFFFFFFFFFFFFFFFFFFFFFFFFFFFFFFFF DUP3 AND SWAP1 POP SWAP2 SWAP1 POP JUMP JUMPDEST PUSH0 PUSH2 0xA5 DUP3 PUSH2 0x7C JUMP JUMPDEST SWAP1 POP SWAP2 SWAP1 POP JUMP JUMPDEST PUSH0 PUSH2 0xB6 DUP3 PUSH2 0x9B JUMP JUMPDEST SWAP1 POP SWAP2 SWAP1 POP JUMP JUMPDEST PUSH2 0xC6 DUP2 PUSH2 0xAC JUMP JUMPDEST DUP2 EQ PUSH2 0xD0 JUMPI PUSH0 DUP1 REVERT JUMPDEST POP JUMP JUMPDEST PUSH0 DUP2 MLOAD SWAP1 POP PUSH2 0xE1 DUP2 PUSH2 0xBD JUMP JUMPDEST SWAP3 SWAP2 POP POP JUMP JUMPDEST PUSH0 PUSH1 0x20 DUP3 DUP5 SUB SLT ISZERO PUSH2 0xFC JUMPI PUSH2 0xFB PUSH2 0x78 JUMP JUMPDEST JUMPDEST PUSH0 PUSH2 0x109 DUP5 DUP3 DUP6 ADD PUSH2 0xD3 JUMP JUMPDEST SWAP2 POP POP SWAP3 SWAP2 POP POP JUMP JUMPDEST PUSH2 0x955 DUP1 PUSH2 0x11F PUSH0 CODECOPY PUSH0 RETURN INVALID PUSH1 0x80 PUSH1 0x40 MSTORE CALLVALUE DUP1 ISZERO PUSH2 0xF JUMPI PUSH0 DUP1 REVERT JUMPDEST POP PUSH1 0x4 CALLDATASIZE LT PUSH2 0x55 JUMPI PUSH0 CALLDATALOAD PUSH1 0xE0 SHR DUP1 PUSH4 0x27E235E3 EQ PUSH2 0x59 JUMPI DUP1 PUSH4 0x2E1A7D4D EQ PUSH2 0x89 JUMPI DUP1 PUSH4 0xB6B55F25 EQ PUSH2 0xA5 JUMPI DUP1 PUSH4 0xCAE15051 EQ PUSH2 0xC1 JUMPI DUP1 PUSH4 0xFC0C546A EQ PUSH2 0xDD JUMPI JUMPDEST PUSH0 DUP1 REVERT JUMPDEST PUSH2 0x73 PUSH1 0x4 DUP1 CALLDATASIZE SUB DUP2 ADD SWAP1 PUSH2 0x6E SWAP2 SWAP1 PUSH2 0x516 JUMP JUMPDEST PUSH2 0xFB JUMP JUMPDEST PUSH1 0x40 MLOAD PUSH2 0x80 SWAP2 SWAP1 PUSH2 0x559 JUMP JUMPDEST PUSH1 0x40 MLOAD DUP1 SWAP2 SUB SWAP1 RETURN JUMPDEST PUSH2 0xA3 PUSH1 0x4 DUP1 CALLDATASIZE SUB DUP2 ADD SWAP1 PUSH2 0x9E SWAP2 SWAP1 PUSH2 0x59C JUMP JUMPDEST PUSH2 0x110 JUMP JUMPDEST STOP JUMPDEST PUSH2 0xBF PUSH1 0x4 DUP1 CALLDATASIZE SUB DUP2 ADD SWAP1 PUSH2 0xBA SWAP2 SWAP1 PUSH2 0x59C JUMP JUMPDEST PUSH2 0x2C5 JUMP JUMPDEST STOP JUMPDEST PUSH2 0xDB PUSH1 0x4 DUP1 CALLDATASIZE SUB DUP2 ADD SWAP1 PUSH2 0xD6 SWAP2 SWAP1 PUSH2 0x5C7 JUMP JUMPDEST PUSH2 0x43E JUMP JUMPDEST STOP JUMPDEST PUSH2 0xE5 PUSH2 0x495 JUMP JUMPDEST PUSH1 0x40 MLOAD PUSH2 0xF2 SWAP2 SWAP1 PUSH2 0x660 JUMP JUMPDEST PUSH1 0x40 MLOAD DUP1 SWAP2 SUB SWAP1 RETURN JUMPDEST PUSH1 0x1 PUSH1 0x20 MSTORE DUP1 PUSH0 MSTORE PUSH1 0x40 PUSH0 KECCAK256 PUSH0 SWAP2 POP SWAP1 POP SLOAD DUP2 JUMP JUMPDEST PUSH1 0x1 PUSH0 CALLER PUSH20 0xFFFFFFFFFFFFFFFFFFFFFFFFFFFFFFFFFFFFFFFF AND PUSH20 0xFFFFFFFFFFFFFFFFFFFFFFFFFFFFFFFFFFFFFFFF AND DUP2 MSTORE PUSH1 0x20 ADD SWAP1 DUP2 MSTORE PUSH1 0x20 ADD PUSH0 KECCAK256 SLOAD DUP2 GT ISZERO PUSH2 0x190 JUMPI PUSH1 0x40 MLOAD PUSH32 0x8C379A000000000000000000000000000000000000000000000000000000000 DUP2 MSTORE PUSH1 0x4 ADD PUSH2 0x187 SWAP1 PUSH2 0x6D3 JUMP JUMPDEST PUSH1 0x40 MLOAD DUP1 SWAP2 SUB SWAP1 REVERT JUMPDEST PUSH0 DUP1 PUSH0 SWAP1 SLOAD SWAP1 PUSH2 0x100 EXP SWAP1 DIV PUSH20 0xFFFFFFFFFFFFFFFFFFFFFFFFFFFFFFFFFFFFFFFF AND PUSH20 0xFFFFFFFFFFFFFFFFFFFFFFFFFFFFFFFFFFFFFFFF AND PUSH4 0xA9059CBB CALLER DUP5 PUSH1 0x40 MLOAD DUP4 PUSH4 0xFFFFFFFF AND PUSH1 0xE0 SHL DUP2 MSTORE PUSH1 0x4 ADD PUSH2 0x1EC SWAP3 SWAP2 SWAP1 PUSH2 0x700 JUMP JUMPDEST PUSH1 0x20 PUSH1 0x40 MLOAD DUP1 DUP4 SUB DUP2 PUSH0 DUP8 GAS CALL ISZERO DUP1 ISZERO PUSH2 0x208 JUMPI RETURNDATASIZE PUSH0 DUP1 RETURNDATACOPY RETURNDATASIZE PUSH0 REVERT JUMPDEST POP POP POP POP PUSH1 0x40 MLOAD RETURNDATASIZE PUSH1 0x1F NOT PUSH1 0x1F DUP3 ADD AND DUP3 ADD DUP1 PUSH1 0x40 MSTORE POP DUP2 ADD SWAP1 PUSH2 0x22C SWAP2 SWAP1 PUSH2 0x75C JUMP JUMPDEST SWAP1 POP DUP1 PUSH2 0x26E JUMPI PUSH1 0x40 MLOAD PUSH32 0x8C379A000000000000000000000000000000000000000000000000000000000 DUP2 MSTORE PUSH1 0x4 ADD PUSH2 0x265 SWAP1 PUSH2 0x7D1 JUMP JUMPDEST PUSH1 0x40 MLOAD DUP1 SWAP2 SUB SWAP1 REVERT JUMPDEST DUP2 PUSH1 0x1 PUSH0 CALLER PUSH20 0xFFFFFFFFFFFFFFFFFFFFFFFFFFFFFFFFFFFFFFFF AND PUSH20 0xFFFFFFFFFFFFFFFFFFFFFFFFFFFFFFFFFFFFFFFF AND DUP2 MSTORE PUSH1 0x20 ADD SWAP1 DUP2 MSTORE PUSH1 0x20 ADD PUSH0 KECCAK256 PUSH0 DUP3 DUP3 SLOAD PUSH2 0x2BA SWAP2 SWAP1 PUSH2 0x81C JUMP JUMPDEST SWAP3 POP POP DUP2 SWAP1 SSTORE POP POP POP JUMP JUMPDEST PUSH0 DUP2 GT PUSH2 0x307 JUMPI PUSH1 0x40 MLOAD PUSH32 0x8C379A000000000000000000000000000000000000000000000000000000000 DUP2 MSTORE PUSH1 0x4 ADD PUSH2 0x2FE SWAP1 PUSH2 0x899 JUMP JUMPDEST PUSH1 0x40 MLOAD DUP1 SWAP2 SUB SWAP1 REVERT JUMPDEST PUSH0 DUP1 PUSH0 SWAP1 SLOAD SWAP1 PUSH2 0x100 EXP SWAP1 DIV PUSH20 0xFFFFFFFFFFFFFFFFFFFFFFFFFFFFFFFFFFFFFFFF AND PUSH20 0xFFFFFFFFFFFFFFFFFFFFFFFFFFFFFFFFFFFFFFFF AND PUSH4 0x23B872DD CALLER ADDRESS DUP6 PUSH1 0x40 MLOAD DUP5 PUSH4 0xFFFFFFFF AND PUSH1 0xE0 SHL DUP2 MSTORE PUSH1 0x4 ADD PUSH2 0x365 SWAP4 SWAP3 SWAP2 SWAP1 PUSH2 0x8B7 JUMP JUMPDEST PUSH1 0x20 PUSH1 0x40 MLOAD DUP1 DUP4 SUB DUP2 PUSH0 DUP8 GAS CALL ISZERO DUP1 ISZERO PUSH2 0x381 JUMPI RETURNDATASIZE PUSH0 DUP1 RETURNDATACOPY RETURNDATASIZE PUSH0 REVERT JUMPDEST POP POP POP POP PUSH1 0x40 MLOAD RETURNDATASIZE PUSH1 0x1F NOT PUSH1 0x1F DUP3 ADD AND DUP3 ADD DUP1 PUSH1 0x40 MSTORE POP DUP2 ADD SWAP1 PUSH2 0x3A5 SWAP2 SWAP1 PUSH2 0x75C JUMP JUMPDEST SWAP1 POP DUP1 PUSH2 0x3E7 JUMPI PUSH1 0x40 MLOAD PUSH32 0x8C379A000000000000000000000000000000000000000000000000000000000 DUP2 MSTORE PUSH1 0x4 ADD PUSH2 0x3DE SWAP1 PUSH2 0x7D1 JUMP JUMPDEST PUSH1 0x40 MLOAD DUP1 SWAP2 SUB SWAP1 REVERT JUMPDEST DUP2 PUSH1 0x1 PUSH0 CALLER PUSH20 0xFFFFFFFFFFFFFFFFFFFFFFFFFFFFFFFFFFFFFFFF AND PUSH20 0xFFFFFFFFFFFFFFFFFFFFFFFFFFFFFFFFFFFFFFFF AND DUP2 MSTORE PUSH1 0x20 ADD SWAP1 DUP2 MSTORE PUSH1 0x20 ADD PUSH0 KECCAK256 PUSH0 DUP3 DUP3 SLOAD PUSH2 0x433 SWAP2 SWAP1 PUSH2 0x8EC JUMP JUMPDEST SWAP3 POP POP DUP2 SWAP1 SSTORE POP POP POP JUMP JUMPDEST DUP1 PUSH1 0x1 PUSH0 DUP5 PUSH20 0xFFFFFFFFFFFFFFFFFFFFFFFFFFFFFFFFFFFFFFFF AND PUSH20 0xFFFFFFFFFFFFFFFFFFFFFFFFFFFFFFFFFFFFFFFF AND DUP2 MSTORE PUSH1 0x20 ADD SWAP1 DUP2 MSTORE PUSH1 0x20 ADD PUSH0 KECCAK256 PUSH0 DUP3 DUP3 SLOAD PUSH2 0x48A SWAP2 SWAP1 PUSH2 0x8EC JUMP JUMPDEST SWAP3 POP POP DUP2 SWAP1 SSTORE POP POP POP JUMP JUMPDEST PUSH0 DUP1 SLOAD SWAP1 PUSH2 0x100 EXP SWAP1 DIV PUSH20 0xFFFFFFFFFFFFFFFFFFFFFFFFFFFFFFFFFFFFFFFF AND DUP2 JUMP JUMPDEST PUSH0 DUP1 REVERT JUMPDEST PUSH0 PUSH20 0xFFFFFFFFFFFFFFFFFFFFFFFFFFFFFFFFFFFFFFFF DUP3 AND SWAP1 POP SWAP2 SWAP1 POP JUMP JUMPDEST PUSH0 PUSH2 0x4E5 DUP3 PUSH2 0x4BC JUMP JUMPDEST SWAP1 POP SWAP2 SWAP1 POP JUMP JUMPDEST PUSH2 0x4F5 DUP2 PUSH2 0x4DB JUMP JUMPDEST DUP2 EQ PUSH2 0x4FF JUMPI PUSH0 DUP1 REVERT JUMPDEST POP JUMP JUMPDEST PUSH0 DUP2 CALLDATALOAD SWAP1 POP PUSH2 0x510 DUP2 PUSH2 0x4EC JUMP JUMPDEST SWAP3 SWAP2 POP POP JUMP JUMPDEST PUSH0 PUSH1 0x20 DUP3 DUP5 SUB SLT ISZERO PUSH2 0x52B JUMPI PUSH2 0x52A PUSH2 0x4B8 JUMP JUMPDEST JUMPDEST PUSH0 PUSH2 0x538 DUP5 DUP3 DUP6 ADD PUSH2 0x502 JUMP JUMPDEST SWAP2 POP POP SWAP3 SWAP2 POP POP JUMP JUMPDEST PUSH0 DUP2 SWAP1 POP SWAP2 SWAP1 POP JUMP JUMPDEST PUSH2 0x553 DUP2 PUSH2 0x541 JUMP JUMPDEST DUP3 MSTORE POP POP JUMP JUMPDEST PUSH0 PUSH1 0x20 DUP3 ADD SWAP1 POP PUSH2 0x56C PUSH0 DUP4 ADD DUP5 PUSH2 0x54A JUMP JUMPDEST SWAP3 SWAP2 POP POP JUMP JUMPDEST PUSH2 0x57B DUP2 PUSH2 0x541 JUMP JUMPDEST DUP2 EQ PUSH2 0x585 JUMPI PUSH0 DUP1 REVERT JUMPDEST POP JUMP JUMPDEST PUSH0 DUP2 CALLDATALOAD SWAP1 POP PUSH2 0x596 DUP2 PUSH2 0x572 JUMP JUMPDEST SWAP3 SWAP2 POP POP JUMP JUMPDEST PUSH0 PUSH1 0x20 DUP3 DUP5 SUB SLT ISZERO PUSH2 0x5B1 JUMPI PUSH2 0x5B0 PUSH2 0x4B8 JUMP JUMPDEST JUMPDEST PUSH0 PUSH2 0x5BE DUP5 DUP3 DUP6 ADD PUSH2 0x588 JUMP JUMPDEST SWAP2 POP POP SWAP3 SWAP2 POP POP JUMP JUMPDEST PUSH0 DUP1 PUSH1 0x40 DUP4 DUP6 SUB SLT ISZERO PUSH2 0x5DD JUMPI PUSH2 0x5DC PUSH2 0x4B8 JUMP JUMPDEST JUMPDEST PUSH0 PUSH2 0x5EA DUP6 DUP3 DUP7 ADD PUSH2 0x502 JUMP JUMPDEST SWAP3 POP POP PUSH1 0x20 PUSH2 0x5FB DUP6 DUP3 DUP7 ADD PUSH2 0x588 JUMP JUMPDEST SWAP2 POP POP SWAP3 POP SWAP3 SWAP1 POP JUMP JUMPDEST PUSH0 DUP2 SWAP1 POP SWAP2 SWAP1 POP JUMP JUMPDEST PUSH0 PUSH2 0x628 PUSH2 0x623 PUSH2 0x61E DUP5 PUSH2 0x4BC JUMP JUMPDEST PUSH2 0x605 JUMP JUMPDEST PUSH2 0x4BC JUMP JUMPDEST SWAP1 POP SWAP2 SWAP1 POP JUMP JUMPDEST PUSH0 PUSH2 0x639 DUP3 PUSH2 0x60E JUMP JUMPDEST SWAP1 POP SWAP2 SWAP1 POP JUMP JUMPDEST PUSH0 PUSH2 0x64A DUP3 PUSH2 0x62F JUMP JUMPDEST SWAP1 POP SWAP2 SWAP1 POP JUMP JUMPDEST PUSH2 0x65A DUP2 PUSH2 0x640 JUMP JUMPDEST DUP3 MSTORE POP POP JUMP JUMPDEST PUSH0 PUSH1 0x20 DUP3 ADD SWAP1 POP PUSH2 0x673 PUSH0 DUP4 ADD DUP5 PUSH2 0x651 JUMP JUMPDEST SWAP3 SWAP2 POP POP JUMP JUMPDEST PUSH0 DUP3 DUP3 MSTORE PUSH1 0x20 DUP3 ADD SWAP1 POP SWAP3 SWAP2 POP POP JUMP JUMPDEST PUSH32 0x496E73756666696369656E742062616C616E6365000000000000000000000000 PUSH0 DUP3 ADD MSTORE POP JUMP JUMPDEST PUSH0 PUSH2 0x6BD PUSH1 0x14 DUP4 PUSH2 0x679 JUMP JUMPDEST SWAP2 POP PUSH2 0x6C8 DUP3 PUSH2 0x689 JUMP JUMPDEST PUSH1 0x20 DUP3 ADD SWAP1 POP SWAP2 SWAP1 POP JUMP JUMPDEST PUSH0 PUSH1 0x20 DUP3 ADD SWAP1 POP DUP2 DUP2 SUB PUSH0 DUP4 ADD MSTORE PUSH2 0x6EA DUP2 PUSH2 0x6B1 JUMP JUMPDEST SWAP1 POP SWAP2 SWAP1 POP JUMP JUMPDEST PUSH2 0x6FA DUP2 PUSH2 0x4DB JUMP JUMPDEST DUP3 MSTORE POP POP JUMP JUMPDEST PUSH0 PUSH1 0x40 DUP3 ADD SWAP1 POP PUSH2 0x713 PUSH0 DUP4 ADD DUP6 PUSH2 0x6F1 JUMP JUMPDEST PUSH2 0x720 PUSH1 0x20 DUP4 ADD DUP5 PUSH2 0x54A JUMP JUMPDEST SWAP4 SWAP3 POP POP POP JUMP JUMPDEST PUSH0 DUP2 ISZERO ISZERO SWAP1 POP SWAP2 SWAP1 POP JUMP JUMPDEST PUSH2 0x73B DUP2 PUSH2 0x727 JUMP JUMPDEST DUP2 EQ PUSH2 0x745 JUMPI PUSH0 DUP1 REVERT JUMPDEST POP JUMP JUMPDEST PUSH0 DUP2 MLOAD SWAP1 POP PUSH2 0x756 DUP2 PUSH2 0x732 JUMP JUMPDEST SWAP3 SWAP2 POP POP JUMP JUMPDEST PUSH0 PUSH1 0x20 DUP3 DUP5 SUB SLT ISZERO PUSH2 0x771 JUMPI PUSH2 0x770 PUSH2 0x4B8 JUMP JUMPDEST JUMPDEST PUSH0 PUSH2 0x77E DUP5 DUP3 DUP6 ADD PUSH2 0x748 JUMP JUMPDEST SWAP2 POP POP SWAP3 SWAP2 POP POP JUMP JUMPDEST PUSH32 0x546F6B656E207472616E73666572206661696C65640000000000000000000000 PUSH0 DUP3 ADD MSTORE POP JUMP JUMPDEST PUSH0 PUSH2 0x7BB PUSH1 0x15 DUP4 PUSH2 0x679 JUMP JUMPDEST SWAP2 POP PUSH2 0x7C6 DUP3 PUSH2 0x787 JUMP JUMPDEST PUSH1 0x20 DUP3 ADD SWAP1 POP SWAP2 SWAP1 POP JUMP JUMPDEST PUSH0 PUSH1 0x20 DUP3 ADD SWAP1 POP DUP2 DUP2 SUB PUSH0 DUP4 ADD MSTORE PUSH2 0x7E8 DUP2 PUSH2 0x7AF JUMP JUMPDEST SWAP1 POP SWAP2 SWAP1 POP JUMP JUMPDEST PUSH32 0x4E487B7100000000000000000000000000000000000000000000000000000000 PUSH0 MSTORE PUSH1 0x11 PUSH1 0x4 MSTORE PUSH1 0x24 PUSH0 REVERT JUMPDEST PUSH0 PUSH2 0x826 DUP3 PUSH2 0x541 JUMP JUMPDEST SWAP2 POP PUSH2 0x831 DUP4 PUSH2 0x541 JUMP JUMPDEST SWAP3 POP DUP3 DUP3 SUB SWAP1 POP DUP2 DUP2 GT ISZERO PUSH2 0x849 JUMPI PUSH2 0x848 PUSH2 0x7EF JUMP JUMPDEST JUMPDEST SWAP3 SWAP2 POP POP JUMP JUMPDEST PUSH32 0x416D6F756E74206D7573742062652067726561746572207468616E207A65726F PUSH0 DUP3 ADD MSTORE POP JUMP JUMPDEST PUSH0 PUSH2 0x883 PUSH1 0x20 DUP4 PUSH2 0x679 JUMP JUMPDEST SWAP2 POP PUSH2 0x88E DUP3 PUSH2 0x84F JUMP JUMPDEST PUSH1 0x20 DUP3 ADD SWAP1 POP SWAP2 SWAP1 POP JUMP JUMPDEST PUSH0 PUSH1 0x20 DUP3 ADD SWAP1 POP DUP2 DUP2 SUB PUSH0 DUP4 ADD MSTORE PUSH2 0x8B0 DUP2 PUSH2 0x877 JUMP JUMPDEST SWAP1 POP SWAP2 SWAP1 POP JUMP JUMPDEST PUSH0 PUSH1 0x60 DUP3 ADD SWAP1 POP PUSH2 0x8CA PUSH0 DUP4 ADD DUP7 PUSH2 0x6F1 JUMP JUMPDEST PUSH2 0x8D7 PUSH1 0x20 DUP4 ADD DUP6 PUSH2 0x6F1 JUMP JUMPDEST PUSH2 0x8E4 PUSH1 0x40 DUP4 ADD DUP5 PUSH2 0x54A JUMP JUMPDEST SWAP5 SWAP4 POP POP POP POP JUMP JUMPDEST PUSH0 PUSH2 0x8F6 DUP3 PUSH2 0x541 JUMP JUMPDEST SWAP2 POP PUSH2 0x901 DUP4 PUSH2 0x541 JUMP JUMPDEST SWAP3 POP DUP3 DUP3 ADD SWAP1 POP DUP1 DUP3 GT ISZERO PUSH2 0x919 JUMPI PUSH2 0x918 PUSH2 0x7EF JUMP JUMPDEST JUMPDEST SWAP3 SWAP2 POP POP JUMP INVALID LOG2 PUSH5 0x6970667358 0x22 SLT KECCAK256 LT 0x2C 0xDE 0x4D 0x2E 0xE8 DUP6 0xDE EXTCODECOPY 0xC3 0x2E 0x28 0xEE PUSH29 0x8B669ADEBBCA7B31B326845DAFC373A9AA4B64736F6C634300081A0033 "
				},
				"gasEstimates": {
					"creation": {
						"codeDepositCost": "477800",
						"executionCost": "infinite",
						"totalCost": "infinite"
					},
					"external": {
						"balances(address)": "2780",
						"deposit(uint256)": "infinite",
						"token()": "infinite",
						"tokenReceived(address,uint256)": "infinite",
						"withdraw(uint256)": "infinite"
					}
				},
				"methodIdentifiers": {
					"balances(address)": "27e235e3",
					"deposit(uint256)": "b6b55f25",
					"token()": "fc0c546a",
					"tokenReceived(address,uint256)": "cae15051",
					"withdraw(uint256)": "2e1a7d4d"
				}
			},
			"storageLayout": {
				"storage": [
					{
						"astId": 263,
						"contract": "1014/HookERC20/TokenBankV2.sol:TokenBankV2",
						"label": "token",
						"offset": 0,
						"slot": "0",
						"type": "t_contract(IERC20)257"
					},
					{
						"astId": 267,
						"contract": "1014/HookERC20/TokenBankV2.sol:TokenBankV2",
						"label": "balances",
						"offset": 0,
						"slot": "1",
						"type": "t_mapping(t_address,t_uint256)"
					}
				],
				"types": {
					"t_address": {
						"encoding": "inplace",
						"label": "address",
						"numberOfBytes": "20"
					},
					"t_contract(IERC20)257": {
						"encoding": "inplace",
						"label": "contract IERC20",
						"numberOfBytes": "20"
					},
					"t_mapping(t_address,t_uint256)": {
						"encoding": "mapping",
						"key": "t_address",
						"label": "mapping(address => uint256)",
						"numberOfBytes": "32",
						"value": "t_uint256"
					},
					"t_uint256": {
						"encoding": "inplace",
						"label": "uint256",
						"numberOfBytes": "32"
					}
				}
			},
			"userdoc": {
				"kind": "user",
				"methods": {},
				"version": 1
			}
		}
	}
}