{
	"1014/HookERC20/ExtendERC20.sol": {
		"ERC20WithCallback": {
			"abi": [
				{
					"anonymous": false,
					"inputs": [
						{
							"indexed": true,
							"internalType": "address",
							"name": "owner",
							"type": "address"
						},
						{
							"indexed": true,
							"internalType": "address",
							"name": "spender",
							"type": "address"
						},
						{
							"indexed": false,
							"internalType": "uint256",
							"name": "value",
							"type": "uint256"
						}
					],
					"name": "Approval",
					"type": "event"
				},
				{
					"anonymous": false,
					"inputs": [
						{
							"indexed": true,
							"internalType": "address",
							"name": "from",
							"type": "address"
						},
						{
							"indexed": true,
							"internalType": "address",
							"name": "to",
							"type": "address"
						},
						{
							"indexed": false,
							"internalType": "uint256",
							"name": "value",
							"type": "uint256"
						}
					],
					"name": "Transfer",
					"type": "event"
				},
				{
					"inputs": [
						{
							"internalType": "address",
							"name": "_owner",
							"type": "address"
						},
						{
							"internalType": "address",
							"name": "_spender",
							"type": "address"
						}
					],
					"name": "allowance",
					"outputs": [
						{
							"internalType": "uint256",
							"name": "remaining",
							"type": "uint256"
						}
					],
					"stateMutability": "view",
					"type": "function"
				},
				{
					"inputs": [
						{
							"internalType": "address",
							"name": "",
							"type": "address"
						},
						{
							"internalType": "address",
							"name": "",
							"type": "address"
						}
					],
					"name": "allowances",
					"outputs": [
						{
							"internalType": "uint256",
							"name": "",
							"type": "uint256"
						}
					],
					"stateMutability": "view",
					"type": "function"
				},
				{
					"inputs": [
						{
							"internalType": "address",
							"name": "_spender",
							"type": "address"
						},
						{
							"internalType": "uint256",
							"name": "_value",
							"type": "uint256"
						}
					],
					"name": "approve",
					"outputs": [
						{
							"internalType": "bool",
							"name": "success",
							"type": "bool"
						}
					],
					"stateMutability": "nonpayable",
					"type": "function"
				},
				{
					"inputs": [
						{
							"internalType": "address",
							"name": "_owner",
							"type": "address"
						}
					],
					"name": "balanceOf",
					"outputs": [
						{
							"internalType": "uint256",
							"name": "balance",
							"type": "uint256"
						}
					],
					"stateMutability": "view",
					"type": "function"
				},
				{
					"inputs": [
						{
							"internalType": "address",
							"name": "",
							"type": "address"
						}
					],
					"name": "balances",
					"outputs": [
						{
							"internalType": "uint256",
							"name": "",
							"type": "uint256"
						}
					],
					"stateMutability": "view",
					"type": "function"
				},
				{
					"inputs": [],
					"name": "decimals",
					"outputs": [
						{
							"internalType": "uint8",
							"name": "",
							"type": "uint8"
						}
					],
					"stateMutability": "view",
					"type": "function"
				},
				{
					"inputs": [
						{
							"internalType": "address",
							"name": "account",
							"type": "address"
						}
					],
					"name": "isContract",
					"outputs": [
						{
							"internalType": "bool",
							"name": "",
							"type": "bool"
						}
					],
					"stateMutability": "view",
					"type": "function"
				},
				{
					"inputs": [],
					"name": "name",
					"outputs": [
						{
							"internalType": "string",
							"name": "",
							"type": "string"
						}
					],
					"stateMutability": "view",
					"type": "function"
				},
				{
					"inputs": [],
					"name": "symbol",
					"outputs": [
						{
							"internalType": "string",
							"name": "",
							"type": "string"
						}
					],
					"stateMutability": "view",
					"type": "function"
				},
				{
					"inputs": [],
					"name": "totalSupply",
					"outputs": [
						{
							"internalType": "uint256",
							"name": "",
							"type": "uint256"
						}
					],
					"stateMutability": "view",
					"type": "function"
				},
				{
					"inputs": [
						{
							"internalType": "address",
							"name": "_to",
							"type": "address"
						},
						{
							"internalType": "uint256",
							"name": "_value",
							"type": "uint256"
						}
					],
					"name": "transfer",
					"outputs": [
						{
							"internalType": "bool",
							"name": "success",
							"type": "bool"
						}
					],
					"stateMutability": "nonpayable",
					"type": "function"
				},
				{
					"inputs": [
						{
							"internalType": "address",
							"name": "_from",
							"type": "address"
						},
						{
							"internalType": "address",
							"name": "_to",
							"type": "address"
						},
						{
							"internalType": "uint256",
							"name": "_value",
							"type": "uint256"
						}
					],
					"name": "transferFrom",
					"outputs": [
						{
							"internalType": "bool",
							"name": "success",
							"type": "bool"
						}
					],
					"stateMutability": "nonpayable",
					"type": "function"
				},
				{
					"inputs": [
						{
							"internalType": "address",
							"name": "_to",
							"type": "address"
						},
						{
							"internalType": "uint256",
							"name": "_value",
							"type": "uint256"
						}
					],
					"name": "transferWithCallback",
					"outputs": [
						{
							"internalType": "bool",
							"name": "",
							"type": "bool"
						}
					],
					"stateMutability": "nonpayable",
					"type": "function"
				}
			],
			"devdoc": {
				"kind": "dev",
				"methods": {},
				"version": 1
			},
			"evm": {
				"assembly": "    /* \"1014/HookERC20/ExtendERC20.sol\":374:903  contract ERC20WithCallback is BaseERC20, IERC20WithCallback{... */\n  mstore(0x40, 0x80)\n  callvalue\n  dup1\n  iszero\n  tag_1\n  jumpi\n  0x00\n  dup1\n  revert\ntag_1:\n  pop\n    /* \"1013/BaseERC20.sol\":710:728  name = \"BaseERC20\" */\n  mload(0x40)\n  dup1\n  0x40\n  add\n  0x40\n  mstore\n  dup1\n  0x09\n  dup2\n  mstore\n  0x20\n  add\n  0x4261736545524332300000000000000000000000000000000000000000000000\n  dup2\n  mstore\n  pop\n    /* \"1013/BaseERC20.sol\":710:714  name */\n  0x00\n    /* \"1013/BaseERC20.sol\":710:728  name = \"BaseERC20\" */\n  swap1\n  dup2\n  tag_4\n  swap2\n  swap1\n  tag_5\n  jump\t// in\ntag_4:\n  pop\n    /* \"1013/BaseERC20.sol\":738:755  symbol = \"BERC20\" */\n  mload(0x40)\n  dup1\n  0x40\n  add\n  0x40\n  mstore\n  dup1\n  0x06\n  dup2\n  mstore\n  0x20\n  add\n  0x4245524332300000000000000000000000000000000000000000000000000000\n  dup2\n  mstore\n  pop\n    /* \"1013/BaseERC20.sol\":738:744  symbol */\n  0x01\n    /* \"1013/BaseERC20.sol\":738:755  symbol = \"BERC20\" */\n  swap1\n  dup2\n  tag_6\n  swap2\n  swap1\n  tag_5\n  jump\t// in\ntag_6:\n  pop\n    /* \"1013/BaseERC20.sol\":776:778  18 */\n  0x12\n    /* \"1013/BaseERC20.sol\":765:773  decimals */\n  0x02\n  0x00\n    /* \"1013/BaseERC20.sol\":765:778  decimals = 18 */\n  0x0100\n  exp\n  dup2\n  sload\n  dup2\n  0xff\n  mul\n  not\n  and\n  swap1\n  dup4\n  0xff\n  and\n  mul\n  or\n  swap1\n  sstore\n  pop\n    /* \"1013/BaseERC20.sol\":829:837  decimals */\n  0x02\n  0x00\n  swap1\n  sload\n  swap1\n  0x0100\n  exp\n  swap1\n  div\n  0xff\n  and\n    /* \"1013/BaseERC20.sol\":821:838  uint256(decimals) */\n  0xff\n  and\n    /* \"1013/BaseERC20.sol\":815:817  10 */\n  0x0a\n    /* \"1013/BaseERC20.sol\":815:838  10 ** uint256(decimals) */\n  tag_7\n  swap2\n  swap1\n  tag_8\n  jump\t// in\ntag_7:\n    /* \"1013/BaseERC20.sol\":802:811  100000000 */\n  0x05f5e100\n    /* \"1013/BaseERC20.sol\":802:839  100000000 * (10 ** uint256(decimals)) */\n  tag_9\n  swap2\n  swap1\n  tag_10\n  jump\t// in\ntag_9:\n    /* \"1013/BaseERC20.sol\":788:799  totalSupply */\n  0x03\n    /* \"1013/BaseERC20.sol\":788:839  totalSupply = 100000000 * (10 ** uint256(decimals)) */\n  dup2\n  swap1\n  sstore\n  pop\n    /* \"1013/BaseERC20.sol\":981:992  totalSupply */\n  sload(0x03)\n    /* \"1013/BaseERC20.sol\":958:966  balances */\n  0x04\n    /* \"1013/BaseERC20.sol\":958:978  balances[msg.sender] */\n  0x00\n    /* \"1013/BaseERC20.sol\":967:977  msg.sender */\n  caller\n    /* \"1013/BaseERC20.sol\":958:978  balances[msg.sender] */\n  0xffffffffffffffffffffffffffffffffffffffff\n  and\n  0xffffffffffffffffffffffffffffffffffffffff\n  and\n  dup2\n  mstore\n  0x20\n  add\n  swap1\n  dup2\n  mstore\n  0x20\n  add\n  0x00\n  keccak256\n    /* \"1013/BaseERC20.sol\":958:992  balances[msg.sender] = totalSupply */\n  dup2\n  swap1\n  sstore\n  pop\n    /* \"1014/HookERC20/ExtendERC20.sol\":374:903  contract ERC20WithCallback is BaseERC20, IERC20WithCallback{... */\n  jump(tag_11)\n    /* \"#utility.yul\":7:106   */\ntag_12:\n    /* \"#utility.yul\":59:65   */\n  0x00\n    /* \"#utility.yul\":93:98   */\n  dup2\n    /* \"#utility.yul\":87:99   */\n  mload\n    /* \"#utility.yul\":77:99   */\n  swap1\n  pop\n    /* \"#utility.yul\":7:106   */\n  swap2\n  swap1\n  pop\n  jump\t// out\n    /* \"#utility.yul\":112:292   */\ntag_13:\n    /* \"#utility.yul\":160:237   */\n  0x4e487b7100000000000000000000000000000000000000000000000000000000\n    /* \"#utility.yul\":157:158   */\n  0x00\n    /* \"#utility.yul\":150:238   */\n  mstore\n    /* \"#utility.yul\":257:261   */\n  0x41\n    /* \"#utility.yul\":254:255   */\n  0x04\n    /* \"#utility.yul\":247:262   */\n  mstore\n    /* \"#utility.yul\":281:285   */\n  0x24\n    /* \"#utility.yul\":278:279   */\n  0x00\n    /* \"#utility.yul\":271:286   */\n  revert\n    /* \"#utility.yul\":298:478   */\ntag_14:\n    /* \"#utility.yul\":346:423   */\n  0x4e487b7100000000000000000000000000000000000000000000000000000000\n    /* \"#utility.yul\":343:344   */\n  0x00\n    /* \"#utility.yul\":336:424   */\n  mstore\n    /* \"#utility.yul\":443:447   */\n  0x22\n    /* \"#utility.yul\":440:441   */\n  0x04\n    /* \"#utility.yul\":433:448   */\n  mstore\n    /* \"#utility.yul\":467:471   */\n  0x24\n    /* \"#utility.yul\":464:465   */\n  0x00\n    /* \"#utility.yul\":457:472   */\n  revert\n    /* \"#utility.yul\":484:804   */\ntag_15:\n    /* \"#utility.yul\":528:534   */\n  0x00\n    /* \"#utility.yul\":565:566   */\n  0x02\n    /* \"#utility.yul\":559:563   */\n  dup3\n    /* \"#utility.yul\":555:567   */\n  div\n    /* \"#utility.yul\":545:567   */\n  swap1\n  pop\n    /* \"#utility.yul\":612:613   */\n  0x01\n    /* \"#utility.yul\":606:610   */\n  dup3\n    /* \"#utility.yul\":602:614   */\n  and\n    /* \"#utility.yul\":633:651   */\n  dup1\n    /* \"#utility.yul\":623:704   */\n  tag_41\n  jumpi\n    /* \"#utility.yul\":689:693   */\n  0x7f\n    /* \"#utility.yul\":681:687   */\n  dup3\n    /* \"#utility.yul\":677:694   */\n  and\n    /* \"#utility.yul\":667:694   */\n  swap2\n  pop\n    /* \"#utility.yul\":623:704   */\ntag_41:\n    /* \"#utility.yul\":751:753   */\n  0x20\n    /* \"#utility.yul\":743:749   */\n  dup3\n    /* \"#utility.yul\":740:754   */\n  lt\n    /* \"#utility.yul\":720:738   */\n  dup2\n    /* \"#utility.yul\":717:755   */\n  sub\n    /* \"#utility.yul\":714:798   */\n  tag_42\n  jumpi\n    /* \"#utility.yul\":770:788   */\n  tag_43\n  tag_14\n  jump\t// in\ntag_43:\n    /* \"#utility.yul\":714:798   */\ntag_42:\n    /* \"#utility.yul\":535:804   */\n  pop\n    /* \"#utility.yul\":484:804   */\n  swap2\n  swap1\n  pop\n  jump\t// out\n    /* \"#utility.yul\":810:951   */\ntag_16:\n    /* \"#utility.yul\":859:863   */\n  0x00\n    /* \"#utility.yul\":882:885   */\n  dup2\n    /* \"#utility.yul\":874:885   */\n  swap1\n  pop\n    /* \"#utility.yul\":905:908   */\n  dup2\n    /* \"#utility.yul\":902:903   */\n  0x00\n    /* \"#utility.yul\":895:909   */\n  mstore\n    /* \"#utility.yul\":939:943   */\n  0x20\n    /* \"#utility.yul\":936:937   */\n  0x00\n    /* \"#utility.yul\":926:944   */\n  keccak256\n    /* \"#utility.yul\":918:944   */\n  swap1\n  pop\n    /* \"#utility.yul\":810:951   */\n  swap2\n  swap1\n  pop\n  jump\t// out\n    /* \"#utility.yul\":957:1050   */\ntag_17:\n    /* \"#utility.yul\":994:1000   */\n  0x00\n    /* \"#utility.yul\":1041:1043   */\n  0x20\n    /* \"#utility.yul\":1036:1038   */\n  0x1f\n    /* \"#utility.yul\":1029:1034   */\n  dup4\n    /* \"#utility.yul\":1025:1039   */\n  add\n    /* \"#utility.yul\":1021:1044   */\n  div\n    /* \"#utility.yul\":1011:1044   */\n  swap1\n  pop\n    /* \"#utility.yul\":957:1050   */\n  swap2\n  swap1\n  pop\n  jump\t// out\n    /* \"#utility.yul\":1056:1163   */\ntag_18:\n    /* \"#utility.yul\":1100:1108   */\n  0x00\n    /* \"#utility.yul\":1150:1155   */\n  dup3\n    /* \"#utility.yul\":1144:1148   */\n  dup3\n    /* \"#utility.yul\":1140:1156   */\n  shl\n    /* \"#utility.yul\":1119:1156   */\n  swap1\n  pop\n    /* \"#utility.yul\":1056:1163   */\n  swap3\n  swap2\n  pop\n  pop\n  jump\t// out\n    /* \"#utility.yul\":1169:1562   */\ntag_19:\n    /* \"#utility.yul\":1238:1244   */\n  0x00\n    /* \"#utility.yul\":1288:1289   */\n  0x08\n    /* \"#utility.yul\":1276:1286   */\n  dup4\n    /* \"#utility.yul\":1272:1290   */\n  mul\n    /* \"#utility.yul\":1311:1408   */\n  tag_48\n    /* \"#utility.yul\":1341:1407   */\n  0xffffffffffffffffffffffffffffffffffffffffffffffffffffffffffffffff\n    /* \"#utility.yul\":1330:1339   */\n  dup3\n    /* \"#utility.yul\":1311:1408   */\n  tag_18\n  jump\t// in\ntag_48:\n    /* \"#utility.yul\":1429:1468   */\n  tag_49\n    /* \"#utility.yul\":1459:1467   */\n  dup7\n    /* \"#utility.yul\":1448:1457   */\n  dup4\n    /* \"#utility.yul\":1429:1468   */\n  tag_18\n  jump\t// in\ntag_49:\n    /* \"#utility.yul\":1417:1468   */\n  swap6\n  pop\n    /* \"#utility.yul\":1501:1505   */\n  dup1\n    /* \"#utility.yul\":1497:1506   */\n  not\n    /* \"#utility.yul\":1490:1495   */\n  dup5\n    /* \"#utility.yul\":1486:1507   */\n  and\n    /* \"#utility.yul\":1477:1507   */\n  swap4\n  pop\n    /* \"#utility.yul\":1550:1554   */\n  dup1\n    /* \"#utility.yul\":1540:1548   */\n  dup7\n    /* \"#utility.yul\":1536:1555   */\n  and\n    /* \"#utility.yul\":1529:1534   */\n  dup5\n    /* \"#utility.yul\":1526:1556   */\n  or\n    /* \"#utility.yul\":1516:1556   */\n  swap3\n  pop\n    /* \"#utility.yul\":1245:1562   */\n  pop\n  pop\n    /* \"#utility.yul\":1169:1562   */\n  swap4\n  swap3\n  pop\n  pop\n  pop\n  jump\t// out\n    /* \"#utility.yul\":1568:1645   */\ntag_20:\n    /* \"#utility.yul\":1605:1612   */\n  0x00\n    /* \"#utility.yul\":1634:1639   */\n  dup2\n    /* \"#utility.yul\":1623:1639   */\n  swap1\n  pop\n    /* \"#utility.yul\":1568:1645   */\n  swap2\n  swap1\n  pop\n  jump\t// out\n    /* \"#utility.yul\":1651:1711   */\ntag_21:\n    /* \"#utility.yul\":1679:1682   */\n  0x00\n    /* \"#utility.yul\":1700:1705   */\n  dup2\n    /* \"#utility.yul\":1693:1705   */\n  swap1\n  pop\n    /* \"#utility.yul\":1651:1711   */\n  swap2\n  swap1\n  pop\n  jump\t// out\n    /* \"#utility.yul\":1717:1859   */\ntag_22:\n    /* \"#utility.yul\":1767:1776   */\n  0x00\n    /* \"#utility.yul\":1800:1853   */\n  tag_53\n    /* \"#utility.yul\":1818:1852   */\n  tag_54\n    /* \"#utility.yul\":1827:1851   */\n  tag_55\n    /* \"#utility.yul\":1845:1850   */\n  dup5\n    /* \"#utility.yul\":1827:1851   */\n  tag_20\n  jump\t// in\ntag_55:\n    /* \"#utility.yul\":1818:1852   */\n  tag_21\n  jump\t// in\ntag_54:\n    /* \"#utility.yul\":1800:1853   */\n  tag_20\n  jump\t// in\ntag_53:\n    /* \"#utility.yul\":1787:1853   */\n  swap1\n  pop\n    /* \"#utility.yul\":1717:1859   */\n  swap2\n  swap1\n  pop\n  jump\t// out\n    /* \"#utility.yul\":1865:1940   */\ntag_23:\n    /* \"#utility.yul\":1908:1911   */\n  0x00\n    /* \"#utility.yul\":1929:1934   */\n  dup2\n    /* \"#utility.yul\":1922:1934   */\n  swap1\n  pop\n    /* \"#utility.yul\":1865:1940   */\n  swap2\n  swap1\n  pop\n  jump\t// out\n    /* \"#utility.yul\":1946:2215   */\ntag_24:\n    /* \"#utility.yul\":2056:2095   */\n  tag_58\n    /* \"#utility.yul\":2087:2094   */\n  dup4\n    /* \"#utility.yul\":2056:2095   */\n  tag_22\n  jump\t// in\ntag_58:\n    /* \"#utility.yul\":2117:2208   */\n  tag_59\n    /* \"#utility.yul\":2166:2207   */\n  tag_60\n    /* \"#utility.yul\":2190:2206   */\n  dup3\n    /* \"#utility.yul\":2166:2207   */\n  tag_23\n  jump\t// in\ntag_60:\n    /* \"#utility.yul\":2158:2164   */\n  dup5\n    /* \"#utility.yul\":2151:2155   */\n  dup5\n    /* \"#utility.yul\":2145:2156   */\n  sload\n    /* \"#utility.yul\":2117:2208   */\n  tag_19\n  jump\t// in\ntag_59:\n    /* \"#utility.yul\":2111:2115   */\n  dup3\n    /* \"#utility.yul\":2104:2209   */\n  sstore\n    /* \"#utility.yul\":2022:2215   */\n  pop\n    /* \"#utility.yul\":1946:2215   */\n  pop\n  pop\n  pop\n  jump\t// out\n    /* \"#utility.yul\":2221:2294   */\ntag_25:\n    /* \"#utility.yul\":2266:2269   */\n  0x00\n    /* \"#utility.yul\":2221:2294   */\n  swap1\n  jump\t// out\n    /* \"#utility.yul\":2300:2489   */\ntag_26:\n    /* \"#utility.yul\":2377:2409   */\n  tag_63\n  tag_25\n  jump\t// in\ntag_63:\n    /* \"#utility.yul\":2418:2483   */\n  tag_64\n    /* \"#utility.yul\":2476:2482   */\n  dup2\n    /* \"#utility.yul\":2468:2474   */\n  dup5\n    /* \"#utility.yul\":2462:2466   */\n  dup5\n    /* \"#utility.yul\":2418:2483   */\n  tag_24\n  jump\t// in\ntag_64:\n    /* \"#utility.yul\":2353:2489   */\n  pop\n    /* \"#utility.yul\":2300:2489   */\n  pop\n  pop\n  jump\t// out\n    /* \"#utility.yul\":2495:2681   */\ntag_27:\n    /* \"#utility.yul\":2555:2675   */\ntag_66:\n    /* \"#utility.yul\":2572:2575   */\n  dup2\n    /* \"#utility.yul\":2565:2570   */\n  dup2\n    /* \"#utility.yul\":2562:2576   */\n  lt\n    /* \"#utility.yul\":2555:2675   */\n  iszero\n  tag_68\n  jumpi\n    /* \"#utility.yul\":2626:2665   */\n  tag_69\n    /* \"#utility.yul\":2663:2664   */\n  0x00\n    /* \"#utility.yul\":2656:2661   */\n  dup3\n    /* \"#utility.yul\":2626:2665   */\n  tag_26\n  jump\t// in\ntag_69:\n    /* \"#utility.yul\":2599:2600   */\n  0x01\n    /* \"#utility.yul\":2592:2597   */\n  dup2\n    /* \"#utility.yul\":2588:2601   */\n  add\n    /* \"#utility.yul\":2579:2601   */\n  swap1\n  pop\n    /* \"#utility.yul\":2555:2675   */\n  jump(tag_66)\ntag_68:\n    /* \"#utility.yul\":2495:2681   */\n  pop\n  pop\n  jump\t// out\n    /* \"#utility.yul\":2687:3230   */\ntag_28:\n    /* \"#utility.yul\":2788:2790   */\n  0x1f\n    /* \"#utility.yul\":2783:2786   */\n  dup3\n    /* \"#utility.yul\":2780:2791   */\n  gt\n    /* \"#utility.yul\":2777:3223   */\n  iszero\n  tag_71\n  jumpi\n    /* \"#utility.yul\":2822:2860   */\n  tag_72\n    /* \"#utility.yul\":2854:2859   */\n  dup2\n    /* \"#utility.yul\":2822:2860   */\n  tag_16\n  jump\t// in\ntag_72:\n    /* \"#utility.yul\":2906:2935   */\n  tag_73\n    /* \"#utility.yul\":2924:2934   */\n  dup5\n    /* \"#utility.yul\":2906:2935   */\n  tag_17\n  jump\t// in\ntag_73:\n    /* \"#utility.yul\":2896:2904   */\n  dup2\n    /* \"#utility.yul\":2892:2936   */\n  add\n    /* \"#utility.yul\":3089:3091   */\n  0x20\n    /* \"#utility.yul\":3077:3087   */\n  dup6\n    /* \"#utility.yul\":3074:3092   */\n  lt\n    /* \"#utility.yul\":3071:3120   */\n  iszero\n  tag_74\n  jumpi\n    /* \"#utility.yul\":3110:3118   */\n  dup2\n    /* \"#utility.yul\":3095:3118   */\n  swap1\n  pop\n    /* \"#utility.yul\":3071:3120   */\ntag_74:\n    /* \"#utility.yul\":3133:3213   */\n  tag_75\n    /* \"#utility.yul\":3189:3211   */\n  tag_76\n    /* \"#utility.yul\":3207:3210   */\n  dup6\n    /* \"#utility.yul\":3189:3211   */\n  tag_17\n  jump\t// in\ntag_76:\n    /* \"#utility.yul\":3179:3187   */\n  dup4\n    /* \"#utility.yul\":3175:3212   */\n  add\n    /* \"#utility.yul\":3162:3173   */\n  dup3\n    /* \"#utility.yul\":3133:3213   */\n  tag_27\n  jump\t// in\ntag_75:\n    /* \"#utility.yul\":2792:3223   */\n  pop\n  pop\n    /* \"#utility.yul\":2777:3223   */\ntag_71:\n    /* \"#utility.yul\":2687:3230   */\n  pop\n  pop\n  pop\n  jump\t// out\n    /* \"#utility.yul\":3236:3353   */\ntag_29:\n    /* \"#utility.yul\":3290:3298   */\n  0x00\n    /* \"#utility.yul\":3340:3345   */\n  dup3\n    /* \"#utility.yul\":3334:3338   */\n  dup3\n    /* \"#utility.yul\":3330:3346   */\n  shr\n    /* \"#utility.yul\":3309:3346   */\n  swap1\n  pop\n    /* \"#utility.yul\":3236:3353   */\n  swap3\n  swap2\n  pop\n  pop\n  jump\t// out\n    /* \"#utility.yul\":3359:3528   */\ntag_30:\n    /* \"#utility.yul\":3403:3409   */\n  0x00\n    /* \"#utility.yul\":3436:3487   */\n  tag_79\n    /* \"#utility.yul\":3484:3485   */\n  0x00\n    /* \"#utility.yul\":3480:3486   */\n  not\n    /* \"#utility.yul\":3472:3477   */\n  dup5\n    /* \"#utility.yul\":3469:3470   */\n  0x08\n    /* \"#utility.yul\":3465:3478   */\n  mul\n    /* \"#utility.yul\":3436:3487   */\n  tag_29\n  jump\t// in\ntag_79:\n    /* \"#utility.yul\":3432:3488   */\n  not\n    /* \"#utility.yul\":3517:3521   */\n  dup1\n    /* \"#utility.yul\":3511:3515   */\n  dup4\n    /* \"#utility.yul\":3507:3522   */\n  and\n    /* \"#utility.yul\":3497:3522   */\n  swap2\n  pop\n    /* \"#utility.yul\":3410:3528   */\n  pop\n    /* \"#utility.yul\":3359:3528   */\n  swap3\n  swap2\n  pop\n  pop\n  jump\t// out\n    /* \"#utility.yul\":3533:3828   */\ntag_31:\n    /* \"#utility.yul\":3609:3613   */\n  0x00\n    /* \"#utility.yul\":3755:3784   */\n  tag_81\n    /* \"#utility.yul\":3780:3783   */\n  dup4\n    /* \"#utility.yul\":3774:3778   */\n  dup4\n    /* \"#utility.yul\":3755:3784   */\n  tag_30\n  jump\t// in\ntag_81:\n    /* \"#utility.yul\":3747:3784   */\n  swap2\n  pop\n    /* \"#utility.yul\":3817:3820   */\n  dup3\n    /* \"#utility.yul\":3814:3815   */\n  0x02\n    /* \"#utility.yul\":3810:3821   */\n  mul\n    /* \"#utility.yul\":3804:3808   */\n  dup3\n    /* \"#utility.yul\":3801:3822   */\n  or\n    /* \"#utility.yul\":3793:3822   */\n  swap1\n  pop\n    /* \"#utility.yul\":3533:3828   */\n  swap3\n  swap2\n  pop\n  pop\n  jump\t// out\n    /* \"#utility.yul\":3833:5228   */\ntag_5:\n    /* \"#utility.yul\":3950:3987   */\n  tag_83\n    /* \"#utility.yul\":3983:3986   */\n  dup3\n    /* \"#utility.yul\":3950:3987   */\n  tag_12\n  jump\t// in\ntag_83:\n    /* \"#utility.yul\":4052:4070   */\n  0xffffffffffffffff\n    /* \"#utility.yul\":4044:4050   */\n  dup2\n    /* \"#utility.yul\":4041:4071   */\n  gt\n    /* \"#utility.yul\":4038:4094   */\n  iszero\n  tag_84\n  jumpi\n    /* \"#utility.yul\":4074:4092   */\n  tag_85\n  tag_13\n  jump\t// in\ntag_85:\n    /* \"#utility.yul\":4038:4094   */\ntag_84:\n    /* \"#utility.yul\":4118:4156   */\n  tag_86\n    /* \"#utility.yul\":4150:4154   */\n  dup3\n    /* \"#utility.yul\":4144:4155   */\n  sload\n    /* \"#utility.yul\":4118:4156   */\n  tag_15\n  jump\t// in\ntag_86:\n    /* \"#utility.yul\":4203:4270   */\n  tag_87\n    /* \"#utility.yul\":4263:4269   */\n  dup3\n    /* \"#utility.yul\":4255:4261   */\n  dup3\n    /* \"#utility.yul\":4249:4253   */\n  dup6\n    /* \"#utility.yul\":4203:4270   */\n  tag_28\n  jump\t// in\ntag_87:\n    /* \"#utility.yul\":4297:4298   */\n  0x00\n    /* \"#utility.yul\":4321:4325   */\n  0x20\n    /* \"#utility.yul\":4308:4325   */\n  swap1\n  pop\n    /* \"#utility.yul\":4353:4355   */\n  0x1f\n    /* \"#utility.yul\":4345:4351   */\n  dup4\n    /* \"#utility.yul\":4342:4356   */\n  gt\n    /* \"#utility.yul\":4370:4371   */\n  0x01\n    /* \"#utility.yul\":4365:4983   */\n  dup2\n  eq\n  tag_89\n  jumpi\n    /* \"#utility.yul\":5027:5028   */\n  0x00\n    /* \"#utility.yul\":5044:5050   */\n  dup5\n    /* \"#utility.yul\":5041:5118   */\n  iszero\n  tag_90\n  jumpi\n    /* \"#utility.yul\":5093:5102   */\n  dup3\n    /* \"#utility.yul\":5088:5091   */\n  dup8\n    /* \"#utility.yul\":5084:5103   */\n  add\n    /* \"#utility.yul\":5078:5104   */\n  mload\n    /* \"#utility.yul\":5069:5104   */\n  swap1\n  pop\n    /* \"#utility.yul\":5041:5118   */\ntag_90:\n    /* \"#utility.yul\":5144:5211   */\n  tag_91\n    /* \"#utility.yul\":5204:5210   */\n  dup6\n    /* \"#utility.yul\":5197:5202   */\n  dup3\n    /* \"#utility.yul\":5144:5211   */\n  tag_31\n  jump\t// in\ntag_91:\n    /* \"#utility.yul\":5138:5142   */\n  dup7\n    /* \"#utility.yul\":5131:5212   */\n  sstore\n    /* \"#utility.yul\":5000:5222   */\n  pop\n    /* \"#utility.yul\":4335:5222   */\n  jump(tag_88)\n    /* \"#utility.yul\":4365:4983   */\ntag_89:\n    /* \"#utility.yul\":4417:4421   */\n  0x1f\n    /* \"#utility.yul\":4413:4422   */\n  not\n    /* \"#utility.yul\":4405:4411   */\n  dup5\n    /* \"#utility.yul\":4401:4423   */\n  and\n    /* \"#utility.yul\":4451:4488   */\n  tag_92\n    /* \"#utility.yul\":4483:4487   */\n  dup7\n    /* \"#utility.yul\":4451:4488   */\n  tag_16\n  jump\t// in\ntag_92:\n    /* \"#utility.yul\":4510:4511   */\n  0x00\n    /* \"#utility.yul\":4524:4732   */\ntag_93:\n    /* \"#utility.yul\":4538:4545   */\n  dup3\n    /* \"#utility.yul\":4535:4536   */\n  dup2\n    /* \"#utility.yul\":4532:4546   */\n  lt\n    /* \"#utility.yul\":4524:4732   */\n  iszero\n  tag_95\n  jumpi\n    /* \"#utility.yul\":4617:4626   */\n  dup5\n    /* \"#utility.yul\":4612:4615   */\n  dup10\n    /* \"#utility.yul\":4608:4627   */\n  add\n    /* \"#utility.yul\":4602:4628   */\n  mload\n    /* \"#utility.yul\":4594:4600   */\n  dup3\n    /* \"#utility.yul\":4587:4629   */\n  sstore\n    /* \"#utility.yul\":4668:4669   */\n  0x01\n    /* \"#utility.yul\":4660:4666   */\n  dup3\n    /* \"#utility.yul\":4656:4670   */\n  add\n    /* \"#utility.yul\":4646:4670   */\n  swap2\n  pop\n    /* \"#utility.yul\":4715:4717   */\n  0x20\n    /* \"#utility.yul\":4704:4713   */\n  dup6\n    /* \"#utility.yul\":4700:4718   */\n  add\n    /* \"#utility.yul\":4687:4718   */\n  swap5\n  pop\n    /* \"#utility.yul\":4561:4565   */\n  0x20\n    /* \"#utility.yul\":4558:4559   */\n  dup2\n    /* \"#utility.yul\":4554:4566   */\n  add\n    /* \"#utility.yul\":4549:4566   */\n  swap1\n  pop\n    /* \"#utility.yul\":4524:4732   */\n  jump(tag_93)\ntag_95:\n    /* \"#utility.yul\":4760:4766   */\n  dup7\n    /* \"#utility.yul\":4751:4758   */\n  dup4\n    /* \"#utility.yul\":4748:4767   */\n  lt\n    /* \"#utility.yul\":4745:4924   */\n  iszero\n  tag_96\n  jumpi\n    /* \"#utility.yul\":4818:4827   */\n  dup5\n    /* \"#utility.yul\":4813:4816   */\n  dup10\n    /* \"#utility.yul\":4809:4828   */\n  add\n    /* \"#utility.yul\":4803:4829   */\n  mload\n    /* \"#utility.yul\":4861:4909   */\n  tag_97\n    /* \"#utility.yul\":4903:4907   */\n  0x1f\n    /* \"#utility.yul\":4895:4901   */\n  dup10\n    /* \"#utility.yul\":4891:4908   */\n  and\n    /* \"#utility.yul\":4880:4889   */\n  dup3\n    /* \"#utility.yul\":4861:4909   */\n  tag_30\n  jump\t// in\ntag_97:\n    /* \"#utility.yul\":4853:4859   */\n  dup4\n    /* \"#utility.yul\":4846:4910   */\n  sstore\n    /* \"#utility.yul\":4768:4924   */\n  pop\n    /* \"#utility.yul\":4745:4924   */\ntag_96:\n    /* \"#utility.yul\":4970:4971   */\n  0x01\n    /* \"#utility.yul\":4966:4967   */\n  0x02\n    /* \"#utility.yul\":4958:4964   */\n  dup9\n    /* \"#utility.yul\":4954:4968   */\n  mul\n    /* \"#utility.yul\":4950:4972   */\n  add\n    /* \"#utility.yul\":4944:4948   */\n  dup9\n    /* \"#utility.yul\":4937:4973   */\n  sstore\n    /* \"#utility.yul\":4372:4983   */\n  pop\n  pop\n  pop\n    /* \"#utility.yul\":4335:5222   */\ntag_88:\n  pop\n    /* \"#utility.yul\":3925:5228   */\n  pop\n  pop\n  pop\n    /* \"#utility.yul\":3833:5228   */\n  pop\n  pop\n  jump\t// out\n    /* \"#utility.yul\":5234:5414   */\ntag_32:\n    /* \"#utility.yul\":5282:5359   */\n  0x4e487b7100000000000000000000000000000000000000000000000000000000\n    /* \"#utility.yul\":5279:5280   */\n  0x00\n    /* \"#utility.yul\":5272:5360   */\n  mstore\n    /* \"#utility.yul\":5379:5383   */\n  0x11\n    /* \"#utility.yul\":5376:5377   */\n  0x04\n    /* \"#utility.yul\":5369:5384   */\n  mstore\n    /* \"#utility.yul\":5403:5407   */\n  0x24\n    /* \"#utility.yul\":5400:5401   */\n  0x00\n    /* \"#utility.yul\":5393:5408   */\n  revert\n    /* \"#utility.yul\":5420:5522   */\ntag_33:\n    /* \"#utility.yul\":5462:5470   */\n  0x00\n    /* \"#utility.yul\":5509:5514   */\n  dup2\n    /* \"#utility.yul\":5506:5507   */\n  0x01\n    /* \"#utility.yul\":5502:5515   */\n  shr\n    /* \"#utility.yul\":5481:5515   */\n  swap1\n  pop\n    /* \"#utility.yul\":5420:5522   */\n  swap2\n  swap1\n  pop\n  jump\t// out\n    /* \"#utility.yul\":5528:6376   */\ntag_34:\n    /* \"#utility.yul\":5589:5594   */\n  0x00\n    /* \"#utility.yul\":5596:5600   */\n  dup1\n    /* \"#utility.yul\":5620:5626   */\n  dup3\n    /* \"#utility.yul\":5611:5626   */\n  swap2\n  pop\n    /* \"#utility.yul\":5644:5649   */\n  dup4\n    /* \"#utility.yul\":5635:5649   */\n  swap1\n  pop\n    /* \"#utility.yul\":5658:6370   */\ntag_101:\n    /* \"#utility.yul\":5679:5680   */\n  0x01\n    /* \"#utility.yul\":5669:5677   */\n  dup6\n    /* \"#utility.yul\":5666:5681   */\n  gt\n    /* \"#utility.yul\":5658:6370   */\n  iszero\n  tag_103\n  jumpi\n    /* \"#utility.yul\":5774:5778   */\n  dup1\n    /* \"#utility.yul\":5769:5772   */\n  dup7\n    /* \"#utility.yul\":5765:5779   */\n  div\n    /* \"#utility.yul\":5759:5763   */\n  dup2\n    /* \"#utility.yul\":5756:5780   */\n  gt\n    /* \"#utility.yul\":5753:5803   */\n  iszero\n  tag_104\n  jumpi\n    /* \"#utility.yul\":5783:5801   */\n  tag_105\n  tag_32\n  jump\t// in\ntag_105:\n    /* \"#utility.yul\":5753:5803   */\ntag_104:\n    /* \"#utility.yul\":5833:5834   */\n  0x01\n    /* \"#utility.yul\":5823:5831   */\n  dup6\n    /* \"#utility.yul\":5819:5835   */\n  and\n    /* \"#utility.yul\":5816:6267   */\n  iszero\n  tag_106\n  jumpi\n    /* \"#utility.yul\":6248:6252   */\n  dup1\n    /* \"#utility.yul\":6241:6246   */\n  dup3\n    /* \"#utility.yul\":6237:6253   */\n  mul\n    /* \"#utility.yul\":6228:6253   */\n  swap2\n  pop\n    /* \"#utility.yul\":5816:6267   */\ntag_106:\n    /* \"#utility.yul\":6298:6302   */\n  dup1\n    /* \"#utility.yul\":6292:6296   */\n  dup2\n    /* \"#utility.yul\":6288:6303   */\n  mul\n    /* \"#utility.yul\":6280:6303   */\n  swap1\n  pop\n    /* \"#utility.yul\":6328:6360   */\n  tag_107\n    /* \"#utility.yul\":6351:6359   */\n  dup6\n    /* \"#utility.yul\":6328:6360   */\n  tag_33\n  jump\t// in\ntag_107:\n    /* \"#utility.yul\":6316:6360   */\n  swap5\n  pop\n    /* \"#utility.yul\":5658:6370   */\n  jump(tag_101)\ntag_103:\n    /* \"#utility.yul\":5528:6376   */\n  swap5\n  pop\n  swap5\n  swap3\n  pop\n  pop\n  pop\n  jump\t// out\n    /* \"#utility.yul\":6382:7455   */\ntag_35:\n    /* \"#utility.yul\":6436:6441   */\n  0x00\n    /* \"#utility.yul\":6627:6635   */\n  dup3\n    /* \"#utility.yul\":6617:6657   */\n  tag_109\n  jumpi\n    /* \"#utility.yul\":6648:6649   */\n  0x01\n    /* \"#utility.yul\":6639:6649   */\n  swap1\n  pop\n    /* \"#utility.yul\":6650:6655   */\n  jump(tag_108)\n    /* \"#utility.yul\":6617:6657   */\ntag_109:\n    /* \"#utility.yul\":6676:6680   */\n  dup2\n    /* \"#utility.yul\":6666:6702   */\n  tag_110\n  jumpi\n    /* \"#utility.yul\":6693:6694   */\n  0x00\n    /* \"#utility.yul\":6684:6694   */\n  swap1\n  pop\n    /* \"#utility.yul\":6695:6700   */\n  jump(tag_108)\n    /* \"#utility.yul\":6666:6702   */\ntag_110:\n    /* \"#utility.yul\":6762:6766   */\n  dup2\n    /* \"#utility.yul\":6810:6811   */\n  0x01\n    /* \"#utility.yul\":6805:6832   */\n  dup2\n  eq\n  tag_112\n  jumpi\n    /* \"#utility.yul\":6846:6847   */\n  0x02\n    /* \"#utility.yul\":6841:7032   */\n  dup2\n  eq\n  tag_113\n  jumpi\n    /* \"#utility.yul\":6755:7032   */\n  jump(tag_111)\n    /* \"#utility.yul\":6805:6832   */\ntag_112:\n    /* \"#utility.yul\":6823:6824   */\n  0x01\n    /* \"#utility.yul\":6814:6824   */\n  swap2\n  pop\n    /* \"#utility.yul\":6825:6830   */\n  pop\n  jump(tag_108)\n    /* \"#utility.yul\":6841:7032   */\ntag_113:\n    /* \"#utility.yul\":6886:6889   */\n  0xff\n    /* \"#utility.yul\":6876:6884   */\n  dup5\n    /* \"#utility.yul\":6873:6890   */\n  gt\n    /* \"#utility.yul\":6870:6913   */\n  iszero\n  tag_114\n  jumpi\n    /* \"#utility.yul\":6893:6911   */\n  tag_115\n  tag_32\n  jump\t// in\ntag_115:\n    /* \"#utility.yul\":6870:6913   */\ntag_114:\n    /* \"#utility.yul\":6942:6950   */\n  dup4\n    /* \"#utility.yul\":6939:6940   */\n  0x02\n    /* \"#utility.yul\":6935:6951   */\n  exp\n    /* \"#utility.yul\":6926:6951   */\n  swap2\n  pop\n    /* \"#utility.yul\":6977:6980   */\n  dup5\n    /* \"#utility.yul\":6970:6975   */\n  dup3\n    /* \"#utility.yul\":6967:6981   */\n  gt\n    /* \"#utility.yul\":6964:7004   */\n  iszero\n  tag_116\n  jumpi\n    /* \"#utility.yul\":6984:7002   */\n  tag_117\n  tag_32\n  jump\t// in\ntag_117:\n    /* \"#utility.yul\":6964:7004   */\ntag_116:\n    /* \"#utility.yul\":7017:7022   */\n  pop\n  jump(tag_108)\n    /* \"#utility.yul\":6755:7032   */\ntag_111:\n  pop\n    /* \"#utility.yul\":7141:7143   */\n  0x20\n    /* \"#utility.yul\":7131:7139   */\n  dup4\n    /* \"#utility.yul\":7128:7144   */\n  lt\n    /* \"#utility.yul\":7122:7125   */\n  0x0133\n    /* \"#utility.yul\":7116:7120   */\n  dup4\n    /* \"#utility.yul\":7113:7126   */\n  lt\n    /* \"#utility.yul\":7109:7145   */\n  and\n    /* \"#utility.yul\":7091:7093   */\n  0x4e\n    /* \"#utility.yul\":7081:7089   */\n  dup5\n    /* \"#utility.yul\":7078:7094   */\n  lt\n    /* \"#utility.yul\":7073:7075   */\n  0x0b\n    /* \"#utility.yul\":7067:7071   */\n  dup5\n    /* \"#utility.yul\":7064:7076   */\n  lt\n    /* \"#utility.yul\":7060:7095   */\n  and\n    /* \"#utility.yul\":7044:7155   */\n  or\n    /* \"#utility.yul\":7041:7287   */\n  iszero\n  tag_118\n  jumpi\n    /* \"#utility.yul\":7197:7205   */\n  dup3\n    /* \"#utility.yul\":7191:7195   */\n  dup3\n    /* \"#utility.yul\":7187:7206   */\n  exp\n    /* \"#utility.yul\":7178:7206   */\n  swap1\n  pop\n    /* \"#utility.yul\":7232:7235   */\n  dup4\n    /* \"#utility.yul\":7225:7230   */\n  dup2\n    /* \"#utility.yul\":7222:7236   */\n  gt\n    /* \"#utility.yul\":7219:7259   */\n  iszero\n  tag_119\n  jumpi\n    /* \"#utility.yul\":7239:7257   */\n  tag_120\n  tag_32\n  jump\t// in\ntag_120:\n    /* \"#utility.yul\":7219:7259   */\ntag_119:\n    /* \"#utility.yul\":7272:7277   */\n  jump(tag_108)\n    /* \"#utility.yul\":7041:7287   */\ntag_118:\n    /* \"#utility.yul\":7312:7354   */\n  tag_121\n    /* \"#utility.yul\":7350:7353   */\n  dup5\n    /* \"#utility.yul\":7340:7348   */\n  dup5\n    /* \"#utility.yul\":7334:7338   */\n  dup5\n    /* \"#utility.yul\":7331:7332   */\n  0x01\n    /* \"#utility.yul\":7312:7354   */\n  tag_34\n  jump\t// in\ntag_121:\n    /* \"#utility.yul\":7297:7354   */\n  swap3\n  pop\n  swap1\n  pop\n    /* \"#utility.yul\":7386:7390   */\n  dup2\n    /* \"#utility.yul\":7381:7384   */\n  dup5\n    /* \"#utility.yul\":7377:7391   */\n  div\n    /* \"#utility.yul\":7370:7375   */\n  dup2\n    /* \"#utility.yul\":7367:7392   */\n  gt\n    /* \"#utility.yul\":7364:7415   */\n  iszero\n  tag_122\n  jumpi\n    /* \"#utility.yul\":7395:7413   */\n  tag_123\n  tag_32\n  jump\t// in\ntag_123:\n    /* \"#utility.yul\":7364:7415   */\ntag_122:\n    /* \"#utility.yul\":7444:7448   */\n  dup2\n    /* \"#utility.yul\":7437:7442   */\n  dup2\n    /* \"#utility.yul\":7433:7449   */\n  mul\n    /* \"#utility.yul\":7424:7449   */\n  swap1\n  pop\n    /* \"#utility.yul\":6382:7455   */\ntag_108:\n  swap4\n  swap3\n  pop\n  pop\n  pop\n  jump\t// out\n    /* \"#utility.yul\":7461:7746   */\ntag_8:\n    /* \"#utility.yul\":7521:7526   */\n  0x00\n    /* \"#utility.yul\":7545:7568   */\n  tag_125\n    /* \"#utility.yul\":7563:7567   */\n  dup3\n    /* \"#utility.yul\":7545:7568   */\n  tag_20\n  jump\t// in\ntag_125:\n    /* \"#utility.yul\":7537:7568   */\n  swap2\n  pop\n    /* \"#utility.yul\":7589:7616   */\n  tag_126\n    /* \"#utility.yul\":7607:7615   */\n  dup4\n    /* \"#utility.yul\":7589:7616   */\n  tag_20\n  jump\t// in\ntag_126:\n    /* \"#utility.yul\":7577:7616   */\n  swap3\n  pop\n    /* \"#utility.yul\":7635:7739   */\n  tag_127\n    /* \"#utility.yul\":7672:7738   */\n  0xffffffffffffffffffffffffffffffffffffffffffffffffffffffffffffffff\n    /* \"#utility.yul\":7662:7670   */\n  dup5\n    /* \"#utility.yul\":7656:7660   */\n  dup5\n    /* \"#utility.yul\":7635:7739   */\n  tag_35\n  jump\t// in\ntag_127:\n    /* \"#utility.yul\":7626:7739   */\n  swap1\n  pop\n    /* \"#utility.yul\":7461:7746   */\n  swap3\n  swap2\n  pop\n  pop\n  jump\t// out\n    /* \"#utility.yul\":7752:8162   */\ntag_10:\n    /* \"#utility.yul\":7792:7799   */\n  0x00\n    /* \"#utility.yul\":7815:7835   */\n  tag_129\n    /* \"#utility.yul\":7833:7834   */\n  dup3\n    /* \"#utility.yul\":7815:7835   */\n  tag_20\n  jump\t// in\ntag_129:\n    /* \"#utility.yul\":7810:7835   */\n  swap2\n  pop\n    /* \"#utility.yul\":7849:7869   */\n  tag_130\n    /* \"#utility.yul\":7867:7868   */\n  dup4\n    /* \"#utility.yul\":7849:7869   */\n  tag_20\n  jump\t// in\ntag_130:\n    /* \"#utility.yul\":7844:7869   */\n  swap3\n  pop\n    /* \"#utility.yul\":7904:7905   */\n  dup3\n    /* \"#utility.yul\":7901:7902   */\n  dup3\n    /* \"#utility.yul\":7897:7906   */\n  mul\n    /* \"#utility.yul\":7926:7956   */\n  tag_131\n    /* \"#utility.yul\":7944:7955   */\n  dup2\n    /* \"#utility.yul\":7926:7956   */\n  tag_20\n  jump\t// in\ntag_131:\n    /* \"#utility.yul\":7915:7956   */\n  swap2\n  pop\n    /* \"#utility.yul\":8105:8106   */\n  dup3\n    /* \"#utility.yul\":8096:8103   */\n  dup3\n    /* \"#utility.yul\":8092:8107   */\n  div\n    /* \"#utility.yul\":8089:8090   */\n  dup5\n    /* \"#utility.yul\":8086:8108   */\n  eq\n    /* \"#utility.yul\":8066:8067   */\n  dup4\n    /* \"#utility.yul\":8059:8068   */\n  iszero\n    /* \"#utility.yul\":8039:8122   */\n  or\n    /* \"#utility.yul\":8016:8155   */\n  tag_132\n  jumpi\n    /* \"#utility.yul\":8135:8153   */\n  tag_133\n  tag_32\n  jump\t// in\ntag_133:\n    /* \"#utility.yul\":8016:8155   */\ntag_132:\n    /* \"#utility.yul\":7800:8162   */\n  pop\n    /* \"#utility.yul\":7752:8162   */\n  swap3\n  swap2\n  pop\n  pop\n  jump\t// out\n    /* \"1014/HookERC20/ExtendERC20.sol\":374:903  contract ERC20WithCallback is BaseERC20, IERC20WithCallback{... */\ntag_11:\n  dataSize(sub_0)\n  dup1\n  dataOffset(sub_0)\n  0x00\n  codecopy\n  0x00\n  return\nstop\n\nsub_0: assembly {\n        /* \"1014/HookERC20/ExtendERC20.sol\":374:903  contract ERC20WithCallback is BaseERC20, IERC20WithCallback{... */\n      mstore(0x40, 0x80)\n      callvalue\n      dup1\n      iszero\n      tag_1\n      jumpi\n      0x00\n      dup1\n      revert\n    tag_1:\n      pop\n      jumpi(tag_2, lt(calldatasize, 0x04))\n      shr(0xe0, calldataload(0x00))\n      dup1\n      0x27e235e3\n      gt\n      tag_16\n      jumpi\n      dup1\n      0x70a08231\n      gt\n      tag_17\n      jumpi\n      dup1\n      0x70a08231\n      eq\n      tag_12\n      jumpi\n      dup1\n      0x95d89b41\n      eq\n      tag_13\n      jumpi\n      dup1\n      0xa9059cbb\n      eq\n      tag_14\n      jumpi\n      dup1\n      0xdd62ed3e\n      eq\n      tag_15\n      jumpi\n      jump(tag_2)\n    tag_17:\n      dup1\n      0x27e235e3\n      eq\n      tag_9\n      jumpi\n      dup1\n      0x313ce567\n      eq\n      tag_10\n      jumpi\n      dup1\n      0x55b6ed5c\n      eq\n      tag_11\n      jumpi\n      jump(tag_2)\n    tag_16:\n      dup1\n      0x06fdde03\n      eq\n      tag_3\n      jumpi\n      dup1\n      0x095ea7b3\n      eq\n      tag_4\n      jumpi\n      dup1\n      0x16279055\n      eq\n      tag_5\n      jumpi\n      dup1\n      0x18160ddd\n      eq\n      tag_6\n      jumpi\n      dup1\n      0x1a825b75\n      eq\n      tag_7\n      jumpi\n      dup1\n      0x23b872dd\n      eq\n      tag_8\n      jumpi\n    tag_2:\n      0x00\n      dup1\n      revert\n        /* \"1013/BaseERC20.sol\":145:163  string public name */\n    tag_3:\n      tag_18\n      tag_19\n      jump\t// in\n    tag_18:\n      mload(0x40)\n      tag_20\n      swap2\n      swap1\n      tag_21\n      jump\t// in\n    tag_20:\n      mload(0x40)\n      dup1\n      swap2\n      sub\n      swap1\n      return\n        /* \"1013/BaseERC20.sol\":2219:2433  function approve(address _spender, uint256 _value) public returns (bool success) {... */\n    tag_4:\n      tag_22\n      0x04\n      dup1\n      calldatasize\n      sub\n      dup2\n      add\n      swap1\n      tag_23\n      swap2\n      swap1\n      tag_24\n      jump\t// in\n    tag_23:\n      tag_25\n      jump\t// in\n    tag_22:\n      mload(0x40)\n      tag_26\n      swap2\n      swap1\n      tag_27\n      jump\t// in\n    tag_26:\n      mload(0x40)\n      dup1\n      swap2\n      sub\n      swap1\n      return\n        /* \"1014/HookERC20/ExtendERC20.sol\":733:901  function isContract(address account) public view returns (bool) {... */\n    tag_5:\n      tag_28\n      0x04\n      dup1\n      calldatasize\n      sub\n      dup2\n      add\n      swap1\n      tag_29\n      swap2\n      swap1\n      tag_30\n      jump\t// in\n    tag_29:\n      tag_31\n      jump\t// in\n    tag_28:\n      mload(0x40)\n      tag_32\n      swap2\n      swap1\n      tag_27\n      jump\t// in\n    tag_32:\n      mload(0x40)\n      dup1\n      swap2\n      sub\n      swap1\n      return\n        /* \"1013/BaseERC20.sol\":222:248  uint256 public totalSupply */\n    tag_6:\n      tag_33\n      tag_34\n      jump\t// in\n    tag_33:\n      mload(0x40)\n      tag_35\n      swap2\n      swap1\n      tag_36\n      jump\t// in\n    tag_35:\n      mload(0x40)\n      dup1\n      swap2\n      sub\n      swap1\n      return\n        /* \"1014/HookERC20/ExtendERC20.sol\":475:727  function transferWithCallback(address _to, uint256 _value) external returns (bool) {... */\n    tag_7:\n      tag_37\n      0x04\n      dup1\n      calldatasize\n      sub\n      dup2\n      add\n      swap1\n      tag_38\n      swap2\n      swap1\n      tag_24\n      jump\t// in\n    tag_38:\n      tag_39\n      jump\t// in\n    tag_37:\n      mload(0x40)\n      tag_40\n      swap2\n      swap1\n      tag_27\n      jump\t// in\n    tag_40:\n      mload(0x40)\n      dup1\n      swap2\n      sub\n      swap1\n      return\n        /* \"1013/BaseERC20.sol\":1656:2130  function transferFrom(address _from, address _to, uint256 _value) public returns (bool success) {... */\n    tag_8:\n      tag_41\n      0x04\n      dup1\n      calldatasize\n      sub\n      dup2\n      add\n      swap1\n      tag_42\n      swap2\n      swap1\n      tag_43\n      jump\t// in\n    tag_42:\n      tag_44\n      jump\t// in\n    tag_41:\n      mload(0x40)\n      tag_45\n      swap2\n      swap1\n      tag_27\n      jump\t// in\n    tag_45:\n      mload(0x40)\n      dup1\n      swap2\n      sub\n      swap1\n      return\n        /* \"1013/BaseERC20.sol\":298:341  mapping(address => uint256) public balances */\n    tag_9:\n      tag_46\n      0x04\n      dup1\n      calldatasize\n      sub\n      dup2\n      add\n      swap1\n      tag_47\n      swap2\n      swap1\n      tag_30\n      jump\t// in\n    tag_47:\n      tag_48\n      jump\t// in\n    tag_46:\n      mload(0x40)\n      tag_49\n      swap2\n      swap1\n      tag_36\n      jump\t// in\n    tag_49:\n      mload(0x40)\n      dup1\n      swap2\n      sub\n      swap1\n      return\n        /* \"1013/BaseERC20.sol\":195:216  uint8 public decimals */\n    tag_10:\n      tag_50\n      tag_51\n      jump\t// in\n    tag_50:\n      mload(0x40)\n      tag_52\n      swap2\n      swap1\n      tag_53\n      jump\t// in\n    tag_52:\n      mload(0x40)\n      dup1\n      swap2\n      sub\n      swap1\n      return\n        /* \"1013/BaseERC20.sol\":347:412  mapping(address => mapping(address => uint256)) public allowances */\n    tag_11:\n      tag_54\n      0x04\n      dup1\n      calldatasize\n      sub\n      dup2\n      add\n      swap1\n      tag_55\n      swap2\n      swap1\n      tag_56\n      jump\t// in\n    tag_55:\n      tag_57\n      jump\t// in\n    tag_54:\n      mload(0x40)\n      tag_58\n      swap2\n      swap1\n      tag_36\n      jump\t// in\n    tag_58:\n      mload(0x40)\n      dup1\n      swap2\n      sub\n      swap1\n      return\n        /* \"1013/BaseERC20.sol\":1060:1173  function balanceOf(address _owner) public view returns (uint256 balance) {... */\n    tag_12:\n      tag_59\n      0x04\n      dup1\n      calldatasize\n      sub\n      dup2\n      add\n      swap1\n      tag_60\n      swap2\n      swap1\n      tag_30\n      jump\t// in\n    tag_60:\n      tag_61\n      jump\t// in\n    tag_59:\n      mload(0x40)\n      tag_62\n      swap2\n      swap1\n      tag_36\n      jump\t// in\n    tag_62:\n      mload(0x40)\n      dup1\n      swap2\n      sub\n      swap1\n      return\n        /* \"1013/BaseERC20.sol\":169:189  string public symbol */\n    tag_13:\n      tag_63\n      tag_64\n      jump\t// in\n    tag_63:\n      mload(0x40)\n      tag_65\n      swap2\n      swap1\n      tag_21\n      jump\t// in\n    tag_65:\n      mload(0x40)\n      dup1\n      swap2\n      sub\n      swap1\n      return\n        /* \"1013/BaseERC20.sol\":1249:1568  function transfer(address _to, uint256 _value) public returns (bool success) {... */\n    tag_14:\n      tag_66\n      0x04\n      dup1\n      calldatasize\n      sub\n      dup2\n      add\n      swap1\n      tag_67\n      swap2\n      swap1\n      tag_24\n      jump\t// in\n    tag_67:\n      tag_68\n      jump\t// in\n    tag_66:\n      mload(0x40)\n      tag_69\n      swap2\n      swap1\n      tag_27\n      jump\t// in\n    tag_69:\n      mload(0x40)\n      dup1\n      swap2\n      sub\n      swap1\n      return\n        /* \"1013/BaseERC20.sol\":2502:2647  function allowance(address _owner, address _spender) public view returns (uint256 remaining) {... */\n    tag_15:\n      tag_70\n      0x04\n      dup1\n      calldatasize\n      sub\n      dup2\n      add\n      swap1\n      tag_71\n      swap2\n      swap1\n      tag_56\n      jump\t// in\n    tag_71:\n      tag_72\n      jump\t// in\n    tag_70:\n      mload(0x40)\n      tag_73\n      swap2\n      swap1\n      tag_36\n      jump\t// in\n    tag_73:\n      mload(0x40)\n      dup1\n      swap2\n      sub\n      swap1\n      return\n        /* \"1013/BaseERC20.sol\":145:163  string public name */\n    tag_19:\n      0x00\n      dup1\n      sload\n      tag_74\n      swap1\n      tag_75\n      jump\t// in\n    tag_74:\n      dup1\n      0x1f\n      add\n      0x20\n      dup1\n      swap2\n      div\n      mul\n      0x20\n      add\n      mload(0x40)\n      swap1\n      dup2\n      add\n      0x40\n      mstore\n      dup1\n      swap3\n      swap2\n      swap1\n      dup2\n      dup2\n      mstore\n      0x20\n      add\n      dup3\n      dup1\n      sload\n      tag_76\n      swap1\n      tag_75\n      jump\t// in\n    tag_76:\n      dup1\n      iszero\n      tag_77\n      jumpi\n      dup1\n      0x1f\n      lt\n      tag_78\n      jumpi\n      0x0100\n      dup1\n      dup4\n      sload\n      div\n      mul\n      dup4\n      mstore\n      swap2\n      0x20\n      add\n      swap2\n      jump(tag_77)\n    tag_78:\n      dup3\n      add\n      swap2\n      swap1\n      0x00\n      mstore\n      keccak256(0x00, 0x20)\n      swap1\n    tag_79:\n      dup2\n      sload\n      dup2\n      mstore\n      swap1\n      0x01\n      add\n      swap1\n      0x20\n      add\n      dup1\n      dup4\n      gt\n      tag_79\n      jumpi\n      dup3\n      swap1\n      sub\n      0x1f\n      and\n      dup3\n      add\n      swap2\n    tag_77:\n      pop\n      pop\n      pop\n      pop\n      pop\n      dup2\n      jump\t// out\n        /* \"1013/BaseERC20.sol\":2219:2433  function approve(address _spender, uint256 _value) public returns (bool success) {... */\n    tag_25:\n        /* \"1013/BaseERC20.sol\":2286:2298  bool success */\n      0x00\n        /* \"1013/BaseERC20.sol\":2345:2351  _value */\n      dup2\n        /* \"1013/BaseERC20.sol\":2310:2320  allowances */\n      0x05\n        /* \"1013/BaseERC20.sol\":2310:2332  allowances[msg.sender] */\n      0x00\n        /* \"1013/BaseERC20.sol\":2321:2331  msg.sender */\n      caller\n        /* \"1013/BaseERC20.sol\":2310:2332  allowances[msg.sender] */\n      0xffffffffffffffffffffffffffffffffffffffff\n      and\n      0xffffffffffffffffffffffffffffffffffffffff\n      and\n      dup2\n      mstore\n      0x20\n      add\n      swap1\n      dup2\n      mstore\n      0x20\n      add\n      0x00\n      keccak256\n        /* \"1013/BaseERC20.sol\":2310:2342  allowances[msg.sender][_spender] */\n      0x00\n        /* \"1013/BaseERC20.sol\":2333:2341  _spender */\n      dup6\n        /* \"1013/BaseERC20.sol\":2310:2342  allowances[msg.sender][_spender] */\n      0xffffffffffffffffffffffffffffffffffffffff\n      and\n      0xffffffffffffffffffffffffffffffffffffffff\n      and\n      dup2\n      mstore\n      0x20\n      add\n      swap1\n      dup2\n      mstore\n      0x20\n      add\n      0x00\n      keccak256\n        /* \"1013/BaseERC20.sol\":2310:2351  allowances[msg.sender][_spender] = _value */\n      dup2\n      swap1\n      sstore\n      pop\n        /* \"1013/BaseERC20.sol\":2388:2396  _spender */\n      dup3\n        /* \"1013/BaseERC20.sol\":2367:2405  Approval(msg.sender, _spender, _value) */\n      0xffffffffffffffffffffffffffffffffffffffff\n      and\n        /* \"1013/BaseERC20.sol\":2376:2386  msg.sender */\n      caller\n        /* \"1013/BaseERC20.sol\":2367:2405  Approval(msg.sender, _spender, _value) */\n      0xffffffffffffffffffffffffffffffffffffffff\n      and\n      0x8c5be1e5ebec7d5bd14f71427d1e84f3dd0314c0f7b2291e5b200ac8c7c3b925\n        /* \"1013/BaseERC20.sol\":2398:2404  _value */\n      dup5\n        /* \"1013/BaseERC20.sol\":2367:2405  Approval(msg.sender, _spender, _value) */\n      mload(0x40)\n      tag_81\n      swap2\n      swap1\n      tag_36\n      jump\t// in\n    tag_81:\n      mload(0x40)\n      dup1\n      swap2\n      sub\n      swap1\n      log3\n        /* \"1013/BaseERC20.sol\":2422:2426  true */\n      0x01\n        /* \"1013/BaseERC20.sol\":2415:2426  return true */\n      swap1\n      pop\n        /* \"1013/BaseERC20.sol\":2219:2433  function approve(address _spender, uint256 _value) public returns (bool success) {... */\n      swap3\n      swap2\n      pop\n      pop\n      jump\t// out\n        /* \"1014/HookERC20/ExtendERC20.sol\":733:901  function isContract(address account) public view returns (bool) {... */\n    tag_31:\n        /* \"1014/HookERC20/ExtendERC20.sol\":791:795  bool */\n      0x00\n        /* \"1014/HookERC20/ExtendERC20.sol\":807:819  uint256 size */\n      dup1\n        /* \"1014/HookERC20/ExtendERC20.sol\":860:867  account */\n      dup3\n        /* \"1014/HookERC20/ExtendERC20.sol\":848:868  extcodesize(account) */\n      extcodesize\n        /* \"1014/HookERC20/ExtendERC20.sol\":840:868  size := extcodesize(account) */\n      swap1\n      pop\n        /* \"1014/HookERC20/ExtendERC20.sol\":893:894  0 */\n      0x00\n        /* \"1014/HookERC20/ExtendERC20.sol\":886:890  size */\n      dup2\n        /* \"1014/HookERC20/ExtendERC20.sol\":886:894  size > 0 */\n      gt\n        /* \"1014/HookERC20/ExtendERC20.sol\":879:894  return size > 0 */\n      swap2\n      pop\n      pop\n        /* \"1014/HookERC20/ExtendERC20.sol\":733:901  function isContract(address account) public view returns (bool) {... */\n      swap2\n      swap1\n      pop\n      jump\t// out\n        /* \"1013/BaseERC20.sol\":222:248  uint256 public totalSupply */\n    tag_34:\n      sload(0x03)\n      dup2\n      jump\t// out\n        /* \"1014/HookERC20/ExtendERC20.sol\":475:727  function transferWithCallback(address _to, uint256 _value) external returns (bool) {... */\n    tag_39:\n        /* \"1014/HookERC20/ExtendERC20.sol\":552:556  bool */\n      0x00\n        /* \"1014/HookERC20/ExtendERC20.sol\":568:589  transfer(_to, _value) */\n      tag_84\n        /* \"1014/HookERC20/ExtendERC20.sol\":577:580  _to */\n      dup4\n        /* \"1014/HookERC20/ExtendERC20.sol\":582:588  _value */\n      dup4\n        /* \"1014/HookERC20/ExtendERC20.sol\":568:576  transfer */\n      tag_68\n        /* \"1014/HookERC20/ExtendERC20.sol\":568:589  transfer(_to, _value) */\n      jump\t// in\n    tag_84:\n      pop\n        /* \"1014/HookERC20/ExtendERC20.sol\":602:617  isContract(_to) */\n      tag_85\n        /* \"1014/HookERC20/ExtendERC20.sol\":613:616  _to */\n      dup4\n        /* \"1014/HookERC20/ExtendERC20.sol\":602:612  isContract */\n      tag_31\n        /* \"1014/HookERC20/ExtendERC20.sol\":602:617  isContract(_to) */\n      jump\t// in\n    tag_85:\n        /* \"1014/HookERC20/ExtendERC20.sol\":599:700  if(isContract(_to)) {... */\n      iszero\n      tag_86\n      jumpi\n        /* \"1014/HookERC20/ExtendERC20.sol\":648:651  _to */\n      dup3\n        /* \"1014/HookERC20/ExtendERC20.sol\":633:666  ITokenReceiver(_to).tokenReceived */\n      0xffffffffffffffffffffffffffffffffffffffff\n      and\n      0xf553454f\n        /* \"1014/HookERC20/ExtendERC20.sol\":667:677  msg.sender */\n      caller\n        /* \"1014/HookERC20/ExtendERC20.sol\":679:685  _value */\n      dup5\n        /* \"1014/HookERC20/ExtendERC20.sol\":687:688  0 */\n      0x00\n        /* \"1014/HookERC20/ExtendERC20.sol\":633:689  ITokenReceiver(_to).tokenReceived(msg.sender, _value, 0) */\n      mload(0x40)\n      dup5\n      0xffffffff\n      and\n      0xe0\n      shl\n      dup2\n      mstore\n      0x04\n      add\n      tag_87\n      swap4\n      swap3\n      swap2\n      swap1\n      tag_88\n      jump\t// in\n    tag_87:\n      0x00\n      mload(0x40)\n      dup1\n      dup4\n      sub\n      dup2\n      0x00\n      dup8\n      dup1\n      extcodesize\n      iszero\n      dup1\n      iszero\n      tag_89\n      jumpi\n      0x00\n      dup1\n      revert\n    tag_89:\n      pop\n      gas\n      call\n      iszero\n      dup1\n      iszero\n      tag_91\n      jumpi\n      returndatasize\n      0x00\n      dup1\n      returndatacopy\n      revert(0x00, returndatasize)\n    tag_91:\n      pop\n      pop\n      pop\n      pop\n        /* \"1014/HookERC20/ExtendERC20.sol\":599:700  if(isContract(_to)) {... */\n    tag_86:\n        /* \"1014/HookERC20/ExtendERC20.sol\":716:720  true */\n      0x01\n        /* \"1014/HookERC20/ExtendERC20.sol\":709:720  return true */\n      swap1\n      pop\n        /* \"1014/HookERC20/ExtendERC20.sol\":475:727  function transferWithCallback(address _to, uint256 _value) external returns (bool) {... */\n      swap3\n      swap2\n      pop\n      pop\n      jump\t// out\n        /* \"1013/BaseERC20.sol\":1656:2130  function transferFrom(address _from, address _to, uint256 _value) public returns (bool success) {... */\n    tag_44:\n        /* \"1013/BaseERC20.sol\":1738:1750  bool success */\n      0x00\n        /* \"1013/BaseERC20.sol\":1789:1795  _value */\n      dup2\n        /* \"1013/BaseERC20.sol\":1770:1778  balances */\n      0x04\n        /* \"1013/BaseERC20.sol\":1770:1785  balances[_from] */\n      0x00\n        /* \"1013/BaseERC20.sol\":1779:1784  _from */\n      dup7\n        /* \"1013/BaseERC20.sol\":1770:1785  balances[_from] */\n      0xffffffffffffffffffffffffffffffffffffffff\n      and\n      0xffffffffffffffffffffffffffffffffffffffff\n      and\n      dup2\n      mstore\n      0x20\n      add\n      swap1\n      dup2\n      mstore\n      0x20\n      add\n      0x00\n      keccak256\n      sload\n        /* \"1013/BaseERC20.sol\":1770:1795  balances[_from] >= _value */\n      lt\n      iszero\n        /* \"1013/BaseERC20.sol\":1762:1838  require(balances[_from] >= _value, \"ERC20: transfer amount exceeds balance\") */\n      tag_93\n      jumpi\n      mload(0x40)\n      0x08c379a000000000000000000000000000000000000000000000000000000000\n      dup2\n      mstore\n      0x04\n      add\n      tag_94\n      swap1\n      tag_95\n      jump\t// in\n    tag_94:\n      mload(0x40)\n      dup1\n      swap2\n      sub\n      swap1\n      revert\n    tag_93:\n        /* \"1013/BaseERC20.sol\":1889:1895  _value */\n      dup2\n        /* \"1013/BaseERC20.sol\":1856:1866  allowances */\n      0x05\n        /* \"1013/BaseERC20.sol\":1856:1873  allowances[_from] */\n      0x00\n        /* \"1013/BaseERC20.sol\":1867:1872  _from */\n      dup7\n        /* \"1013/BaseERC20.sol\":1856:1873  allowances[_from] */\n      0xffffffffffffffffffffffffffffffffffffffff\n      and\n      0xffffffffffffffffffffffffffffffffffffffff\n      and\n      dup2\n      mstore\n      0x20\n      add\n      swap1\n      dup2\n      mstore\n      0x20\n      add\n      0x00\n      keccak256\n        /* \"1013/BaseERC20.sol\":1856:1885  allowances[_from][msg.sender] */\n      0x00\n        /* \"1013/BaseERC20.sol\":1874:1884  msg.sender */\n      caller\n        /* \"1013/BaseERC20.sol\":1856:1885  allowances[_from][msg.sender] */\n      0xffffffffffffffffffffffffffffffffffffffff\n      and\n      0xffffffffffffffffffffffffffffffffffffffff\n      and\n      dup2\n      mstore\n      0x20\n      add\n      swap1\n      dup2\n      mstore\n      0x20\n      add\n      0x00\n      keccak256\n      sload\n        /* \"1013/BaseERC20.sol\":1856:1895  allowances[_from][msg.sender] >= _value */\n      lt\n      iszero\n        /* \"1013/BaseERC20.sol\":1848:1940  require(allowances[_from][msg.sender] >= _value, \"ERC20: transfer amount exceeds allowance\") */\n      tag_96\n      jumpi\n      mload(0x40)\n      0x08c379a000000000000000000000000000000000000000000000000000000000\n      dup2\n      mstore\n      0x04\n      add\n      tag_97\n      swap1\n      tag_98\n      jump\t// in\n    tag_97:\n      mload(0x40)\n      dup1\n      swap2\n      sub\n      swap1\n      revert\n    tag_96:\n        /* \"1013/BaseERC20.sol\":1970:1976  _value */\n      dup2\n        /* \"1013/BaseERC20.sol\":1951:1959  balances */\n      0x04\n        /* \"1013/BaseERC20.sol\":1951:1966  balances[_from] */\n      0x00\n        /* \"1013/BaseERC20.sol\":1960:1965  _from */\n      dup7\n        /* \"1013/BaseERC20.sol\":1951:1966  balances[_from] */\n      0xffffffffffffffffffffffffffffffffffffffff\n      and\n      0xffffffffffffffffffffffffffffffffffffffff\n      and\n      dup2\n      mstore\n      0x20\n      add\n      swap1\n      dup2\n      mstore\n      0x20\n      add\n      0x00\n      keccak256\n      0x00\n        /* \"1013/BaseERC20.sol\":1951:1976  balances[_from] -= _value */\n      dup3\n      dup3\n      sload\n      tag_99\n      swap2\n      swap1\n      tag_100\n      jump\t// in\n    tag_99:\n      swap3\n      pop\n      pop\n      dup2\n      swap1\n      sstore\n      pop\n        /* \"1013/BaseERC20.sol\":2003:2009  _value */\n      dup2\n        /* \"1013/BaseERC20.sol\":1986:1994  balances */\n      0x04\n        /* \"1013/BaseERC20.sol\":1986:1999  balances[_to] */\n      0x00\n        /* \"1013/BaseERC20.sol\":1995:1998  _to */\n      dup6\n        /* \"1013/BaseERC20.sol\":1986:1999  balances[_to] */\n      0xffffffffffffffffffffffffffffffffffffffff\n      and\n      0xffffffffffffffffffffffffffffffffffffffff\n      and\n      dup2\n      mstore\n      0x20\n      add\n      swap1\n      dup2\n      mstore\n      0x20\n      add\n      0x00\n      keccak256\n      0x00\n        /* \"1013/BaseERC20.sol\":1986:2009  balances[_to] += _value */\n      dup3\n      dup3\n      sload\n      tag_101\n      swap2\n      swap1\n      tag_102\n      jump\t// in\n    tag_101:\n      swap3\n      pop\n      pop\n      dup2\n      swap1\n      sstore\n      pop\n        /* \"1013/BaseERC20.sol\":2052:2058  _value */\n      dup2\n        /* \"1013/BaseERC20.sol\":2019:2029  allowances */\n      0x05\n        /* \"1013/BaseERC20.sol\":2019:2036  allowances[_from] */\n      0x00\n        /* \"1013/BaseERC20.sol\":2030:2035  _from */\n      dup7\n        /* \"1013/BaseERC20.sol\":2019:2036  allowances[_from] */\n      0xffffffffffffffffffffffffffffffffffffffff\n      and\n      0xffffffffffffffffffffffffffffffffffffffff\n      and\n      dup2\n      mstore\n      0x20\n      add\n      swap1\n      dup2\n      mstore\n      0x20\n      add\n      0x00\n      keccak256\n        /* \"1013/BaseERC20.sol\":2019:2048  allowances[_from][msg.sender] */\n      0x00\n        /* \"1013/BaseERC20.sol\":2037:2047  msg.sender */\n      caller\n        /* \"1013/BaseERC20.sol\":2019:2048  allowances[_from][msg.sender] */\n      0xffffffffffffffffffffffffffffffffffffffff\n      and\n      0xffffffffffffffffffffffffffffffffffffffff\n      and\n      dup2\n      mstore\n      0x20\n      add\n      swap1\n      dup2\n      mstore\n      0x20\n      add\n      0x00\n      keccak256\n      0x00\n        /* \"1013/BaseERC20.sol\":2019:2058  allowances[_from][msg.sender] -= _value */\n      dup3\n      dup3\n      sload\n      tag_103\n      swap2\n      swap1\n      tag_100\n      jump\t// in\n    tag_103:\n      swap3\n      pop\n      pop\n      dup2\n      swap1\n      sstore\n      pop\n        /* \"1013/BaseERC20.sol\":2090:2093  _to */\n      dup3\n        /* \"1013/BaseERC20.sol\":2074:2102  Transfer(_from, _to, _value) */\n      0xffffffffffffffffffffffffffffffffffffffff\n      and\n        /* \"1013/BaseERC20.sol\":2083:2088  _from */\n      dup5\n        /* \"1013/BaseERC20.sol\":2074:2102  Transfer(_from, _to, _value) */\n      0xffffffffffffffffffffffffffffffffffffffff\n      and\n      0xddf252ad1be2c89b69c2b068fc378daa952ba7f163c4a11628f55a4df523b3ef\n        /* \"1013/BaseERC20.sol\":2095:2101  _value */\n      dup5\n        /* \"1013/BaseERC20.sol\":2074:2102  Transfer(_from, _to, _value) */\n      mload(0x40)\n      tag_104\n      swap2\n      swap1\n      tag_36\n      jump\t// in\n    tag_104:\n      mload(0x40)\n      dup1\n      swap2\n      sub\n      swap1\n      log3\n        /* \"1013/BaseERC20.sol\":2119:2123  true */\n      0x01\n        /* \"1013/BaseERC20.sol\":2112:2123  return true */\n      swap1\n      pop\n        /* \"1013/BaseERC20.sol\":1656:2130  function transferFrom(address _from, address _to, uint256 _value) public returns (bool success) {... */\n      swap4\n      swap3\n      pop\n      pop\n      pop\n      jump\t// out\n        /* \"1013/BaseERC20.sol\":298:341  mapping(address => uint256) public balances */\n    tag_48:\n      mstore(0x20, 0x04)\n      dup1\n      0x00\n      mstore\n      keccak256(0x00, 0x40)\n      0x00\n      swap2\n      pop\n      swap1\n      pop\n      sload\n      dup2\n      jump\t// out\n        /* \"1013/BaseERC20.sol\":195:216  uint8 public decimals */\n    tag_51:\n      0x02\n      0x00\n      swap1\n      sload\n      swap1\n      0x0100\n      exp\n      swap1\n      div\n      0xff\n      and\n      dup2\n      jump\t// out\n        /* \"1013/BaseERC20.sol\":347:412  mapping(address => mapping(address => uint256)) public allowances */\n    tag_57:\n      mstore(0x20, 0x05)\n      dup2\n      0x00\n      mstore\n      mstore(0x20, keccak256(0x00, 0x40))\n      dup1\n      0x00\n      mstore\n      keccak256(0x00, 0x40)\n      0x00\n      swap2\n      pop\n      swap2\n      pop\n      pop\n      sload\n      dup2\n      jump\t// out\n        /* \"1013/BaseERC20.sol\":1060:1173  function balanceOf(address _owner) public view returns (uint256 balance) {... */\n    tag_61:\n        /* \"1013/BaseERC20.sol\":1116:1131  uint256 balance */\n      0x00\n        /* \"1013/BaseERC20.sol\":1150:1158  balances */\n      0x04\n        /* \"1013/BaseERC20.sol\":1150:1166  balances[_owner] */\n      0x00\n        /* \"1013/BaseERC20.sol\":1159:1165  _owner */\n      dup4\n        /* \"1013/BaseERC20.sol\":1150:1166  balances[_owner] */\n      0xffffffffffffffffffffffffffffffffffffffff\n      and\n      0xffffffffffffffffffffffffffffffffffffffff\n      and\n      dup2\n      mstore\n      0x20\n      add\n      swap1\n      dup2\n      mstore\n      0x20\n      add\n      0x00\n      keccak256\n      sload\n        /* \"1013/BaseERC20.sol\":1143:1166  return balances[_owner] */\n      swap1\n      pop\n        /* \"1013/BaseERC20.sol\":1060:1173  function balanceOf(address _owner) public view returns (uint256 balance) {... */\n      swap2\n      swap1\n      pop\n      jump\t// out\n        /* \"1013/BaseERC20.sol\":169:189  string public symbol */\n    tag_64:\n      0x01\n      dup1\n      sload\n      tag_106\n      swap1\n      tag_75\n      jump\t// in\n    tag_106:\n      dup1\n      0x1f\n      add\n      0x20\n      dup1\n      swap2\n      div\n      mul\n      0x20\n      add\n      mload(0x40)\n      swap1\n      dup2\n      add\n      0x40\n      mstore\n      dup1\n      swap3\n      swap2\n      swap1\n      dup2\n      dup2\n      mstore\n      0x20\n      add\n      dup3\n      dup1\n      sload\n      tag_107\n      swap1\n      tag_75\n      jump\t// in\n    tag_107:\n      dup1\n      iszero\n      tag_108\n      jumpi\n      dup1\n      0x1f\n      lt\n      tag_109\n      jumpi\n      0x0100\n      dup1\n      dup4\n      sload\n      div\n      mul\n      dup4\n      mstore\n      swap2\n      0x20\n      add\n      swap2\n      jump(tag_108)\n    tag_109:\n      dup3\n      add\n      swap2\n      swap1\n      0x00\n      mstore\n      keccak256(0x00, 0x20)\n      swap1\n    tag_110:\n      dup2\n      sload\n      dup2\n      mstore\n      swap1\n      0x01\n      add\n      swap1\n      0x20\n      add\n      dup1\n      dup4\n      gt\n      tag_110\n      jumpi\n      dup3\n      swap1\n      sub\n      0x1f\n      and\n      dup3\n      add\n      swap2\n    tag_108:\n      pop\n      pop\n      pop\n      pop\n      pop\n      dup2\n      jump\t// out\n        /* \"1013/BaseERC20.sol\":1249:1568  function transfer(address _to, uint256 _value) public returns (bool success) {... */\n    tag_68:\n        /* \"1013/BaseERC20.sol\":1312:1324  bool success */\n      0x00\n        /* \"1013/BaseERC20.sol\":1368:1374  _value */\n      dup2\n        /* \"1013/BaseERC20.sol\":1344:1352  balances */\n      0x04\n        /* \"1013/BaseERC20.sol\":1344:1364  balances[msg.sender] */\n      0x00\n        /* \"1013/BaseERC20.sol\":1353:1363  msg.sender */\n      caller\n        /* \"1013/BaseERC20.sol\":1344:1364  balances[msg.sender] */\n      0xffffffffffffffffffffffffffffffffffffffff\n      and\n      0xffffffffffffffffffffffffffffffffffffffff\n      and\n      dup2\n      mstore\n      0x20\n      add\n      swap1\n      dup2\n      mstore\n      0x20\n      add\n      0x00\n      keccak256\n      sload\n        /* \"1013/BaseERC20.sol\":1344:1374  balances[msg.sender] >= _value */\n      lt\n      iszero\n        /* \"1013/BaseERC20.sol\":1336:1417  require(balances[msg.sender] >= _value, \"ERC20: transfer amount exceeds balance\") */\n      tag_112\n      jumpi\n      mload(0x40)\n      0x08c379a000000000000000000000000000000000000000000000000000000000\n      dup2\n      mstore\n      0x04\n      add\n      tag_113\n      swap1\n      tag_95\n      jump\t// in\n    tag_113:\n      mload(0x40)\n      dup1\n      swap2\n      sub\n      swap1\n      revert\n    tag_112:\n        /* \"1013/BaseERC20.sol\":1452:1458  _value */\n      dup2\n        /* \"1013/BaseERC20.sol\":1428:1436  balances */\n      0x04\n        /* \"1013/BaseERC20.sol\":1428:1448  balances[msg.sender] */\n      0x00\n        /* \"1013/BaseERC20.sol\":1437:1447  msg.sender */\n      caller\n        /* \"1013/BaseERC20.sol\":1428:1448  balances[msg.sender] */\n      0xffffffffffffffffffffffffffffffffffffffff\n      and\n      0xffffffffffffffffffffffffffffffffffffffff\n      and\n      dup2\n      mstore\n      0x20\n      add\n      swap1\n      dup2\n      mstore\n      0x20\n      add\n      0x00\n      keccak256\n      0x00\n        /* \"1013/BaseERC20.sol\":1428:1458  balances[msg.sender] -= _value */\n      dup3\n      dup3\n      sload\n      tag_114\n      swap2\n      swap1\n      tag_100\n      jump\t// in\n    tag_114:\n      swap3\n      pop\n      pop\n      dup2\n      swap1\n      sstore\n      pop\n        /* \"1013/BaseERC20.sol\":1485:1491  _value */\n      dup2\n        /* \"1013/BaseERC20.sol\":1468:1476  balances */\n      0x04\n        /* \"1013/BaseERC20.sol\":1468:1481  balances[_to] */\n      0x00\n        /* \"1013/BaseERC20.sol\":1477:1480  _to */\n      dup6\n        /* \"1013/BaseERC20.sol\":1468:1481  balances[_to] */\n      0xffffffffffffffffffffffffffffffffffffffff\n      and\n      0xffffffffffffffffffffffffffffffffffffffff\n      and\n      dup2\n      mstore\n      0x20\n      add\n      swap1\n      dup2\n      mstore\n      0x20\n      add\n      0x00\n      keccak256\n      0x00\n        /* \"1013/BaseERC20.sol\":1468:1491  balances[_to] += _value */\n      dup3\n      dup3\n      sload\n      tag_115\n      swap2\n      swap1\n      tag_102\n      jump\t// in\n    tag_115:\n      swap3\n      pop\n      pop\n      dup2\n      swap1\n      sstore\n      pop\n        /* \"1013/BaseERC20.sol\":1528:1531  _to */\n      dup3\n        /* \"1013/BaseERC20.sol\":1507:1540  Transfer(msg.sender, _to, _value) */\n      0xffffffffffffffffffffffffffffffffffffffff\n      and\n        /* \"1013/BaseERC20.sol\":1516:1526  msg.sender */\n      caller\n        /* \"1013/BaseERC20.sol\":1507:1540  Transfer(msg.sender, _to, _value) */\n      0xffffffffffffffffffffffffffffffffffffffff\n      and\n      0xddf252ad1be2c89b69c2b068fc378daa952ba7f163c4a11628f55a4df523b3ef\n        /* \"1013/BaseERC20.sol\":1533:1539  _value */\n      dup5\n        /* \"1013/BaseERC20.sol\":1507:1540  Transfer(msg.sender, _to, _value) */\n      mload(0x40)\n      tag_116\n      swap2\n      swap1\n      tag_36\n      jump\t// in\n    tag_116:\n      mload(0x40)\n      dup1\n      swap2\n      sub\n      swap1\n      log3\n        /* \"1013/BaseERC20.sol\":1557:1561  true */\n      0x01\n        /* \"1013/BaseERC20.sol\":1550:1561  return true */\n      swap1\n      pop\n        /* \"1013/BaseERC20.sol\":1249:1568  function transfer(address _to, uint256 _value) public returns (bool success) {... */\n      swap3\n      swap2\n      pop\n      pop\n      jump\t// out\n        /* \"1013/BaseERC20.sol\":2502:2647  function allowance(address _owner, address _spender) public view returns (uint256 remaining) {... */\n    tag_72:\n        /* \"1013/BaseERC20.sol\":2576:2593  uint256 remaining */\n      0x00\n        /* \"1013/BaseERC20.sol\":2612:2622  allowances */\n      0x05\n        /* \"1013/BaseERC20.sol\":2612:2630  allowances[_owner] */\n      0x00\n        /* \"1013/BaseERC20.sol\":2623:2629  _owner */\n      dup5\n        /* \"1013/BaseERC20.sol\":2612:2630  allowances[_owner] */\n      0xffffffffffffffffffffffffffffffffffffffff\n      and\n      0xffffffffffffffffffffffffffffffffffffffff\n      and\n      dup2\n      mstore\n      0x20\n      add\n      swap1\n      dup2\n      mstore\n      0x20\n      add\n      0x00\n      keccak256\n        /* \"1013/BaseERC20.sol\":2612:2640  allowances[_owner][_spender] */\n      0x00\n        /* \"1013/BaseERC20.sol\":2631:2639  _spender */\n      dup4\n        /* \"1013/BaseERC20.sol\":2612:2640  allowances[_owner][_spender] */\n      0xffffffffffffffffffffffffffffffffffffffff\n      and\n      0xffffffffffffffffffffffffffffffffffffffff\n      and\n      dup2\n      mstore\n      0x20\n      add\n      swap1\n      dup2\n      mstore\n      0x20\n      add\n      0x00\n      keccak256\n      sload\n        /* \"1013/BaseERC20.sol\":2605:2640  return allowances[_owner][_spender] */\n      swap1\n      pop\n        /* \"1013/BaseERC20.sol\":2502:2647  function allowance(address _owner, address _spender) public view returns (uint256 remaining) {... */\n      swap3\n      swap2\n      pop\n      pop\n      jump\t// out\n        /* \"#utility.yul\":7:106   */\n    tag_118:\n        /* \"#utility.yul\":59:65   */\n      0x00\n        /* \"#utility.yul\":93:98   */\n      dup2\n        /* \"#utility.yul\":87:99   */\n      mload\n        /* \"#utility.yul\":77:99   */\n      swap1\n      pop\n        /* \"#utility.yul\":7:106   */\n      swap2\n      swap1\n      pop\n      jump\t// out\n        /* \"#utility.yul\":112:281   */\n    tag_119:\n        /* \"#utility.yul\":196:207   */\n      0x00\n        /* \"#utility.yul\":230:236   */\n      dup3\n        /* \"#utility.yul\":225:228   */\n      dup3\n        /* \"#utility.yul\":218:237   */\n      mstore\n        /* \"#utility.yul\":270:274   */\n      0x20\n        /* \"#utility.yul\":265:268   */\n      dup3\n        /* \"#utility.yul\":261:275   */\n      add\n        /* \"#utility.yul\":246:275   */\n      swap1\n      pop\n        /* \"#utility.yul\":112:281   */\n      swap3\n      swap2\n      pop\n      pop\n      jump\t// out\n        /* \"#utility.yul\":287:426   */\n    tag_120:\n        /* \"#utility.yul\":376:382   */\n      dup3\n        /* \"#utility.yul\":371:374   */\n      dup2\n        /* \"#utility.yul\":366:369   */\n      dup4\n        /* \"#utility.yul\":360:383   */\n      mcopy\n        /* \"#utility.yul\":417:418   */\n      0x00\n        /* \"#utility.yul\":408:414   */\n      dup4\n        /* \"#utility.yul\":403:406   */\n      dup4\n        /* \"#utility.yul\":399:415   */\n      add\n        /* \"#utility.yul\":392:419   */\n      mstore\n        /* \"#utility.yul\":287:426   */\n      pop\n      pop\n      pop\n      jump\t// out\n        /* \"#utility.yul\":432:534   */\n    tag_121:\n        /* \"#utility.yul\":473:479   */\n      0x00\n        /* \"#utility.yul\":524:526   */\n      0x1f\n        /* \"#utility.yul\":520:527   */\n      not\n        /* \"#utility.yul\":515:517   */\n      0x1f\n        /* \"#utility.yul\":508:513   */\n      dup4\n        /* \"#utility.yul\":504:518   */\n      add\n        /* \"#utility.yul\":500:528   */\n      and\n        /* \"#utility.yul\":490:528   */\n      swap1\n      pop\n        /* \"#utility.yul\":432:534   */\n      swap2\n      swap1\n      pop\n      jump\t// out\n        /* \"#utility.yul\":540:917   */\n    tag_122:\n        /* \"#utility.yul\":628:631   */\n      0x00\n        /* \"#utility.yul\":656:695   */\n      tag_155\n        /* \"#utility.yul\":689:694   */\n      dup3\n        /* \"#utility.yul\":656:695   */\n      tag_118\n      jump\t// in\n    tag_155:\n        /* \"#utility.yul\":711:782   */\n      tag_156\n        /* \"#utility.yul\":775:781   */\n      dup2\n        /* \"#utility.yul\":770:773   */\n      dup6\n        /* \"#utility.yul\":711:782   */\n      tag_119\n      jump\t// in\n    tag_156:\n        /* \"#utility.yul\":704:782   */\n      swap4\n      pop\n        /* \"#utility.yul\":791:856   */\n      tag_157\n        /* \"#utility.yul\":849:855   */\n      dup2\n        /* \"#utility.yul\":844:847   */\n      dup6\n        /* \"#utility.yul\":837:841   */\n      0x20\n        /* \"#utility.yul\":830:835   */\n      dup7\n        /* \"#utility.yul\":826:842   */\n      add\n        /* \"#utility.yul\":791:856   */\n      tag_120\n      jump\t// in\n    tag_157:\n        /* \"#utility.yul\":881:910   */\n      tag_158\n        /* \"#utility.yul\":903:909   */\n      dup2\n        /* \"#utility.yul\":881:910   */\n      tag_121\n      jump\t// in\n    tag_158:\n        /* \"#utility.yul\":876:879   */\n      dup5\n        /* \"#utility.yul\":872:911   */\n      add\n        /* \"#utility.yul\":865:911   */\n      swap2\n      pop\n        /* \"#utility.yul\":632:917   */\n      pop\n        /* \"#utility.yul\":540:917   */\n      swap3\n      swap2\n      pop\n      pop\n      jump\t// out\n        /* \"#utility.yul\":923:1236   */\n    tag_21:\n        /* \"#utility.yul\":1036:1040   */\n      0x00\n        /* \"#utility.yul\":1074:1076   */\n      0x20\n        /* \"#utility.yul\":1063:1072   */\n      dup3\n        /* \"#utility.yul\":1059:1077   */\n      add\n        /* \"#utility.yul\":1051:1077   */\n      swap1\n      pop\n        /* \"#utility.yul\":1123:1132   */\n      dup2\n        /* \"#utility.yul\":1117:1121   */\n      dup2\n        /* \"#utility.yul\":1113:1133   */\n      sub\n        /* \"#utility.yul\":1109:1110   */\n      0x00\n        /* \"#utility.yul\":1098:1107   */\n      dup4\n        /* \"#utility.yul\":1094:1111   */\n      add\n        /* \"#utility.yul\":1087:1134   */\n      mstore\n        /* \"#utility.yul\":1151:1229   */\n      tag_160\n        /* \"#utility.yul\":1224:1228   */\n      dup2\n        /* \"#utility.yul\":1215:1221   */\n      dup5\n        /* \"#utility.yul\":1151:1229   */\n      tag_122\n      jump\t// in\n    tag_160:\n        /* \"#utility.yul\":1143:1229   */\n      swap1\n      pop\n        /* \"#utility.yul\":923:1236   */\n      swap3\n      swap2\n      pop\n      pop\n      jump\t// out\n        /* \"#utility.yul\":1323:1440   */\n    tag_124:\n        /* \"#utility.yul\":1432:1433   */\n      0x00\n        /* \"#utility.yul\":1429:1430   */\n      dup1\n        /* \"#utility.yul\":1422:1434   */\n      revert\n        /* \"#utility.yul\":1569:1695   */\n    tag_126:\n        /* \"#utility.yul\":1606:1613   */\n      0x00\n        /* \"#utility.yul\":1646:1688   */\n      0xffffffffffffffffffffffffffffffffffffffff\n        /* \"#utility.yul\":1639:1644   */\n      dup3\n        /* \"#utility.yul\":1635:1689   */\n      and\n        /* \"#utility.yul\":1624:1689   */\n      swap1\n      pop\n        /* \"#utility.yul\":1569:1695   */\n      swap2\n      swap1\n      pop\n      jump\t// out\n        /* \"#utility.yul\":1701:1797   */\n    tag_127:\n        /* \"#utility.yul\":1738:1745   */\n      0x00\n        /* \"#utility.yul\":1767:1791   */\n      tag_166\n        /* \"#utility.yul\":1785:1790   */\n      dup3\n        /* \"#utility.yul\":1767:1791   */\n      tag_126\n      jump\t// in\n    tag_166:\n        /* \"#utility.yul\":1756:1791   */\n      swap1\n      pop\n        /* \"#utility.yul\":1701:1797   */\n      swap2\n      swap1\n      pop\n      jump\t// out\n        /* \"#utility.yul\":1803:1925   */\n    tag_128:\n        /* \"#utility.yul\":1876:1900   */\n      tag_168\n        /* \"#utility.yul\":1894:1899   */\n      dup2\n        /* \"#utility.yul\":1876:1900   */\n      tag_127\n      jump\t// in\n    tag_168:\n        /* \"#utility.yul\":1869:1874   */\n      dup2\n        /* \"#utility.yul\":1866:1901   */\n      eq\n        /* \"#utility.yul\":1856:1919   */\n      tag_169\n      jumpi\n        /* \"#utility.yul\":1915:1916   */\n      0x00\n        /* \"#utility.yul\":1912:1913   */\n      dup1\n        /* \"#utility.yul\":1905:1917   */\n      revert\n        /* \"#utility.yul\":1856:1919   */\n    tag_169:\n        /* \"#utility.yul\":1803:1925   */\n      pop\n      jump\t// out\n        /* \"#utility.yul\":1931:2070   */\n    tag_129:\n        /* \"#utility.yul\":1977:1982   */\n      0x00\n        /* \"#utility.yul\":2015:2021   */\n      dup2\n        /* \"#utility.yul\":2002:2022   */\n      calldataload\n        /* \"#utility.yul\":1993:2022   */\n      swap1\n      pop\n        /* \"#utility.yul\":2031:2064   */\n      tag_171\n        /* \"#utility.yul\":2058:2063   */\n      dup2\n        /* \"#utility.yul\":2031:2064   */\n      tag_128\n      jump\t// in\n    tag_171:\n        /* \"#utility.yul\":1931:2070   */\n      swap3\n      swap2\n      pop\n      pop\n      jump\t// out\n        /* \"#utility.yul\":2076:2153   */\n    tag_130:\n        /* \"#utility.yul\":2113:2120   */\n      0x00\n        /* \"#utility.yul\":2142:2147   */\n      dup2\n        /* \"#utility.yul\":2131:2147   */\n      swap1\n      pop\n        /* \"#utility.yul\":2076:2153   */\n      swap2\n      swap1\n      pop\n      jump\t// out\n        /* \"#utility.yul\":2159:2281   */\n    tag_131:\n        /* \"#utility.yul\":2232:2256   */\n      tag_174\n        /* \"#utility.yul\":2250:2255   */\n      dup2\n        /* \"#utility.yul\":2232:2256   */\n      tag_130\n      jump\t// in\n    tag_174:\n        /* \"#utility.yul\":2225:2230   */\n      dup2\n        /* \"#utility.yul\":2222:2257   */\n      eq\n        /* \"#utility.yul\":2212:2275   */\n      tag_175\n      jumpi\n        /* \"#utility.yul\":2271:2272   */\n      0x00\n        /* \"#utility.yul\":2268:2269   */\n      dup1\n        /* \"#utility.yul\":2261:2273   */\n      revert\n        /* \"#utility.yul\":2212:2275   */\n    tag_175:\n        /* \"#utility.yul\":2159:2281   */\n      pop\n      jump\t// out\n        /* \"#utility.yul\":2287:2426   */\n    tag_132:\n        /* \"#utility.yul\":2333:2338   */\n      0x00\n        /* \"#utility.yul\":2371:2377   */\n      dup2\n        /* \"#utility.yul\":2358:2378   */\n      calldataload\n        /* \"#utility.yul\":2349:2378   */\n      swap1\n      pop\n        /* \"#utility.yul\":2387:2420   */\n      tag_177\n        /* \"#utility.yul\":2414:2419   */\n      dup2\n        /* \"#utility.yul\":2387:2420   */\n      tag_131\n      jump\t// in\n    tag_177:\n        /* \"#utility.yul\":2287:2426   */\n      swap3\n      swap2\n      pop\n      pop\n      jump\t// out\n        /* \"#utility.yul\":2432:2906   */\n    tag_24:\n        /* \"#utility.yul\":2500:2506   */\n      0x00\n        /* \"#utility.yul\":2508:2514   */\n      dup1\n        /* \"#utility.yul\":2557:2559   */\n      0x40\n        /* \"#utility.yul\":2545:2554   */\n      dup4\n        /* \"#utility.yul\":2536:2543   */\n      dup6\n        /* \"#utility.yul\":2532:2555   */\n      sub\n        /* \"#utility.yul\":2528:2560   */\n      slt\n        /* \"#utility.yul\":2525:2644   */\n      iszero\n      tag_179\n      jumpi\n        /* \"#utility.yul\":2563:2642   */\n      tag_180\n      tag_124\n      jump\t// in\n    tag_180:\n        /* \"#utility.yul\":2525:2644   */\n    tag_179:\n        /* \"#utility.yul\":2683:2684   */\n      0x00\n        /* \"#utility.yul\":2708:2761   */\n      tag_181\n        /* \"#utility.yul\":2753:2760   */\n      dup6\n        /* \"#utility.yul\":2744:2750   */\n      dup3\n        /* \"#utility.yul\":2733:2742   */\n      dup7\n        /* \"#utility.yul\":2729:2751   */\n      add\n        /* \"#utility.yul\":2708:2761   */\n      tag_129\n      jump\t// in\n    tag_181:\n        /* \"#utility.yul\":2698:2761   */\n      swap3\n      pop\n        /* \"#utility.yul\":2654:2771   */\n      pop\n        /* \"#utility.yul\":2810:2812   */\n      0x20\n        /* \"#utility.yul\":2836:2889   */\n      tag_182\n        /* \"#utility.yul\":2881:2888   */\n      dup6\n        /* \"#utility.yul\":2872:2878   */\n      dup3\n        /* \"#utility.yul\":2861:2870   */\n      dup7\n        /* \"#utility.yul\":2857:2879   */\n      add\n        /* \"#utility.yul\":2836:2889   */\n      tag_132\n      jump\t// in\n    tag_182:\n        /* \"#utility.yul\":2826:2889   */\n      swap2\n      pop\n        /* \"#utility.yul\":2781:2899   */\n      pop\n        /* \"#utility.yul\":2432:2906   */\n      swap3\n      pop\n      swap3\n      swap1\n      pop\n      jump\t// out\n        /* \"#utility.yul\":2912:3002   */\n    tag_133:\n        /* \"#utility.yul\":2946:2953   */\n      0x00\n        /* \"#utility.yul\":2989:2994   */\n      dup2\n        /* \"#utility.yul\":2982:2995   */\n      iszero\n        /* \"#utility.yul\":2975:2996   */\n      iszero\n        /* \"#utility.yul\":2964:2996   */\n      swap1\n      pop\n        /* \"#utility.yul\":2912:3002   */\n      swap2\n      swap1\n      pop\n      jump\t// out\n        /* \"#utility.yul\":3008:3117   */\n    tag_134:\n        /* \"#utility.yul\":3089:3110   */\n      tag_185\n        /* \"#utility.yul\":3104:3109   */\n      dup2\n        /* \"#utility.yul\":3089:3110   */\n      tag_133\n      jump\t// in\n    tag_185:\n        /* \"#utility.yul\":3084:3087   */\n      dup3\n        /* \"#utility.yul\":3077:3111   */\n      mstore\n        /* \"#utility.yul\":3008:3117   */\n      pop\n      pop\n      jump\t// out\n        /* \"#utility.yul\":3123:3333   */\n    tag_27:\n        /* \"#utility.yul\":3210:3214   */\n      0x00\n        /* \"#utility.yul\":3248:3250   */\n      0x20\n        /* \"#utility.yul\":3237:3246   */\n      dup3\n        /* \"#utility.yul\":3233:3251   */\n      add\n        /* \"#utility.yul\":3225:3251   */\n      swap1\n      pop\n        /* \"#utility.yul\":3261:3326   */\n      tag_187\n        /* \"#utility.yul\":3323:3324   */\n      0x00\n        /* \"#utility.yul\":3312:3321   */\n      dup4\n        /* \"#utility.yul\":3308:3325   */\n      add\n        /* \"#utility.yul\":3299:3305   */\n      dup5\n        /* \"#utility.yul\":3261:3326   */\n      tag_134\n      jump\t// in\n    tag_187:\n        /* \"#utility.yul\":3123:3333   */\n      swap3\n      swap2\n      pop\n      pop\n      jump\t// out\n        /* \"#utility.yul\":3339:3668   */\n    tag_30:\n        /* \"#utility.yul\":3398:3404   */\n      0x00\n        /* \"#utility.yul\":3447:3449   */\n      0x20\n        /* \"#utility.yul\":3435:3444   */\n      dup3\n        /* \"#utility.yul\":3426:3433   */\n      dup5\n        /* \"#utility.yul\":3422:3445   */\n      sub\n        /* \"#utility.yul\":3418:3450   */\n      slt\n        /* \"#utility.yul\":3415:3534   */\n      iszero\n      tag_189\n      jumpi\n        /* \"#utility.yul\":3453:3532   */\n      tag_190\n      tag_124\n      jump\t// in\n    tag_190:\n        /* \"#utility.yul\":3415:3534   */\n    tag_189:\n        /* \"#utility.yul\":3573:3574   */\n      0x00\n        /* \"#utility.yul\":3598:3651   */\n      tag_191\n        /* \"#utility.yul\":3643:3650   */\n      dup5\n        /* \"#utility.yul\":3634:3640   */\n      dup3\n        /* \"#utility.yul\":3623:3632   */\n      dup6\n        /* \"#utility.yul\":3619:3641   */\n      add\n        /* \"#utility.yul\":3598:3651   */\n      tag_129\n      jump\t// in\n    tag_191:\n        /* \"#utility.yul\":3588:3651   */\n      swap2\n      pop\n        /* \"#utility.yul\":3544:3661   */\n      pop\n        /* \"#utility.yul\":3339:3668   */\n      swap3\n      swap2\n      pop\n      pop\n      jump\t// out\n        /* \"#utility.yul\":3674:3792   */\n    tag_135:\n        /* \"#utility.yul\":3761:3785   */\n      tag_193\n        /* \"#utility.yul\":3779:3784   */\n      dup2\n        /* \"#utility.yul\":3761:3785   */\n      tag_130\n      jump\t// in\n    tag_193:\n        /* \"#utility.yul\":3756:3759   */\n      dup3\n        /* \"#utility.yul\":3749:3786   */\n      mstore\n        /* \"#utility.yul\":3674:3792   */\n      pop\n      pop\n      jump\t// out\n        /* \"#utility.yul\":3798:4020   */\n    tag_36:\n        /* \"#utility.yul\":3891:3895   */\n      0x00\n        /* \"#utility.yul\":3929:3931   */\n      0x20\n        /* \"#utility.yul\":3918:3927   */\n      dup3\n        /* \"#utility.yul\":3914:3932   */\n      add\n        /* \"#utility.yul\":3906:3932   */\n      swap1\n      pop\n        /* \"#utility.yul\":3942:4013   */\n      tag_195\n        /* \"#utility.yul\":4010:4011   */\n      0x00\n        /* \"#utility.yul\":3999:4008   */\n      dup4\n        /* \"#utility.yul\":3995:4012   */\n      add\n        /* \"#utility.yul\":3986:3992   */\n      dup5\n        /* \"#utility.yul\":3942:4013   */\n      tag_135\n      jump\t// in\n    tag_195:\n        /* \"#utility.yul\":3798:4020   */\n      swap3\n      swap2\n      pop\n      pop\n      jump\t// out\n        /* \"#utility.yul\":4026:4645   */\n    tag_43:\n        /* \"#utility.yul\":4103:4109   */\n      0x00\n        /* \"#utility.yul\":4111:4117   */\n      dup1\n        /* \"#utility.yul\":4119:4125   */\n      0x00\n        /* \"#utility.yul\":4168:4170   */\n      0x60\n        /* \"#utility.yul\":4156:4165   */\n      dup5\n        /* \"#utility.yul\":4147:4154   */\n      dup7\n        /* \"#utility.yul\":4143:4166   */\n      sub\n        /* \"#utility.yul\":4139:4171   */\n      slt\n        /* \"#utility.yul\":4136:4255   */\n      iszero\n      tag_197\n      jumpi\n        /* \"#utility.yul\":4174:4253   */\n      tag_198\n      tag_124\n      jump\t// in\n    tag_198:\n        /* \"#utility.yul\":4136:4255   */\n    tag_197:\n        /* \"#utility.yul\":4294:4295   */\n      0x00\n        /* \"#utility.yul\":4319:4372   */\n      tag_199\n        /* \"#utility.yul\":4364:4371   */\n      dup7\n        /* \"#utility.yul\":4355:4361   */\n      dup3\n        /* \"#utility.yul\":4344:4353   */\n      dup8\n        /* \"#utility.yul\":4340:4362   */\n      add\n        /* \"#utility.yul\":4319:4372   */\n      tag_129\n      jump\t// in\n    tag_199:\n        /* \"#utility.yul\":4309:4372   */\n      swap4\n      pop\n        /* \"#utility.yul\":4265:4382   */\n      pop\n        /* \"#utility.yul\":4421:4423   */\n      0x20\n        /* \"#utility.yul\":4447:4500   */\n      tag_200\n        /* \"#utility.yul\":4492:4499   */\n      dup7\n        /* \"#utility.yul\":4483:4489   */\n      dup3\n        /* \"#utility.yul\":4472:4481   */\n      dup8\n        /* \"#utility.yul\":4468:4490   */\n      add\n        /* \"#utility.yul\":4447:4500   */\n      tag_129\n      jump\t// in\n    tag_200:\n        /* \"#utility.yul\":4437:4500   */\n      swap3\n      pop\n        /* \"#utility.yul\":4392:4510   */\n      pop\n        /* \"#utility.yul\":4549:4551   */\n      0x40\n        /* \"#utility.yul\":4575:4628   */\n      tag_201\n        /* \"#utility.yul\":4620:4627   */\n      dup7\n        /* \"#utility.yul\":4611:4617   */\n      dup3\n        /* \"#utility.yul\":4600:4609   */\n      dup8\n        /* \"#utility.yul\":4596:4618   */\n      add\n        /* \"#utility.yul\":4575:4628   */\n      tag_132\n      jump\t// in\n    tag_201:\n        /* \"#utility.yul\":4565:4628   */\n      swap2\n      pop\n        /* \"#utility.yul\":4520:4638   */\n      pop\n        /* \"#utility.yul\":4026:4645   */\n      swap3\n      pop\n      swap3\n      pop\n      swap3\n      jump\t// out\n        /* \"#utility.yul\":4651:4737   */\n    tag_136:\n        /* \"#utility.yul\":4686:4693   */\n      0x00\n        /* \"#utility.yul\":4726:4730   */\n      0xff\n        /* \"#utility.yul\":4719:4724   */\n      dup3\n        /* \"#utility.yul\":4715:4731   */\n      and\n        /* \"#utility.yul\":4704:4731   */\n      swap1\n      pop\n        /* \"#utility.yul\":4651:4737   */\n      swap2\n      swap1\n      pop\n      jump\t// out\n        /* \"#utility.yul\":4743:4855   */\n    tag_137:\n        /* \"#utility.yul\":4826:4848   */\n      tag_204\n        /* \"#utility.yul\":4842:4847   */\n      dup2\n        /* \"#utility.yul\":4826:4848   */\n      tag_136\n      jump\t// in\n    tag_204:\n        /* \"#utility.yul\":4821:4824   */\n      dup3\n        /* \"#utility.yul\":4814:4849   */\n      mstore\n        /* \"#utility.yul\":4743:4855   */\n      pop\n      pop\n      jump\t// out\n        /* \"#utility.yul\":4861:5075   */\n    tag_53:\n        /* \"#utility.yul\":4950:4954   */\n      0x00\n        /* \"#utility.yul\":4988:4990   */\n      0x20\n        /* \"#utility.yul\":4977:4986   */\n      dup3\n        /* \"#utility.yul\":4973:4991   */\n      add\n        /* \"#utility.yul\":4965:4991   */\n      swap1\n      pop\n        /* \"#utility.yul\":5001:5068   */\n      tag_206\n        /* \"#utility.yul\":5065:5066   */\n      0x00\n        /* \"#utility.yul\":5054:5063   */\n      dup4\n        /* \"#utility.yul\":5050:5067   */\n      add\n        /* \"#utility.yul\":5041:5047   */\n      dup5\n        /* \"#utility.yul\":5001:5068   */\n      tag_137\n      jump\t// in\n    tag_206:\n        /* \"#utility.yul\":4861:5075   */\n      swap3\n      swap2\n      pop\n      pop\n      jump\t// out\n        /* \"#utility.yul\":5081:5555   */\n    tag_56:\n        /* \"#utility.yul\":5149:5155   */\n      0x00\n        /* \"#utility.yul\":5157:5163   */\n      dup1\n        /* \"#utility.yul\":5206:5208   */\n      0x40\n        /* \"#utility.yul\":5194:5203   */\n      dup4\n        /* \"#utility.yul\":5185:5192   */\n      dup6\n        /* \"#utility.yul\":5181:5204   */\n      sub\n        /* \"#utility.yul\":5177:5209   */\n      slt\n        /* \"#utility.yul\":5174:5293   */\n      iszero\n      tag_208\n      jumpi\n        /* \"#utility.yul\":5212:5291   */\n      tag_209\n      tag_124\n      jump\t// in\n    tag_209:\n        /* \"#utility.yul\":5174:5293   */\n    tag_208:\n        /* \"#utility.yul\":5332:5333   */\n      0x00\n        /* \"#utility.yul\":5357:5410   */\n      tag_210\n        /* \"#utility.yul\":5402:5409   */\n      dup6\n        /* \"#utility.yul\":5393:5399   */\n      dup3\n        /* \"#utility.yul\":5382:5391   */\n      dup7\n        /* \"#utility.yul\":5378:5400   */\n      add\n        /* \"#utility.yul\":5357:5410   */\n      tag_129\n      jump\t// in\n    tag_210:\n        /* \"#utility.yul\":5347:5410   */\n      swap3\n      pop\n        /* \"#utility.yul\":5303:5420   */\n      pop\n        /* \"#utility.yul\":5459:5461   */\n      0x20\n        /* \"#utility.yul\":5485:5538   */\n      tag_211\n        /* \"#utility.yul\":5530:5537   */\n      dup6\n        /* \"#utility.yul\":5521:5527   */\n      dup3\n        /* \"#utility.yul\":5510:5519   */\n      dup7\n        /* \"#utility.yul\":5506:5528   */\n      add\n        /* \"#utility.yul\":5485:5538   */\n      tag_129\n      jump\t// in\n    tag_211:\n        /* \"#utility.yul\":5475:5538   */\n      swap2\n      pop\n        /* \"#utility.yul\":5430:5548   */\n      pop\n        /* \"#utility.yul\":5081:5555   */\n      swap3\n      pop\n      swap3\n      swap1\n      pop\n      jump\t// out\n        /* \"#utility.yul\":5561:5741   */\n    tag_138:\n        /* \"#utility.yul\":5609:5686   */\n      0x4e487b7100000000000000000000000000000000000000000000000000000000\n        /* \"#utility.yul\":5606:5607   */\n      0x00\n        /* \"#utility.yul\":5599:5687   */\n      mstore\n        /* \"#utility.yul\":5706:5710   */\n      0x22\n        /* \"#utility.yul\":5703:5704   */\n      0x04\n        /* \"#utility.yul\":5696:5711   */\n      mstore\n        /* \"#utility.yul\":5730:5734   */\n      0x24\n        /* \"#utility.yul\":5727:5728   */\n      0x00\n        /* \"#utility.yul\":5720:5735   */\n      revert\n        /* \"#utility.yul\":5747:6067   */\n    tag_75:\n        /* \"#utility.yul\":5791:5797   */\n      0x00\n        /* \"#utility.yul\":5828:5829   */\n      0x02\n        /* \"#utility.yul\":5822:5826   */\n      dup3\n        /* \"#utility.yul\":5818:5830   */\n      div\n        /* \"#utility.yul\":5808:5830   */\n      swap1\n      pop\n        /* \"#utility.yul\":5875:5876   */\n      0x01\n        /* \"#utility.yul\":5869:5873   */\n      dup3\n        /* \"#utility.yul\":5865:5877   */\n      and\n        /* \"#utility.yul\":5896:5914   */\n      dup1\n        /* \"#utility.yul\":5886:5967   */\n      tag_214\n      jumpi\n        /* \"#utility.yul\":5952:5956   */\n      0x7f\n        /* \"#utility.yul\":5944:5950   */\n      dup3\n        /* \"#utility.yul\":5940:5957   */\n      and\n        /* \"#utility.yul\":5930:5957   */\n      swap2\n      pop\n        /* \"#utility.yul\":5886:5967   */\n    tag_214:\n        /* \"#utility.yul\":6014:6016   */\n      0x20\n        /* \"#utility.yul\":6006:6012   */\n      dup3\n        /* \"#utility.yul\":6003:6017   */\n      lt\n        /* \"#utility.yul\":5983:6001   */\n      dup2\n        /* \"#utility.yul\":5980:6018   */\n      sub\n        /* \"#utility.yul\":5977:6061   */\n      tag_215\n      jumpi\n        /* \"#utility.yul\":6033:6051   */\n      tag_216\n      tag_138\n      jump\t// in\n    tag_216:\n        /* \"#utility.yul\":5977:6061   */\n    tag_215:\n        /* \"#utility.yul\":5798:6067   */\n      pop\n        /* \"#utility.yul\":5747:6067   */\n      swap2\n      swap1\n      pop\n      jump\t// out\n        /* \"#utility.yul\":6073:6191   */\n    tag_139:\n        /* \"#utility.yul\":6160:6184   */\n      tag_218\n        /* \"#utility.yul\":6178:6183   */\n      dup2\n        /* \"#utility.yul\":6160:6184   */\n      tag_127\n      jump\t// in\n    tag_218:\n        /* \"#utility.yul\":6155:6158   */\n      dup3\n        /* \"#utility.yul\":6148:6185   */\n      mstore\n        /* \"#utility.yul\":6073:6191   */\n      pop\n      pop\n      jump\t// out\n        /* \"#utility.yul\":6197:6282   */\n    tag_140:\n        /* \"#utility.yul\":6242:6249   */\n      0x00\n        /* \"#utility.yul\":6271:6276   */\n      dup2\n        /* \"#utility.yul\":6260:6276   */\n      swap1\n      pop\n        /* \"#utility.yul\":6197:6282   */\n      swap2\n      swap1\n      pop\n      jump\t// out\n        /* \"#utility.yul\":6288:6348   */\n    tag_141:\n        /* \"#utility.yul\":6316:6319   */\n      0x00\n        /* \"#utility.yul\":6337:6342   */\n      dup2\n        /* \"#utility.yul\":6330:6342   */\n      swap1\n      pop\n        /* \"#utility.yul\":6288:6348   */\n      swap2\n      swap1\n      pop\n      jump\t// out\n        /* \"#utility.yul\":6354:6512   */\n    tag_142:\n        /* \"#utility.yul\":6412:6421   */\n      0x00\n        /* \"#utility.yul\":6445:6506   */\n      tag_222\n        /* \"#utility.yul\":6463:6505   */\n      tag_223\n        /* \"#utility.yul\":6472:6504   */\n      tag_224\n        /* \"#utility.yul\":6498:6503   */\n      dup5\n        /* \"#utility.yul\":6472:6504   */\n      tag_140\n      jump\t// in\n    tag_224:\n        /* \"#utility.yul\":6463:6505   */\n      tag_141\n      jump\t// in\n    tag_223:\n        /* \"#utility.yul\":6445:6506   */\n      tag_130\n      jump\t// in\n    tag_222:\n        /* \"#utility.yul\":6432:6506   */\n      swap1\n      pop\n        /* \"#utility.yul\":6354:6512   */\n      swap2\n      swap1\n      pop\n      jump\t// out\n        /* \"#utility.yul\":6518:6665   */\n    tag_143:\n        /* \"#utility.yul\":6613:6658   */\n      tag_226\n        /* \"#utility.yul\":6652:6657   */\n      dup2\n        /* \"#utility.yul\":6613:6658   */\n      tag_142\n      jump\t// in\n    tag_226:\n        /* \"#utility.yul\":6608:6611   */\n      dup3\n        /* \"#utility.yul\":6601:6659   */\n      mstore\n        /* \"#utility.yul\":6518:6665   */\n      pop\n      pop\n      jump\t// out\n        /* \"#utility.yul\":6671:7129   */\n    tag_88:\n        /* \"#utility.yul\":6828:6832   */\n      0x00\n        /* \"#utility.yul\":6866:6868   */\n      0x60\n        /* \"#utility.yul\":6855:6864   */\n      dup3\n        /* \"#utility.yul\":6851:6869   */\n      add\n        /* \"#utility.yul\":6843:6869   */\n      swap1\n      pop\n        /* \"#utility.yul\":6879:6950   */\n      tag_228\n        /* \"#utility.yul\":6947:6948   */\n      0x00\n        /* \"#utility.yul\":6936:6945   */\n      dup4\n        /* \"#utility.yul\":6932:6949   */\n      add\n        /* \"#utility.yul\":6923:6929   */\n      dup7\n        /* \"#utility.yul\":6879:6950   */\n      tag_139\n      jump\t// in\n    tag_228:\n        /* \"#utility.yul\":6960:7032   */\n      tag_229\n        /* \"#utility.yul\":7028:7030   */\n      0x20\n        /* \"#utility.yul\":7017:7026   */\n      dup4\n        /* \"#utility.yul\":7013:7031   */\n      add\n        /* \"#utility.yul\":7004:7010   */\n      dup6\n        /* \"#utility.yul\":6960:7032   */\n      tag_135\n      jump\t// in\n    tag_229:\n        /* \"#utility.yul\":7042:7122   */\n      tag_230\n        /* \"#utility.yul\":7118:7120   */\n      0x40\n        /* \"#utility.yul\":7107:7116   */\n      dup4\n        /* \"#utility.yul\":7103:7121   */\n      add\n        /* \"#utility.yul\":7094:7100   */\n      dup5\n        /* \"#utility.yul\":7042:7122   */\n      tag_143\n      jump\t// in\n    tag_230:\n        /* \"#utility.yul\":6671:7129   */\n      swap5\n      swap4\n      pop\n      pop\n      pop\n      pop\n      jump\t// out\n        /* \"#utility.yul\":7135:7360   */\n    tag_144:\n        /* \"#utility.yul\":7275:7309   */\n      0x45524332303a207472616e7366657220616d6f756e7420657863656564732062\n        /* \"#utility.yul\":7271:7272   */\n      0x00\n        /* \"#utility.yul\":7263:7269   */\n      dup3\n        /* \"#utility.yul\":7259:7273   */\n      add\n        /* \"#utility.yul\":7252:7310   */\n      mstore\n        /* \"#utility.yul\":7344:7352   */\n      0x616c616e63650000000000000000000000000000000000000000000000000000\n        /* \"#utility.yul\":7339:7341   */\n      0x20\n        /* \"#utility.yul\":7331:7337   */\n      dup3\n        /* \"#utility.yul\":7327:7342   */\n      add\n        /* \"#utility.yul\":7320:7353   */\n      mstore\n        /* \"#utility.yul\":7135:7360   */\n      pop\n      jump\t// out\n        /* \"#utility.yul\":7366:7732   */\n    tag_145:\n        /* \"#utility.yul\":7508:7511   */\n      0x00\n        /* \"#utility.yul\":7529:7596   */\n      tag_233\n        /* \"#utility.yul\":7593:7595   */\n      0x26\n        /* \"#utility.yul\":7588:7591   */\n      dup4\n        /* \"#utility.yul\":7529:7596   */\n      tag_119\n      jump\t// in\n    tag_233:\n        /* \"#utility.yul\":7522:7596   */\n      swap2\n      pop\n        /* \"#utility.yul\":7605:7698   */\n      tag_234\n        /* \"#utility.yul\":7694:7697   */\n      dup3\n        /* \"#utility.yul\":7605:7698   */\n      tag_144\n      jump\t// in\n    tag_234:\n        /* \"#utility.yul\":7723:7725   */\n      0x40\n        /* \"#utility.yul\":7718:7721   */\n      dup3\n        /* \"#utility.yul\":7714:7726   */\n      add\n        /* \"#utility.yul\":7707:7726   */\n      swap1\n      pop\n        /* \"#utility.yul\":7366:7732   */\n      swap2\n      swap1\n      pop\n      jump\t// out\n        /* \"#utility.yul\":7738:8157   */\n    tag_95:\n        /* \"#utility.yul\":7904:7908   */\n      0x00\n        /* \"#utility.yul\":7942:7944   */\n      0x20\n        /* \"#utility.yul\":7931:7940   */\n      dup3\n        /* \"#utility.yul\":7927:7945   */\n      add\n        /* \"#utility.yul\":7919:7945   */\n      swap1\n      pop\n        /* \"#utility.yul\":7991:8000   */\n      dup2\n        /* \"#utility.yul\":7985:7989   */\n      dup2\n        /* \"#utility.yul\":7981:8001   */\n      sub\n        /* \"#utility.yul\":7977:7978   */\n      0x00\n        /* \"#utility.yul\":7966:7975   */\n      dup4\n        /* \"#utility.yul\":7962:7979   */\n      add\n        /* \"#utility.yul\":7955:8002   */\n      mstore\n        /* \"#utility.yul\":8019:8150   */\n      tag_236\n        /* \"#utility.yul\":8145:8149   */\n      dup2\n        /* \"#utility.yul\":8019:8150   */\n      tag_145\n      jump\t// in\n    tag_236:\n        /* \"#utility.yul\":8011:8150   */\n      swap1\n      pop\n        /* \"#utility.yul\":7738:8157   */\n      swap2\n      swap1\n      pop\n      jump\t// out\n        /* \"#utility.yul\":8163:8390   */\n    tag_146:\n        /* \"#utility.yul\":8303:8337   */\n      0x45524332303a207472616e7366657220616d6f756e7420657863656564732061\n        /* \"#utility.yul\":8299:8300   */\n      0x00\n        /* \"#utility.yul\":8291:8297   */\n      dup3\n        /* \"#utility.yul\":8287:8301   */\n      add\n        /* \"#utility.yul\":8280:8338   */\n      mstore\n        /* \"#utility.yul\":8372:8382   */\n      0x6c6c6f77616e6365000000000000000000000000000000000000000000000000\n        /* \"#utility.yul\":8367:8369   */\n      0x20\n        /* \"#utility.yul\":8359:8365   */\n      dup3\n        /* \"#utility.yul\":8355:8370   */\n      add\n        /* \"#utility.yul\":8348:8383   */\n      mstore\n        /* \"#utility.yul\":8163:8390   */\n      pop\n      jump\t// out\n        /* \"#utility.yul\":8396:8762   */\n    tag_147:\n        /* \"#utility.yul\":8538:8541   */\n      0x00\n        /* \"#utility.yul\":8559:8626   */\n      tag_239\n        /* \"#utility.yul\":8623:8625   */\n      0x28\n        /* \"#utility.yul\":8618:8621   */\n      dup4\n        /* \"#utility.yul\":8559:8626   */\n      tag_119\n      jump\t// in\n    tag_239:\n        /* \"#utility.yul\":8552:8626   */\n      swap2\n      pop\n        /* \"#utility.yul\":8635:8728   */\n      tag_240\n        /* \"#utility.yul\":8724:8727   */\n      dup3\n        /* \"#utility.yul\":8635:8728   */\n      tag_146\n      jump\t// in\n    tag_240:\n        /* \"#utility.yul\":8753:8755   */\n      0x40\n        /* \"#utility.yul\":8748:8751   */\n      dup3\n        /* \"#utility.yul\":8744:8756   */\n      add\n        /* \"#utility.yul\":8737:8756   */\n      swap1\n      pop\n        /* \"#utility.yul\":8396:8762   */\n      swap2\n      swap1\n      pop\n      jump\t// out\n        /* \"#utility.yul\":8768:9187   */\n    tag_98:\n        /* \"#utility.yul\":8934:8938   */\n      0x00\n        /* \"#utility.yul\":8972:8974   */\n      0x20\n        /* \"#utility.yul\":8961:8970   */\n      dup3\n        /* \"#utility.yul\":8957:8975   */\n      add\n        /* \"#utility.yul\":8949:8975   */\n      swap1\n      pop\n        /* \"#utility.yul\":9021:9030   */\n      dup2\n        /* \"#utility.yul\":9015:9019   */\n      dup2\n        /* \"#utility.yul\":9011:9031   */\n      sub\n        /* \"#utility.yul\":9007:9008   */\n      0x00\n        /* \"#utility.yul\":8996:9005   */\n      dup4\n        /* \"#utility.yul\":8992:9009   */\n      add\n        /* \"#utility.yul\":8985:9032   */\n      mstore\n        /* \"#utility.yul\":9049:9180   */\n      tag_242\n        /* \"#utility.yul\":9175:9179   */\n      dup2\n        /* \"#utility.yul\":9049:9180   */\n      tag_147\n      jump\t// in\n    tag_242:\n        /* \"#utility.yul\":9041:9180   */\n      swap1\n      pop\n        /* \"#utility.yul\":8768:9187   */\n      swap2\n      swap1\n      pop\n      jump\t// out\n        /* \"#utility.yul\":9193:9373   */\n    tag_148:\n        /* \"#utility.yul\":9241:9318   */\n      0x4e487b7100000000000000000000000000000000000000000000000000000000\n        /* \"#utility.yul\":9238:9239   */\n      0x00\n        /* \"#utility.yul\":9231:9319   */\n      mstore\n        /* \"#utility.yul\":9338:9342   */\n      0x11\n        /* \"#utility.yul\":9335:9336   */\n      0x04\n        /* \"#utility.yul\":9328:9343   */\n      mstore\n        /* \"#utility.yul\":9362:9366   */\n      0x24\n        /* \"#utility.yul\":9359:9360   */\n      0x00\n        /* \"#utility.yul\":9352:9367   */\n      revert\n        /* \"#utility.yul\":9379:9573   */\n    tag_100:\n        /* \"#utility.yul\":9419:9423   */\n      0x00\n        /* \"#utility.yul\":9439:9459   */\n      tag_245\n        /* \"#utility.yul\":9457:9458   */\n      dup3\n        /* \"#utility.yul\":9439:9459   */\n      tag_130\n      jump\t// in\n    tag_245:\n        /* \"#utility.yul\":9434:9459   */\n      swap2\n      pop\n        /* \"#utility.yul\":9473:9493   */\n      tag_246\n        /* \"#utility.yul\":9491:9492   */\n      dup4\n        /* \"#utility.yul\":9473:9493   */\n      tag_130\n      jump\t// in\n    tag_246:\n        /* \"#utility.yul\":9468:9493   */\n      swap3\n      pop\n        /* \"#utility.yul\":9517:9518   */\n      dup3\n        /* \"#utility.yul\":9514:9515   */\n      dup3\n        /* \"#utility.yul\":9510:9519   */\n      sub\n        /* \"#utility.yul\":9502:9519   */\n      swap1\n      pop\n        /* \"#utility.yul\":9541:9542   */\n      dup2\n        /* \"#utility.yul\":9535:9539   */\n      dup2\n        /* \"#utility.yul\":9532:9543   */\n      gt\n        /* \"#utility.yul\":9529:9566   */\n      iszero\n      tag_247\n      jumpi\n        /* \"#utility.yul\":9546:9564   */\n      tag_248\n      tag_148\n      jump\t// in\n    tag_248:\n        /* \"#utility.yul\":9529:9566   */\n    tag_247:\n        /* \"#utility.yul\":9379:9573   */\n      swap3\n      swap2\n      pop\n      pop\n      jump\t// out\n        /* \"#utility.yul\":9579:9770   */\n    tag_102:\n        /* \"#utility.yul\":9619:9622   */\n      0x00\n        /* \"#utility.yul\":9638:9658   */\n      tag_250\n        /* \"#utility.yul\":9656:9657   */\n      dup3\n        /* \"#utility.yul\":9638:9658   */\n      tag_130\n      jump\t// in\n    tag_250:\n        /* \"#utility.yul\":9633:9658   */\n      swap2\n      pop\n        /* \"#utility.yul\":9672:9692   */\n      tag_251\n        /* \"#utility.yul\":9690:9691   */\n      dup4\n        /* \"#utility.yul\":9672:9692   */\n      tag_130\n      jump\t// in\n    tag_251:\n        /* \"#utility.yul\":9667:9692   */\n      swap3\n      pop\n        /* \"#utility.yul\":9715:9716   */\n      dup3\n        /* \"#utility.yul\":9712:9713   */\n      dup3\n        /* \"#utility.yul\":9708:9717   */\n      add\n        /* \"#utility.yul\":9701:9717   */\n      swap1\n      pop\n        /* \"#utility.yul\":9736:9739   */\n      dup1\n        /* \"#utility.yul\":9733:9734   */\n      dup3\n        /* \"#utility.yul\":9730:9740   */\n      gt\n        /* \"#utility.yul\":9727:9763   */\n      iszero\n      tag_252\n      jumpi\n        /* \"#utility.yul\":9743:9761   */\n      tag_253\n      tag_148\n      jump\t// in\n    tag_253:\n        /* \"#utility.yul\":9727:9763   */\n    tag_252:\n        /* \"#utility.yul\":9579:9770   */\n      swap3\n      swap2\n      pop\n      pop\n      jump\t// out\n\n    auxdata: 0xa26469706673582212206b8a392ee36fbb13400babbccc7f12533f243d000b9772818649bf817d94d9cf64736f6c634300081a0033\n}\n",
				"bytecode": {
					"linkReferences": {},
					"object": "608060405234801561000f575f80fd5b506040518060400160405280600981526020017f42617365455243323000000000000000000000000000000000000000000000008152505f9081610053919061036a565b506040518060400160405280600681526020017f424552433230000000000000000000000000000000000000000000000000000081525060019081610098919061036a565b50601260025f6101000a81548160ff021916908360ff16021790555060025f9054906101000a900460ff1660ff16600a6100d29190610595565b6305f5e1006100e191906105df565b60038190555060035460045f3373ffffffffffffffffffffffffffffffffffffffff1673ffffffffffffffffffffffffffffffffffffffff1681526020019081526020015f2081905550610620565b5f81519050919050565b7f4e487b71000000000000000000000000000000000000000000000000000000005f52604160045260245ffd5b7f4e487b71000000000000000000000000000000000000000000000000000000005f52602260045260245ffd5b5f60028204905060018216806101ab57607f821691505b6020821081036101be576101bd610167565b5b50919050565b5f819050815f5260205f209050919050565b5f6020601f8301049050919050565b5f82821b905092915050565b5f600883026102207fffffffffffffffffffffffffffffffffffffffffffffffffffffffffffffffff826101e5565b61022a86836101e5565b95508019841693508086168417925050509392505050565b5f819050919050565b5f819050919050565b5f61026e61026961026484610242565b61024b565b610242565b9050919050565b5f819050919050565b61028783610254565b61029b61029382610275565b8484546101f1565b825550505050565b5f90565b6102af6102a3565b6102ba81848461027e565b505050565b5b818110156102dd576102d25f826102a7565b6001810190506102c0565b5050565b601f821115610322576102f3816101c4565b6102fc846101d6565b8101602085101561030b578190505b61031f610317856101d6565b8301826102bf565b50505b505050565b5f82821c905092915050565b5f6103425f1984600802610327565b1980831691505092915050565b5f61035a8383610333565b9150826002028217905092915050565b61037382610130565b67ffffffffffffffff81111561038c5761038b61013a565b5b6103968254610194565b6103a18282856102e1565b5f60209050601f8311600181146103d2575f84156103c0578287015190505b6103ca858261034f565b865550610431565b601f1984166103e0866101c4565b5f5b82811015610407578489015182556001820191506020850194506020810190506103e2565b868310156104245784890151610420601f891682610333565b8355505b6001600288020188555050505b505050505050565b7f4e487b71000000000000000000000000000000000000000000000000000000005f52601160045260245ffd5b5f8160011c9050919050565b5f808291508390505b60018511156104bb5780860481111561049757610496610439565b5b60018516156104a65780820291505b80810290506104b485610466565b945061047b565b94509492505050565b5f826104d3576001905061058e565b816104e0575f905061058e565b81600181146104f657600281146105005761052f565b600191505061058e565b60ff84111561051257610511610439565b5b8360020a91508482111561052957610528610439565b5b5061058e565b5060208310610133831016604e8410600b84101617156105645782820a90508381111561055f5761055e610439565b5b61058e565b6105718484846001610472565b9250905081840481111561058857610587610439565b5b81810290505b9392505050565b5f61059f82610242565b91506105aa83610242565b92506105d77fffffffffffffffffffffffffffffffffffffffffffffffffffffffffffffffff84846104c4565b905092915050565b5f6105e982610242565b91506105f483610242565b925082820261060281610242565b9150828204841483151761061957610618610439565b5b5092915050565b6110978061062d5f395ff3fe608060405234801561000f575f80fd5b50600436106100cd575f3560e01c806327e235e31161008a57806370a082311161006457806370a082311461024b57806395d89b411461027b578063a9059cbb14610299578063dd62ed3e146102c9576100cd565b806327e235e3146101cd578063313ce567146101fd57806355b6ed5c1461021b576100cd565b806306fdde03146100d1578063095ea7b3146100ef578063162790551461011f57806318160ddd1461014f5780631a825b751461016d57806323b872dd1461019d575b5f80fd5b6100d96102f9565b6040516100e69190610b98565b60405180910390f35b61010960048036038101906101049190610c49565b610384565b6040516101169190610ca1565b60405180910390f35b61013960048036038101906101349190610cba565b610471565b6040516101469190610ca1565b60405180910390f35b610157610482565b6040516101649190610cf4565b60405180910390f35b61018760048036038101906101829190610c49565b610488565b6040516101949190610ca1565b60405180910390f35b6101b760048036038101906101b29190610d0d565b610517565b6040516101c49190610ca1565b60405180910390f35b6101e760048036038101906101e29190610cba565b6107f7565b6040516101f49190610cf4565b60405180910390f35b61020561080c565b6040516102129190610d78565b60405180910390f35b61023560048036038101906102309190610d91565b61081e565b6040516102429190610cf4565b60405180910390f35b61026560048036038101906102609190610cba565b61083e565b6040516102729190610cf4565b60405180910390f35b610283610884565b6040516102909190610b98565b60405180910390f35b6102b360048036038101906102ae9190610c49565b610910565b6040516102c09190610ca1565b60405180910390f35b6102e360048036038101906102de9190610d91565b610aa6565b6040516102f09190610cf4565b60405180910390f35b5f805461030590610dfc565b80601f016020809104026020016040519081016040528092919081815260200182805461033190610dfc565b801561037c5780601f106103535761010080835404028352916020019161037c565b820191905f5260205f20905b81548152906001019060200180831161035f57829003601f168201915b505050505081565b5f8160055f3373ffffffffffffffffffffffffffffffffffffffff1673ffffffffffffffffffffffffffffffffffffffff1681526020019081526020015f205f8573ffffffffffffffffffffffffffffffffffffffff1673ffffffffffffffffffffffffffffffffffffffff1681526020019081526020015f20819055508273ffffffffffffffffffffffffffffffffffffffff163373ffffffffffffffffffffffffffffffffffffffff167f8c5be1e5ebec7d5bd14f71427d1e84f3dd0314c0f7b2291e5b200ac8c7c3b9258460405161045f9190610cf4565b60405180910390a36001905092915050565b5f80823b90505f8111915050919050565b60035481565b5f6104938383610910565b5061049d83610471565b1561050d578273ffffffffffffffffffffffffffffffffffffffff1663f553454f33845f6040518463ffffffff1660e01b81526004016104df93929190610e7d565b5f604051808303815f87803b1580156104f6575f80fd5b505af1158015610508573d5f803e3d5ffd5b505050505b6001905092915050565b5f8160045f8673ffffffffffffffffffffffffffffffffffffffff1673ffffffffffffffffffffffffffffffffffffffff1681526020019081526020015f20541015610598576040517f08c379a000000000000000000000000000000000000000000000000000000000815260040161058f90610f22565b60405180910390fd5b8160055f8673ffffffffffffffffffffffffffffffffffffffff1673ffffffffffffffffffffffffffffffffffffffff1681526020019081526020015f205f3373ffffffffffffffffffffffffffffffffffffffff1673ffffffffffffffffffffffffffffffffffffffff1681526020019081526020015f20541015610653576040517f08c379a000000000000000000000000000000000000000000000000000000000815260040161064a90610fb0565b60405180910390fd5b8160045f8673ffffffffffffffffffffffffffffffffffffffff1673ffffffffffffffffffffffffffffffffffffffff1681526020019081526020015f205f82825461069f9190610ffb565b925050819055508160045f8573ffffffffffffffffffffffffffffffffffffffff1673ffffffffffffffffffffffffffffffffffffffff1681526020019081526020015f205f8282546106f2919061102e565b925050819055508160055f8673ffffffffffffffffffffffffffffffffffffffff1673ffffffffffffffffffffffffffffffffffffffff1681526020019081526020015f205f3373ffffffffffffffffffffffffffffffffffffffff1673ffffffffffffffffffffffffffffffffffffffff1681526020019081526020015f205f8282546107809190610ffb565b925050819055508273ffffffffffffffffffffffffffffffffffffffff168473ffffffffffffffffffffffffffffffffffffffff167fddf252ad1be2c89b69c2b068fc378daa952ba7f163c4a11628f55a4df523b3ef846040516107e49190610cf4565b60405180910390a3600190509392505050565b6004602052805f5260405f205f915090505481565b60025f9054906101000a900460ff1681565b6005602052815f5260405f20602052805f5260405f205f91509150505481565b5f60045f8373ffffffffffffffffffffffffffffffffffffffff1673ffffffffffffffffffffffffffffffffffffffff1681526020019081526020015f20549050919050565b6001805461089190610dfc565b80601f01602080910402602001604051908101604052809291908181526020018280546108bd90610dfc565b80156109085780601f106108df57610100808354040283529160200191610908565b820191905f5260205f20905b8154815290600101906020018083116108eb57829003601f168201915b505050505081565b5f8160045f3373ffffffffffffffffffffffffffffffffffffffff1673ffffffffffffffffffffffffffffffffffffffff1681526020019081526020015f20541015610991576040517f08c379a000000000000000000000000000000000000000000000000000000000815260040161098890610f22565b60405180910390fd5b8160045f3373ffffffffffffffffffffffffffffffffffffffff1673ffffffffffffffffffffffffffffffffffffffff1681526020019081526020015f205f8282546109dd9190610ffb565b925050819055508160045f8573ffffffffffffffffffffffffffffffffffffffff1673ffffffffffffffffffffffffffffffffffffffff1681526020019081526020015f205f828254610a30919061102e565b925050819055508273ffffffffffffffffffffffffffffffffffffffff163373ffffffffffffffffffffffffffffffffffffffff167fddf252ad1be2c89b69c2b068fc378daa952ba7f163c4a11628f55a4df523b3ef84604051610a949190610cf4565b60405180910390a36001905092915050565b5f60055f8473ffffffffffffffffffffffffffffffffffffffff1673ffffffffffffffffffffffffffffffffffffffff1681526020019081526020015f205f8373ffffffffffffffffffffffffffffffffffffffff1673ffffffffffffffffffffffffffffffffffffffff1681526020019081526020015f2054905092915050565b5f81519050919050565b5f82825260208201905092915050565b8281835e5f83830152505050565b5f601f19601f8301169050919050565b5f610b6a82610b28565b610b748185610b32565b9350610b84818560208601610b42565b610b8d81610b50565b840191505092915050565b5f6020820190508181035f830152610bb08184610b60565b905092915050565b5f80fd5b5f73ffffffffffffffffffffffffffffffffffffffff82169050919050565b5f610be582610bbc565b9050919050565b610bf581610bdb565b8114610bff575f80fd5b50565b5f81359050610c1081610bec565b92915050565b5f819050919050565b610c2881610c16565b8114610c32575f80fd5b50565b5f81359050610c4381610c1f565b92915050565b5f8060408385031215610c5f57610c5e610bb8565b5b5f610c6c85828601610c02565b9250506020610c7d85828601610c35565b9150509250929050565b5f8115159050919050565b610c9b81610c87565b82525050565b5f602082019050610cb45f830184610c92565b92915050565b5f60208284031215610ccf57610cce610bb8565b5b5f610cdc84828501610c02565b91505092915050565b610cee81610c16565b82525050565b5f602082019050610d075f830184610ce5565b92915050565b5f805f60608486031215610d2457610d23610bb8565b5b5f610d3186828701610c02565b9350506020610d4286828701610c02565b9250506040610d5386828701610c35565b9150509250925092565b5f60ff82169050919050565b610d7281610d5d565b82525050565b5f602082019050610d8b5f830184610d69565b92915050565b5f8060408385031215610da757610da6610bb8565b5b5f610db485828601610c02565b9250506020610dc585828601610c02565b9150509250929050565b7f4e487b71000000000000000000000000000000000000000000000000000000005f52602260045260245ffd5b5f6002820490506001821680610e1357607f821691505b602082108103610e2657610e25610dcf565b5b50919050565b610e3581610bdb565b82525050565b5f819050919050565b5f819050919050565b5f610e67610e62610e5d84610e3b565b610e44565b610c16565b9050919050565b610e7781610e4d565b82525050565b5f606082019050610e905f830186610e2c565b610e9d6020830185610ce5565b610eaa6040830184610e6e565b949350505050565b7f45524332303a207472616e7366657220616d6f756e74206578636565647320625f8201527f616c616e63650000000000000000000000000000000000000000000000000000602082015250565b5f610f0c602683610b32565b9150610f1782610eb2565b604082019050919050565b5f6020820190508181035f830152610f3981610f00565b9050919050565b7f45524332303a207472616e7366657220616d6f756e74206578636565647320615f8201527f6c6c6f77616e6365000000000000000000000000000000000000000000000000602082015250565b5f610f9a602883610b32565b9150610fa582610f40565b604082019050919050565b5f6020820190508181035f830152610fc781610f8e565b9050919050565b7f4e487b71000000000000000000000000000000000000000000000000000000005f52601160045260245ffd5b5f61100582610c16565b915061101083610c16565b925082820390508181111561102857611027610fce565b5b92915050565b5f61103882610c16565b915061104383610c16565b925082820190508082111561105b5761105a610fce565b5b9291505056fea26469706673582212206b8a392ee36fbb13400babbccc7f12533f243d000b9772818649bf817d94d9cf64736f6c634300081a0033",
					"opcodes": "PUSH1 0x80 PUSH1 0x40 MSTORE CALLVALUE DUP1 ISZERO PUSH2 0xF JUMPI PUSH0 DUP1 REVERT JUMPDEST POP PUSH1 0x40 MLOAD DUP1 PUSH1 0x40 ADD PUSH1 0x40 MSTORE DUP1 PUSH1 0x9 DUP2 MSTORE PUSH1 0x20 ADD PUSH32 0x4261736545524332300000000000000000000000000000000000000000000000 DUP2 MSTORE POP PUSH0 SWAP1 DUP2 PUSH2 0x53 SWAP2 SWAP1 PUSH2 0x36A JUMP JUMPDEST POP PUSH1 0x40 MLOAD DUP1 PUSH1 0x40 ADD PUSH1 0x40 MSTORE DUP1 PUSH1 0x6 DUP2 MSTORE PUSH1 0x20 ADD PUSH32 0x4245524332300000000000000000000000000000000000000000000000000000 DUP2 MSTORE POP PUSH1 0x1 SWAP1 DUP2 PUSH2 0x98 SWAP2 SWAP1 PUSH2 0x36A JUMP JUMPDEST POP PUSH1 0x12 PUSH1 0x2 PUSH0 PUSH2 0x100 EXP DUP2 SLOAD DUP2 PUSH1 0xFF MUL NOT AND SWAP1 DUP4 PUSH1 0xFF AND MUL OR SWAP1 SSTORE POP PUSH1 0x2 PUSH0 SWAP1 SLOAD SWAP1 PUSH2 0x100 EXP SWAP1 DIV PUSH1 0xFF AND PUSH1 0xFF AND PUSH1 0xA PUSH2 0xD2 SWAP2 SWAP1 PUSH2 0x595 JUMP JUMPDEST PUSH4 0x5F5E100 PUSH2 0xE1 SWAP2 SWAP1 PUSH2 0x5DF JUMP JUMPDEST PUSH1 0x3 DUP2 SWAP1 SSTORE POP PUSH1 0x3 SLOAD PUSH1 0x4 PUSH0 CALLER PUSH20 0xFFFFFFFFFFFFFFFFFFFFFFFFFFFFFFFFFFFFFFFF AND PUSH20 0xFFFFFFFFFFFFFFFFFFFFFFFFFFFFFFFFFFFFFFFF AND DUP2 MSTORE PUSH1 0x20 ADD SWAP1 DUP2 MSTORE PUSH1 0x20 ADD PUSH0 KECCAK256 DUP2 SWAP1 SSTORE POP PUSH2 0x620 JUMP JUMPDEST PUSH0 DUP2 MLOAD SWAP1 POP SWAP2 SWAP1 POP JUMP JUMPDEST PUSH32 0x4E487B7100000000000000000000000000000000000000000000000000000000 PUSH0 MSTORE PUSH1 0x41 PUSH1 0x4 MSTORE PUSH1 0x24 PUSH0 REVERT JUMPDEST PUSH32 0x4E487B7100000000000000000000000000000000000000000000000000000000 PUSH0 MSTORE PUSH1 0x22 PUSH1 0x4 MSTORE PUSH1 0x24 PUSH0 REVERT JUMPDEST PUSH0 PUSH1 0x2 DUP3 DIV SWAP1 POP PUSH1 0x1 DUP3 AND DUP1 PUSH2 0x1AB JUMPI PUSH1 0x7F DUP3 AND SWAP2 POP JUMPDEST PUSH1 0x20 DUP3 LT DUP2 SUB PUSH2 0x1BE JUMPI PUSH2 0x1BD PUSH2 0x167 JUMP JUMPDEST JUMPDEST POP SWAP2 SWAP1 POP JUMP JUMPDEST PUSH0 DUP2 SWAP1 POP DUP2 PUSH0 MSTORE PUSH1 0x20 PUSH0 KECCAK256 SWAP1 POP SWAP2 SWAP1 POP JUMP JUMPDEST PUSH0 PUSH1 0x20 PUSH1 0x1F DUP4 ADD DIV SWAP1 POP SWAP2 SWAP1 POP JUMP JUMPDEST PUSH0 DUP3 DUP3 SHL SWAP1 POP SWAP3 SWAP2 POP POP JUMP JUMPDEST PUSH0 PUSH1 0x8 DUP4 MUL PUSH2 0x220 PUSH32 0xFFFFFFFFFFFFFFFFFFFFFFFFFFFFFFFFFFFFFFFFFFFFFFFFFFFFFFFFFFFFFFFF DUP3 PUSH2 0x1E5 JUMP JUMPDEST PUSH2 0x22A DUP7 DUP4 PUSH2 0x1E5 JUMP JUMPDEST SWAP6 POP DUP1 NOT DUP5 AND SWAP4 POP DUP1 DUP7 AND DUP5 OR SWAP3 POP POP POP SWAP4 SWAP3 POP POP POP JUMP JUMPDEST PUSH0 DUP2 SWAP1 POP SWAP2 SWAP1 POP JUMP JUMPDEST PUSH0 DUP2 SWAP1 POP SWAP2 SWAP1 POP JUMP JUMPDEST PUSH0 PUSH2 0x26E PUSH2 0x269 PUSH2 0x264 DUP5 PUSH2 0x242 JUMP JUMPDEST PUSH2 0x24B JUMP JUMPDEST PUSH2 0x242 JUMP JUMPDEST SWAP1 POP SWAP2 SWAP1 POP JUMP JUMPDEST PUSH0 DUP2 SWAP1 POP SWAP2 SWAP1 POP JUMP JUMPDEST PUSH2 0x287 DUP4 PUSH2 0x254 JUMP JUMPDEST PUSH2 0x29B PUSH2 0x293 DUP3 PUSH2 0x275 JUMP JUMPDEST DUP5 DUP5 SLOAD PUSH2 0x1F1 JUMP JUMPDEST DUP3 SSTORE POP POP POP POP JUMP JUMPDEST PUSH0 SWAP1 JUMP JUMPDEST PUSH2 0x2AF PUSH2 0x2A3 JUMP JUMPDEST PUSH2 0x2BA DUP2 DUP5 DUP5 PUSH2 0x27E JUMP JUMPDEST POP POP POP JUMP JUMPDEST JUMPDEST DUP2 DUP2 LT ISZERO PUSH2 0x2DD JUMPI PUSH2 0x2D2 PUSH0 DUP3 PUSH2 0x2A7 JUMP JUMPDEST PUSH1 0x1 DUP2 ADD SWAP1 POP PUSH2 0x2C0 JUMP JUMPDEST POP POP JUMP JUMPDEST PUSH1 0x1F DUP3 GT ISZERO PUSH2 0x322 JUMPI PUSH2 0x2F3 DUP2 PUSH2 0x1C4 JUMP JUMPDEST PUSH2 0x2FC DUP5 PUSH2 0x1D6 JUMP JUMPDEST DUP2 ADD PUSH1 0x20 DUP6 LT ISZERO PUSH2 0x30B JUMPI DUP2 SWAP1 POP JUMPDEST PUSH2 0x31F PUSH2 0x317 DUP6 PUSH2 0x1D6 JUMP JUMPDEST DUP4 ADD DUP3 PUSH2 0x2BF JUMP JUMPDEST POP POP JUMPDEST POP POP POP JUMP JUMPDEST PUSH0 DUP3 DUP3 SHR SWAP1 POP SWAP3 SWAP2 POP POP JUMP JUMPDEST PUSH0 PUSH2 0x342 PUSH0 NOT DUP5 PUSH1 0x8 MUL PUSH2 0x327 JUMP JUMPDEST NOT DUP1 DUP4 AND SWAP2 POP POP SWAP3 SWAP2 POP POP JUMP JUMPDEST PUSH0 PUSH2 0x35A DUP4 DUP4 PUSH2 0x333 JUMP JUMPDEST SWAP2 POP DUP3 PUSH1 0x2 MUL DUP3 OR SWAP1 POP SWAP3 SWAP2 POP POP JUMP JUMPDEST PUSH2 0x373 DUP3 PUSH2 0x130 JUMP JUMPDEST PUSH8 0xFFFFFFFFFFFFFFFF DUP2 GT ISZERO PUSH2 0x38C JUMPI PUSH2 0x38B PUSH2 0x13A JUMP JUMPDEST JUMPDEST PUSH2 0x396 DUP3 SLOAD PUSH2 0x194 JUMP JUMPDEST PUSH2 0x3A1 DUP3 DUP3 DUP6 PUSH2 0x2E1 JUMP JUMPDEST PUSH0 PUSH1 0x20 SWAP1 POP PUSH1 0x1F DUP4 GT PUSH1 0x1 DUP2 EQ PUSH2 0x3D2 JUMPI PUSH0 DUP5 ISZERO PUSH2 0x3C0 JUMPI DUP3 DUP8 ADD MLOAD SWAP1 POP JUMPDEST PUSH2 0x3CA DUP6 DUP3 PUSH2 0x34F JUMP JUMPDEST DUP7 SSTORE POP PUSH2 0x431 JUMP JUMPDEST PUSH1 0x1F NOT DUP5 AND PUSH2 0x3E0 DUP7 PUSH2 0x1C4 JUMP JUMPDEST PUSH0 JUMPDEST DUP3 DUP2 LT ISZERO PUSH2 0x407 JUMPI DUP5 DUP10 ADD MLOAD DUP3 SSTORE PUSH1 0x1 DUP3 ADD SWAP2 POP PUSH1 0x20 DUP6 ADD SWAP5 POP PUSH1 0x20 DUP2 ADD SWAP1 POP PUSH2 0x3E2 JUMP JUMPDEST DUP7 DUP4 LT ISZERO PUSH2 0x424 JUMPI DUP5 DUP10 ADD MLOAD PUSH2 0x420 PUSH1 0x1F DUP10 AND DUP3 PUSH2 0x333 JUMP JUMPDEST DUP4 SSTORE POP JUMPDEST PUSH1 0x1 PUSH1 0x2 DUP9 MUL ADD DUP9 SSTORE POP POP POP JUMPDEST POP POP POP POP POP POP JUMP JUMPDEST PUSH32 0x4E487B7100000000000000000000000000000000000000000000000000000000 PUSH0 MSTORE PUSH1 0x11 PUSH1 0x4 MSTORE PUSH1 0x24 PUSH0 REVERT JUMPDEST PUSH0 DUP2 PUSH1 0x1 SHR SWAP1 POP SWAP2 SWAP1 POP JUMP JUMPDEST PUSH0 DUP1 DUP3 SWAP2 POP DUP4 SWAP1 POP JUMPDEST PUSH1 0x1 DUP6 GT ISZERO PUSH2 0x4BB JUMPI DUP1 DUP7 DIV DUP2 GT ISZERO PUSH2 0x497 JUMPI PUSH2 0x496 PUSH2 0x439 JUMP JUMPDEST JUMPDEST PUSH1 0x1 DUP6 AND ISZERO PUSH2 0x4A6 JUMPI DUP1 DUP3 MUL SWAP2 POP JUMPDEST DUP1 DUP2 MUL SWAP1 POP PUSH2 0x4B4 DUP6 PUSH2 0x466 JUMP JUMPDEST SWAP5 POP PUSH2 0x47B JUMP JUMPDEST SWAP5 POP SWAP5 SWAP3 POP POP POP JUMP JUMPDEST PUSH0 DUP3 PUSH2 0x4D3 JUMPI PUSH1 0x1 SWAP1 POP PUSH2 0x58E JUMP JUMPDEST DUP2 PUSH2 0x4E0 JUMPI PUSH0 SWAP1 POP PUSH2 0x58E JUMP JUMPDEST DUP2 PUSH1 0x1 DUP2 EQ PUSH2 0x4F6 JUMPI PUSH1 0x2 DUP2 EQ PUSH2 0x500 JUMPI PUSH2 0x52F JUMP JUMPDEST PUSH1 0x1 SWAP2 POP POP PUSH2 0x58E JUMP JUMPDEST PUSH1 0xFF DUP5 GT ISZERO PUSH2 0x512 JUMPI PUSH2 0x511 PUSH2 0x439 JUMP JUMPDEST JUMPDEST DUP4 PUSH1 0x2 EXP SWAP2 POP DUP5 DUP3 GT ISZERO PUSH2 0x529 JUMPI PUSH2 0x528 PUSH2 0x439 JUMP JUMPDEST JUMPDEST POP PUSH2 0x58E JUMP JUMPDEST POP PUSH1 0x20 DUP4 LT PUSH2 0x133 DUP4 LT AND PUSH1 0x4E DUP5 LT PUSH1 0xB DUP5 LT AND OR ISZERO PUSH2 0x564 JUMPI DUP3 DUP3 EXP SWAP1 POP DUP4 DUP2 GT ISZERO PUSH2 0x55F JUMPI PUSH2 0x55E PUSH2 0x439 JUMP JUMPDEST JUMPDEST PUSH2 0x58E JUMP JUMPDEST PUSH2 0x571 DUP5 DUP5 DUP5 PUSH1 0x1 PUSH2 0x472 JUMP JUMPDEST SWAP3 POP SWAP1 POP DUP2 DUP5 DIV DUP2 GT ISZERO PUSH2 0x588 JUMPI PUSH2 0x587 PUSH2 0x439 JUMP JUMPDEST JUMPDEST DUP2 DUP2 MUL SWAP1 POP JUMPDEST SWAP4 SWAP3 POP POP POP JUMP JUMPDEST PUSH0 PUSH2 0x59F DUP3 PUSH2 0x242 JUMP JUMPDEST SWAP2 POP PUSH2 0x5AA DUP4 PUSH2 0x242 JUMP JUMPDEST SWAP3 POP PUSH2 0x5D7 PUSH32 0xFFFFFFFFFFFFFFFFFFFFFFFFFFFFFFFFFFFFFFFFFFFFFFFFFFFFFFFFFFFFFFFF DUP5 DUP5 PUSH2 0x4C4 JUMP JUMPDEST SWAP1 POP SWAP3 SWAP2 POP POP JUMP JUMPDEST PUSH0 PUSH2 0x5E9 DUP3 PUSH2 0x242 JUMP JUMPDEST SWAP2 POP PUSH2 0x5F4 DUP4 PUSH2 0x242 JUMP JUMPDEST SWAP3 POP DUP3 DUP3 MUL PUSH2 0x602 DUP2 PUSH2 0x242 JUMP JUMPDEST SWAP2 POP DUP3 DUP3 DIV DUP5 EQ DUP4 ISZERO OR PUSH2 0x619 JUMPI PUSH2 0x618 PUSH2 0x439 JUMP JUMPDEST JUMPDEST POP SWAP3 SWAP2 POP POP JUMP JUMPDEST PUSH2 0x1097 DUP1 PUSH2 0x62D PUSH0 CODECOPY PUSH0 RETURN INVALID PUSH1 0x80 PUSH1 0x40 MSTORE CALLVALUE DUP1 ISZERO PUSH2 0xF JUMPI PUSH0 DUP1 REVERT JUMPDEST POP PUSH1 0x4 CALLDATASIZE LT PUSH2 0xCD JUMPI PUSH0 CALLDATALOAD PUSH1 0xE0 SHR DUP1 PUSH4 0x27E235E3 GT PUSH2 0x8A JUMPI DUP1 PUSH4 0x70A08231 GT PUSH2 0x64 JUMPI DUP1 PUSH4 0x70A08231 EQ PUSH2 0x24B JUMPI DUP1 PUSH4 0x95D89B41 EQ PUSH2 0x27B JUMPI DUP1 PUSH4 0xA9059CBB EQ PUSH2 0x299 JUMPI DUP1 PUSH4 0xDD62ED3E EQ PUSH2 0x2C9 JUMPI PUSH2 0xCD JUMP JUMPDEST DUP1 PUSH4 0x27E235E3 EQ PUSH2 0x1CD JUMPI DUP1 PUSH4 0x313CE567 EQ PUSH2 0x1FD JUMPI DUP1 PUSH4 0x55B6ED5C EQ PUSH2 0x21B JUMPI PUSH2 0xCD JUMP JUMPDEST DUP1 PUSH4 0x6FDDE03 EQ PUSH2 0xD1 JUMPI DUP1 PUSH4 0x95EA7B3 EQ PUSH2 0xEF JUMPI DUP1 PUSH4 0x16279055 EQ PUSH2 0x11F JUMPI DUP1 PUSH4 0x18160DDD EQ PUSH2 0x14F JUMPI DUP1 PUSH4 0x1A825B75 EQ PUSH2 0x16D JUMPI DUP1 PUSH4 0x23B872DD EQ PUSH2 0x19D JUMPI JUMPDEST PUSH0 DUP1 REVERT JUMPDEST PUSH2 0xD9 PUSH2 0x2F9 JUMP JUMPDEST PUSH1 0x40 MLOAD PUSH2 0xE6 SWAP2 SWAP1 PUSH2 0xB98 JUMP JUMPDEST PUSH1 0x40 MLOAD DUP1 SWAP2 SUB SWAP1 RETURN JUMPDEST PUSH2 0x109 PUSH1 0x4 DUP1 CALLDATASIZE SUB DUP2 ADD SWAP1 PUSH2 0x104 SWAP2 SWAP1 PUSH2 0xC49 JUMP JUMPDEST PUSH2 0x384 JUMP JUMPDEST PUSH1 0x40 MLOAD PUSH2 0x116 SWAP2 SWAP1 PUSH2 0xCA1 JUMP JUMPDEST PUSH1 0x40 MLOAD DUP1 SWAP2 SUB SWAP1 RETURN JUMPDEST PUSH2 0x139 PUSH1 0x4 DUP1 CALLDATASIZE SUB DUP2 ADD SWAP1 PUSH2 0x134 SWAP2 SWAP1 PUSH2 0xCBA JUMP JUMPDEST PUSH2 0x471 JUMP JUMPDEST PUSH1 0x40 MLOAD PUSH2 0x146 SWAP2 SWAP1 PUSH2 0xCA1 JUMP JUMPDEST PUSH1 0x40 MLOAD DUP1 SWAP2 SUB SWAP1 RETURN JUMPDEST PUSH2 0x157 PUSH2 0x482 JUMP JUMPDEST PUSH1 0x40 MLOAD PUSH2 0x164 SWAP2 SWAP1 PUSH2 0xCF4 JUMP JUMPDEST PUSH1 0x40 MLOAD DUP1 SWAP2 SUB SWAP1 RETURN JUMPDEST PUSH2 0x187 PUSH1 0x4 DUP1 CALLDATASIZE SUB DUP2 ADD SWAP1 PUSH2 0x182 SWAP2 SWAP1 PUSH2 0xC49 JUMP JUMPDEST PUSH2 0x488 JUMP JUMPDEST PUSH1 0x40 MLOAD PUSH2 0x194 SWAP2 SWAP1 PUSH2 0xCA1 JUMP JUMPDEST PUSH1 0x40 MLOAD DUP1 SWAP2 SUB SWAP1 RETURN JUMPDEST PUSH2 0x1B7 PUSH1 0x4 DUP1 CALLDATASIZE SUB DUP2 ADD SWAP1 PUSH2 0x1B2 SWAP2 SWAP1 PUSH2 0xD0D JUMP JUMPDEST PUSH2 0x517 JUMP JUMPDEST PUSH1 0x40 MLOAD PUSH2 0x1C4 SWAP2 SWAP1 PUSH2 0xCA1 JUMP JUMPDEST PUSH1 0x40 MLOAD DUP1 SWAP2 SUB SWAP1 RETURN JUMPDEST PUSH2 0x1E7 PUSH1 0x4 DUP1 CALLDATASIZE SUB DUP2 ADD SWAP1 PUSH2 0x1E2 SWAP2 SWAP1 PUSH2 0xCBA JUMP JUMPDEST PUSH2 0x7F7 JUMP JUMPDEST PUSH1 0x40 MLOAD PUSH2 0x1F4 SWAP2 SWAP1 PUSH2 0xCF4 JUMP JUMPDEST PUSH1 0x40 MLOAD DUP1 SWAP2 SUB SWAP1 RETURN JUMPDEST PUSH2 0x205 PUSH2 0x80C JUMP JUMPDEST PUSH1 0x40 MLOAD PUSH2 0x212 SWAP2 SWAP1 PUSH2 0xD78 JUMP JUMPDEST PUSH1 0x40 MLOAD DUP1 SWAP2 SUB SWAP1 RETURN JUMPDEST PUSH2 0x235 PUSH1 0x4 DUP1 CALLDATASIZE SUB DUP2 ADD SWAP1 PUSH2 0x230 SWAP2 SWAP1 PUSH2 0xD91 JUMP JUMPDEST PUSH2 0x81E JUMP JUMPDEST PUSH1 0x40 MLOAD PUSH2 0x242 SWAP2 SWAP1 PUSH2 0xCF4 JUMP JUMPDEST PUSH1 0x40 MLOAD DUP1 SWAP2 SUB SWAP1 RETURN JUMPDEST PUSH2 0x265 PUSH1 0x4 DUP1 CALLDATASIZE SUB DUP2 ADD SWAP1 PUSH2 0x260 SWAP2 SWAP1 PUSH2 0xCBA JUMP JUMPDEST PUSH2 0x83E JUMP JUMPDEST PUSH1 0x40 MLOAD PUSH2 0x272 SWAP2 SWAP1 PUSH2 0xCF4 JUMP JUMPDEST PUSH1 0x40 MLOAD DUP1 SWAP2 SUB SWAP1 RETURN JUMPDEST PUSH2 0x283 PUSH2 0x884 JUMP JUMPDEST PUSH1 0x40 MLOAD PUSH2 0x290 SWAP2 SWAP1 PUSH2 0xB98 JUMP JUMPDEST PUSH1 0x40 MLOAD DUP1 SWAP2 SUB SWAP1 RETURN JUMPDEST PUSH2 0x2B3 PUSH1 0x4 DUP1 CALLDATASIZE SUB DUP2 ADD SWAP1 PUSH2 0x2AE SWAP2 SWAP1 PUSH2 0xC49 JUMP JUMPDEST PUSH2 0x910 JUMP JUMPDEST PUSH1 0x40 MLOAD PUSH2 0x2C0 SWAP2 SWAP1 PUSH2 0xCA1 JUMP JUMPDEST PUSH1 0x40 MLOAD DUP1 SWAP2 SUB SWAP1 RETURN JUMPDEST PUSH2 0x2E3 PUSH1 0x4 DUP1 CALLDATASIZE SUB DUP2 ADD SWAP1 PUSH2 0x2DE SWAP2 SWAP1 PUSH2 0xD91 JUMP JUMPDEST PUSH2 0xAA6 JUMP JUMPDEST PUSH1 0x40 MLOAD PUSH2 0x2F0 SWAP2 SWAP1 PUSH2 0xCF4 JUMP JUMPDEST PUSH1 0x40 MLOAD DUP1 SWAP2 SUB SWAP1 RETURN JUMPDEST PUSH0 DUP1 SLOAD PUSH2 0x305 SWAP1 PUSH2 0xDFC JUMP JUMPDEST DUP1 PUSH1 0x1F ADD PUSH1 0x20 DUP1 SWAP2 DIV MUL PUSH1 0x20 ADD PUSH1 0x40 MLOAD SWAP1 DUP2 ADD PUSH1 0x40 MSTORE DUP1 SWAP3 SWAP2 SWAP1 DUP2 DUP2 MSTORE PUSH1 0x20 ADD DUP3 DUP1 SLOAD PUSH2 0x331 SWAP1 PUSH2 0xDFC JUMP JUMPDEST DUP1 ISZERO PUSH2 0x37C JUMPI DUP1 PUSH1 0x1F LT PUSH2 0x353 JUMPI PUSH2 0x100 DUP1 DUP4 SLOAD DIV MUL DUP4 MSTORE SWAP2 PUSH1 0x20 ADD SWAP2 PUSH2 0x37C JUMP JUMPDEST DUP3 ADD SWAP2 SWAP1 PUSH0 MSTORE PUSH1 0x20 PUSH0 KECCAK256 SWAP1 JUMPDEST DUP2 SLOAD DUP2 MSTORE SWAP1 PUSH1 0x1 ADD SWAP1 PUSH1 0x20 ADD DUP1 DUP4 GT PUSH2 0x35F JUMPI DUP3 SWAP1 SUB PUSH1 0x1F AND DUP3 ADD SWAP2 JUMPDEST POP POP POP POP POP DUP2 JUMP JUMPDEST PUSH0 DUP2 PUSH1 0x5 PUSH0 CALLER PUSH20 0xFFFFFFFFFFFFFFFFFFFFFFFFFFFFFFFFFFFFFFFF AND PUSH20 0xFFFFFFFFFFFFFFFFFFFFFFFFFFFFFFFFFFFFFFFF AND DUP2 MSTORE PUSH1 0x20 ADD SWAP1 DUP2 MSTORE PUSH1 0x20 ADD PUSH0 KECCAK256 PUSH0 DUP6 PUSH20 0xFFFFFFFFFFFFFFFFFFFFFFFFFFFFFFFFFFFFFFFF AND PUSH20 0xFFFFFFFFFFFFFFFFFFFFFFFFFFFFFFFFFFFFFFFF AND DUP2 MSTORE PUSH1 0x20 ADD SWAP1 DUP2 MSTORE PUSH1 0x20 ADD PUSH0 KECCAK256 DUP2 SWAP1 SSTORE POP DUP3 PUSH20 0xFFFFFFFFFFFFFFFFFFFFFFFFFFFFFFFFFFFFFFFF AND CALLER PUSH20 0xFFFFFFFFFFFFFFFFFFFFFFFFFFFFFFFFFFFFFFFF AND PUSH32 0x8C5BE1E5EBEC7D5BD14F71427D1E84F3DD0314C0F7B2291E5B200AC8C7C3B925 DUP5 PUSH1 0x40 MLOAD PUSH2 0x45F SWAP2 SWAP1 PUSH2 0xCF4 JUMP JUMPDEST PUSH1 0x40 MLOAD DUP1 SWAP2 SUB SWAP1 LOG3 PUSH1 0x1 SWAP1 POP SWAP3 SWAP2 POP POP JUMP JUMPDEST PUSH0 DUP1 DUP3 EXTCODESIZE SWAP1 POP PUSH0 DUP2 GT SWAP2 POP POP SWAP2 SWAP1 POP JUMP JUMPDEST PUSH1 0x3 SLOAD DUP2 JUMP JUMPDEST PUSH0 PUSH2 0x493 DUP4 DUP4 PUSH2 0x910 JUMP JUMPDEST POP PUSH2 0x49D DUP4 PUSH2 0x471 JUMP JUMPDEST ISZERO PUSH2 0x50D JUMPI DUP3 PUSH20 0xFFFFFFFFFFFFFFFFFFFFFFFFFFFFFFFFFFFFFFFF AND PUSH4 0xF553454F CALLER DUP5 PUSH0 PUSH1 0x40 MLOAD DUP5 PUSH4 0xFFFFFFFF AND PUSH1 0xE0 SHL DUP2 MSTORE PUSH1 0x4 ADD PUSH2 0x4DF SWAP4 SWAP3 SWAP2 SWAP1 PUSH2 0xE7D JUMP JUMPDEST PUSH0 PUSH1 0x40 MLOAD DUP1 DUP4 SUB DUP2 PUSH0 DUP8 DUP1 EXTCODESIZE ISZERO DUP1 ISZERO PUSH2 0x4F6 JUMPI PUSH0 DUP1 REVERT JUMPDEST POP GAS CALL ISZERO DUP1 ISZERO PUSH2 0x508 JUMPI RETURNDATASIZE PUSH0 DUP1 RETURNDATACOPY RETURNDATASIZE PUSH0 REVERT JUMPDEST POP POP POP POP JUMPDEST PUSH1 0x1 SWAP1 POP SWAP3 SWAP2 POP POP JUMP JUMPDEST PUSH0 DUP2 PUSH1 0x4 PUSH0 DUP7 PUSH20 0xFFFFFFFFFFFFFFFFFFFFFFFFFFFFFFFFFFFFFFFF AND PUSH20 0xFFFFFFFFFFFFFFFFFFFFFFFFFFFFFFFFFFFFFFFF AND DUP2 MSTORE PUSH1 0x20 ADD SWAP1 DUP2 MSTORE PUSH1 0x20 ADD PUSH0 KECCAK256 SLOAD LT ISZERO PUSH2 0x598 JUMPI PUSH1 0x40 MLOAD PUSH32 0x8C379A000000000000000000000000000000000000000000000000000000000 DUP2 MSTORE PUSH1 0x4 ADD PUSH2 0x58F SWAP1 PUSH2 0xF22 JUMP JUMPDEST PUSH1 0x40 MLOAD DUP1 SWAP2 SUB SWAP1 REVERT JUMPDEST DUP2 PUSH1 0x5 PUSH0 DUP7 PUSH20 0xFFFFFFFFFFFFFFFFFFFFFFFFFFFFFFFFFFFFFFFF AND PUSH20 0xFFFFFFFFFFFFFFFFFFFFFFFFFFFFFFFFFFFFFFFF AND DUP2 MSTORE PUSH1 0x20 ADD SWAP1 DUP2 MSTORE PUSH1 0x20 ADD PUSH0 KECCAK256 PUSH0 CALLER PUSH20 0xFFFFFFFFFFFFFFFFFFFFFFFFFFFFFFFFFFFFFFFF AND PUSH20 0xFFFFFFFFFFFFFFFFFFFFFFFFFFFFFFFFFFFFFFFF AND DUP2 MSTORE PUSH1 0x20 ADD SWAP1 DUP2 MSTORE PUSH1 0x20 ADD PUSH0 KECCAK256 SLOAD LT ISZERO PUSH2 0x653 JUMPI PUSH1 0x40 MLOAD PUSH32 0x8C379A000000000000000000000000000000000000000000000000000000000 DUP2 MSTORE PUSH1 0x4 ADD PUSH2 0x64A SWAP1 PUSH2 0xFB0 JUMP JUMPDEST PUSH1 0x40 MLOAD DUP1 SWAP2 SUB SWAP1 REVERT JUMPDEST DUP2 PUSH1 0x4 PUSH0 DUP7 PUSH20 0xFFFFFFFFFFFFFFFFFFFFFFFFFFFFFFFFFFFFFFFF AND PUSH20 0xFFFFFFFFFFFFFFFFFFFFFFFFFFFFFFFFFFFFFFFF AND DUP2 MSTORE PUSH1 0x20 ADD SWAP1 DUP2 MSTORE PUSH1 0x20 ADD PUSH0 KECCAK256 PUSH0 DUP3 DUP3 SLOAD PUSH2 0x69F SWAP2 SWAP1 PUSH2 0xFFB JUMP JUMPDEST SWAP3 POP POP DUP2 SWAP1 SSTORE POP DUP2 PUSH1 0x4 PUSH0 DUP6 PUSH20 0xFFFFFFFFFFFFFFFFFFFFFFFFFFFFFFFFFFFFFFFF AND PUSH20 0xFFFFFFFFFFFFFFFFFFFFFFFFFFFFFFFFFFFFFFFF AND DUP2 MSTORE PUSH1 0x20 ADD SWAP1 DUP2 MSTORE PUSH1 0x20 ADD PUSH0 KECCAK256 PUSH0 DUP3 DUP3 SLOAD PUSH2 0x6F2 SWAP2 SWAP1 PUSH2 0x102E JUMP JUMPDEST SWAP3 POP POP DUP2 SWAP1 SSTORE POP DUP2 PUSH1 0x5 PUSH0 DUP7 PUSH20 0xFFFFFFFFFFFFFFFFFFFFFFFFFFFFFFFFFFFFFFFF AND PUSH20 0xFFFFFFFFFFFFFFFFFFFFFFFFFFFFFFFFFFFFFFFF AND DUP2 MSTORE PUSH1 0x20 ADD SWAP1 DUP2 MSTORE PUSH1 0x20 ADD PUSH0 KECCAK256 PUSH0 CALLER PUSH20 0xFFFFFFFFFFFFFFFFFFFFFFFFFFFFFFFFFFFFFFFF AND PUSH20 0xFFFFFFFFFFFFFFFFFFFFFFFFFFFFFFFFFFFFFFFF AND DUP2 MSTORE PUSH1 0x20 ADD SWAP1 DUP2 MSTORE PUSH1 0x20 ADD PUSH0 KECCAK256 PUSH0 DUP3 DUP3 SLOAD PUSH2 0x780 SWAP2 SWAP1 PUSH2 0xFFB JUMP JUMPDEST SWAP3 POP POP DUP2 SWAP1 SSTORE POP DUP3 PUSH20 0xFFFFFFFFFFFFFFFFFFFFFFFFFFFFFFFFFFFFFFFF AND DUP5 PUSH20 0xFFFFFFFFFFFFFFFFFFFFFFFFFFFFFFFFFFFFFFFF AND PUSH32 0xDDF252AD1BE2C89B69C2B068FC378DAA952BA7F163C4A11628F55A4DF523B3EF DUP5 PUSH1 0x40 MLOAD PUSH2 0x7E4 SWAP2 SWAP1 PUSH2 0xCF4 JUMP JUMPDEST PUSH1 0x40 MLOAD DUP1 SWAP2 SUB SWAP1 LOG3 PUSH1 0x1 SWAP1 POP SWAP4 SWAP3 POP POP POP JUMP JUMPDEST PUSH1 0x4 PUSH1 0x20 MSTORE DUP1 PUSH0 MSTORE PUSH1 0x40 PUSH0 KECCAK256 PUSH0 SWAP2 POP SWAP1 POP SLOAD DUP2 JUMP JUMPDEST PUSH1 0x2 PUSH0 SWAP1 SLOAD SWAP1 PUSH2 0x100 EXP SWAP1 DIV PUSH1 0xFF AND DUP2 JUMP JUMPDEST PUSH1 0x5 PUSH1 0x20 MSTORE DUP2 PUSH0 MSTORE PUSH1 0x40 PUSH0 KECCAK256 PUSH1 0x20 MSTORE DUP1 PUSH0 MSTORE PUSH1 0x40 PUSH0 KECCAK256 PUSH0 SWAP2 POP SWAP2 POP POP SLOAD DUP2 JUMP JUMPDEST PUSH0 PUSH1 0x4 PUSH0 DUP4 PUSH20 0xFFFFFFFFFFFFFFFFFFFFFFFFFFFFFFFFFFFFFFFF AND PUSH20 0xFFFFFFFFFFFFFFFFFFFFFFFFFFFFFFFFFFFFFFFF AND DUP2 MSTORE PUSH1 0x20 ADD SWAP1 DUP2 MSTORE PUSH1 0x20 ADD PUSH0 KECCAK256 SLOAD SWAP1 POP SWAP2 SWAP1 POP JUMP JUMPDEST PUSH1 0x1 DUP1 SLOAD PUSH2 0x891 SWAP1 PUSH2 0xDFC JUMP JUMPDEST DUP1 PUSH1 0x1F ADD PUSH1 0x20 DUP1 SWAP2 DIV MUL PUSH1 0x20 ADD PUSH1 0x40 MLOAD SWAP1 DUP2 ADD PUSH1 0x40 MSTORE DUP1 SWAP3 SWAP2 SWAP1 DUP2 DUP2 MSTORE PUSH1 0x20 ADD DUP3 DUP1 SLOAD PUSH2 0x8BD SWAP1 PUSH2 0xDFC JUMP JUMPDEST DUP1 ISZERO PUSH2 0x908 JUMPI DUP1 PUSH1 0x1F LT PUSH2 0x8DF JUMPI PUSH2 0x100 DUP1 DUP4 SLOAD DIV MUL DUP4 MSTORE SWAP2 PUSH1 0x20 ADD SWAP2 PUSH2 0x908 JUMP JUMPDEST DUP3 ADD SWAP2 SWAP1 PUSH0 MSTORE PUSH1 0x20 PUSH0 KECCAK256 SWAP1 JUMPDEST DUP2 SLOAD DUP2 MSTORE SWAP1 PUSH1 0x1 ADD SWAP1 PUSH1 0x20 ADD DUP1 DUP4 GT PUSH2 0x8EB JUMPI DUP3 SWAP1 SUB PUSH1 0x1F AND DUP3 ADD SWAP2 JUMPDEST POP POP POP POP POP DUP2 JUMP JUMPDEST PUSH0 DUP2 PUSH1 0x4 PUSH0 CALLER PUSH20 0xFFFFFFFFFFFFFFFFFFFFFFFFFFFFFFFFFFFFFFFF AND PUSH20 0xFFFFFFFFFFFFFFFFFFFFFFFFFFFFFFFFFFFFFFFF AND DUP2 MSTORE PUSH1 0x20 ADD SWAP1 DUP2 MSTORE PUSH1 0x20 ADD PUSH0 KECCAK256 SLOAD LT ISZERO PUSH2 0x991 JUMPI PUSH1 0x40 MLOAD PUSH32 0x8C379A000000000000000000000000000000000000000000000000000000000 DUP2 MSTORE PUSH1 0x4 ADD PUSH2 0x988 SWAP1 PUSH2 0xF22 JUMP JUMPDEST PUSH1 0x40 MLOAD DUP1 SWAP2 SUB SWAP1 REVERT JUMPDEST DUP2 PUSH1 0x4 PUSH0 CALLER PUSH20 0xFFFFFFFFFFFFFFFFFFFFFFFFFFFFFFFFFFFFFFFF AND PUSH20 0xFFFFFFFFFFFFFFFFFFFFFFFFFFFFFFFFFFFFFFFF AND DUP2 MSTORE PUSH1 0x20 ADD SWAP1 DUP2 MSTORE PUSH1 0x20 ADD PUSH0 KECCAK256 PUSH0 DUP3 DUP3 SLOAD PUSH2 0x9DD SWAP2 SWAP1 PUSH2 0xFFB JUMP JUMPDEST SWAP3 POP POP DUP2 SWAP1 SSTORE POP DUP2 PUSH1 0x4 PUSH0 DUP6 PUSH20 0xFFFFFFFFFFFFFFFFFFFFFFFFFFFFFFFFFFFFFFFF AND PUSH20 0xFFFFFFFFFFFFFFFFFFFFFFFFFFFFFFFFFFFFFFFF AND DUP2 MSTORE PUSH1 0x20 ADD SWAP1 DUP2 MSTORE PUSH1 0x20 ADD PUSH0 KECCAK256 PUSH0 DUP3 DUP3 SLOAD PUSH2 0xA30 SWAP2 SWAP1 PUSH2 0x102E JUMP JUMPDEST SWAP3 POP POP DUP2 SWAP1 SSTORE POP DUP3 PUSH20 0xFFFFFFFFFFFFFFFFFFFFFFFFFFFFFFFFFFFFFFFF AND CALLER PUSH20 0xFFFFFFFFFFFFFFFFFFFFFFFFFFFFFFFFFFFFFFFF AND PUSH32 0xDDF252AD1BE2C89B69C2B068FC378DAA952BA7F163C4A11628F55A4DF523B3EF DUP5 PUSH1 0x40 MLOAD PUSH2 0xA94 SWAP2 SWAP1 PUSH2 0xCF4 JUMP JUMPDEST PUSH1 0x40 MLOAD DUP1 SWAP2 SUB SWAP1 LOG3 PUSH1 0x1 SWAP1 POP SWAP3 SWAP2 POP POP JUMP JUMPDEST PUSH0 PUSH1 0x5 PUSH0 DUP5 PUSH20 0xFFFFFFFFFFFFFFFFFFFFFFFFFFFFFFFFFFFFFFFF AND PUSH20 0xFFFFFFFFFFFFFFFFFFFFFFFFFFFFFFFFFFFFFFFF AND DUP2 MSTORE PUSH1 0x20 ADD SWAP1 DUP2 MSTORE PUSH1 0x20 ADD PUSH0 KECCAK256 PUSH0 DUP4 PUSH20 0xFFFFFFFFFFFFFFFFFFFFFFFFFFFFFFFFFFFFFFFF AND PUSH20 0xFFFFFFFFFFFFFFFFFFFFFFFFFFFFFFFFFFFFFFFF AND DUP2 MSTORE PUSH1 0x20 ADD SWAP1 DUP2 MSTORE PUSH1 0x20 ADD PUSH0 KECCAK256 SLOAD SWAP1 POP SWAP3 SWAP2 POP POP JUMP JUMPDEST PUSH0 DUP2 MLOAD SWAP1 POP SWAP2 SWAP1 POP JUMP JUMPDEST PUSH0 DUP3 DUP3 MSTORE PUSH1 0x20 DUP3 ADD SWAP1 POP SWAP3 SWAP2 POP POP JUMP JUMPDEST DUP3 DUP2 DUP4 MCOPY PUSH0 DUP4 DUP4 ADD MSTORE POP POP POP JUMP JUMPDEST PUSH0 PUSH1 0x1F NOT PUSH1 0x1F DUP4 ADD AND SWAP1 POP SWAP2 SWAP1 POP JUMP JUMPDEST PUSH0 PUSH2 0xB6A DUP3 PUSH2 0xB28 JUMP JUMPDEST PUSH2 0xB74 DUP2 DUP6 PUSH2 0xB32 JUMP JUMPDEST SWAP4 POP PUSH2 0xB84 DUP2 DUP6 PUSH1 0x20 DUP7 ADD PUSH2 0xB42 JUMP JUMPDEST PUSH2 0xB8D DUP2 PUSH2 0xB50 JUMP JUMPDEST DUP5 ADD SWAP2 POP POP SWAP3 SWAP2 POP POP JUMP JUMPDEST PUSH0 PUSH1 0x20 DUP3 ADD SWAP1 POP DUP2 DUP2 SUB PUSH0 DUP4 ADD MSTORE PUSH2 0xBB0 DUP2 DUP5 PUSH2 0xB60 JUMP JUMPDEST SWAP1 POP SWAP3 SWAP2 POP POP JUMP JUMPDEST PUSH0 DUP1 REVERT JUMPDEST PUSH0 PUSH20 0xFFFFFFFFFFFFFFFFFFFFFFFFFFFFFFFFFFFFFFFF DUP3 AND SWAP1 POP SWAP2 SWAP1 POP JUMP JUMPDEST PUSH0 PUSH2 0xBE5 DUP3 PUSH2 0xBBC JUMP JUMPDEST SWAP1 POP SWAP2 SWAP1 POP JUMP JUMPDEST PUSH2 0xBF5 DUP2 PUSH2 0xBDB JUMP JUMPDEST DUP2 EQ PUSH2 0xBFF JUMPI PUSH0 DUP1 REVERT JUMPDEST POP JUMP JUMPDEST PUSH0 DUP2 CALLDATALOAD SWAP1 POP PUSH2 0xC10 DUP2 PUSH2 0xBEC JUMP JUMPDEST SWAP3 SWAP2 POP POP JUMP JUMPDEST PUSH0 DUP2 SWAP1 POP SWAP2 SWAP1 POP JUMP JUMPDEST PUSH2 0xC28 DUP2 PUSH2 0xC16 JUMP JUMPDEST DUP2 EQ PUSH2 0xC32 JUMPI PUSH0 DUP1 REVERT JUMPDEST POP JUMP JUMPDEST PUSH0 DUP2 CALLDATALOAD SWAP1 POP PUSH2 0xC43 DUP2 PUSH2 0xC1F JUMP JUMPDEST SWAP3 SWAP2 POP POP JUMP JUMPDEST PUSH0 DUP1 PUSH1 0x40 DUP4 DUP6 SUB SLT ISZERO PUSH2 0xC5F JUMPI PUSH2 0xC5E PUSH2 0xBB8 JUMP JUMPDEST JUMPDEST PUSH0 PUSH2 0xC6C DUP6 DUP3 DUP7 ADD PUSH2 0xC02 JUMP JUMPDEST SWAP3 POP POP PUSH1 0x20 PUSH2 0xC7D DUP6 DUP3 DUP7 ADD PUSH2 0xC35 JUMP JUMPDEST SWAP2 POP POP SWAP3 POP SWAP3 SWAP1 POP JUMP JUMPDEST PUSH0 DUP2 ISZERO ISZERO SWAP1 POP SWAP2 SWAP1 POP JUMP JUMPDEST PUSH2 0xC9B DUP2 PUSH2 0xC87 JUMP JUMPDEST DUP3 MSTORE POP POP JUMP JUMPDEST PUSH0 PUSH1 0x20 DUP3 ADD SWAP1 POP PUSH2 0xCB4 PUSH0 DUP4 ADD DUP5 PUSH2 0xC92 JUMP JUMPDEST SWAP3 SWAP2 POP POP JUMP JUMPDEST PUSH0 PUSH1 0x20 DUP3 DUP5 SUB SLT ISZERO PUSH2 0xCCF JUMPI PUSH2 0xCCE PUSH2 0xBB8 JUMP JUMPDEST JUMPDEST PUSH0 PUSH2 0xCDC DUP5 DUP3 DUP6 ADD PUSH2 0xC02 JUMP JUMPDEST SWAP2 POP POP SWAP3 SWAP2 POP POP JUMP JUMPDEST PUSH2 0xCEE DUP2 PUSH2 0xC16 JUMP JUMPDEST DUP3 MSTORE POP POP JUMP JUMPDEST PUSH0 PUSH1 0x20 DUP3 ADD SWAP1 POP PUSH2 0xD07 PUSH0 DUP4 ADD DUP5 PUSH2 0xCE5 JUMP JUMPDEST SWAP3 SWAP2 POP POP JUMP JUMPDEST PUSH0 DUP1 PUSH0 PUSH1 0x60 DUP5 DUP7 SUB SLT ISZERO PUSH2 0xD24 JUMPI PUSH2 0xD23 PUSH2 0xBB8 JUMP JUMPDEST JUMPDEST PUSH0 PUSH2 0xD31 DUP7 DUP3 DUP8 ADD PUSH2 0xC02 JUMP JUMPDEST SWAP4 POP POP PUSH1 0x20 PUSH2 0xD42 DUP7 DUP3 DUP8 ADD PUSH2 0xC02 JUMP JUMPDEST SWAP3 POP POP PUSH1 0x40 PUSH2 0xD53 DUP7 DUP3 DUP8 ADD PUSH2 0xC35 JUMP JUMPDEST SWAP2 POP POP SWAP3 POP SWAP3 POP SWAP3 JUMP JUMPDEST PUSH0 PUSH1 0xFF DUP3 AND SWAP1 POP SWAP2 SWAP1 POP JUMP JUMPDEST PUSH2 0xD72 DUP2 PUSH2 0xD5D JUMP JUMPDEST DUP3 MSTORE POP POP JUMP JUMPDEST PUSH0 PUSH1 0x20 DUP3 ADD SWAP1 POP PUSH2 0xD8B PUSH0 DUP4 ADD DUP5 PUSH2 0xD69 JUMP JUMPDEST SWAP3 SWAP2 POP POP JUMP JUMPDEST PUSH0 DUP1 PUSH1 0x40 DUP4 DUP6 SUB SLT ISZERO PUSH2 0xDA7 JUMPI PUSH2 0xDA6 PUSH2 0xBB8 JUMP JUMPDEST JUMPDEST PUSH0 PUSH2 0xDB4 DUP6 DUP3 DUP7 ADD PUSH2 0xC02 JUMP JUMPDEST SWAP3 POP POP PUSH1 0x20 PUSH2 0xDC5 DUP6 DUP3 DUP7 ADD PUSH2 0xC02 JUMP JUMPDEST SWAP2 POP POP SWAP3 POP SWAP3 SWAP1 POP JUMP JUMPDEST PUSH32 0x4E487B7100000000000000000000000000000000000000000000000000000000 PUSH0 MSTORE PUSH1 0x22 PUSH1 0x4 MSTORE PUSH1 0x24 PUSH0 REVERT JUMPDEST PUSH0 PUSH1 0x2 DUP3 DIV SWAP1 POP PUSH1 0x1 DUP3 AND DUP1 PUSH2 0xE13 JUMPI PUSH1 0x7F DUP3 AND SWAP2 POP JUMPDEST PUSH1 0x20 DUP3 LT DUP2 SUB PUSH2 0xE26 JUMPI PUSH2 0xE25 PUSH2 0xDCF JUMP JUMPDEST JUMPDEST POP SWAP2 SWAP1 POP JUMP JUMPDEST PUSH2 0xE35 DUP2 PUSH2 0xBDB JUMP JUMPDEST DUP3 MSTORE POP POP JUMP JUMPDEST PUSH0 DUP2 SWAP1 POP SWAP2 SWAP1 POP JUMP JUMPDEST PUSH0 DUP2 SWAP1 POP SWAP2 SWAP1 POP JUMP JUMPDEST PUSH0 PUSH2 0xE67 PUSH2 0xE62 PUSH2 0xE5D DUP5 PUSH2 0xE3B JUMP JUMPDEST PUSH2 0xE44 JUMP JUMPDEST PUSH2 0xC16 JUMP JUMPDEST SWAP1 POP SWAP2 SWAP1 POP JUMP JUMPDEST PUSH2 0xE77 DUP2 PUSH2 0xE4D JUMP JUMPDEST DUP3 MSTORE POP POP JUMP JUMPDEST PUSH0 PUSH1 0x60 DUP3 ADD SWAP1 POP PUSH2 0xE90 PUSH0 DUP4 ADD DUP7 PUSH2 0xE2C JUMP JUMPDEST PUSH2 0xE9D PUSH1 0x20 DUP4 ADD DUP6 PUSH2 0xCE5 JUMP JUMPDEST PUSH2 0xEAA PUSH1 0x40 DUP4 ADD DUP5 PUSH2 0xE6E JUMP JUMPDEST SWAP5 SWAP4 POP POP POP POP JUMP JUMPDEST PUSH32 0x45524332303A207472616E7366657220616D6F756E7420657863656564732062 PUSH0 DUP3 ADD MSTORE PUSH32 0x616C616E63650000000000000000000000000000000000000000000000000000 PUSH1 0x20 DUP3 ADD MSTORE POP JUMP JUMPDEST PUSH0 PUSH2 0xF0C PUSH1 0x26 DUP4 PUSH2 0xB32 JUMP JUMPDEST SWAP2 POP PUSH2 0xF17 DUP3 PUSH2 0xEB2 JUMP JUMPDEST PUSH1 0x40 DUP3 ADD SWAP1 POP SWAP2 SWAP1 POP JUMP JUMPDEST PUSH0 PUSH1 0x20 DUP3 ADD SWAP1 POP DUP2 DUP2 SUB PUSH0 DUP4 ADD MSTORE PUSH2 0xF39 DUP2 PUSH2 0xF00 JUMP JUMPDEST SWAP1 POP SWAP2 SWAP1 POP JUMP JUMPDEST PUSH32 0x45524332303A207472616E7366657220616D6F756E7420657863656564732061 PUSH0 DUP3 ADD MSTORE PUSH32 0x6C6C6F77616E6365000000000000000000000000000000000000000000000000 PUSH1 0x20 DUP3 ADD MSTORE POP JUMP JUMPDEST PUSH0 PUSH2 0xF9A PUSH1 0x28 DUP4 PUSH2 0xB32 JUMP JUMPDEST SWAP2 POP PUSH2 0xFA5 DUP3 PUSH2 0xF40 JUMP JUMPDEST PUSH1 0x40 DUP3 ADD SWAP1 POP SWAP2 SWAP1 POP JUMP JUMPDEST PUSH0 PUSH1 0x20 DUP3 ADD SWAP1 POP DUP2 DUP2 SUB PUSH0 DUP4 ADD MSTORE PUSH2 0xFC7 DUP2 PUSH2 0xF8E JUMP JUMPDEST SWAP1 POP SWAP2 SWAP1 POP JUMP JUMPDEST PUSH32 0x4E487B7100000000000000000000000000000000000000000000000000000000 PUSH0 MSTORE PUSH1 0x11 PUSH1 0x4 MSTORE PUSH1 0x24 PUSH0 REVERT JUMPDEST PUSH0 PUSH2 0x1005 DUP3 PUSH2 0xC16 JUMP JUMPDEST SWAP2 POP PUSH2 0x1010 DUP4 PUSH2 0xC16 JUMP JUMPDEST SWAP3 POP DUP3 DUP3 SUB SWAP1 POP DUP2 DUP2 GT ISZERO PUSH2 0x1028 JUMPI PUSH2 0x1027 PUSH2 0xFCE JUMP JUMPDEST JUMPDEST SWAP3 SWAP2 POP POP JUMP JUMPDEST PUSH0 PUSH2 0x1038 DUP3 PUSH2 0xC16 JUMP JUMPDEST SWAP2 POP PUSH2 0x1043 DUP4 PUSH2 0xC16 JUMP JUMPDEST SWAP3 POP DUP3 DUP3 ADD SWAP1 POP DUP1 DUP3 GT ISZERO PUSH2 0x105B JUMPI PUSH2 0x105A PUSH2 0xFCE JUMP JUMPDEST JUMPDEST SWAP3 SWAP2 POP POP JUMP INVALID LOG2 PUSH5 0x6970667358 0x22 SLT KECCAK256 PUSH12 0x8A392EE36FBB13400BABBCCC PUSH32 0x12533F243D000B9772818649BF817D94D9CF64736F6C634300081A0033000000 "
				},
				"gasEstimates": {
					"creation": {
						"codeDepositCost": "849400",
						"executionCost": "infinite",
						"totalCost": "infinite"
					},
					"external": {
						"allowance(address,address)": "infinite",
						"allowances(address,address)": "infinite",
						"approve(address,uint256)": "infinite",
						"balanceOf(address)": "2851",
						"balances(address)": "2825",
						"decimals()": "2511",
						"isContract(address)": "3310",
						"name()": "infinite",
						"symbol()": "infinite",
						"totalSupply()": "2492",
						"transfer(address,uint256)": "infinite",
						"transferFrom(address,address,uint256)": "infinite",
						"transferWithCallback(address,uint256)": "infinite"
					}
				},
				"methodIdentifiers": {
					"allowance(address,address)": "dd62ed3e",
					"allowances(address,address)": "55b6ed5c",
					"approve(address,uint256)": "095ea7b3",
					"balanceOf(address)": "70a08231",
					"balances(address)": "27e235e3",
					"decimals()": "313ce567",
					"isContract(address)": "16279055",
					"name()": "06fdde03",
					"symbol()": "95d89b41",
					"totalSupply()": "18160ddd",
					"transfer(address,uint256)": "a9059cbb",
					"transferFrom(address,address,uint256)": "23b872dd",
					"transferWithCallback(address,uint256)": "1a825b75"
				}
			},
			"storageLayout": {
				"storage": [
					{
						"astId": 6,
						"contract": "1014/HookERC20/ExtendERC20.sol:ERC20WithCallback",
						"label": "name",
						"offset": 0,
						"slot": "0",
						"type": "t_string_storage"
					},
					{
						"astId": 8,
						"contract": "1014/HookERC20/ExtendERC20.sol:ERC20WithCallback",
						"label": "symbol",
						"offset": 0,
						"slot": "1",
						"type": "t_string_storage"
					},
					{
						"astId": 10,
						"contract": "1014/HookERC20/ExtendERC20.sol:ERC20WithCallback",
						"label": "decimals",
						"offset": 0,
						"slot": "2",
						"type": "t_uint8"
					},
					{
						"astId": 12,
						"contract": "1014/HookERC20/ExtendERC20.sol:ERC20WithCallback",
						"label": "totalSupply",
						"offset": 0,
						"slot": "3",
						"type": "t_uint256"
					},
					{
						"astId": 16,
						"contract": "1014/HookERC20/ExtendERC20.sol:ERC20WithCallback",
						"label": "balances",
						"offset": 0,
						"slot": "4",
						"type": "t_mapping(t_address,t_uint256)"
					},
					{
						"astId": 22,
						"contract": "1014/HookERC20/ExtendERC20.sol:ERC20WithCallback",
						"label": "allowances",
						"offset": 0,
						"slot": "5",
						"type": "t_mapping(t_address,t_mapping(t_address,t_uint256))"
					}
				],
				"types": {
					"t_address": {
						"encoding": "inplace",
						"label": "address",
						"numberOfBytes": "20"
					},
					"t_mapping(t_address,t_mapping(t_address,t_uint256))": {
						"encoding": "mapping",
						"key": "t_address",
						"label": "mapping(address => mapping(address => uint256))",
						"numberOfBytes": "32",
						"value": "t_mapping(t_address,t_uint256)"
					},
					"t_mapping(t_address,t_uint256)": {
						"encoding": "mapping",
						"key": "t_address",
						"label": "mapping(address => uint256)",
						"numberOfBytes": "32",
						"value": "t_uint256"
					},
					"t_string_storage": {
						"encoding": "bytes",
						"label": "string",
						"numberOfBytes": "32"
					},
					"t_uint256": {
						"encoding": "inplace",
						"label": "uint256",
						"numberOfBytes": "32"
					},
					"t_uint8": {
						"encoding": "inplace",
						"label": "uint8",
						"numberOfBytes": "1"
					}
				}
			},
			"userdoc": {
				"kind": "user",
				"methods": {},
				"version": 1
			}
		}
	}
}