{
	"1014/NFT/NFTMarket.sol": {
		"NFTMarket": {
			"abi": [
				{
					"inputs": [
						{
							"internalType": "contract IERC721",
							"name": "_nft",
							"type": "address"
						},
						{
							"internalType": "contract IERC20",
							"name": "_token",
							"type": "address"
						}
					],
					"stateMutability": "nonpayable",
					"type": "constructor"
				},
				{
					"anonymous": false,
					"inputs": [
						{
							"indexed": true,
							"internalType": "uint256",
							"name": "tokenId",
							"type": "uint256"
						},
						{
							"indexed": true,
							"internalType": "address",
							"name": "seller",
							"type": "address"
						},
						{
							"indexed": false,
							"internalType": "uint256",
							"name": "price",
							"type": "uint256"
						}
					],
					"name": "Listed",
					"type": "event"
				},
				{
					"anonymous": false,
					"inputs": [
						{
							"indexed": true,
							"internalType": "uint256",
							"name": "tokenId",
							"type": "uint256"
						},
						{
							"indexed": true,
							"internalType": "address",
							"name": "buyer",
							"type": "address"
						},
						{
							"indexed": true,
							"internalType": "address",
							"name": "seller",
							"type": "address"
						},
						{
							"indexed": false,
							"internalType": "uint256",
							"name": "price",
							"type": "uint256"
						}
					],
					"name": "Purchased",
					"type": "event"
				},
				{
					"inputs": [
						{
							"internalType": "uint256",
							"name": "tokenId",
							"type": "uint256"
						},
						{
							"internalType": "uint256",
							"name": "amount",
							"type": "uint256"
						}
					],
					"name": "buyNFT",
					"outputs": [],
					"stateMutability": "nonpayable",
					"type": "function"
				},
				{
					"inputs": [
						{
							"internalType": "uint256",
							"name": "tokenId",
							"type": "uint256"
						},
						{
							"internalType": "uint256",
							"name": "price",
							"type": "uint256"
						}
					],
					"name": "list",
					"outputs": [],
					"stateMutability": "nonpayable",
					"type": "function"
				},
				{
					"inputs": [
						{
							"internalType": "uint256",
							"name": "",
							"type": "uint256"
						}
					],
					"name": "listings",
					"outputs": [
						{
							"internalType": "address",
							"name": "seller",
							"type": "address"
						},
						{
							"internalType": "uint256",
							"name": "price",
							"type": "uint256"
						}
					],
					"stateMutability": "view",
					"type": "function"
				},
				{
					"inputs": [],
					"name": "nft",
					"outputs": [
						{
							"internalType": "contract IERC721",
							"name": "",
							"type": "address"
						}
					],
					"stateMutability": "view",
					"type": "function"
				},
				{
					"inputs": [
						{
							"internalType": "address",
							"name": "",
							"type": "address"
						},
						{
							"internalType": "address",
							"name": "",
							"type": "address"
						},
						{
							"internalType": "uint256",
							"name": "",
							"type": "uint256"
						},
						{
							"internalType": "bytes",
							"name": "",
							"type": "bytes"
						}
					],
					"name": "onERC721Received",
					"outputs": [
						{
							"internalType": "bytes4",
							"name": "",
							"type": "bytes4"
						}
					],
					"stateMutability": "pure",
					"type": "function"
				},
				{
					"inputs": [],
					"name": "token",
					"outputs": [
						{
							"internalType": "contract IERC20",
							"name": "",
							"type": "address"
						}
					],
					"stateMutability": "view",
					"type": "function"
				},
				{
					"inputs": [
						{
							"internalType": "address",
							"name": "from",
							"type": "address"
						},
						{
							"internalType": "uint256",
							"name": "amount",
							"type": "uint256"
						},
						{
							"internalType": "bytes",
							"name": "data",
							"type": "bytes"
						}
					],
					"name": "tokenReceived",
					"outputs": [],
					"stateMutability": "nonpayable",
					"type": "function"
				}
			],
			"devdoc": {
				"kind": "dev",
				"methods": {},
				"version": 1
			},
			"evm": {
				"assembly": "    /* \"1014/NFT/NFTMarket.sol\":225:2789  contract NFTMarket is ITokenReceiver, IERC721Receiver{... */\n  mstore(0x40, 0x80)\n    /* \"1014/NFT/NFTMarket.sol\":772:864  constructor(IERC721 _nft, IERC20 _token) {... */\n  callvalue\n  dup1\n  iszero\n  tag_1\n  jumpi\n  0x00\n  dup1\n  revert\ntag_1:\n  pop\n  mload(0x40)\n  sub(codesize, bytecodeSize)\n  dup1\n  bytecodeSize\n  dup4\n  codecopy\n  dup2\n  dup2\n  add\n  0x40\n  mstore\n  dup2\n  add\n  swap1\n  tag_2\n  swap2\n  swap1\n  tag_3\n  jump\t// in\ntag_2:\n    /* \"1014/NFT/NFTMarket.sol\":829:833  _nft */\n  dup2\n    /* \"1014/NFT/NFTMarket.sol\":823:826  nft */\n  0x01\n  0x00\n    /* \"1014/NFT/NFTMarket.sol\":823:833  nft = _nft */\n  0x0100\n  exp\n  dup2\n  sload\n  dup2\n  0xffffffffffffffffffffffffffffffffffffffff\n  mul\n  not\n  and\n  swap1\n  dup4\n  0xffffffffffffffffffffffffffffffffffffffff\n  and\n  mul\n  or\n  swap1\n  sstore\n  pop\n    /* \"1014/NFT/NFTMarket.sol\":851:857  _token */\n  dup1\n    /* \"1014/NFT/NFTMarket.sol\":843:848  token */\n  0x00\n  dup1\n    /* \"1014/NFT/NFTMarket.sol\":843:857  token = _token */\n  0x0100\n  exp\n  dup2\n  sload\n  dup2\n  0xffffffffffffffffffffffffffffffffffffffff\n  mul\n  not\n  and\n  swap1\n  dup4\n  0xffffffffffffffffffffffffffffffffffffffff\n  and\n  mul\n  or\n  swap1\n  sstore\n  pop\n    /* \"1014/NFT/NFTMarket.sol\":772:864  constructor(IERC721 _nft, IERC20 _token) {... */\n  pop\n  pop\n    /* \"1014/NFT/NFTMarket.sol\":225:2789  contract NFTMarket is ITokenReceiver, IERC721Receiver{... */\n  jump(tag_6)\n    /* \"#utility.yul\":88:205   */\ntag_8:\n    /* \"#utility.yul\":197:198   */\n  0x00\n    /* \"#utility.yul\":194:195   */\n  dup1\n    /* \"#utility.yul\":187:199   */\n  revert\n    /* \"#utility.yul\":334:460   */\ntag_10:\n    /* \"#utility.yul\":371:378   */\n  0x00\n    /* \"#utility.yul\":411:453   */\n  0xffffffffffffffffffffffffffffffffffffffff\n    /* \"#utility.yul\":404:409   */\n  dup3\n    /* \"#utility.yul\":400:454   */\n  and\n    /* \"#utility.yul\":389:454   */\n  swap1\n  pop\n    /* \"#utility.yul\":334:460   */\n  swap2\n  swap1\n  pop\n  jump\t// out\n    /* \"#utility.yul\":466:562   */\ntag_11:\n    /* \"#utility.yul\":503:510   */\n  0x00\n    /* \"#utility.yul\":532:556   */\n  tag_24\n    /* \"#utility.yul\":550:555   */\n  dup3\n    /* \"#utility.yul\":532:556   */\n  tag_10\n  jump\t// in\ntag_24:\n    /* \"#utility.yul\":521:556   */\n  swap1\n  pop\n    /* \"#utility.yul\":466:562   */\n  swap2\n  swap1\n  pop\n  jump\t// out\n    /* \"#utility.yul\":568:679   */\ntag_12:\n    /* \"#utility.yul\":620:627   */\n  0x00\n    /* \"#utility.yul\":649:673   */\n  tag_26\n    /* \"#utility.yul\":667:672   */\n  dup3\n    /* \"#utility.yul\":649:673   */\n  tag_11\n  jump\t// in\ntag_26:\n    /* \"#utility.yul\":638:673   */\n  swap1\n  pop\n    /* \"#utility.yul\":568:679   */\n  swap2\n  swap1\n  pop\n  jump\t// out\n    /* \"#utility.yul\":685:837   */\ntag_13:\n    /* \"#utility.yul\":773:812   */\n  tag_28\n    /* \"#utility.yul\":806:811   */\n  dup2\n    /* \"#utility.yul\":773:812   */\n  tag_12\n  jump\t// in\ntag_28:\n    /* \"#utility.yul\":766:771   */\n  dup2\n    /* \"#utility.yul\":763:813   */\n  eq\n    /* \"#utility.yul\":753:831   */\n  tag_29\n  jumpi\n    /* \"#utility.yul\":827:828   */\n  0x00\n    /* \"#utility.yul\":824:825   */\n  dup1\n    /* \"#utility.yul\":817:829   */\n  revert\n    /* \"#utility.yul\":753:831   */\ntag_29:\n    /* \"#utility.yul\":685:837   */\n  pop\n  jump\t// out\n    /* \"#utility.yul\":843:1016   */\ntag_14:\n    /* \"#utility.yul\":915:920   */\n  0x00\n    /* \"#utility.yul\":946:952   */\n  dup2\n    /* \"#utility.yul\":940:953   */\n  mload\n    /* \"#utility.yul\":931:953   */\n  swap1\n  pop\n    /* \"#utility.yul\":962:1010   */\n  tag_31\n    /* \"#utility.yul\":1004:1009   */\n  dup2\n    /* \"#utility.yul\":962:1010   */\n  tag_13\n  jump\t// in\ntag_31:\n    /* \"#utility.yul\":843:1016   */\n  swap3\n  swap2\n  pop\n  pop\n  jump\t// out\n    /* \"#utility.yul\":1022:1132   */\ntag_15:\n    /* \"#utility.yul\":1073:1080   */\n  0x00\n    /* \"#utility.yul\":1102:1126   */\n  tag_33\n    /* \"#utility.yul\":1120:1125   */\n  dup3\n    /* \"#utility.yul\":1102:1126   */\n  tag_11\n  jump\t// in\ntag_33:\n    /* \"#utility.yul\":1091:1126   */\n  swap1\n  pop\n    /* \"#utility.yul\":1022:1132   */\n  swap2\n  swap1\n  pop\n  jump\t// out\n    /* \"#utility.yul\":1138:1288   */\ntag_16:\n    /* \"#utility.yul\":1225:1263   */\n  tag_35\n    /* \"#utility.yul\":1257:1262   */\n  dup2\n    /* \"#utility.yul\":1225:1263   */\n  tag_15\n  jump\t// in\ntag_35:\n    /* \"#utility.yul\":1218:1223   */\n  dup2\n    /* \"#utility.yul\":1215:1264   */\n  eq\n    /* \"#utility.yul\":1205:1282   */\n  tag_36\n  jumpi\n    /* \"#utility.yul\":1278:1279   */\n  0x00\n    /* \"#utility.yul\":1275:1276   */\n  dup1\n    /* \"#utility.yul\":1268:1280   */\n  revert\n    /* \"#utility.yul\":1205:1282   */\ntag_36:\n    /* \"#utility.yul\":1138:1288   */\n  pop\n  jump\t// out\n    /* \"#utility.yul\":1294:1465   */\ntag_17:\n    /* \"#utility.yul\":1365:1370   */\n  0x00\n    /* \"#utility.yul\":1396:1402   */\n  dup2\n    /* \"#utility.yul\":1390:1403   */\n  mload\n    /* \"#utility.yul\":1381:1403   */\n  swap1\n  pop\n    /* \"#utility.yul\":1412:1459   */\n  tag_38\n    /* \"#utility.yul\":1453:1458   */\n  dup2\n    /* \"#utility.yul\":1412:1459   */\n  tag_16\n  jump\t// in\ntag_38:\n    /* \"#utility.yul\":1294:1465   */\n  swap3\n  swap2\n  pop\n  pop\n  jump\t// out\n    /* \"#utility.yul\":1471:2036   */\ntag_3:\n    /* \"#utility.yul\":1579:1585   */\n  0x00\n    /* \"#utility.yul\":1587:1593   */\n  dup1\n    /* \"#utility.yul\":1636:1638   */\n  0x40\n    /* \"#utility.yul\":1624:1633   */\n  dup4\n    /* \"#utility.yul\":1615:1622   */\n  dup6\n    /* \"#utility.yul\":1611:1634   */\n  sub\n    /* \"#utility.yul\":1607:1639   */\n  slt\n    /* \"#utility.yul\":1604:1723   */\n  iszero\n  tag_40\n  jumpi\n    /* \"#utility.yul\":1642:1721   */\n  tag_41\n  tag_8\n  jump\t// in\ntag_41:\n    /* \"#utility.yul\":1604:1723   */\ntag_40:\n    /* \"#utility.yul\":1762:1763   */\n  0x00\n    /* \"#utility.yul\":1787:1866   */\n  tag_42\n    /* \"#utility.yul\":1858:1865   */\n  dup6\n    /* \"#utility.yul\":1849:1855   */\n  dup3\n    /* \"#utility.yul\":1838:1847   */\n  dup7\n    /* \"#utility.yul\":1834:1856   */\n  add\n    /* \"#utility.yul\":1787:1866   */\n  tag_14\n  jump\t// in\ntag_42:\n    /* \"#utility.yul\":1777:1866   */\n  swap3\n  pop\n    /* \"#utility.yul\":1733:1876   */\n  pop\n    /* \"#utility.yul\":1915:1917   */\n  0x20\n    /* \"#utility.yul\":1941:2019   */\n  tag_43\n    /* \"#utility.yul\":2011:2018   */\n  dup6\n    /* \"#utility.yul\":2002:2008   */\n  dup3\n    /* \"#utility.yul\":1991:2000   */\n  dup7\n    /* \"#utility.yul\":1987:2009   */\n  add\n    /* \"#utility.yul\":1941:2019   */\n  tag_17\n  jump\t// in\ntag_43:\n    /* \"#utility.yul\":1931:2019   */\n  swap2\n  pop\n    /* \"#utility.yul\":1886:2029   */\n  pop\n    /* \"#utility.yul\":1471:2036   */\n  swap3\n  pop\n  swap3\n  swap1\n  pop\n  jump\t// out\n    /* \"1014/NFT/NFTMarket.sol\":225:2789  contract NFTMarket is ITokenReceiver, IERC721Receiver{... */\ntag_6:\n  dataSize(sub_0)\n  dup1\n  dataOffset(sub_0)\n  0x00\n  codecopy\n  0x00\n  return\nstop\n\nsub_0: assembly {\n        /* \"1014/NFT/NFTMarket.sol\":225:2789  contract NFTMarket is ITokenReceiver, IERC721Receiver{... */\n      mstore(0x40, 0x80)\n      callvalue\n      dup1\n      iszero\n      tag_1\n      jumpi\n      0x00\n      dup1\n      revert\n    tag_1:\n      pop\n      jumpi(tag_2, lt(calldatasize, 0x04))\n      shr(0xe0, calldataload(0x00))\n      dup1\n      0x50fd7367\n      gt\n      tag_10\n      jumpi\n      dup1\n      0x50fd7367\n      eq\n      tag_6\n      jumpi\n      dup1\n      0x8943ec02\n      eq\n      tag_7\n      jumpi\n      dup1\n      0xde74e57b\n      eq\n      tag_8\n      jumpi\n      dup1\n      0xfc0c546a\n      eq\n      tag_9\n      jumpi\n      jump(tag_2)\n    tag_10:\n      dup1\n      0x150b7a02\n      eq\n      tag_3\n      jumpi\n      dup1\n      0x1d85bf03\n      eq\n      tag_4\n      jumpi\n      dup1\n      0x47ccca02\n      eq\n      tag_5\n      jumpi\n    tag_2:\n      0x00\n      dup1\n      revert\n        /* \"1014/NFT/NFTMarket.sol\":2595:2787  function onERC721Received(... */\n    tag_3:\n      tag_11\n      0x04\n      dup1\n      calldatasize\n      sub\n      dup2\n      add\n      swap1\n      tag_12\n      swap2\n      swap1\n      tag_13\n      jump\t// in\n    tag_12:\n      tag_14\n      jump\t// in\n    tag_11:\n      mload(0x40)\n      tag_15\n      swap2\n      swap1\n      tag_16\n      jump\t// in\n    tag_15:\n      mload(0x40)\n      dup1\n      swap2\n      sub\n      swap1\n      return\n        /* \"1014/NFT/NFTMarket.sol\":1461:1816  function buyNFT(uint256 tokenId, uint256 amount) public {... */\n    tag_4:\n      tag_17\n      0x04\n      dup1\n      calldatasize\n      sub\n      dup2\n      add\n      swap1\n      tag_18\n      swap2\n      swap1\n      tag_19\n      jump\t// in\n    tag_18:\n      tag_20\n      jump\t// in\n    tag_17:\n      stop\n        /* \"1014/NFT/NFTMarket.sol\":343:361  IERC721 public nft */\n    tag_5:\n      tag_21\n      tag_22\n      jump\t// in\n    tag_21:\n      mload(0x40)\n      tag_23\n      swap2\n      swap1\n      tag_24\n      jump\t// in\n    tag_23:\n      mload(0x40)\n      dup1\n      swap2\n      sub\n      swap1\n      return\n        /* \"1014/NFT/NFTMarket.sol\":929:1455  function list(uint256 tokenId, uint256 price) external {... */\n    tag_6:\n      tag_25\n      0x04\n      dup1\n      calldatasize\n      sub\n      dup2\n      add\n      swap1\n      tag_26\n      swap2\n      swap1\n      tag_19\n      jump\t// in\n    tag_26:\n      tag_27\n      jump\t// in\n    tag_25:\n      stop\n        /* \"1014/NFT/NFTMarket.sol\":1893:2589  function tokenReceived(address from, uint256 amount, bytes calldata data) external override {... */\n    tag_7:\n      tag_28\n      0x04\n      dup1\n      calldatasize\n      sub\n      dup2\n      add\n      swap1\n      tag_29\n      swap2\n      swap1\n      tag_30\n      jump\t// in\n    tag_29:\n      tag_31\n      jump\t// in\n    tag_28:\n      stop\n        /* \"1014/NFT/NFTMarket.sol\":531:574  mapping(uint256 => Listing) public listings */\n    tag_8:\n      tag_32\n      0x04\n      dup1\n      calldatasize\n      sub\n      dup2\n      add\n      swap1\n      tag_33\n      swap2\n      swap1\n      tag_34\n      jump\t// in\n    tag_33:\n      tag_35\n      jump\t// in\n    tag_32:\n      mload(0x40)\n      tag_36\n      swap3\n      swap2\n      swap1\n      tag_37\n      jump\t// in\n    tag_36:\n      mload(0x40)\n      dup1\n      swap2\n      sub\n      swap1\n      return\n        /* \"1014/NFT/NFTMarket.sol\":284:303  IERC20 public token */\n    tag_9:\n      tag_38\n      tag_39\n      jump\t// in\n    tag_38:\n      mload(0x40)\n      tag_40\n      swap2\n      swap1\n      tag_41\n      jump\t// in\n    tag_40:\n      mload(0x40)\n      dup1\n      swap2\n      sub\n      swap1\n      return\n        /* \"1014/NFT/NFTMarket.sol\":2595:2787  function onERC721Received(... */\n    tag_14:\n        /* \"1014/NFT/NFTMarket.sol\":2725:2731  bytes4 */\n      0x00\n        /* \"1014/NFT/NFTMarket.sol\":2750:2780  this.onERC721Received.selector */\n      shl(0xe0, 0x150b7a02)\n        /* \"1014/NFT/NFTMarket.sol\":2743:2780  return this.onERC721Received.selector */\n      swap1\n      pop\n        /* \"1014/NFT/NFTMarket.sol\":2595:2787  function onERC721Received(... */\n      swap6\n      swap5\n      pop\n      pop\n      pop\n      pop\n      pop\n      jump\t// out\n        /* \"1014/NFT/NFTMarket.sol\":1461:1816  function buyNFT(uint256 tokenId, uint256 amount) public {... */\n    tag_20:\n        /* \"1014/NFT/NFTMarket.sol\":1562:1568  amount */\n      dup1\n        /* \"1014/NFT/NFTMarket.sol\":1535:1543  listings */\n      0x02\n        /* \"1014/NFT/NFTMarket.sol\":1535:1552  listings[tokenId] */\n      0x00\n        /* \"1014/NFT/NFTMarket.sol\":1544:1551  tokenId */\n      dup5\n        /* \"1014/NFT/NFTMarket.sol\":1535:1552  listings[tokenId] */\n      dup2\n      mstore\n      0x20\n      add\n      swap1\n      dup2\n      mstore\n      0x20\n      add\n      0x00\n      keccak256\n        /* \"1014/NFT/NFTMarket.sol\":1535:1558  listings[tokenId].price */\n      0x01\n      add\n      sload\n        /* \"1014/NFT/NFTMarket.sol\":1535:1568  listings[tokenId].price == amount */\n      eq\n        /* \"1014/NFT/NFTMarket.sol\":1527:1602  require(listings[tokenId].price == amount, \"nft price not equal to amount\") */\n      tag_44\n      jumpi\n      mload(0x40)\n      0x08c379a000000000000000000000000000000000000000000000000000000000\n      dup2\n      mstore\n      0x04\n      add\n      tag_45\n      swap1\n      tag_46\n      jump\t// in\n    tag_45:\n      mload(0x40)\n      dup1\n      swap2\n      sub\n      swap1\n      revert\n    tag_44:\n        /* \"1014/NFT/NFTMarket.sol\":1662:1667  token */\n      0x00\n      dup1\n      sload\n      swap1\n      0x0100\n      exp\n      swap1\n      div\n      0xffffffffffffffffffffffffffffffffffffffff\n      and\n        /* \"1014/NFT/NFTMarket.sol\":1662:1680  token.transferFrom */\n      0xffffffffffffffffffffffffffffffffffffffff\n      and\n      0x23b872dd\n        /* \"1014/NFT/NFTMarket.sol\":1681:1691  msg.sender */\n      caller\n        /* \"1014/NFT/NFTMarket.sol\":1693:1701  listings */\n      0x02\n        /* \"1014/NFT/NFTMarket.sol\":1693:1710  listings[tokenId] */\n      0x00\n        /* \"1014/NFT/NFTMarket.sol\":1702:1709  tokenId */\n      dup7\n        /* \"1014/NFT/NFTMarket.sol\":1693:1710  listings[tokenId] */\n      dup2\n      mstore\n      0x20\n      add\n      swap1\n      dup2\n      mstore\n      0x20\n      add\n      0x00\n      keccak256\n        /* \"1014/NFT/NFTMarket.sol\":1693:1717  listings[tokenId].seller */\n      0x00\n      add\n      0x00\n      swap1\n      sload\n      swap1\n      0x0100\n      exp\n      swap1\n      div\n      0xffffffffffffffffffffffffffffffffffffffff\n      and\n        /* \"1014/NFT/NFTMarket.sol\":1719:1727  listings */\n      0x02\n        /* \"1014/NFT/NFTMarket.sol\":1719:1736  listings[tokenId] */\n      0x00\n        /* \"1014/NFT/NFTMarket.sol\":1728:1735  tokenId */\n      dup8\n        /* \"1014/NFT/NFTMarket.sol\":1719:1736  listings[tokenId] */\n      dup2\n      mstore\n      0x20\n      add\n      swap1\n      dup2\n      mstore\n      0x20\n      add\n      0x00\n      keccak256\n        /* \"1014/NFT/NFTMarket.sol\":1719:1742  listings[tokenId].price */\n      0x01\n      add\n      sload\n        /* \"1014/NFT/NFTMarket.sol\":1662:1743  token.transferFrom(msg.sender, listings[tokenId].seller, listings[tokenId].price) */\n      mload(0x40)\n      dup5\n      0xffffffff\n      and\n      0xe0\n      shl\n      dup2\n      mstore\n      0x04\n      add\n      tag_47\n      swap4\n      swap3\n      swap2\n      swap1\n      tag_48\n      jump\t// in\n    tag_47:\n      0x20\n      mload(0x40)\n      dup1\n      dup4\n      sub\n      dup2\n      0x00\n      dup8\n      gas\n      call\n      iszero\n      dup1\n      iszero\n      tag_50\n      jumpi\n      returndatasize\n      0x00\n      dup1\n      returndatacopy\n      revert(0x00, returndatasize)\n    tag_50:\n      pop\n      pop\n      pop\n      pop\n      mload(0x40)\n      returndatasize\n      not(0x1f)\n      0x1f\n      dup3\n      add\n      and\n      dup3\n      add\n      dup1\n      0x40\n      mstore\n      pop\n      dup2\n      add\n      swap1\n      tag_51\n      swap2\n      swap1\n      tag_52\n      jump\t// in\n    tag_51:\n      pop\n        /* \"1014/NFT/NFTMarket.sol\":1753:1756  nft */\n      0x01\n      0x00\n      swap1\n      sload\n      swap1\n      0x0100\n      exp\n      swap1\n      div\n      0xffffffffffffffffffffffffffffffffffffffff\n      and\n        /* \"1014/NFT/NFTMarket.sol\":1753:1773  nft.safeTransferFrom */\n      0xffffffffffffffffffffffffffffffffffffffff\n      and\n      0x42842e0e\n        /* \"1014/NFT/NFTMarket.sol\":1782:1786  this */\n      address\n        /* \"1014/NFT/NFTMarket.sol\":1789:1799  msg.sender */\n      caller\n        /* \"1014/NFT/NFTMarket.sol\":1801:1808  tokenId */\n      dup6\n        /* \"1014/NFT/NFTMarket.sol\":1753:1809  nft.safeTransferFrom(address(this), msg.sender, tokenId) */\n      mload(0x40)\n      dup5\n      0xffffffff\n      and\n      0xe0\n      shl\n      dup2\n      mstore\n      0x04\n      add\n      tag_53\n      swap4\n      swap3\n      swap2\n      swap1\n      tag_48\n      jump\t// in\n    tag_53:\n      0x00\n      mload(0x40)\n      dup1\n      dup4\n      sub\n      dup2\n      0x00\n      dup8\n      dup1\n      extcodesize\n      iszero\n      dup1\n      iszero\n      tag_54\n      jumpi\n      0x00\n      dup1\n      revert\n    tag_54:\n      pop\n      gas\n      call\n      iszero\n      dup1\n      iszero\n      tag_56\n      jumpi\n      returndatasize\n      0x00\n      dup1\n      returndatacopy\n      revert(0x00, returndatasize)\n    tag_56:\n      pop\n      pop\n      pop\n      pop\n        /* \"1014/NFT/NFTMarket.sol\":1461:1816  function buyNFT(uint256 tokenId, uint256 amount) public {... */\n      pop\n      pop\n      jump\t// out\n        /* \"1014/NFT/NFTMarket.sol\":343:361  IERC721 public nft */\n    tag_22:\n      0x01\n      0x00\n      swap1\n      sload\n      swap1\n      0x0100\n      exp\n      swap1\n      div\n      0xffffffffffffffffffffffffffffffffffffffff\n      and\n      dup2\n      jump\t// out\n        /* \"1014/NFT/NFTMarket.sol\":929:1455  function list(uint256 tokenId, uint256 price) external {... */\n    tag_27:\n        /* \"1014/NFT/NFTMarket.sol\":1026:1036  msg.sender */\n      caller\n        /* \"1014/NFT/NFTMarket.sol\":1002:1036  nft.ownerOf(tokenId) == msg.sender */\n      0xffffffffffffffffffffffffffffffffffffffff\n      and\n        /* \"1014/NFT/NFTMarket.sol\":1002:1005  nft */\n      0x01\n      0x00\n      swap1\n      sload\n      swap1\n      0x0100\n      exp\n      swap1\n      div\n      0xffffffffffffffffffffffffffffffffffffffff\n      and\n        /* \"1014/NFT/NFTMarket.sol\":1002:1013  nft.ownerOf */\n      0xffffffffffffffffffffffffffffffffffffffff\n      and\n      0x6352211e\n        /* \"1014/NFT/NFTMarket.sol\":1014:1021  tokenId */\n      dup5\n        /* \"1014/NFT/NFTMarket.sol\":1002:1022  nft.ownerOf(tokenId) */\n      mload(0x40)\n      dup3\n      0xffffffff\n      and\n      0xe0\n      shl\n      dup2\n      mstore\n      0x04\n      add\n      tag_58\n      swap2\n      swap1\n      tag_59\n      jump\t// in\n    tag_58:\n      0x20\n      mload(0x40)\n      dup1\n      dup4\n      sub\n      dup2\n      dup7\n      gas\n      staticcall\n      iszero\n      dup1\n      iszero\n      tag_61\n      jumpi\n      returndatasize\n      0x00\n      dup1\n      returndatacopy\n      revert(0x00, returndatasize)\n    tag_61:\n      pop\n      pop\n      pop\n      pop\n      mload(0x40)\n      returndatasize\n      not(0x1f)\n      0x1f\n      dup3\n      add\n      and\n      dup3\n      add\n      dup1\n      0x40\n      mstore\n      pop\n      dup2\n      add\n      swap1\n      tag_62\n      swap2\n      swap1\n      tag_63\n      jump\t// in\n    tag_62:\n        /* \"1014/NFT/NFTMarket.sol\":1002:1036  nft.ownerOf(tokenId) == msg.sender */\n      0xffffffffffffffffffffffffffffffffffffffff\n      and\n      eq\n        /* \"1014/NFT/NFTMarket.sol\":994:1074  require(nft.ownerOf(tokenId) == msg.sender, \"You are not the owner of this NFT\") */\n      tag_64\n      jumpi\n      mload(0x40)\n      0x08c379a000000000000000000000000000000000000000000000000000000000\n      dup2\n      mstore\n      0x04\n      add\n      tag_65\n      swap1\n      tag_66\n      jump\t// in\n    tag_65:\n      mload(0x40)\n      dup1\n      swap2\n      sub\n      swap1\n      revert\n    tag_64:\n        /* \"1014/NFT/NFTMarket.sol\":1100:1101  0 */\n      0x00\n        /* \"1014/NFT/NFTMarket.sol\":1092:1097  price */\n      dup2\n        /* \"1014/NFT/NFTMarket.sol\":1092:1101  price > 0 */\n      gt\n        /* \"1014/NFT/NFTMarket.sol\":1084:1134  require(price > 0, \"Price must be greater than 0\") */\n      tag_67\n      jumpi\n      mload(0x40)\n      0x08c379a000000000000000000000000000000000000000000000000000000000\n      dup2\n      mstore\n      0x04\n      add\n      tag_68\n      swap1\n      tag_69\n      jump\t// in\n    tag_68:\n      mload(0x40)\n      dup1\n      swap2\n      sub\n      swap1\n      revert\n    tag_67:\n        /* \"1014/NFT/NFTMarket.sol\":1208:1211  nft */\n      0x01\n      0x00\n      swap1\n      sload\n      swap1\n      0x0100\n      exp\n      swap1\n      div\n      0xffffffffffffffffffffffffffffffffffffffff\n      and\n        /* \"1014/NFT/NFTMarket.sol\":1208:1224  nft.transferFrom */\n      0xffffffffffffffffffffffffffffffffffffffff\n      and\n      0x23b872dd\n        /* \"1014/NFT/NFTMarket.sol\":1225:1235  msg.sender */\n      caller\n        /* \"1014/NFT/NFTMarket.sol\":1245:1249  this */\n      address\n        /* \"1014/NFT/NFTMarket.sol\":1252:1259  tokenId */\n      dup6\n        /* \"1014/NFT/NFTMarket.sol\":1208:1260  nft.transferFrom(msg.sender, address(this), tokenId) */\n      mload(0x40)\n      dup5\n      0xffffffff\n      and\n      0xe0\n      shl\n      dup2\n      mstore\n      0x04\n      add\n      tag_70\n      swap4\n      swap3\n      swap2\n      swap1\n      tag_48\n      jump\t// in\n    tag_70:\n      0x00\n      mload(0x40)\n      dup1\n      dup4\n      sub\n      dup2\n      0x00\n      dup8\n      dup1\n      extcodesize\n      iszero\n      dup1\n      iszero\n      tag_71\n      jumpi\n      0x00\n      dup1\n      revert\n    tag_71:\n      pop\n      gas\n      call\n      iszero\n      dup1\n      iszero\n      tag_73\n      jumpi\n      returndatasize\n      0x00\n      dup1\n      returndatacopy\n      revert(0x00, returndatasize)\n    tag_73:\n      pop\n      pop\n      pop\n      pop\n        /* \"1014/NFT/NFTMarket.sol\":1321:1398  Listing({... */\n      mload(0x40)\n      dup1\n      0x40\n      add\n      0x40\n      mstore\n      dup1\n        /* \"1014/NFT/NFTMarket.sol\":1351:1361  msg.sender */\n      caller\n        /* \"1014/NFT/NFTMarket.sol\":1321:1398  Listing({... */\n      0xffffffffffffffffffffffffffffffffffffffff\n      and\n      dup2\n      mstore\n      0x20\n      add\n        /* \"1014/NFT/NFTMarket.sol\":1382:1387  price */\n      dup3\n        /* \"1014/NFT/NFTMarket.sol\":1321:1398  Listing({... */\n      dup2\n      mstore\n      pop\n        /* \"1014/NFT/NFTMarket.sol\":1301:1309  listings */\n      0x02\n        /* \"1014/NFT/NFTMarket.sol\":1301:1318  listings[tokenId] */\n      0x00\n        /* \"1014/NFT/NFTMarket.sol\":1310:1317  tokenId */\n      dup5\n        /* \"1014/NFT/NFTMarket.sol\":1301:1318  listings[tokenId] */\n      dup2\n      mstore\n      0x20\n      add\n      swap1\n      dup2\n      mstore\n      0x20\n      add\n      0x00\n      keccak256\n        /* \"1014/NFT/NFTMarket.sol\":1301:1398  listings[tokenId] = Listing({... */\n      0x00\n      dup3\n      add\n      mload\n      dup2\n      0x00\n      add\n      exp(0x0100, 0x00)\n      dup2\n      sload\n      dup2\n      0xffffffffffffffffffffffffffffffffffffffff\n      mul\n      not\n      and\n      swap1\n      dup4\n      0xffffffffffffffffffffffffffffffffffffffff\n      and\n      mul\n      or\n      swap1\n      sstore\n      pop\n      0x20\n      dup3\n      add\n      mload\n      dup2\n      0x01\n      add\n      sstore\n      swap1\n      pop\n      pop\n        /* \"1014/NFT/NFTMarket.sol\":1430:1440  msg.sender */\n      caller\n        /* \"1014/NFT/NFTMarket.sol\":1414:1448  Listed(tokenId, msg.sender, price) */\n      0xffffffffffffffffffffffffffffffffffffffff\n      and\n        /* \"1014/NFT/NFTMarket.sol\":1421:1428  tokenId */\n      dup3\n        /* \"1014/NFT/NFTMarket.sol\":1414:1448  Listed(tokenId, msg.sender, price) */\n      0x50955776c5778c3b7d968d86d8c51fb6b29a7a74c20866b533268e209fc08343\n        /* \"1014/NFT/NFTMarket.sol\":1442:1447  price */\n      dup4\n        /* \"1014/NFT/NFTMarket.sol\":1414:1448  Listed(tokenId, msg.sender, price) */\n      mload(0x40)\n      tag_74\n      swap2\n      swap1\n      tag_59\n      jump\t// in\n    tag_74:\n      mload(0x40)\n      dup1\n      swap2\n      sub\n      swap1\n      log3\n        /* \"1014/NFT/NFTMarket.sol\":929:1455  function list(uint256 tokenId, uint256 price) external {... */\n      pop\n      pop\n      jump\t// out\n        /* \"1014/NFT/NFTMarket.sol\":1893:2589  function tokenReceived(address from, uint256 amount, bytes calldata data) external override {... */\n    tag_31:\n        /* \"1014/NFT/NFTMarket.sol\":2025:2030  token */\n      0x00\n      dup1\n      sload\n      swap1\n      0x0100\n      exp\n      swap1\n      div\n      0xffffffffffffffffffffffffffffffffffffffff\n      and\n        /* \"1014/NFT/NFTMarket.sol\":2003:2031  msg.sender == address(token) */\n      0xffffffffffffffffffffffffffffffffffffffff\n      and\n        /* \"1014/NFT/NFTMarket.sol\":2003:2013  msg.sender */\n      caller\n        /* \"1014/NFT/NFTMarket.sol\":2003:2031  msg.sender == address(token) */\n      0xffffffffffffffffffffffffffffffffffffffff\n      and\n      eq\n        /* \"1014/NFT/NFTMarket.sol\":1995:2071  require(msg.sender == address(token), \"Only ERC20 token transfers accepted\") */\n      tag_76\n      jumpi\n      mload(0x40)\n      0x08c379a000000000000000000000000000000000000000000000000000000000\n      dup2\n      mstore\n      0x04\n      add\n      tag_77\n      swap1\n      tag_78\n      jump\t// in\n    tag_77:\n      mload(0x40)\n      dup1\n      swap2\n      sub\n      swap1\n      revert\n    tag_76:\n        /* \"1014/NFT/NFTMarket.sol\":2081:2096  uint256 tokenId */\n      0x00\n        /* \"1014/NFT/NFTMarket.sol\":2110:2114  data */\n      dup3\n      dup3\n        /* \"1014/NFT/NFTMarket.sol\":2099:2126  abi.decode(data, (uint256)) */\n      dup2\n      add\n      swap1\n      tag_79\n      swap2\n      swap1\n      tag_34\n      jump\t// in\n    tag_79:\n        /* \"1014/NFT/NFTMarket.sol\":2081:2126  uint256 tokenId = abi.decode(data, (uint256)) */\n      swap1\n      pop\n        /* \"1014/NFT/NFTMarket.sol\":2137:2159  Listing memory listing */\n      0x00\n        /* \"1014/NFT/NFTMarket.sol\":2162:2170  listings */\n      0x02\n        /* \"1014/NFT/NFTMarket.sol\":2162:2179  listings[tokenId] */\n      0x00\n        /* \"1014/NFT/NFTMarket.sol\":2171:2178  tokenId */\n      dup4\n        /* \"1014/NFT/NFTMarket.sol\":2162:2179  listings[tokenId] */\n      dup2\n      mstore\n      0x20\n      add\n      swap1\n      dup2\n      mstore\n      0x20\n      add\n      0x00\n      keccak256\n        /* \"1014/NFT/NFTMarket.sol\":2137:2179  Listing memory listing = listings[tokenId] */\n      mload(0x40)\n      dup1\n      0x40\n      add\n      0x40\n      mstore\n      swap1\n      dup2\n      0x00\n      dup3\n      add\n      0x00\n      swap1\n      sload\n      swap1\n      0x0100\n      exp\n      swap1\n      div\n      0xffffffffffffffffffffffffffffffffffffffff\n      and\n      0xffffffffffffffffffffffffffffffffffffffff\n      and\n      0xffffffffffffffffffffffffffffffffffffffff\n      and\n      dup2\n      mstore\n      0x20\n      add\n      0x01\n      dup3\n      add\n      sload\n      dup2\n      mstore\n      pop\n      pop\n      swap1\n      pop\n        /* \"1014/NFT/NFTMarket.sol\":2214:2220  amount */\n      dup5\n        /* \"1014/NFT/NFTMarket.sol\":2197:2204  listing */\n      dup2\n        /* \"1014/NFT/NFTMarket.sol\":2197:2210  listing.price */\n      0x20\n      add\n      mload\n        /* \"1014/NFT/NFTMarket.sol\":2197:2220  listing.price == amount */\n      eq\n        /* \"1014/NFT/NFTMarket.sol\":2189:2252  require(listing.price == amount, \"Incorrect token amount sent\") */\n      tag_80\n      jumpi\n      mload(0x40)\n      0x08c379a000000000000000000000000000000000000000000000000000000000\n      dup2\n      mstore\n      0x04\n      add\n      tag_81\n      swap1\n      tag_82\n      jump\t// in\n    tag_81:\n      mload(0x40)\n      dup1\n      swap2\n      sub\n      swap1\n      revert\n    tag_80:\n        /* \"1014/NFT/NFTMarket.sol\":2304:2307  nft */\n      0x01\n      0x00\n      swap1\n      sload\n      swap1\n      0x0100\n      exp\n      swap1\n      div\n      0xffffffffffffffffffffffffffffffffffffffff\n      and\n        /* \"1014/NFT/NFTMarket.sol\":2304:2324  nft.safeTransferFrom */\n      0xffffffffffffffffffffffffffffffffffffffff\n      and\n      0x42842e0e\n        /* \"1014/NFT/NFTMarket.sol\":2333:2337  this */\n      address\n        /* \"1014/NFT/NFTMarket.sol\":2340:2344  from */\n      dup9\n        /* \"1014/NFT/NFTMarket.sol\":2346:2353  tokenId */\n      dup6\n        /* \"1014/NFT/NFTMarket.sol\":2304:2354  nft.safeTransferFrom(address(this), from, tokenId) */\n      mload(0x40)\n      dup5\n      0xffffffff\n      and\n      0xe0\n      shl\n      dup2\n      mstore\n      0x04\n      add\n      tag_83\n      swap4\n      swap3\n      swap2\n      swap1\n      tag_48\n      jump\t// in\n    tag_83:\n      0x00\n      mload(0x40)\n      dup1\n      dup4\n      sub\n      dup2\n      0x00\n      dup8\n      dup1\n      extcodesize\n      iszero\n      dup1\n      iszero\n      tag_84\n      jumpi\n      0x00\n      dup1\n      revert\n    tag_84:\n      pop\n      gas\n      call\n      iszero\n      dup1\n      iszero\n      tag_86\n      jumpi\n      returndatasize\n      0x00\n      dup1\n      returndatacopy\n      revert(0x00, returndatasize)\n    tag_86:\n      pop\n      pop\n      pop\n      pop\n        /* \"1014/NFT/NFTMarket.sol\":2416:2421  token */\n      0x00\n      dup1\n      sload\n      swap1\n      0x0100\n      exp\n      swap1\n      div\n      0xffffffffffffffffffffffffffffffffffffffff\n      and\n        /* \"1014/NFT/NFTMarket.sol\":2416:2430  token.transfer */\n      0xffffffffffffffffffffffffffffffffffffffff\n      and\n      0xa9059cbb\n        /* \"1014/NFT/NFTMarket.sol\":2431:2438  listing */\n      dup3\n        /* \"1014/NFT/NFTMarket.sol\":2431:2445  listing.seller */\n      0x00\n      add\n      mload\n        /* \"1014/NFT/NFTMarket.sol\":2447:2453  amount */\n      dup8\n        /* \"1014/NFT/NFTMarket.sol\":2416:2454  token.transfer(listing.seller, amount) */\n      mload(0x40)\n      dup4\n      0xffffffff\n      and\n      0xe0\n      shl\n      dup2\n      mstore\n      0x04\n      add\n      tag_87\n      swap3\n      swap2\n      swap1\n      tag_37\n      jump\t// in\n    tag_87:\n      0x20\n      mload(0x40)\n      dup1\n      dup4\n      sub\n      dup2\n      0x00\n      dup8\n      gas\n      call\n      iszero\n      dup1\n      iszero\n      tag_89\n      jumpi\n      returndatasize\n      0x00\n      dup1\n      returndatacopy\n      revert(0x00, returndatasize)\n    tag_89:\n      pop\n      pop\n      pop\n      pop\n      mload(0x40)\n      returndatasize\n      not(0x1f)\n      0x1f\n      dup3\n      add\n      and\n      dup3\n      add\n      dup1\n      0x40\n      mstore\n      pop\n      dup2\n      add\n      swap1\n      tag_90\n      swap2\n      swap1\n      tag_52\n      jump\t// in\n    tag_90:\n      pop\n        /* \"1014/NFT/NFTMarket.sol\":2501:2509  listings */\n      0x02\n        /* \"1014/NFT/NFTMarket.sol\":2501:2518  listings[tokenId] */\n      0x00\n        /* \"1014/NFT/NFTMarket.sol\":2510:2517  tokenId */\n      dup4\n        /* \"1014/NFT/NFTMarket.sol\":2501:2518  listings[tokenId] */\n      dup2\n      mstore\n      0x20\n      add\n      swap1\n      dup2\n      mstore\n      0x20\n      add\n      0x00\n      keccak256\n      0x00\n        /* \"1014/NFT/NFTMarket.sol\":2494:2518  delete listings[tokenId] */\n      dup1\n      dup3\n      add\n      exp(0x0100, 0x00)\n      dup2\n      sload\n      swap1\n      0xffffffffffffffffffffffffffffffffffffffff\n      mul\n      not\n      and\n      swap1\n      sstore\n      0x01\n      dup3\n      add\n      0x00\n      swap1\n      sstore\n      pop\n      pop\n        /* \"1014/NFT/NFTMarket.sol\":2559:2566  listing */\n      dup1\n        /* \"1014/NFT/NFTMarket.sol\":2559:2573  listing.seller */\n      0x00\n      add\n      mload\n        /* \"1014/NFT/NFTMarket.sol\":2534:2582  Purchased(tokenId, from, listing.seller, amount) */\n      0xffffffffffffffffffffffffffffffffffffffff\n      and\n        /* \"1014/NFT/NFTMarket.sol\":2553:2557  from */\n      dup7\n        /* \"1014/NFT/NFTMarket.sol\":2534:2582  Purchased(tokenId, from, listing.seller, amount) */\n      0xffffffffffffffffffffffffffffffffffffffff\n      and\n        /* \"1014/NFT/NFTMarket.sol\":2544:2551  tokenId */\n      dup4\n        /* \"1014/NFT/NFTMarket.sol\":2534:2582  Purchased(tokenId, from, listing.seller, amount) */\n      0x3fb02bfbf01f7dc3a4c6903acc6b06ca1d9af7647282593f46cbacefc288b602\n        /* \"1014/NFT/NFTMarket.sol\":2575:2581  amount */\n      dup9\n        /* \"1014/NFT/NFTMarket.sol\":2534:2582  Purchased(tokenId, from, listing.seller, amount) */\n      mload(0x40)\n      tag_91\n      swap2\n      swap1\n      tag_59\n      jump\t// in\n    tag_91:\n      mload(0x40)\n      dup1\n      swap2\n      sub\n      swap1\n      log4\n        /* \"1014/NFT/NFTMarket.sol\":1985:2589  {... */\n      pop\n      pop\n        /* \"1014/NFT/NFTMarket.sol\":1893:2589  function tokenReceived(address from, uint256 amount, bytes calldata data) external override {... */\n      pop\n      pop\n      pop\n      pop\n      jump\t// out\n        /* \"1014/NFT/NFTMarket.sol\":531:574  mapping(uint256 => Listing) public listings */\n    tag_35:\n      mstore(0x20, 0x02)\n      dup1\n      0x00\n      mstore\n      keccak256(0x00, 0x40)\n      0x00\n      swap2\n      pop\n      swap1\n      pop\n      dup1\n      0x00\n      add\n      0x00\n      swap1\n      sload\n      swap1\n      0x0100\n      exp\n      swap1\n      div\n      0xffffffffffffffffffffffffffffffffffffffff\n      and\n      swap1\n      dup1\n      0x01\n      add\n      sload\n      swap1\n      pop\n      dup3\n      jump\t// out\n        /* \"1014/NFT/NFTMarket.sol\":284:303  IERC20 public token */\n    tag_39:\n      0x00\n      dup1\n      sload\n      swap1\n      0x0100\n      exp\n      swap1\n      div\n      0xffffffffffffffffffffffffffffffffffffffff\n      and\n      dup2\n      jump\t// out\n        /* \"#utility.yul\":88:205   */\n    tag_93:\n        /* \"#utility.yul\":197:198   */\n      0x00\n        /* \"#utility.yul\":194:195   */\n      dup1\n        /* \"#utility.yul\":187:199   */\n      revert\n        /* \"#utility.yul\":211:328   */\n    tag_94:\n        /* \"#utility.yul\":320:321   */\n      0x00\n        /* \"#utility.yul\":317:318   */\n      dup1\n        /* \"#utility.yul\":310:322   */\n      revert\n        /* \"#utility.yul\":334:460   */\n    tag_95:\n        /* \"#utility.yul\":371:378   */\n      0x00\n        /* \"#utility.yul\":411:453   */\n      0xffffffffffffffffffffffffffffffffffffffff\n        /* \"#utility.yul\":404:409   */\n      dup3\n        /* \"#utility.yul\":400:454   */\n      and\n        /* \"#utility.yul\":389:454   */\n      swap1\n      pop\n        /* \"#utility.yul\":334:460   */\n      swap2\n      swap1\n      pop\n      jump\t// out\n        /* \"#utility.yul\":466:562   */\n    tag_96:\n        /* \"#utility.yul\":503:510   */\n      0x00\n        /* \"#utility.yul\":532:556   */\n      tag_138\n        /* \"#utility.yul\":550:555   */\n      dup3\n        /* \"#utility.yul\":532:556   */\n      tag_95\n      jump\t// in\n    tag_138:\n        /* \"#utility.yul\":521:556   */\n      swap1\n      pop\n        /* \"#utility.yul\":466:562   */\n      swap2\n      swap1\n      pop\n      jump\t// out\n        /* \"#utility.yul\":568:690   */\n    tag_97:\n        /* \"#utility.yul\":641:665   */\n      tag_140\n        /* \"#utility.yul\":659:664   */\n      dup2\n        /* \"#utility.yul\":641:665   */\n      tag_96\n      jump\t// in\n    tag_140:\n        /* \"#utility.yul\":634:639   */\n      dup2\n        /* \"#utility.yul\":631:666   */\n      eq\n        /* \"#utility.yul\":621:684   */\n      tag_141\n      jumpi\n        /* \"#utility.yul\":680:681   */\n      0x00\n        /* \"#utility.yul\":677:678   */\n      dup1\n        /* \"#utility.yul\":670:682   */\n      revert\n        /* \"#utility.yul\":621:684   */\n    tag_141:\n        /* \"#utility.yul\":568:690   */\n      pop\n      jump\t// out\n        /* \"#utility.yul\":696:835   */\n    tag_98:\n        /* \"#utility.yul\":742:747   */\n      0x00\n        /* \"#utility.yul\":780:786   */\n      dup2\n        /* \"#utility.yul\":767:787   */\n      calldataload\n        /* \"#utility.yul\":758:787   */\n      swap1\n      pop\n        /* \"#utility.yul\":796:829   */\n      tag_143\n        /* \"#utility.yul\":823:828   */\n      dup2\n        /* \"#utility.yul\":796:829   */\n      tag_97\n      jump\t// in\n    tag_143:\n        /* \"#utility.yul\":696:835   */\n      swap3\n      swap2\n      pop\n      pop\n      jump\t// out\n        /* \"#utility.yul\":841:918   */\n    tag_99:\n        /* \"#utility.yul\":878:885   */\n      0x00\n        /* \"#utility.yul\":907:912   */\n      dup2\n        /* \"#utility.yul\":896:912   */\n      swap1\n      pop\n        /* \"#utility.yul\":841:918   */\n      swap2\n      swap1\n      pop\n      jump\t// out\n        /* \"#utility.yul\":924:1046   */\n    tag_100:\n        /* \"#utility.yul\":997:1021   */\n      tag_146\n        /* \"#utility.yul\":1015:1020   */\n      dup2\n        /* \"#utility.yul\":997:1021   */\n      tag_99\n      jump\t// in\n    tag_146:\n        /* \"#utility.yul\":990:995   */\n      dup2\n        /* \"#utility.yul\":987:1022   */\n      eq\n        /* \"#utility.yul\":977:1040   */\n      tag_147\n      jumpi\n        /* \"#utility.yul\":1036:1037   */\n      0x00\n        /* \"#utility.yul\":1033:1034   */\n      dup1\n        /* \"#utility.yul\":1026:1038   */\n      revert\n        /* \"#utility.yul\":977:1040   */\n    tag_147:\n        /* \"#utility.yul\":924:1046   */\n      pop\n      jump\t// out\n        /* \"#utility.yul\":1052:1191   */\n    tag_101:\n        /* \"#utility.yul\":1098:1103   */\n      0x00\n        /* \"#utility.yul\":1136:1142   */\n      dup2\n        /* \"#utility.yul\":1123:1143   */\n      calldataload\n        /* \"#utility.yul\":1114:1143   */\n      swap1\n      pop\n        /* \"#utility.yul\":1152:1185   */\n      tag_149\n        /* \"#utility.yul\":1179:1184   */\n      dup2\n        /* \"#utility.yul\":1152:1185   */\n      tag_100\n      jump\t// in\n    tag_149:\n        /* \"#utility.yul\":1052:1191   */\n      swap3\n      swap2\n      pop\n      pop\n      jump\t// out\n        /* \"#utility.yul\":1197:1314   */\n    tag_102:\n        /* \"#utility.yul\":1306:1307   */\n      0x00\n        /* \"#utility.yul\":1303:1304   */\n      dup1\n        /* \"#utility.yul\":1296:1308   */\n      revert\n        /* \"#utility.yul\":1320:1437   */\n    tag_103:\n        /* \"#utility.yul\":1429:1430   */\n      0x00\n        /* \"#utility.yul\":1426:1427   */\n      dup1\n        /* \"#utility.yul\":1419:1431   */\n      revert\n        /* \"#utility.yul\":1443:1560   */\n    tag_104:\n        /* \"#utility.yul\":1552:1553   */\n      0x00\n        /* \"#utility.yul\":1549:1550   */\n      dup1\n        /* \"#utility.yul\":1542:1554   */\n      revert\n        /* \"#utility.yul\":1579:2131   */\n    tag_105:\n        /* \"#utility.yul\":1636:1644   */\n      0x00\n        /* \"#utility.yul\":1646:1652   */\n      dup1\n        /* \"#utility.yul\":1696:1699   */\n      dup4\n        /* \"#utility.yul\":1689:1693   */\n      0x1f\n        /* \"#utility.yul\":1681:1687   */\n      dup5\n        /* \"#utility.yul\":1677:1694   */\n      add\n        /* \"#utility.yul\":1673:1700   */\n      slt\n        /* \"#utility.yul\":1663:1785   */\n      tag_154\n      jumpi\n        /* \"#utility.yul\":1704:1783   */\n      tag_155\n      tag_102\n      jump\t// in\n    tag_155:\n        /* \"#utility.yul\":1663:1785   */\n    tag_154:\n        /* \"#utility.yul\":1817:1823   */\n      dup3\n        /* \"#utility.yul\":1804:1824   */\n      calldataload\n        /* \"#utility.yul\":1794:1824   */\n      swap1\n      pop\n        /* \"#utility.yul\":1847:1865   */\n      0xffffffffffffffff\n        /* \"#utility.yul\":1839:1845   */\n      dup2\n        /* \"#utility.yul\":1836:1866   */\n      gt\n        /* \"#utility.yul\":1833:1950   */\n      iszero\n      tag_156\n      jumpi\n        /* \"#utility.yul\":1869:1948   */\n      tag_157\n      tag_103\n      jump\t// in\n    tag_157:\n        /* \"#utility.yul\":1833:1950   */\n    tag_156:\n        /* \"#utility.yul\":1983:1987   */\n      0x20\n        /* \"#utility.yul\":1975:1981   */\n      dup4\n        /* \"#utility.yul\":1971:1988   */\n      add\n        /* \"#utility.yul\":1959:1988   */\n      swap2\n      pop\n        /* \"#utility.yul\":2037:2040   */\n      dup4\n        /* \"#utility.yul\":2029:2033   */\n      0x01\n        /* \"#utility.yul\":2021:2027   */\n      dup3\n        /* \"#utility.yul\":2017:2034   */\n      mul\n        /* \"#utility.yul\":2007:2015   */\n      dup4\n        /* \"#utility.yul\":2003:2035   */\n      add\n        /* \"#utility.yul\":2000:2041   */\n      gt\n        /* \"#utility.yul\":1997:2125   */\n      iszero\n      tag_158\n      jumpi\n        /* \"#utility.yul\":2044:2123   */\n      tag_159\n      tag_104\n      jump\t// in\n    tag_159:\n        /* \"#utility.yul\":1997:2125   */\n    tag_158:\n        /* \"#utility.yul\":1579:2131   */\n      swap3\n      pop\n      swap3\n      swap1\n      pop\n      jump\t// out\n        /* \"#utility.yul\":2137:3100   */\n    tag_13:\n        /* \"#utility.yul\":2234:2240   */\n      0x00\n        /* \"#utility.yul\":2242:2248   */\n      dup1\n        /* \"#utility.yul\":2250:2256   */\n      0x00\n        /* \"#utility.yul\":2258:2264   */\n      dup1\n        /* \"#utility.yul\":2266:2272   */\n      0x00\n        /* \"#utility.yul\":2315:2318   */\n      0x80\n        /* \"#utility.yul\":2303:2312   */\n      dup7\n        /* \"#utility.yul\":2294:2301   */\n      dup9\n        /* \"#utility.yul\":2290:2313   */\n      sub\n        /* \"#utility.yul\":2286:2319   */\n      slt\n        /* \"#utility.yul\":2283:2403   */\n      iszero\n      tag_161\n      jumpi\n        /* \"#utility.yul\":2322:2401   */\n      tag_162\n      tag_93\n      jump\t// in\n    tag_162:\n        /* \"#utility.yul\":2283:2403   */\n    tag_161:\n        /* \"#utility.yul\":2442:2443   */\n      0x00\n        /* \"#utility.yul\":2467:2520   */\n      tag_163\n        /* \"#utility.yul\":2512:2519   */\n      dup9\n        /* \"#utility.yul\":2503:2509   */\n      dup3\n        /* \"#utility.yul\":2492:2501   */\n      dup10\n        /* \"#utility.yul\":2488:2510   */\n      add\n        /* \"#utility.yul\":2467:2520   */\n      tag_98\n      jump\t// in\n    tag_163:\n        /* \"#utility.yul\":2457:2520   */\n      swap6\n      pop\n        /* \"#utility.yul\":2413:2530   */\n      pop\n        /* \"#utility.yul\":2569:2571   */\n      0x20\n        /* \"#utility.yul\":2595:2648   */\n      tag_164\n        /* \"#utility.yul\":2640:2647   */\n      dup9\n        /* \"#utility.yul\":2631:2637   */\n      dup3\n        /* \"#utility.yul\":2620:2629   */\n      dup10\n        /* \"#utility.yul\":2616:2638   */\n      add\n        /* \"#utility.yul\":2595:2648   */\n      tag_98\n      jump\t// in\n    tag_164:\n        /* \"#utility.yul\":2585:2648   */\n      swap5\n      pop\n        /* \"#utility.yul\":2540:2658   */\n      pop\n        /* \"#utility.yul\":2697:2699   */\n      0x40\n        /* \"#utility.yul\":2723:2776   */\n      tag_165\n        /* \"#utility.yul\":2768:2775   */\n      dup9\n        /* \"#utility.yul\":2759:2765   */\n      dup3\n        /* \"#utility.yul\":2748:2757   */\n      dup10\n        /* \"#utility.yul\":2744:2766   */\n      add\n        /* \"#utility.yul\":2723:2776   */\n      tag_101\n      jump\t// in\n    tag_165:\n        /* \"#utility.yul\":2713:2776   */\n      swap4\n      pop\n        /* \"#utility.yul\":2668:2786   */\n      pop\n        /* \"#utility.yul\":2853:2855   */\n      0x60\n        /* \"#utility.yul\":2842:2851   */\n      dup7\n        /* \"#utility.yul\":2838:2856   */\n      add\n        /* \"#utility.yul\":2825:2857   */\n      calldataload\n        /* \"#utility.yul\":2884:2902   */\n      0xffffffffffffffff\n        /* \"#utility.yul\":2876:2882   */\n      dup2\n        /* \"#utility.yul\":2873:2903   */\n      gt\n        /* \"#utility.yul\":2870:2987   */\n      iszero\n      tag_166\n      jumpi\n        /* \"#utility.yul\":2906:2985   */\n      tag_167\n      tag_94\n      jump\t// in\n    tag_167:\n        /* \"#utility.yul\":2870:2987   */\n    tag_166:\n        /* \"#utility.yul\":3019:3083   */\n      tag_168\n        /* \"#utility.yul\":3075:3082   */\n      dup9\n        /* \"#utility.yul\":3066:3072   */\n      dup3\n        /* \"#utility.yul\":3055:3064   */\n      dup10\n        /* \"#utility.yul\":3051:3073   */\n      add\n        /* \"#utility.yul\":3019:3083   */\n      tag_105\n      jump\t// in\n    tag_168:\n        /* \"#utility.yul\":3001:3083   */\n      swap3\n      pop\n      swap3\n      pop\n        /* \"#utility.yul\":2796:3093   */\n      pop\n        /* \"#utility.yul\":2137:3100   */\n      swap3\n      swap6\n      pop\n      swap3\n      swap6\n      swap1\n      swap4\n      pop\n      jump\t// out\n        /* \"#utility.yul\":3106:3255   */\n    tag_106:\n        /* \"#utility.yul\":3142:3149   */\n      0x00\n        /* \"#utility.yul\":3182:3248   */\n      0xffffffff00000000000000000000000000000000000000000000000000000000\n        /* \"#utility.yul\":3175:3180   */\n      dup3\n        /* \"#utility.yul\":3171:3249   */\n      and\n        /* \"#utility.yul\":3160:3249   */\n      swap1\n      pop\n        /* \"#utility.yul\":3106:3255   */\n      swap2\n      swap1\n      pop\n      jump\t// out\n        /* \"#utility.yul\":3261:3376   */\n    tag_107:\n        /* \"#utility.yul\":3346:3369   */\n      tag_171\n        /* \"#utility.yul\":3363:3368   */\n      dup2\n        /* \"#utility.yul\":3346:3369   */\n      tag_106\n      jump\t// in\n    tag_171:\n        /* \"#utility.yul\":3341:3344   */\n      dup3\n        /* \"#utility.yul\":3334:3370   */\n      mstore\n        /* \"#utility.yul\":3261:3376   */\n      pop\n      pop\n      jump\t// out\n        /* \"#utility.yul\":3382:3600   */\n    tag_16:\n        /* \"#utility.yul\":3473:3477   */\n      0x00\n        /* \"#utility.yul\":3511:3513   */\n      0x20\n        /* \"#utility.yul\":3500:3509   */\n      dup3\n        /* \"#utility.yul\":3496:3514   */\n      add\n        /* \"#utility.yul\":3488:3514   */\n      swap1\n      pop\n        /* \"#utility.yul\":3524:3593   */\n      tag_173\n        /* \"#utility.yul\":3590:3591   */\n      0x00\n        /* \"#utility.yul\":3579:3588   */\n      dup4\n        /* \"#utility.yul\":3575:3592   */\n      add\n        /* \"#utility.yul\":3566:3572   */\n      dup5\n        /* \"#utility.yul\":3524:3593   */\n      tag_107\n      jump\t// in\n    tag_173:\n        /* \"#utility.yul\":3382:3600   */\n      swap3\n      swap2\n      pop\n      pop\n      jump\t// out\n        /* \"#utility.yul\":3606:4080   */\n    tag_19:\n        /* \"#utility.yul\":3674:3680   */\n      0x00\n        /* \"#utility.yul\":3682:3688   */\n      dup1\n        /* \"#utility.yul\":3731:3733   */\n      0x40\n        /* \"#utility.yul\":3719:3728   */\n      dup4\n        /* \"#utility.yul\":3710:3717   */\n      dup6\n        /* \"#utility.yul\":3706:3729   */\n      sub\n        /* \"#utility.yul\":3702:3734   */\n      slt\n        /* \"#utility.yul\":3699:3818   */\n      iszero\n      tag_175\n      jumpi\n        /* \"#utility.yul\":3737:3816   */\n      tag_176\n      tag_93\n      jump\t// in\n    tag_176:\n        /* \"#utility.yul\":3699:3818   */\n    tag_175:\n        /* \"#utility.yul\":3857:3858   */\n      0x00\n        /* \"#utility.yul\":3882:3935   */\n      tag_177\n        /* \"#utility.yul\":3927:3934   */\n      dup6\n        /* \"#utility.yul\":3918:3924   */\n      dup3\n        /* \"#utility.yul\":3907:3916   */\n      dup7\n        /* \"#utility.yul\":3903:3925   */\n      add\n        /* \"#utility.yul\":3882:3935   */\n      tag_101\n      jump\t// in\n    tag_177:\n        /* \"#utility.yul\":3872:3935   */\n      swap3\n      pop\n        /* \"#utility.yul\":3828:3945   */\n      pop\n        /* \"#utility.yul\":3984:3986   */\n      0x20\n        /* \"#utility.yul\":4010:4063   */\n      tag_178\n        /* \"#utility.yul\":4055:4062   */\n      dup6\n        /* \"#utility.yul\":4046:4052   */\n      dup3\n        /* \"#utility.yul\":4035:4044   */\n      dup7\n        /* \"#utility.yul\":4031:4053   */\n      add\n        /* \"#utility.yul\":4010:4063   */\n      tag_101\n      jump\t// in\n    tag_178:\n        /* \"#utility.yul\":4000:4063   */\n      swap2\n      pop\n        /* \"#utility.yul\":3955:4073   */\n      pop\n        /* \"#utility.yul\":3606:4080   */\n      swap3\n      pop\n      swap3\n      swap1\n      pop\n      jump\t// out\n        /* \"#utility.yul\":4086:4146   */\n    tag_108:\n        /* \"#utility.yul\":4114:4117   */\n      0x00\n        /* \"#utility.yul\":4135:4140   */\n      dup2\n        /* \"#utility.yul\":4128:4140   */\n      swap1\n      pop\n        /* \"#utility.yul\":4086:4146   */\n      swap2\n      swap1\n      pop\n      jump\t// out\n        /* \"#utility.yul\":4152:4294   */\n    tag_109:\n        /* \"#utility.yul\":4202:4211   */\n      0x00\n        /* \"#utility.yul\":4235:4288   */\n      tag_181\n        /* \"#utility.yul\":4253:4287   */\n      tag_182\n        /* \"#utility.yul\":4262:4286   */\n      tag_183\n        /* \"#utility.yul\":4280:4285   */\n      dup5\n        /* \"#utility.yul\":4262:4286   */\n      tag_95\n      jump\t// in\n    tag_183:\n        /* \"#utility.yul\":4253:4287   */\n      tag_108\n      jump\t// in\n    tag_182:\n        /* \"#utility.yul\":4235:4288   */\n      tag_95\n      jump\t// in\n    tag_181:\n        /* \"#utility.yul\":4222:4288   */\n      swap1\n      pop\n        /* \"#utility.yul\":4152:4294   */\n      swap2\n      swap1\n      pop\n      jump\t// out\n        /* \"#utility.yul\":4300:4426   */\n    tag_110:\n        /* \"#utility.yul\":4350:4359   */\n      0x00\n        /* \"#utility.yul\":4383:4420   */\n      tag_185\n        /* \"#utility.yul\":4414:4419   */\n      dup3\n        /* \"#utility.yul\":4383:4420   */\n      tag_109\n      jump\t// in\n    tag_185:\n        /* \"#utility.yul\":4370:4420   */\n      swap1\n      pop\n        /* \"#utility.yul\":4300:4426   */\n      swap2\n      swap1\n      pop\n      jump\t// out\n        /* \"#utility.yul\":4432:4573   */\n    tag_111:\n        /* \"#utility.yul\":4497:4506   */\n      0x00\n        /* \"#utility.yul\":4530:4567   */\n      tag_187\n        /* \"#utility.yul\":4561:4566   */\n      dup3\n        /* \"#utility.yul\":4530:4567   */\n      tag_110\n      jump\t// in\n    tag_187:\n        /* \"#utility.yul\":4517:4567   */\n      swap1\n      pop\n        /* \"#utility.yul\":4432:4573   */\n      swap2\n      swap1\n      pop\n      jump\t// out\n        /* \"#utility.yul\":4579:4740   */\n    tag_112:\n        /* \"#utility.yul\":4681:4733   */\n      tag_189\n        /* \"#utility.yul\":4727:4732   */\n      dup2\n        /* \"#utility.yul\":4681:4733   */\n      tag_111\n      jump\t// in\n    tag_189:\n        /* \"#utility.yul\":4676:4679   */\n      dup3\n        /* \"#utility.yul\":4669:4734   */\n      mstore\n        /* \"#utility.yul\":4579:4740   */\n      pop\n      pop\n      jump\t// out\n        /* \"#utility.yul\":4746:4998   */\n    tag_24:\n        /* \"#utility.yul\":4854:4858   */\n      0x00\n        /* \"#utility.yul\":4892:4894   */\n      0x20\n        /* \"#utility.yul\":4881:4890   */\n      dup3\n        /* \"#utility.yul\":4877:4895   */\n      add\n        /* \"#utility.yul\":4869:4895   */\n      swap1\n      pop\n        /* \"#utility.yul\":4905:4991   */\n      tag_191\n        /* \"#utility.yul\":4988:4989   */\n      0x00\n        /* \"#utility.yul\":4977:4986   */\n      dup4\n        /* \"#utility.yul\":4973:4990   */\n      add\n        /* \"#utility.yul\":4964:4970   */\n      dup5\n        /* \"#utility.yul\":4905:4991   */\n      tag_112\n      jump\t// in\n    tag_191:\n        /* \"#utility.yul\":4746:4998   */\n      swap3\n      swap2\n      pop\n      pop\n      jump\t// out\n        /* \"#utility.yul\":5004:5821   */\n    tag_30:\n        /* \"#utility.yul\":5092:5098   */\n      0x00\n        /* \"#utility.yul\":5100:5106   */\n      dup1\n        /* \"#utility.yul\":5108:5114   */\n      0x00\n        /* \"#utility.yul\":5116:5122   */\n      dup1\n        /* \"#utility.yul\":5165:5167   */\n      0x60\n        /* \"#utility.yul\":5153:5162   */\n      dup6\n        /* \"#utility.yul\":5144:5151   */\n      dup8\n        /* \"#utility.yul\":5140:5163   */\n      sub\n        /* \"#utility.yul\":5136:5168   */\n      slt\n        /* \"#utility.yul\":5133:5252   */\n      iszero\n      tag_193\n      jumpi\n        /* \"#utility.yul\":5171:5250   */\n      tag_194\n      tag_93\n      jump\t// in\n    tag_194:\n        /* \"#utility.yul\":5133:5252   */\n    tag_193:\n        /* \"#utility.yul\":5291:5292   */\n      0x00\n        /* \"#utility.yul\":5316:5369   */\n      tag_195\n        /* \"#utility.yul\":5361:5368   */\n      dup8\n        /* \"#utility.yul\":5352:5358   */\n      dup3\n        /* \"#utility.yul\":5341:5350   */\n      dup9\n        /* \"#utility.yul\":5337:5359   */\n      add\n        /* \"#utility.yul\":5316:5369   */\n      tag_98\n      jump\t// in\n    tag_195:\n        /* \"#utility.yul\":5306:5369   */\n      swap5\n      pop\n        /* \"#utility.yul\":5262:5379   */\n      pop\n        /* \"#utility.yul\":5418:5420   */\n      0x20\n        /* \"#utility.yul\":5444:5497   */\n      tag_196\n        /* \"#utility.yul\":5489:5496   */\n      dup8\n        /* \"#utility.yul\":5480:5486   */\n      dup3\n        /* \"#utility.yul\":5469:5478   */\n      dup9\n        /* \"#utility.yul\":5465:5487   */\n      add\n        /* \"#utility.yul\":5444:5497   */\n      tag_101\n      jump\t// in\n    tag_196:\n        /* \"#utility.yul\":5434:5497   */\n      swap4\n      pop\n        /* \"#utility.yul\":5389:5507   */\n      pop\n        /* \"#utility.yul\":5574:5576   */\n      0x40\n        /* \"#utility.yul\":5563:5572   */\n      dup6\n        /* \"#utility.yul\":5559:5577   */\n      add\n        /* \"#utility.yul\":5546:5578   */\n      calldataload\n        /* \"#utility.yul\":5605:5623   */\n      0xffffffffffffffff\n        /* \"#utility.yul\":5597:5603   */\n      dup2\n        /* \"#utility.yul\":5594:5624   */\n      gt\n        /* \"#utility.yul\":5591:5708   */\n      iszero\n      tag_197\n      jumpi\n        /* \"#utility.yul\":5627:5706   */\n      tag_198\n      tag_94\n      jump\t// in\n    tag_198:\n        /* \"#utility.yul\":5591:5708   */\n    tag_197:\n        /* \"#utility.yul\":5740:5804   */\n      tag_199\n        /* \"#utility.yul\":5796:5803   */\n      dup8\n        /* \"#utility.yul\":5787:5793   */\n      dup3\n        /* \"#utility.yul\":5776:5785   */\n      dup9\n        /* \"#utility.yul\":5772:5794   */\n      add\n        /* \"#utility.yul\":5740:5804   */\n      tag_105\n      jump\t// in\n    tag_199:\n        /* \"#utility.yul\":5722:5804   */\n      swap3\n      pop\n      swap3\n      pop\n        /* \"#utility.yul\":5517:5814   */\n      pop\n        /* \"#utility.yul\":5004:5821   */\n      swap3\n      swap6\n      swap2\n      swap5\n      pop\n      swap3\n      pop\n      jump\t// out\n        /* \"#utility.yul\":5827:6156   */\n    tag_34:\n        /* \"#utility.yul\":5886:5892   */\n      0x00\n        /* \"#utility.yul\":5935:5937   */\n      0x20\n        /* \"#utility.yul\":5923:5932   */\n      dup3\n        /* \"#utility.yul\":5914:5921   */\n      dup5\n        /* \"#utility.yul\":5910:5933   */\n      sub\n        /* \"#utility.yul\":5906:5938   */\n      slt\n        /* \"#utility.yul\":5903:6022   */\n      iszero\n      tag_201\n      jumpi\n        /* \"#utility.yul\":5941:6020   */\n      tag_202\n      tag_93\n      jump\t// in\n    tag_202:\n        /* \"#utility.yul\":5903:6022   */\n    tag_201:\n        /* \"#utility.yul\":6061:6062   */\n      0x00\n        /* \"#utility.yul\":6086:6139   */\n      tag_203\n        /* \"#utility.yul\":6131:6138   */\n      dup5\n        /* \"#utility.yul\":6122:6128   */\n      dup3\n        /* \"#utility.yul\":6111:6120   */\n      dup6\n        /* \"#utility.yul\":6107:6129   */\n      add\n        /* \"#utility.yul\":6086:6139   */\n      tag_101\n      jump\t// in\n    tag_203:\n        /* \"#utility.yul\":6076:6139   */\n      swap2\n      pop\n        /* \"#utility.yul\":6032:6149   */\n      pop\n        /* \"#utility.yul\":5827:6156   */\n      swap3\n      swap2\n      pop\n      pop\n      jump\t// out\n        /* \"#utility.yul\":6162:6280   */\n    tag_113:\n        /* \"#utility.yul\":6249:6273   */\n      tag_205\n        /* \"#utility.yul\":6267:6272   */\n      dup2\n        /* \"#utility.yul\":6249:6273   */\n      tag_96\n      jump\t// in\n    tag_205:\n        /* \"#utility.yul\":6244:6247   */\n      dup3\n        /* \"#utility.yul\":6237:6274   */\n      mstore\n        /* \"#utility.yul\":6162:6280   */\n      pop\n      pop\n      jump\t// out\n        /* \"#utility.yul\":6286:6404   */\n    tag_114:\n        /* \"#utility.yul\":6373:6397   */\n      tag_207\n        /* \"#utility.yul\":6391:6396   */\n      dup2\n        /* \"#utility.yul\":6373:6397   */\n      tag_99\n      jump\t// in\n    tag_207:\n        /* \"#utility.yul\":6368:6371   */\n      dup3\n        /* \"#utility.yul\":6361:6398   */\n      mstore\n        /* \"#utility.yul\":6286:6404   */\n      pop\n      pop\n      jump\t// out\n        /* \"#utility.yul\":6410:6742   */\n    tag_37:\n        /* \"#utility.yul\":6531:6535   */\n      0x00\n        /* \"#utility.yul\":6569:6571   */\n      0x40\n        /* \"#utility.yul\":6558:6567   */\n      dup3\n        /* \"#utility.yul\":6554:6572   */\n      add\n        /* \"#utility.yul\":6546:6572   */\n      swap1\n      pop\n        /* \"#utility.yul\":6582:6653   */\n      tag_209\n        /* \"#utility.yul\":6650:6651   */\n      0x00\n        /* \"#utility.yul\":6639:6648   */\n      dup4\n        /* \"#utility.yul\":6635:6652   */\n      add\n        /* \"#utility.yul\":6626:6632   */\n      dup6\n        /* \"#utility.yul\":6582:6653   */\n      tag_113\n      jump\t// in\n    tag_209:\n        /* \"#utility.yul\":6663:6735   */\n      tag_210\n        /* \"#utility.yul\":6731:6733   */\n      0x20\n        /* \"#utility.yul\":6720:6729   */\n      dup4\n        /* \"#utility.yul\":6716:6734   */\n      add\n        /* \"#utility.yul\":6707:6713   */\n      dup5\n        /* \"#utility.yul\":6663:6735   */\n      tag_114\n      jump\t// in\n    tag_210:\n        /* \"#utility.yul\":6410:6742   */\n      swap4\n      swap3\n      pop\n      pop\n      pop\n      jump\t// out\n        /* \"#utility.yul\":6748:6888   */\n    tag_115:\n        /* \"#utility.yul\":6812:6821   */\n      0x00\n        /* \"#utility.yul\":6845:6882   */\n      tag_212\n        /* \"#utility.yul\":6876:6881   */\n      dup3\n        /* \"#utility.yul\":6845:6882   */\n      tag_110\n      jump\t// in\n    tag_212:\n        /* \"#utility.yul\":6832:6882   */\n      swap1\n      pop\n        /* \"#utility.yul\":6748:6888   */\n      swap2\n      swap1\n      pop\n      jump\t// out\n        /* \"#utility.yul\":6894:7053   */\n    tag_116:\n        /* \"#utility.yul\":6995:7046   */\n      tag_214\n        /* \"#utility.yul\":7040:7045   */\n      dup2\n        /* \"#utility.yul\":6995:7046   */\n      tag_115\n      jump\t// in\n    tag_214:\n        /* \"#utility.yul\":6990:6993   */\n      dup3\n        /* \"#utility.yul\":6983:7047   */\n      mstore\n        /* \"#utility.yul\":6894:7053   */\n      pop\n      pop\n      jump\t// out\n        /* \"#utility.yul\":7059:7309   */\n    tag_41:\n        /* \"#utility.yul\":7166:7170   */\n      0x00\n        /* \"#utility.yul\":7204:7206   */\n      0x20\n        /* \"#utility.yul\":7193:7202   */\n      dup3\n        /* \"#utility.yul\":7189:7207   */\n      add\n        /* \"#utility.yul\":7181:7207   */\n      swap1\n      pop\n        /* \"#utility.yul\":7217:7302   */\n      tag_216\n        /* \"#utility.yul\":7299:7300   */\n      0x00\n        /* \"#utility.yul\":7288:7297   */\n      dup4\n        /* \"#utility.yul\":7284:7301   */\n      add\n        /* \"#utility.yul\":7275:7281   */\n      dup5\n        /* \"#utility.yul\":7217:7302   */\n      tag_116\n      jump\t// in\n    tag_216:\n        /* \"#utility.yul\":7059:7309   */\n      swap3\n      swap2\n      pop\n      pop\n      jump\t// out\n        /* \"#utility.yul\":7315:7484   */\n    tag_117:\n        /* \"#utility.yul\":7399:7410   */\n      0x00\n        /* \"#utility.yul\":7433:7439   */\n      dup3\n        /* \"#utility.yul\":7428:7431   */\n      dup3\n        /* \"#utility.yul\":7421:7440   */\n      mstore\n        /* \"#utility.yul\":7473:7477   */\n      0x20\n        /* \"#utility.yul\":7468:7471   */\n      dup3\n        /* \"#utility.yul\":7464:7478   */\n      add\n        /* \"#utility.yul\":7449:7478   */\n      swap1\n      pop\n        /* \"#utility.yul\":7315:7484   */\n      swap3\n      swap2\n      pop\n      pop\n      jump\t// out\n        /* \"#utility.yul\":7490:7669   */\n    tag_118:\n        /* \"#utility.yul\":7630:7661   */\n      0x6e6674207072696365206e6f7420657175616c20746f20616d6f756e74000000\n        /* \"#utility.yul\":7626:7627   */\n      0x00\n        /* \"#utility.yul\":7618:7624   */\n      dup3\n        /* \"#utility.yul\":7614:7628   */\n      add\n        /* \"#utility.yul\":7607:7662   */\n      mstore\n        /* \"#utility.yul\":7490:7669   */\n      pop\n      jump\t// out\n        /* \"#utility.yul\":7675:8041   */\n    tag_119:\n        /* \"#utility.yul\":7817:7820   */\n      0x00\n        /* \"#utility.yul\":7838:7905   */\n      tag_220\n        /* \"#utility.yul\":7902:7904   */\n      0x1d\n        /* \"#utility.yul\":7897:7900   */\n      dup4\n        /* \"#utility.yul\":7838:7905   */\n      tag_117\n      jump\t// in\n    tag_220:\n        /* \"#utility.yul\":7831:7905   */\n      swap2\n      pop\n        /* \"#utility.yul\":7914:8007   */\n      tag_221\n        /* \"#utility.yul\":8003:8006   */\n      dup3\n        /* \"#utility.yul\":7914:8007   */\n      tag_118\n      jump\t// in\n    tag_221:\n        /* \"#utility.yul\":8032:8034   */\n      0x20\n        /* \"#utility.yul\":8027:8030   */\n      dup3\n        /* \"#utility.yul\":8023:8035   */\n      add\n        /* \"#utility.yul\":8016:8035   */\n      swap1\n      pop\n        /* \"#utility.yul\":7675:8041   */\n      swap2\n      swap1\n      pop\n      jump\t// out\n        /* \"#utility.yul\":8047:8466   */\n    tag_46:\n        /* \"#utility.yul\":8213:8217   */\n      0x00\n        /* \"#utility.yul\":8251:8253   */\n      0x20\n        /* \"#utility.yul\":8240:8249   */\n      dup3\n        /* \"#utility.yul\":8236:8254   */\n      add\n        /* \"#utility.yul\":8228:8254   */\n      swap1\n      pop\n        /* \"#utility.yul\":8300:8309   */\n      dup2\n        /* \"#utility.yul\":8294:8298   */\n      dup2\n        /* \"#utility.yul\":8290:8310   */\n      sub\n        /* \"#utility.yul\":8286:8287   */\n      0x00\n        /* \"#utility.yul\":8275:8284   */\n      dup4\n        /* \"#utility.yul\":8271:8288   */\n      add\n        /* \"#utility.yul\":8264:8311   */\n      mstore\n        /* \"#utility.yul\":8328:8459   */\n      tag_223\n        /* \"#utility.yul\":8454:8458   */\n      dup2\n        /* \"#utility.yul\":8328:8459   */\n      tag_119\n      jump\t// in\n    tag_223:\n        /* \"#utility.yul\":8320:8459   */\n      swap1\n      pop\n        /* \"#utility.yul\":8047:8466   */\n      swap2\n      swap1\n      pop\n      jump\t// out\n        /* \"#utility.yul\":8472:8914   */\n    tag_48:\n        /* \"#utility.yul\":8621:8625   */\n      0x00\n        /* \"#utility.yul\":8659:8661   */\n      0x60\n        /* \"#utility.yul\":8648:8657   */\n      dup3\n        /* \"#utility.yul\":8644:8662   */\n      add\n        /* \"#utility.yul\":8636:8662   */\n      swap1\n      pop\n        /* \"#utility.yul\":8672:8743   */\n      tag_225\n        /* \"#utility.yul\":8740:8741   */\n      0x00\n        /* \"#utility.yul\":8729:8738   */\n      dup4\n        /* \"#utility.yul\":8725:8742   */\n      add\n        /* \"#utility.yul\":8716:8722   */\n      dup7\n        /* \"#utility.yul\":8672:8743   */\n      tag_113\n      jump\t// in\n    tag_225:\n        /* \"#utility.yul\":8753:8825   */\n      tag_226\n        /* \"#utility.yul\":8821:8823   */\n      0x20\n        /* \"#utility.yul\":8810:8819   */\n      dup4\n        /* \"#utility.yul\":8806:8824   */\n      add\n        /* \"#utility.yul\":8797:8803   */\n      dup6\n        /* \"#utility.yul\":8753:8825   */\n      tag_113\n      jump\t// in\n    tag_226:\n        /* \"#utility.yul\":8835:8907   */\n      tag_227\n        /* \"#utility.yul\":8903:8905   */\n      0x40\n        /* \"#utility.yul\":8892:8901   */\n      dup4\n        /* \"#utility.yul\":8888:8906   */\n      add\n        /* \"#utility.yul\":8879:8885   */\n      dup5\n        /* \"#utility.yul\":8835:8907   */\n      tag_114\n      jump\t// in\n    tag_227:\n        /* \"#utility.yul\":8472:8914   */\n      swap5\n      swap4\n      pop\n      pop\n      pop\n      pop\n      jump\t// out\n        /* \"#utility.yul\":8920:9010   */\n    tag_120:\n        /* \"#utility.yul\":8954:8961   */\n      0x00\n        /* \"#utility.yul\":8997:9002   */\n      dup2\n        /* \"#utility.yul\":8990:9003   */\n      iszero\n        /* \"#utility.yul\":8983:9004   */\n      iszero\n        /* \"#utility.yul\":8972:9004   */\n      swap1\n      pop\n        /* \"#utility.yul\":8920:9010   */\n      swap2\n      swap1\n      pop\n      jump\t// out\n        /* \"#utility.yul\":9016:9132   */\n    tag_121:\n        /* \"#utility.yul\":9086:9107   */\n      tag_230\n        /* \"#utility.yul\":9101:9106   */\n      dup2\n        /* \"#utility.yul\":9086:9107   */\n      tag_120\n      jump\t// in\n    tag_230:\n        /* \"#utility.yul\":9079:9084   */\n      dup2\n        /* \"#utility.yul\":9076:9108   */\n      eq\n        /* \"#utility.yul\":9066:9126   */\n      tag_231\n      jumpi\n        /* \"#utility.yul\":9122:9123   */\n      0x00\n        /* \"#utility.yul\":9119:9120   */\n      dup1\n        /* \"#utility.yul\":9112:9124   */\n      revert\n        /* \"#utility.yul\":9066:9126   */\n    tag_231:\n        /* \"#utility.yul\":9016:9132   */\n      pop\n      jump\t// out\n        /* \"#utility.yul\":9138:9275   */\n    tag_122:\n        /* \"#utility.yul\":9192:9197   */\n      0x00\n        /* \"#utility.yul\":9223:9229   */\n      dup2\n        /* \"#utility.yul\":9217:9230   */\n      mload\n        /* \"#utility.yul\":9208:9230   */\n      swap1\n      pop\n        /* \"#utility.yul\":9239:9269   */\n      tag_233\n        /* \"#utility.yul\":9263:9268   */\n      dup2\n        /* \"#utility.yul\":9239:9269   */\n      tag_121\n      jump\t// in\n    tag_233:\n        /* \"#utility.yul\":9138:9275   */\n      swap3\n      swap2\n      pop\n      pop\n      jump\t// out\n        /* \"#utility.yul\":9281:9626   */\n    tag_52:\n        /* \"#utility.yul\":9348:9354   */\n      0x00\n        /* \"#utility.yul\":9397:9399   */\n      0x20\n        /* \"#utility.yul\":9385:9394   */\n      dup3\n        /* \"#utility.yul\":9376:9383   */\n      dup5\n        /* \"#utility.yul\":9372:9395   */\n      sub\n        /* \"#utility.yul\":9368:9400   */\n      slt\n        /* \"#utility.yul\":9365:9484   */\n      iszero\n      tag_235\n      jumpi\n        /* \"#utility.yul\":9403:9482   */\n      tag_236\n      tag_93\n      jump\t// in\n    tag_236:\n        /* \"#utility.yul\":9365:9484   */\n    tag_235:\n        /* \"#utility.yul\":9523:9524   */\n      0x00\n        /* \"#utility.yul\":9548:9609   */\n      tag_237\n        /* \"#utility.yul\":9601:9608   */\n      dup5\n        /* \"#utility.yul\":9592:9598   */\n      dup3\n        /* \"#utility.yul\":9581:9590   */\n      dup6\n        /* \"#utility.yul\":9577:9599   */\n      add\n        /* \"#utility.yul\":9548:9609   */\n      tag_122\n      jump\t// in\n    tag_237:\n        /* \"#utility.yul\":9538:9609   */\n      swap2\n      pop\n        /* \"#utility.yul\":9494:9619   */\n      pop\n        /* \"#utility.yul\":9281:9626   */\n      swap3\n      swap2\n      pop\n      pop\n      jump\t// out\n        /* \"#utility.yul\":9632:9854   */\n    tag_59:\n        /* \"#utility.yul\":9725:9729   */\n      0x00\n        /* \"#utility.yul\":9763:9765   */\n      0x20\n        /* \"#utility.yul\":9752:9761   */\n      dup3\n        /* \"#utility.yul\":9748:9766   */\n      add\n        /* \"#utility.yul\":9740:9766   */\n      swap1\n      pop\n        /* \"#utility.yul\":9776:9847   */\n      tag_239\n        /* \"#utility.yul\":9844:9845   */\n      0x00\n        /* \"#utility.yul\":9833:9842   */\n      dup4\n        /* \"#utility.yul\":9829:9846   */\n      add\n        /* \"#utility.yul\":9820:9826   */\n      dup5\n        /* \"#utility.yul\":9776:9847   */\n      tag_114\n      jump\t// in\n    tag_239:\n        /* \"#utility.yul\":9632:9854   */\n      swap3\n      swap2\n      pop\n      pop\n      jump\t// out\n        /* \"#utility.yul\":9860:10003   */\n    tag_123:\n        /* \"#utility.yul\":9917:9922   */\n      0x00\n        /* \"#utility.yul\":9948:9954   */\n      dup2\n        /* \"#utility.yul\":9942:9955   */\n      mload\n        /* \"#utility.yul\":9933:9955   */\n      swap1\n      pop\n        /* \"#utility.yul\":9964:9997   */\n      tag_241\n        /* \"#utility.yul\":9991:9996   */\n      dup2\n        /* \"#utility.yul\":9964:9997   */\n      tag_97\n      jump\t// in\n    tag_241:\n        /* \"#utility.yul\":9860:10003   */\n      swap3\n      swap2\n      pop\n      pop\n      jump\t// out\n        /* \"#utility.yul\":10009:10360   */\n    tag_63:\n        /* \"#utility.yul\":10079:10085   */\n      0x00\n        /* \"#utility.yul\":10128:10130   */\n      0x20\n        /* \"#utility.yul\":10116:10125   */\n      dup3\n        /* \"#utility.yul\":10107:10114   */\n      dup5\n        /* \"#utility.yul\":10103:10126   */\n      sub\n        /* \"#utility.yul\":10099:10131   */\n      slt\n        /* \"#utility.yul\":10096:10215   */\n      iszero\n      tag_243\n      jumpi\n        /* \"#utility.yul\":10134:10213   */\n      tag_244\n      tag_93\n      jump\t// in\n    tag_244:\n        /* \"#utility.yul\":10096:10215   */\n    tag_243:\n        /* \"#utility.yul\":10254:10255   */\n      0x00\n        /* \"#utility.yul\":10279:10343   */\n      tag_245\n        /* \"#utility.yul\":10335:10342   */\n      dup5\n        /* \"#utility.yul\":10326:10332   */\n      dup3\n        /* \"#utility.yul\":10315:10324   */\n      dup6\n        /* \"#utility.yul\":10311:10333   */\n      add\n        /* \"#utility.yul\":10279:10343   */\n      tag_123\n      jump\t// in\n    tag_245:\n        /* \"#utility.yul\":10269:10343   */\n      swap2\n      pop\n        /* \"#utility.yul\":10225:10353   */\n      pop\n        /* \"#utility.yul\":10009:10360   */\n      swap3\n      swap2\n      pop\n      pop\n      jump\t// out\n        /* \"#utility.yul\":10366:10586   */\n    tag_124:\n        /* \"#utility.yul\":10506:10540   */\n      0x596f7520617265206e6f7420746865206f776e6572206f662074686973204e46\n        /* \"#utility.yul\":10502:10503   */\n      0x00\n        /* \"#utility.yul\":10494:10500   */\n      dup3\n        /* \"#utility.yul\":10490:10504   */\n      add\n        /* \"#utility.yul\":10483:10541   */\n      mstore\n        /* \"#utility.yul\":10575:10578   */\n      0x5400000000000000000000000000000000000000000000000000000000000000\n        /* \"#utility.yul\":10570:10572   */\n      0x20\n        /* \"#utility.yul\":10562:10568   */\n      dup3\n        /* \"#utility.yul\":10558:10573   */\n      add\n        /* \"#utility.yul\":10551:10579   */\n      mstore\n        /* \"#utility.yul\":10366:10586   */\n      pop\n      jump\t// out\n        /* \"#utility.yul\":10592:10958   */\n    tag_125:\n        /* \"#utility.yul\":10734:10737   */\n      0x00\n        /* \"#utility.yul\":10755:10822   */\n      tag_248\n        /* \"#utility.yul\":10819:10821   */\n      0x21\n        /* \"#utility.yul\":10814:10817   */\n      dup4\n        /* \"#utility.yul\":10755:10822   */\n      tag_117\n      jump\t// in\n    tag_248:\n        /* \"#utility.yul\":10748:10822   */\n      swap2\n      pop\n        /* \"#utility.yul\":10831:10924   */\n      tag_249\n        /* \"#utility.yul\":10920:10923   */\n      dup3\n        /* \"#utility.yul\":10831:10924   */\n      tag_124\n      jump\t// in\n    tag_249:\n        /* \"#utility.yul\":10949:10951   */\n      0x40\n        /* \"#utility.yul\":10944:10947   */\n      dup3\n        /* \"#utility.yul\":10940:10952   */\n      add\n        /* \"#utility.yul\":10933:10952   */\n      swap1\n      pop\n        /* \"#utility.yul\":10592:10958   */\n      swap2\n      swap1\n      pop\n      jump\t// out\n        /* \"#utility.yul\":10964:11383   */\n    tag_66:\n        /* \"#utility.yul\":11130:11134   */\n      0x00\n        /* \"#utility.yul\":11168:11170   */\n      0x20\n        /* \"#utility.yul\":11157:11166   */\n      dup3\n        /* \"#utility.yul\":11153:11171   */\n      add\n        /* \"#utility.yul\":11145:11171   */\n      swap1\n      pop\n        /* \"#utility.yul\":11217:11226   */\n      dup2\n        /* \"#utility.yul\":11211:11215   */\n      dup2\n        /* \"#utility.yul\":11207:11227   */\n      sub\n        /* \"#utility.yul\":11203:11204   */\n      0x00\n        /* \"#utility.yul\":11192:11201   */\n      dup4\n        /* \"#utility.yul\":11188:11205   */\n      add\n        /* \"#utility.yul\":11181:11228   */\n      mstore\n        /* \"#utility.yul\":11245:11376   */\n      tag_251\n        /* \"#utility.yul\":11371:11375   */\n      dup2\n        /* \"#utility.yul\":11245:11376   */\n      tag_125\n      jump\t// in\n    tag_251:\n        /* \"#utility.yul\":11237:11376   */\n      swap1\n      pop\n        /* \"#utility.yul\":10964:11383   */\n      swap2\n      swap1\n      pop\n      jump\t// out\n        /* \"#utility.yul\":11389:11567   */\n    tag_126:\n        /* \"#utility.yul\":11529:11559   */\n      0x5072696365206d7573742062652067726561746572207468616e203000000000\n        /* \"#utility.yul\":11525:11526   */\n      0x00\n        /* \"#utility.yul\":11517:11523   */\n      dup3\n        /* \"#utility.yul\":11513:11527   */\n      add\n        /* \"#utility.yul\":11506:11560   */\n      mstore\n        /* \"#utility.yul\":11389:11567   */\n      pop\n      jump\t// out\n        /* \"#utility.yul\":11573:11939   */\n    tag_127:\n        /* \"#utility.yul\":11715:11718   */\n      0x00\n        /* \"#utility.yul\":11736:11803   */\n      tag_254\n        /* \"#utility.yul\":11800:11802   */\n      0x1c\n        /* \"#utility.yul\":11795:11798   */\n      dup4\n        /* \"#utility.yul\":11736:11803   */\n      tag_117\n      jump\t// in\n    tag_254:\n        /* \"#utility.yul\":11729:11803   */\n      swap2\n      pop\n        /* \"#utility.yul\":11812:11905   */\n      tag_255\n        /* \"#utility.yul\":11901:11904   */\n      dup3\n        /* \"#utility.yul\":11812:11905   */\n      tag_126\n      jump\t// in\n    tag_255:\n        /* \"#utility.yul\":11930:11932   */\n      0x20\n        /* \"#utility.yul\":11925:11928   */\n      dup3\n        /* \"#utility.yul\":11921:11933   */\n      add\n        /* \"#utility.yul\":11914:11933   */\n      swap1\n      pop\n        /* \"#utility.yul\":11573:11939   */\n      swap2\n      swap1\n      pop\n      jump\t// out\n        /* \"#utility.yul\":11945:12364   */\n    tag_69:\n        /* \"#utility.yul\":12111:12115   */\n      0x00\n        /* \"#utility.yul\":12149:12151   */\n      0x20\n        /* \"#utility.yul\":12138:12147   */\n      dup3\n        /* \"#utility.yul\":12134:12152   */\n      add\n        /* \"#utility.yul\":12126:12152   */\n      swap1\n      pop\n        /* \"#utility.yul\":12198:12207   */\n      dup2\n        /* \"#utility.yul\":12192:12196   */\n      dup2\n        /* \"#utility.yul\":12188:12208   */\n      sub\n        /* \"#utility.yul\":12184:12185   */\n      0x00\n        /* \"#utility.yul\":12173:12182   */\n      dup4\n        /* \"#utility.yul\":12169:12186   */\n      add\n        /* \"#utility.yul\":12162:12209   */\n      mstore\n        /* \"#utility.yul\":12226:12357   */\n      tag_257\n        /* \"#utility.yul\":12352:12356   */\n      dup2\n        /* \"#utility.yul\":12226:12357   */\n      tag_127\n      jump\t// in\n    tag_257:\n        /* \"#utility.yul\":12218:12357   */\n      swap1\n      pop\n        /* \"#utility.yul\":11945:12364   */\n      swap2\n      swap1\n      pop\n      jump\t// out\n        /* \"#utility.yul\":12370:12592   */\n    tag_128:\n        /* \"#utility.yul\":12510:12544   */\n      0x4f6e6c7920455243323020746f6b656e207472616e7366657273206163636570\n        /* \"#utility.yul\":12506:12507   */\n      0x00\n        /* \"#utility.yul\":12498:12504   */\n      dup3\n        /* \"#utility.yul\":12494:12508   */\n      add\n        /* \"#utility.yul\":12487:12545   */\n      mstore\n        /* \"#utility.yul\":12579:12584   */\n      0x7465640000000000000000000000000000000000000000000000000000000000\n        /* \"#utility.yul\":12574:12576   */\n      0x20\n        /* \"#utility.yul\":12566:12572   */\n      dup3\n        /* \"#utility.yul\":12562:12577   */\n      add\n        /* \"#utility.yul\":12555:12585   */\n      mstore\n        /* \"#utility.yul\":12370:12592   */\n      pop\n      jump\t// out\n        /* \"#utility.yul\":12598:12964   */\n    tag_129:\n        /* \"#utility.yul\":12740:12743   */\n      0x00\n        /* \"#utility.yul\":12761:12828   */\n      tag_260\n        /* \"#utility.yul\":12825:12827   */\n      0x23\n        /* \"#utility.yul\":12820:12823   */\n      dup4\n        /* \"#utility.yul\":12761:12828   */\n      tag_117\n      jump\t// in\n    tag_260:\n        /* \"#utility.yul\":12754:12828   */\n      swap2\n      pop\n        /* \"#utility.yul\":12837:12930   */\n      tag_261\n        /* \"#utility.yul\":12926:12929   */\n      dup3\n        /* \"#utility.yul\":12837:12930   */\n      tag_128\n      jump\t// in\n    tag_261:\n        /* \"#utility.yul\":12955:12957   */\n      0x40\n        /* \"#utility.yul\":12950:12953   */\n      dup3\n        /* \"#utility.yul\":12946:12958   */\n      add\n        /* \"#utility.yul\":12939:12958   */\n      swap1\n      pop\n        /* \"#utility.yul\":12598:12964   */\n      swap2\n      swap1\n      pop\n      jump\t// out\n        /* \"#utility.yul\":12970:13389   */\n    tag_78:\n        /* \"#utility.yul\":13136:13140   */\n      0x00\n        /* \"#utility.yul\":13174:13176   */\n      0x20\n        /* \"#utility.yul\":13163:13172   */\n      dup3\n        /* \"#utility.yul\":13159:13177   */\n      add\n        /* \"#utility.yul\":13151:13177   */\n      swap1\n      pop\n        /* \"#utility.yul\":13223:13232   */\n      dup2\n        /* \"#utility.yul\":13217:13221   */\n      dup2\n        /* \"#utility.yul\":13213:13233   */\n      sub\n        /* \"#utility.yul\":13209:13210   */\n      0x00\n        /* \"#utility.yul\":13198:13207   */\n      dup4\n        /* \"#utility.yul\":13194:13211   */\n      add\n        /* \"#utility.yul\":13187:13234   */\n      mstore\n        /* \"#utility.yul\":13251:13382   */\n      tag_263\n        /* \"#utility.yul\":13377:13381   */\n      dup2\n        /* \"#utility.yul\":13251:13382   */\n      tag_129\n      jump\t// in\n    tag_263:\n        /* \"#utility.yul\":13243:13382   */\n      swap1\n      pop\n        /* \"#utility.yul\":12970:13389   */\n      swap2\n      swap1\n      pop\n      jump\t// out\n        /* \"#utility.yul\":13395:13572   */\n    tag_130:\n        /* \"#utility.yul\":13535:13564   */\n      0x496e636f727265637420746f6b656e20616d6f756e742073656e740000000000\n        /* \"#utility.yul\":13531:13532   */\n      0x00\n        /* \"#utility.yul\":13523:13529   */\n      dup3\n        /* \"#utility.yul\":13519:13533   */\n      add\n        /* \"#utility.yul\":13512:13565   */\n      mstore\n        /* \"#utility.yul\":13395:13572   */\n      pop\n      jump\t// out\n        /* \"#utility.yul\":13578:13944   */\n    tag_131:\n        /* \"#utility.yul\":13720:13723   */\n      0x00\n        /* \"#utility.yul\":13741:13808   */\n      tag_266\n        /* \"#utility.yul\":13805:13807   */\n      0x1b\n        /* \"#utility.yul\":13800:13803   */\n      dup4\n        /* \"#utility.yul\":13741:13808   */\n      tag_117\n      jump\t// in\n    tag_266:\n        /* \"#utility.yul\":13734:13808   */\n      swap2\n      pop\n        /* \"#utility.yul\":13817:13910   */\n      tag_267\n        /* \"#utility.yul\":13906:13909   */\n      dup3\n        /* \"#utility.yul\":13817:13910   */\n      tag_130\n      jump\t// in\n    tag_267:\n        /* \"#utility.yul\":13935:13937   */\n      0x20\n        /* \"#utility.yul\":13930:13933   */\n      dup3\n        /* \"#utility.yul\":13926:13938   */\n      add\n        /* \"#utility.yul\":13919:13938   */\n      swap1\n      pop\n        /* \"#utility.yul\":13578:13944   */\n      swap2\n      swap1\n      pop\n      jump\t// out\n        /* \"#utility.yul\":13950:14369   */\n    tag_82:\n        /* \"#utility.yul\":14116:14120   */\n      0x00\n        /* \"#utility.yul\":14154:14156   */\n      0x20\n        /* \"#utility.yul\":14143:14152   */\n      dup3\n        /* \"#utility.yul\":14139:14157   */\n      add\n        /* \"#utility.yul\":14131:14157   */\n      swap1\n      pop\n        /* \"#utility.yul\":14203:14212   */\n      dup2\n        /* \"#utility.yul\":14197:14201   */\n      dup2\n        /* \"#utility.yul\":14193:14213   */\n      sub\n        /* \"#utility.yul\":14189:14190   */\n      0x00\n        /* \"#utility.yul\":14178:14187   */\n      dup4\n        /* \"#utility.yul\":14174:14191   */\n      add\n        /* \"#utility.yul\":14167:14214   */\n      mstore\n        /* \"#utility.yul\":14231:14362   */\n      tag_269\n        /* \"#utility.yul\":14357:14361   */\n      dup2\n        /* \"#utility.yul\":14231:14362   */\n      tag_131\n      jump\t// in\n    tag_269:\n        /* \"#utility.yul\":14223:14362   */\n      swap1\n      pop\n        /* \"#utility.yul\":13950:14369   */\n      swap2\n      swap1\n      pop\n      jump\t// out\n\n    auxdata: 0xa26469706673582212202f5b05af3f6ba25b796e082aae31c821f5b8e9c5add39740b3804b813aa1ea3264736f6c634300081a0033\n}\n",
				"bytecode": {
					"linkReferences": {},
					"object": "608060405234801561000f575f80fd5b5060405161128e38038061128e83398181016040528101906100319190610161565b8160015f6101000a81548173ffffffffffffffffffffffffffffffffffffffff021916908373ffffffffffffffffffffffffffffffffffffffff160217905550805f806101000a81548173ffffffffffffffffffffffffffffffffffffffff021916908373ffffffffffffffffffffffffffffffffffffffff160217905550505061019f565b5f80fd5b5f73ffffffffffffffffffffffffffffffffffffffff82169050919050565b5f6100e4826100bb565b9050919050565b5f6100f5826100da565b9050919050565b610105816100eb565b811461010f575f80fd5b50565b5f81519050610120816100fc565b92915050565b5f610130826100da565b9050919050565b61014081610126565b811461014a575f80fd5b50565b5f8151905061015b81610137565b92915050565b5f8060408385031215610177576101766100b7565b5b5f61018485828601610112565b92505060206101958582860161014d565b9150509250929050565b6110e2806101ac5f395ff3fe608060405234801561000f575f80fd5b506004361061007b575f3560e01c806350fd73671161005957806350fd7367146100e95780638943ec0214610105578063de74e57b14610121578063fc0c546a146101525761007b565b8063150b7a021461007f5780631d85bf03146100af57806347ccca02146100cb575b5f80fd5b61009960048036038101906100949190610ab8565b610170565b6040516100a69190610b76565b60405180910390f35b6100c960048036038101906100c49190610b8f565b610184565b005b6100d361034c565b6040516100e09190610c28565b60405180910390f35b61010360048036038101906100fe9190610b8f565b610371565b005b61011f600480360381019061011a9190610c41565b610624565b005b61013b60048036038101906101369190610cb2565b610960565b604051610149929190610cfb565b60405180910390f35b61015a61099f565b6040516101679190610d42565b60405180910390f35b5f63150b7a0260e01b905095945050505050565b8060025f8481526020019081526020015f2060010154146101da576040517f08c379a00000000000000000000000000000000000000000000000000000000081526004016101d190610db5565b60405180910390fd5b5f8054906101000a900473ffffffffffffffffffffffffffffffffffffffff1673ffffffffffffffffffffffffffffffffffffffff166323b872dd3360025f8681526020019081526020015f205f015f9054906101000a900473ffffffffffffffffffffffffffffffffffffffff1660025f8781526020019081526020015f20600101546040518463ffffffff1660e01b815260040161027c93929190610dd3565b6020604051808303815f875af1158015610298573d5f803e3d5ffd5b505050506040513d601f19601f820116820180604052508101906102bc9190610e3d565b5060015f9054906101000a900473ffffffffffffffffffffffffffffffffffffffff1673ffffffffffffffffffffffffffffffffffffffff166342842e0e3033856040518463ffffffff1660e01b815260040161031b93929190610dd3565b5f604051808303815f87803b158015610332575f80fd5b505af1158015610344573d5f803e3d5ffd5b505050505050565b60015f9054906101000a900473ffffffffffffffffffffffffffffffffffffffff1681565b3373ffffffffffffffffffffffffffffffffffffffff1660015f9054906101000a900473ffffffffffffffffffffffffffffffffffffffff1673ffffffffffffffffffffffffffffffffffffffff16636352211e846040518263ffffffff1660e01b81526004016103e29190610e68565b602060405180830381865afa1580156103fd573d5f803e3d5ffd5b505050506040513d601f19601f820116820180604052508101906104219190610e95565b73ffffffffffffffffffffffffffffffffffffffff1614610477576040517f08c379a000000000000000000000000000000000000000000000000000000000815260040161046e90610f30565b60405180910390fd5b5f81116104b9576040517f08c379a00000000000000000000000000000000000000000000000000000000081526004016104b090610f98565b60405180910390fd5b60015f9054906101000a900473ffffffffffffffffffffffffffffffffffffffff1673ffffffffffffffffffffffffffffffffffffffff166323b872dd3330856040518463ffffffff1660e01b815260040161051793929190610dd3565b5f604051808303815f87803b15801561052e575f80fd5b505af1158015610540573d5f803e3d5ffd5b5050505060405180604001604052803373ffffffffffffffffffffffffffffffffffffffff1681526020018281525060025f8481526020019081526020015f205f820151815f015f6101000a81548173ffffffffffffffffffffffffffffffffffffffff021916908373ffffffffffffffffffffffffffffffffffffffff160217905550602082015181600101559050503373ffffffffffffffffffffffffffffffffffffffff16827f50955776c5778c3b7d968d86d8c51fb6b29a7a74c20866b533268e209fc08343836040516106189190610e68565b60405180910390a35050565b5f8054906101000a900473ffffffffffffffffffffffffffffffffffffffff1673ffffffffffffffffffffffffffffffffffffffff163373ffffffffffffffffffffffffffffffffffffffff16146106b1576040517f08c379a00000000000000000000000000000000000000000000000000000000081526004016106a890611026565b60405180910390fd5b5f82828101906106c19190610cb2565b90505f60025f8381526020019081526020015f206040518060400160405290815f82015f9054906101000a900473ffffffffffffffffffffffffffffffffffffffff1673ffffffffffffffffffffffffffffffffffffffff1673ffffffffffffffffffffffffffffffffffffffff168152602001600182015481525050905084816020015114610786576040517f08c379a000000000000000000000000000000000000000000000000000000000815260040161077d9061108e565b60405180910390fd5b60015f9054906101000a900473ffffffffffffffffffffffffffffffffffffffff1673ffffffffffffffffffffffffffffffffffffffff166342842e0e3088856040518463ffffffff1660e01b81526004016107e493929190610dd3565b5f604051808303815f87803b1580156107fb575f80fd5b505af115801561080d573d5f803e3d5ffd5b505050505f8054906101000a900473ffffffffffffffffffffffffffffffffffffffff1673ffffffffffffffffffffffffffffffffffffffff1663a9059cbb825f0151876040518363ffffffff1660e01b815260040161086e929190610cfb565b6020604051808303815f875af115801561088a573d5f803e3d5ffd5b505050506040513d601f19601f820116820180604052508101906108ae9190610e3d565b5060025f8381526020019081526020015f205f8082015f6101000a81549073ffffffffffffffffffffffffffffffffffffffff0219169055600182015f90555050805f015173ffffffffffffffffffffffffffffffffffffffff168673ffffffffffffffffffffffffffffffffffffffff16837f3fb02bfbf01f7dc3a4c6903acc6b06ca1d9af7647282593f46cbacefc288b602886040516109509190610e68565b60405180910390a4505050505050565b6002602052805f5260405f205f91509050805f015f9054906101000a900473ffffffffffffffffffffffffffffffffffffffff16908060010154905082565b5f8054906101000a900473ffffffffffffffffffffffffffffffffffffffff1681565b5f80fd5b5f80fd5b5f73ffffffffffffffffffffffffffffffffffffffff82169050919050565b5f6109f3826109ca565b9050919050565b610a03816109e9565b8114610a0d575f80fd5b50565b5f81359050610a1e816109fa565b92915050565b5f819050919050565b610a3681610a24565b8114610a40575f80fd5b50565b5f81359050610a5181610a2d565b92915050565b5f80fd5b5f80fd5b5f80fd5b5f8083601f840112610a7857610a77610a57565b5b8235905067ffffffffffffffff811115610a9557610a94610a5b565b5b602083019150836001820283011115610ab157610ab0610a5f565b5b9250929050565b5f805f805f60808688031215610ad157610ad06109c2565b5b5f610ade88828901610a10565b9550506020610aef88828901610a10565b9450506040610b0088828901610a43565b935050606086013567ffffffffffffffff811115610b2157610b206109c6565b5b610b2d88828901610a63565b92509250509295509295909350565b5f7fffffffff0000000000000000000000000000000000000000000000000000000082169050919050565b610b7081610b3c565b82525050565b5f602082019050610b895f830184610b67565b92915050565b5f8060408385031215610ba557610ba46109c2565b5b5f610bb285828601610a43565b9250506020610bc385828601610a43565b9150509250929050565b5f819050919050565b5f610bf0610beb610be6846109ca565b610bcd565b6109ca565b9050919050565b5f610c0182610bd6565b9050919050565b5f610c1282610bf7565b9050919050565b610c2281610c08565b82525050565b5f602082019050610c3b5f830184610c19565b92915050565b5f805f8060608587031215610c5957610c586109c2565b5b5f610c6687828801610a10565b9450506020610c7787828801610a43565b935050604085013567ffffffffffffffff811115610c9857610c976109c6565b5b610ca487828801610a63565b925092505092959194509250565b5f60208284031215610cc757610cc66109c2565b5b5f610cd484828501610a43565b91505092915050565b610ce6816109e9565b82525050565b610cf581610a24565b82525050565b5f604082019050610d0e5f830185610cdd565b610d1b6020830184610cec565b9392505050565b5f610d2c82610bf7565b9050919050565b610d3c81610d22565b82525050565b5f602082019050610d555f830184610d33565b92915050565b5f82825260208201905092915050565b7f6e6674207072696365206e6f7420657175616c20746f20616d6f756e740000005f82015250565b5f610d9f601d83610d5b565b9150610daa82610d6b565b602082019050919050565b5f6020820190508181035f830152610dcc81610d93565b9050919050565b5f606082019050610de65f830186610cdd565b610df36020830185610cdd565b610e006040830184610cec565b949350505050565b5f8115159050919050565b610e1c81610e08565b8114610e26575f80fd5b50565b5f81519050610e3781610e13565b92915050565b5f60208284031215610e5257610e516109c2565b5b5f610e5f84828501610e29565b91505092915050565b5f602082019050610e7b5f830184610cec565b92915050565b5f81519050610e8f816109fa565b92915050565b5f60208284031215610eaa57610ea96109c2565b5b5f610eb784828501610e81565b91505092915050565b7f596f7520617265206e6f7420746865206f776e6572206f662074686973204e465f8201527f5400000000000000000000000000000000000000000000000000000000000000602082015250565b5f610f1a602183610d5b565b9150610f2582610ec0565b604082019050919050565b5f6020820190508181035f830152610f4781610f0e565b9050919050565b7f5072696365206d7573742062652067726561746572207468616e2030000000005f82015250565b5f610f82601c83610d5b565b9150610f8d82610f4e565b602082019050919050565b5f6020820190508181035f830152610faf81610f76565b9050919050565b7f4f6e6c7920455243323020746f6b656e207472616e73666572732061636365705f8201527f7465640000000000000000000000000000000000000000000000000000000000602082015250565b5f611010602383610d5b565b915061101b82610fb6565b604082019050919050565b5f6020820190508181035f83015261103d81611004565b9050919050565b7f496e636f727265637420746f6b656e20616d6f756e742073656e7400000000005f82015250565b5f611078601b83610d5b565b915061108382611044565b602082019050919050565b5f6020820190508181035f8301526110a58161106c565b905091905056fea26469706673582212202f5b05af3f6ba25b796e082aae31c821f5b8e9c5add39740b3804b813aa1ea3264736f6c634300081a0033",
					"opcodes": "PUSH1 0x80 PUSH1 0x40 MSTORE CALLVALUE DUP1 ISZERO PUSH2 0xF JUMPI PUSH0 DUP1 REVERT JUMPDEST POP PUSH1 0x40 MLOAD PUSH2 0x128E CODESIZE SUB DUP1 PUSH2 0x128E DUP4 CODECOPY DUP2 DUP2 ADD PUSH1 0x40 MSTORE DUP2 ADD SWAP1 PUSH2 0x31 SWAP2 SWAP1 PUSH2 0x161 JUMP JUMPDEST DUP2 PUSH1 0x1 PUSH0 PUSH2 0x100 EXP DUP2 SLOAD DUP2 PUSH20 0xFFFFFFFFFFFFFFFFFFFFFFFFFFFFFFFFFFFFFFFF MUL NOT AND SWAP1 DUP4 PUSH20 0xFFFFFFFFFFFFFFFFFFFFFFFFFFFFFFFFFFFFFFFF AND MUL OR SWAP1 SSTORE POP DUP1 PUSH0 DUP1 PUSH2 0x100 EXP DUP2 SLOAD DUP2 PUSH20 0xFFFFFFFFFFFFFFFFFFFFFFFFFFFFFFFFFFFFFFFF MUL NOT AND SWAP1 DUP4 PUSH20 0xFFFFFFFFFFFFFFFFFFFFFFFFFFFFFFFFFFFFFFFF AND MUL OR SWAP1 SSTORE POP POP POP PUSH2 0x19F JUMP JUMPDEST PUSH0 DUP1 REVERT JUMPDEST PUSH0 PUSH20 0xFFFFFFFFFFFFFFFFFFFFFFFFFFFFFFFFFFFFFFFF DUP3 AND SWAP1 POP SWAP2 SWAP1 POP JUMP JUMPDEST PUSH0 PUSH2 0xE4 DUP3 PUSH2 0xBB JUMP JUMPDEST SWAP1 POP SWAP2 SWAP1 POP JUMP JUMPDEST PUSH0 PUSH2 0xF5 DUP3 PUSH2 0xDA JUMP JUMPDEST SWAP1 POP SWAP2 SWAP1 POP JUMP JUMPDEST PUSH2 0x105 DUP2 PUSH2 0xEB JUMP JUMPDEST DUP2 EQ PUSH2 0x10F JUMPI PUSH0 DUP1 REVERT JUMPDEST POP JUMP JUMPDEST PUSH0 DUP2 MLOAD SWAP1 POP PUSH2 0x120 DUP2 PUSH2 0xFC JUMP JUMPDEST SWAP3 SWAP2 POP POP JUMP JUMPDEST PUSH0 PUSH2 0x130 DUP3 PUSH2 0xDA JUMP JUMPDEST SWAP1 POP SWAP2 SWAP1 POP JUMP JUMPDEST PUSH2 0x140 DUP2 PUSH2 0x126 JUMP JUMPDEST DUP2 EQ PUSH2 0x14A JUMPI PUSH0 DUP1 REVERT JUMPDEST POP JUMP JUMPDEST PUSH0 DUP2 MLOAD SWAP1 POP PUSH2 0x15B DUP2 PUSH2 0x137 JUMP JUMPDEST SWAP3 SWAP2 POP POP JUMP JUMPDEST PUSH0 DUP1 PUSH1 0x40 DUP4 DUP6 SUB SLT ISZERO PUSH2 0x177 JUMPI PUSH2 0x176 PUSH2 0xB7 JUMP JUMPDEST JUMPDEST PUSH0 PUSH2 0x184 DUP6 DUP3 DUP7 ADD PUSH2 0x112 JUMP JUMPDEST SWAP3 POP POP PUSH1 0x20 PUSH2 0x195 DUP6 DUP3 DUP7 ADD PUSH2 0x14D JUMP JUMPDEST SWAP2 POP POP SWAP3 POP SWAP3 SWAP1 POP JUMP JUMPDEST PUSH2 0x10E2 DUP1 PUSH2 0x1AC PUSH0 CODECOPY PUSH0 RETURN INVALID PUSH1 0x80 PUSH1 0x40 MSTORE CALLVALUE DUP1 ISZERO PUSH2 0xF JUMPI PUSH0 DUP1 REVERT JUMPDEST POP PUSH1 0x4 CALLDATASIZE LT PUSH2 0x7B JUMPI PUSH0 CALLDATALOAD PUSH1 0xE0 SHR DUP1 PUSH4 0x50FD7367 GT PUSH2 0x59 JUMPI DUP1 PUSH4 0x50FD7367 EQ PUSH2 0xE9 JUMPI DUP1 PUSH4 0x8943EC02 EQ PUSH2 0x105 JUMPI DUP1 PUSH4 0xDE74E57B EQ PUSH2 0x121 JUMPI DUP1 PUSH4 0xFC0C546A EQ PUSH2 0x152 JUMPI PUSH2 0x7B JUMP JUMPDEST DUP1 PUSH4 0x150B7A02 EQ PUSH2 0x7F JUMPI DUP1 PUSH4 0x1D85BF03 EQ PUSH2 0xAF JUMPI DUP1 PUSH4 0x47CCCA02 EQ PUSH2 0xCB JUMPI JUMPDEST PUSH0 DUP1 REVERT JUMPDEST PUSH2 0x99 PUSH1 0x4 DUP1 CALLDATASIZE SUB DUP2 ADD SWAP1 PUSH2 0x94 SWAP2 SWAP1 PUSH2 0xAB8 JUMP JUMPDEST PUSH2 0x170 JUMP JUMPDEST PUSH1 0x40 MLOAD PUSH2 0xA6 SWAP2 SWAP1 PUSH2 0xB76 JUMP JUMPDEST PUSH1 0x40 MLOAD DUP1 SWAP2 SUB SWAP1 RETURN JUMPDEST PUSH2 0xC9 PUSH1 0x4 DUP1 CALLDATASIZE SUB DUP2 ADD SWAP1 PUSH2 0xC4 SWAP2 SWAP1 PUSH2 0xB8F JUMP JUMPDEST PUSH2 0x184 JUMP JUMPDEST STOP JUMPDEST PUSH2 0xD3 PUSH2 0x34C JUMP JUMPDEST PUSH1 0x40 MLOAD PUSH2 0xE0 SWAP2 SWAP1 PUSH2 0xC28 JUMP JUMPDEST PUSH1 0x40 MLOAD DUP1 SWAP2 SUB SWAP1 RETURN JUMPDEST PUSH2 0x103 PUSH1 0x4 DUP1 CALLDATASIZE SUB DUP2 ADD SWAP1 PUSH2 0xFE SWAP2 SWAP1 PUSH2 0xB8F JUMP JUMPDEST PUSH2 0x371 JUMP JUMPDEST STOP JUMPDEST PUSH2 0x11F PUSH1 0x4 DUP1 CALLDATASIZE SUB DUP2 ADD SWAP1 PUSH2 0x11A SWAP2 SWAP1 PUSH2 0xC41 JUMP JUMPDEST PUSH2 0x624 JUMP JUMPDEST STOP JUMPDEST PUSH2 0x13B PUSH1 0x4 DUP1 CALLDATASIZE SUB DUP2 ADD SWAP1 PUSH2 0x136 SWAP2 SWAP1 PUSH2 0xCB2 JUMP JUMPDEST PUSH2 0x960 JUMP JUMPDEST PUSH1 0x40 MLOAD PUSH2 0x149 SWAP3 SWAP2 SWAP1 PUSH2 0xCFB JUMP JUMPDEST PUSH1 0x40 MLOAD DUP1 SWAP2 SUB SWAP1 RETURN JUMPDEST PUSH2 0x15A PUSH2 0x99F JUMP JUMPDEST PUSH1 0x40 MLOAD PUSH2 0x167 SWAP2 SWAP1 PUSH2 0xD42 JUMP JUMPDEST PUSH1 0x40 MLOAD DUP1 SWAP2 SUB SWAP1 RETURN JUMPDEST PUSH0 PUSH4 0x150B7A02 PUSH1 0xE0 SHL SWAP1 POP SWAP6 SWAP5 POP POP POP POP POP JUMP JUMPDEST DUP1 PUSH1 0x2 PUSH0 DUP5 DUP2 MSTORE PUSH1 0x20 ADD SWAP1 DUP2 MSTORE PUSH1 0x20 ADD PUSH0 KECCAK256 PUSH1 0x1 ADD SLOAD EQ PUSH2 0x1DA JUMPI PUSH1 0x40 MLOAD PUSH32 0x8C379A000000000000000000000000000000000000000000000000000000000 DUP2 MSTORE PUSH1 0x4 ADD PUSH2 0x1D1 SWAP1 PUSH2 0xDB5 JUMP JUMPDEST PUSH1 0x40 MLOAD DUP1 SWAP2 SUB SWAP1 REVERT JUMPDEST PUSH0 DUP1 SLOAD SWAP1 PUSH2 0x100 EXP SWAP1 DIV PUSH20 0xFFFFFFFFFFFFFFFFFFFFFFFFFFFFFFFFFFFFFFFF AND PUSH20 0xFFFFFFFFFFFFFFFFFFFFFFFFFFFFFFFFFFFFFFFF AND PUSH4 0x23B872DD CALLER PUSH1 0x2 PUSH0 DUP7 DUP2 MSTORE PUSH1 0x20 ADD SWAP1 DUP2 MSTORE PUSH1 0x20 ADD PUSH0 KECCAK256 PUSH0 ADD PUSH0 SWAP1 SLOAD SWAP1 PUSH2 0x100 EXP SWAP1 DIV PUSH20 0xFFFFFFFFFFFFFFFFFFFFFFFFFFFFFFFFFFFFFFFF AND PUSH1 0x2 PUSH0 DUP8 DUP2 MSTORE PUSH1 0x20 ADD SWAP1 DUP2 MSTORE PUSH1 0x20 ADD PUSH0 KECCAK256 PUSH1 0x1 ADD SLOAD PUSH1 0x40 MLOAD DUP5 PUSH4 0xFFFFFFFF AND PUSH1 0xE0 SHL DUP2 MSTORE PUSH1 0x4 ADD PUSH2 0x27C SWAP4 SWAP3 SWAP2 SWAP1 PUSH2 0xDD3 JUMP JUMPDEST PUSH1 0x20 PUSH1 0x40 MLOAD DUP1 DUP4 SUB DUP2 PUSH0 DUP8 GAS CALL ISZERO DUP1 ISZERO PUSH2 0x298 JUMPI RETURNDATASIZE PUSH0 DUP1 RETURNDATACOPY RETURNDATASIZE PUSH0 REVERT JUMPDEST POP POP POP POP PUSH1 0x40 MLOAD RETURNDATASIZE PUSH1 0x1F NOT PUSH1 0x1F DUP3 ADD AND DUP3 ADD DUP1 PUSH1 0x40 MSTORE POP DUP2 ADD SWAP1 PUSH2 0x2BC SWAP2 SWAP1 PUSH2 0xE3D JUMP JUMPDEST POP PUSH1 0x1 PUSH0 SWAP1 SLOAD SWAP1 PUSH2 0x100 EXP SWAP1 DIV PUSH20 0xFFFFFFFFFFFFFFFFFFFFFFFFFFFFFFFFFFFFFFFF AND PUSH20 0xFFFFFFFFFFFFFFFFFFFFFFFFFFFFFFFFFFFFFFFF AND PUSH4 0x42842E0E ADDRESS CALLER DUP6 PUSH1 0x40 MLOAD DUP5 PUSH4 0xFFFFFFFF AND PUSH1 0xE0 SHL DUP2 MSTORE PUSH1 0x4 ADD PUSH2 0x31B SWAP4 SWAP3 SWAP2 SWAP1 PUSH2 0xDD3 JUMP JUMPDEST PUSH0 PUSH1 0x40 MLOAD DUP1 DUP4 SUB DUP2 PUSH0 DUP8 DUP1 EXTCODESIZE ISZERO DUP1 ISZERO PUSH2 0x332 JUMPI PUSH0 DUP1 REVERT JUMPDEST POP GAS CALL ISZERO DUP1 ISZERO PUSH2 0x344 JUMPI RETURNDATASIZE PUSH0 DUP1 RETURNDATACOPY RETURNDATASIZE PUSH0 REVERT JUMPDEST POP POP POP POP POP POP JUMP JUMPDEST PUSH1 0x1 PUSH0 SWAP1 SLOAD SWAP1 PUSH2 0x100 EXP SWAP1 DIV PUSH20 0xFFFFFFFFFFFFFFFFFFFFFFFFFFFFFFFFFFFFFFFF AND DUP2 JUMP JUMPDEST CALLER PUSH20 0xFFFFFFFFFFFFFFFFFFFFFFFFFFFFFFFFFFFFFFFF AND PUSH1 0x1 PUSH0 SWAP1 SLOAD SWAP1 PUSH2 0x100 EXP SWAP1 DIV PUSH20 0xFFFFFFFFFFFFFFFFFFFFFFFFFFFFFFFFFFFFFFFF AND PUSH20 0xFFFFFFFFFFFFFFFFFFFFFFFFFFFFFFFFFFFFFFFF AND PUSH4 0x6352211E DUP5 PUSH1 0x40 MLOAD DUP3 PUSH4 0xFFFFFFFF AND PUSH1 0xE0 SHL DUP2 MSTORE PUSH1 0x4 ADD PUSH2 0x3E2 SWAP2 SWAP1 PUSH2 0xE68 JUMP JUMPDEST PUSH1 0x20 PUSH1 0x40 MLOAD DUP1 DUP4 SUB DUP2 DUP7 GAS STATICCALL ISZERO DUP1 ISZERO PUSH2 0x3FD JUMPI RETURNDATASIZE PUSH0 DUP1 RETURNDATACOPY RETURNDATASIZE PUSH0 REVERT JUMPDEST POP POP POP POP PUSH1 0x40 MLOAD RETURNDATASIZE PUSH1 0x1F NOT PUSH1 0x1F DUP3 ADD AND DUP3 ADD DUP1 PUSH1 0x40 MSTORE POP DUP2 ADD SWAP1 PUSH2 0x421 SWAP2 SWAP1 PUSH2 0xE95 JUMP JUMPDEST PUSH20 0xFFFFFFFFFFFFFFFFFFFFFFFFFFFFFFFFFFFFFFFF AND EQ PUSH2 0x477 JUMPI PUSH1 0x40 MLOAD PUSH32 0x8C379A000000000000000000000000000000000000000000000000000000000 DUP2 MSTORE PUSH1 0x4 ADD PUSH2 0x46E SWAP1 PUSH2 0xF30 JUMP JUMPDEST PUSH1 0x40 MLOAD DUP1 SWAP2 SUB SWAP1 REVERT JUMPDEST PUSH0 DUP2 GT PUSH2 0x4B9 JUMPI PUSH1 0x40 MLOAD PUSH32 0x8C379A000000000000000000000000000000000000000000000000000000000 DUP2 MSTORE PUSH1 0x4 ADD PUSH2 0x4B0 SWAP1 PUSH2 0xF98 JUMP JUMPDEST PUSH1 0x40 MLOAD DUP1 SWAP2 SUB SWAP1 REVERT JUMPDEST PUSH1 0x1 PUSH0 SWAP1 SLOAD SWAP1 PUSH2 0x100 EXP SWAP1 DIV PUSH20 0xFFFFFFFFFFFFFFFFFFFFFFFFFFFFFFFFFFFFFFFF AND PUSH20 0xFFFFFFFFFFFFFFFFFFFFFFFFFFFFFFFFFFFFFFFF AND PUSH4 0x23B872DD CALLER ADDRESS DUP6 PUSH1 0x40 MLOAD DUP5 PUSH4 0xFFFFFFFF AND PUSH1 0xE0 SHL DUP2 MSTORE PUSH1 0x4 ADD PUSH2 0x517 SWAP4 SWAP3 SWAP2 SWAP1 PUSH2 0xDD3 JUMP JUMPDEST PUSH0 PUSH1 0x40 MLOAD DUP1 DUP4 SUB DUP2 PUSH0 DUP8 DUP1 EXTCODESIZE ISZERO DUP1 ISZERO PUSH2 0x52E JUMPI PUSH0 DUP1 REVERT JUMPDEST POP GAS CALL ISZERO DUP1 ISZERO PUSH2 0x540 JUMPI RETURNDATASIZE PUSH0 DUP1 RETURNDATACOPY RETURNDATASIZE PUSH0 REVERT JUMPDEST POP POP POP POP PUSH1 0x40 MLOAD DUP1 PUSH1 0x40 ADD PUSH1 0x40 MSTORE DUP1 CALLER PUSH20 0xFFFFFFFFFFFFFFFFFFFFFFFFFFFFFFFFFFFFFFFF AND DUP2 MSTORE PUSH1 0x20 ADD DUP3 DUP2 MSTORE POP PUSH1 0x2 PUSH0 DUP5 DUP2 MSTORE PUSH1 0x20 ADD SWAP1 DUP2 MSTORE PUSH1 0x20 ADD PUSH0 KECCAK256 PUSH0 DUP3 ADD MLOAD DUP2 PUSH0 ADD PUSH0 PUSH2 0x100 EXP DUP2 SLOAD DUP2 PUSH20 0xFFFFFFFFFFFFFFFFFFFFFFFFFFFFFFFFFFFFFFFF MUL NOT AND SWAP1 DUP4 PUSH20 0xFFFFFFFFFFFFFFFFFFFFFFFFFFFFFFFFFFFFFFFF AND MUL OR SWAP1 SSTORE POP PUSH1 0x20 DUP3 ADD MLOAD DUP2 PUSH1 0x1 ADD SSTORE SWAP1 POP POP CALLER PUSH20 0xFFFFFFFFFFFFFFFFFFFFFFFFFFFFFFFFFFFFFFFF AND DUP3 PUSH32 0x50955776C5778C3B7D968D86D8C51FB6B29A7A74C20866B533268E209FC08343 DUP4 PUSH1 0x40 MLOAD PUSH2 0x618 SWAP2 SWAP1 PUSH2 0xE68 JUMP JUMPDEST PUSH1 0x40 MLOAD DUP1 SWAP2 SUB SWAP1 LOG3 POP POP JUMP JUMPDEST PUSH0 DUP1 SLOAD SWAP1 PUSH2 0x100 EXP SWAP1 DIV PUSH20 0xFFFFFFFFFFFFFFFFFFFFFFFFFFFFFFFFFFFFFFFF AND PUSH20 0xFFFFFFFFFFFFFFFFFFFFFFFFFFFFFFFFFFFFFFFF AND CALLER PUSH20 0xFFFFFFFFFFFFFFFFFFFFFFFFFFFFFFFFFFFFFFFF AND EQ PUSH2 0x6B1 JUMPI PUSH1 0x40 MLOAD PUSH32 0x8C379A000000000000000000000000000000000000000000000000000000000 DUP2 MSTORE PUSH1 0x4 ADD PUSH2 0x6A8 SWAP1 PUSH2 0x1026 JUMP JUMPDEST PUSH1 0x40 MLOAD DUP1 SWAP2 SUB SWAP1 REVERT JUMPDEST PUSH0 DUP3 DUP3 DUP2 ADD SWAP1 PUSH2 0x6C1 SWAP2 SWAP1 PUSH2 0xCB2 JUMP JUMPDEST SWAP1 POP PUSH0 PUSH1 0x2 PUSH0 DUP4 DUP2 MSTORE PUSH1 0x20 ADD SWAP1 DUP2 MSTORE PUSH1 0x20 ADD PUSH0 KECCAK256 PUSH1 0x40 MLOAD DUP1 PUSH1 0x40 ADD PUSH1 0x40 MSTORE SWAP1 DUP2 PUSH0 DUP3 ADD PUSH0 SWAP1 SLOAD SWAP1 PUSH2 0x100 EXP SWAP1 DIV PUSH20 0xFFFFFFFFFFFFFFFFFFFFFFFFFFFFFFFFFFFFFFFF AND PUSH20 0xFFFFFFFFFFFFFFFFFFFFFFFFFFFFFFFFFFFFFFFF AND PUSH20 0xFFFFFFFFFFFFFFFFFFFFFFFFFFFFFFFFFFFFFFFF AND DUP2 MSTORE PUSH1 0x20 ADD PUSH1 0x1 DUP3 ADD SLOAD DUP2 MSTORE POP POP SWAP1 POP DUP5 DUP2 PUSH1 0x20 ADD MLOAD EQ PUSH2 0x786 JUMPI PUSH1 0x40 MLOAD PUSH32 0x8C379A000000000000000000000000000000000000000000000000000000000 DUP2 MSTORE PUSH1 0x4 ADD PUSH2 0x77D SWAP1 PUSH2 0x108E JUMP JUMPDEST PUSH1 0x40 MLOAD DUP1 SWAP2 SUB SWAP1 REVERT JUMPDEST PUSH1 0x1 PUSH0 SWAP1 SLOAD SWAP1 PUSH2 0x100 EXP SWAP1 DIV PUSH20 0xFFFFFFFFFFFFFFFFFFFFFFFFFFFFFFFFFFFFFFFF AND PUSH20 0xFFFFFFFFFFFFFFFFFFFFFFFFFFFFFFFFFFFFFFFF AND PUSH4 0x42842E0E ADDRESS DUP9 DUP6 PUSH1 0x40 MLOAD DUP5 PUSH4 0xFFFFFFFF AND PUSH1 0xE0 SHL DUP2 MSTORE PUSH1 0x4 ADD PUSH2 0x7E4 SWAP4 SWAP3 SWAP2 SWAP1 PUSH2 0xDD3 JUMP JUMPDEST PUSH0 PUSH1 0x40 MLOAD DUP1 DUP4 SUB DUP2 PUSH0 DUP8 DUP1 EXTCODESIZE ISZERO DUP1 ISZERO PUSH2 0x7FB JUMPI PUSH0 DUP1 REVERT JUMPDEST POP GAS CALL ISZERO DUP1 ISZERO PUSH2 0x80D JUMPI RETURNDATASIZE PUSH0 DUP1 RETURNDATACOPY RETURNDATASIZE PUSH0 REVERT JUMPDEST POP POP POP POP PUSH0 DUP1 SLOAD SWAP1 PUSH2 0x100 EXP SWAP1 DIV PUSH20 0xFFFFFFFFFFFFFFFFFFFFFFFFFFFFFFFFFFFFFFFF AND PUSH20 0xFFFFFFFFFFFFFFFFFFFFFFFFFFFFFFFFFFFFFFFF AND PUSH4 0xA9059CBB DUP3 PUSH0 ADD MLOAD DUP8 PUSH1 0x40 MLOAD DUP4 PUSH4 0xFFFFFFFF AND PUSH1 0xE0 SHL DUP2 MSTORE PUSH1 0x4 ADD PUSH2 0x86E SWAP3 SWAP2 SWAP1 PUSH2 0xCFB JUMP JUMPDEST PUSH1 0x20 PUSH1 0x40 MLOAD DUP1 DUP4 SUB DUP2 PUSH0 DUP8 GAS CALL ISZERO DUP1 ISZERO PUSH2 0x88A JUMPI RETURNDATASIZE PUSH0 DUP1 RETURNDATACOPY RETURNDATASIZE PUSH0 REVERT JUMPDEST POP POP POP POP PUSH1 0x40 MLOAD RETURNDATASIZE PUSH1 0x1F NOT PUSH1 0x1F DUP3 ADD AND DUP3 ADD DUP1 PUSH1 0x40 MSTORE POP DUP2 ADD SWAP1 PUSH2 0x8AE SWAP2 SWAP1 PUSH2 0xE3D JUMP JUMPDEST POP PUSH1 0x2 PUSH0 DUP4 DUP2 MSTORE PUSH1 0x20 ADD SWAP1 DUP2 MSTORE PUSH1 0x20 ADD PUSH0 KECCAK256 PUSH0 DUP1 DUP3 ADD PUSH0 PUSH2 0x100 EXP DUP2 SLOAD SWAP1 PUSH20 0xFFFFFFFFFFFFFFFFFFFFFFFFFFFFFFFFFFFFFFFF MUL NOT AND SWAP1 SSTORE PUSH1 0x1 DUP3 ADD PUSH0 SWAP1 SSTORE POP POP DUP1 PUSH0 ADD MLOAD PUSH20 0xFFFFFFFFFFFFFFFFFFFFFFFFFFFFFFFFFFFFFFFF AND DUP7 PUSH20 0xFFFFFFFFFFFFFFFFFFFFFFFFFFFFFFFFFFFFFFFF AND DUP4 PUSH32 0x3FB02BFBF01F7DC3A4C6903ACC6B06CA1D9AF7647282593F46CBACEFC288B602 DUP9 PUSH1 0x40 MLOAD PUSH2 0x950 SWAP2 SWAP1 PUSH2 0xE68 JUMP JUMPDEST PUSH1 0x40 MLOAD DUP1 SWAP2 SUB SWAP1 LOG4 POP POP POP POP POP POP JUMP JUMPDEST PUSH1 0x2 PUSH1 0x20 MSTORE DUP1 PUSH0 MSTORE PUSH1 0x40 PUSH0 KECCAK256 PUSH0 SWAP2 POP SWAP1 POP DUP1 PUSH0 ADD PUSH0 SWAP1 SLOAD SWAP1 PUSH2 0x100 EXP SWAP1 DIV PUSH20 0xFFFFFFFFFFFFFFFFFFFFFFFFFFFFFFFFFFFFFFFF AND SWAP1 DUP1 PUSH1 0x1 ADD SLOAD SWAP1 POP DUP3 JUMP JUMPDEST PUSH0 DUP1 SLOAD SWAP1 PUSH2 0x100 EXP SWAP1 DIV PUSH20 0xFFFFFFFFFFFFFFFFFFFFFFFFFFFFFFFFFFFFFFFF AND DUP2 JUMP JUMPDEST PUSH0 DUP1 REVERT JUMPDEST PUSH0 DUP1 REVERT JUMPDEST PUSH0 PUSH20 0xFFFFFFFFFFFFFFFFFFFFFFFFFFFFFFFFFFFFFFFF DUP3 AND SWAP1 POP SWAP2 SWAP1 POP JUMP JUMPDEST PUSH0 PUSH2 0x9F3 DUP3 PUSH2 0x9CA JUMP JUMPDEST SWAP1 POP SWAP2 SWAP1 POP JUMP JUMPDEST PUSH2 0xA03 DUP2 PUSH2 0x9E9 JUMP JUMPDEST DUP2 EQ PUSH2 0xA0D JUMPI PUSH0 DUP1 REVERT JUMPDEST POP JUMP JUMPDEST PUSH0 DUP2 CALLDATALOAD SWAP1 POP PUSH2 0xA1E DUP2 PUSH2 0x9FA JUMP JUMPDEST SWAP3 SWAP2 POP POP JUMP JUMPDEST PUSH0 DUP2 SWAP1 POP SWAP2 SWAP1 POP JUMP JUMPDEST PUSH2 0xA36 DUP2 PUSH2 0xA24 JUMP JUMPDEST DUP2 EQ PUSH2 0xA40 JUMPI PUSH0 DUP1 REVERT JUMPDEST POP JUMP JUMPDEST PUSH0 DUP2 CALLDATALOAD SWAP1 POP PUSH2 0xA51 DUP2 PUSH2 0xA2D JUMP JUMPDEST SWAP3 SWAP2 POP POP JUMP JUMPDEST PUSH0 DUP1 REVERT JUMPDEST PUSH0 DUP1 REVERT JUMPDEST PUSH0 DUP1 REVERT JUMPDEST PUSH0 DUP1 DUP4 PUSH1 0x1F DUP5 ADD SLT PUSH2 0xA78 JUMPI PUSH2 0xA77 PUSH2 0xA57 JUMP JUMPDEST JUMPDEST DUP3 CALLDATALOAD SWAP1 POP PUSH8 0xFFFFFFFFFFFFFFFF DUP2 GT ISZERO PUSH2 0xA95 JUMPI PUSH2 0xA94 PUSH2 0xA5B JUMP JUMPDEST JUMPDEST PUSH1 0x20 DUP4 ADD SWAP2 POP DUP4 PUSH1 0x1 DUP3 MUL DUP4 ADD GT ISZERO PUSH2 0xAB1 JUMPI PUSH2 0xAB0 PUSH2 0xA5F JUMP JUMPDEST JUMPDEST SWAP3 POP SWAP3 SWAP1 POP JUMP JUMPDEST PUSH0 DUP1 PUSH0 DUP1 PUSH0 PUSH1 0x80 DUP7 DUP9 SUB SLT ISZERO PUSH2 0xAD1 JUMPI PUSH2 0xAD0 PUSH2 0x9C2 JUMP JUMPDEST JUMPDEST PUSH0 PUSH2 0xADE DUP9 DUP3 DUP10 ADD PUSH2 0xA10 JUMP JUMPDEST SWAP6 POP POP PUSH1 0x20 PUSH2 0xAEF DUP9 DUP3 DUP10 ADD PUSH2 0xA10 JUMP JUMPDEST SWAP5 POP POP PUSH1 0x40 PUSH2 0xB00 DUP9 DUP3 DUP10 ADD PUSH2 0xA43 JUMP JUMPDEST SWAP4 POP POP PUSH1 0x60 DUP7 ADD CALLDATALOAD PUSH8 0xFFFFFFFFFFFFFFFF DUP2 GT ISZERO PUSH2 0xB21 JUMPI PUSH2 0xB20 PUSH2 0x9C6 JUMP JUMPDEST JUMPDEST PUSH2 0xB2D DUP9 DUP3 DUP10 ADD PUSH2 0xA63 JUMP JUMPDEST SWAP3 POP SWAP3 POP POP SWAP3 SWAP6 POP SWAP3 SWAP6 SWAP1 SWAP4 POP JUMP JUMPDEST PUSH0 PUSH32 0xFFFFFFFF00000000000000000000000000000000000000000000000000000000 DUP3 AND SWAP1 POP SWAP2 SWAP1 POP JUMP JUMPDEST PUSH2 0xB70 DUP2 PUSH2 0xB3C JUMP JUMPDEST DUP3 MSTORE POP POP JUMP JUMPDEST PUSH0 PUSH1 0x20 DUP3 ADD SWAP1 POP PUSH2 0xB89 PUSH0 DUP4 ADD DUP5 PUSH2 0xB67 JUMP JUMPDEST SWAP3 SWAP2 POP POP JUMP JUMPDEST PUSH0 DUP1 PUSH1 0x40 DUP4 DUP6 SUB SLT ISZERO PUSH2 0xBA5 JUMPI PUSH2 0xBA4 PUSH2 0x9C2 JUMP JUMPDEST JUMPDEST PUSH0 PUSH2 0xBB2 DUP6 DUP3 DUP7 ADD PUSH2 0xA43 JUMP JUMPDEST SWAP3 POP POP PUSH1 0x20 PUSH2 0xBC3 DUP6 DUP3 DUP7 ADD PUSH2 0xA43 JUMP JUMPDEST SWAP2 POP POP SWAP3 POP SWAP3 SWAP1 POP JUMP JUMPDEST PUSH0 DUP2 SWAP1 POP SWAP2 SWAP1 POP JUMP JUMPDEST PUSH0 PUSH2 0xBF0 PUSH2 0xBEB PUSH2 0xBE6 DUP5 PUSH2 0x9CA JUMP JUMPDEST PUSH2 0xBCD JUMP JUMPDEST PUSH2 0x9CA JUMP JUMPDEST SWAP1 POP SWAP2 SWAP1 POP JUMP JUMPDEST PUSH0 PUSH2 0xC01 DUP3 PUSH2 0xBD6 JUMP JUMPDEST SWAP1 POP SWAP2 SWAP1 POP JUMP JUMPDEST PUSH0 PUSH2 0xC12 DUP3 PUSH2 0xBF7 JUMP JUMPDEST SWAP1 POP SWAP2 SWAP1 POP JUMP JUMPDEST PUSH2 0xC22 DUP2 PUSH2 0xC08 JUMP JUMPDEST DUP3 MSTORE POP POP JUMP JUMPDEST PUSH0 PUSH1 0x20 DUP3 ADD SWAP1 POP PUSH2 0xC3B PUSH0 DUP4 ADD DUP5 PUSH2 0xC19 JUMP JUMPDEST SWAP3 SWAP2 POP POP JUMP JUMPDEST PUSH0 DUP1 PUSH0 DUP1 PUSH1 0x60 DUP6 DUP8 SUB SLT ISZERO PUSH2 0xC59 JUMPI PUSH2 0xC58 PUSH2 0x9C2 JUMP JUMPDEST JUMPDEST PUSH0 PUSH2 0xC66 DUP8 DUP3 DUP9 ADD PUSH2 0xA10 JUMP JUMPDEST SWAP5 POP POP PUSH1 0x20 PUSH2 0xC77 DUP8 DUP3 DUP9 ADD PUSH2 0xA43 JUMP JUMPDEST SWAP4 POP POP PUSH1 0x40 DUP6 ADD CALLDATALOAD PUSH8 0xFFFFFFFFFFFFFFFF DUP2 GT ISZERO PUSH2 0xC98 JUMPI PUSH2 0xC97 PUSH2 0x9C6 JUMP JUMPDEST JUMPDEST PUSH2 0xCA4 DUP8 DUP3 DUP9 ADD PUSH2 0xA63 JUMP JUMPDEST SWAP3 POP SWAP3 POP POP SWAP3 SWAP6 SWAP2 SWAP5 POP SWAP3 POP JUMP JUMPDEST PUSH0 PUSH1 0x20 DUP3 DUP5 SUB SLT ISZERO PUSH2 0xCC7 JUMPI PUSH2 0xCC6 PUSH2 0x9C2 JUMP JUMPDEST JUMPDEST PUSH0 PUSH2 0xCD4 DUP5 DUP3 DUP6 ADD PUSH2 0xA43 JUMP JUMPDEST SWAP2 POP POP SWAP3 SWAP2 POP POP JUMP JUMPDEST PUSH2 0xCE6 DUP2 PUSH2 0x9E9 JUMP JUMPDEST DUP3 MSTORE POP POP JUMP JUMPDEST PUSH2 0xCF5 DUP2 PUSH2 0xA24 JUMP JUMPDEST DUP3 MSTORE POP POP JUMP JUMPDEST PUSH0 PUSH1 0x40 DUP3 ADD SWAP1 POP PUSH2 0xD0E PUSH0 DUP4 ADD DUP6 PUSH2 0xCDD JUMP JUMPDEST PUSH2 0xD1B PUSH1 0x20 DUP4 ADD DUP5 PUSH2 0xCEC JUMP JUMPDEST SWAP4 SWAP3 POP POP POP JUMP JUMPDEST PUSH0 PUSH2 0xD2C DUP3 PUSH2 0xBF7 JUMP JUMPDEST SWAP1 POP SWAP2 SWAP1 POP JUMP JUMPDEST PUSH2 0xD3C DUP2 PUSH2 0xD22 JUMP JUMPDEST DUP3 MSTORE POP POP JUMP JUMPDEST PUSH0 PUSH1 0x20 DUP3 ADD SWAP1 POP PUSH2 0xD55 PUSH0 DUP4 ADD DUP5 PUSH2 0xD33 JUMP JUMPDEST SWAP3 SWAP2 POP POP JUMP JUMPDEST PUSH0 DUP3 DUP3 MSTORE PUSH1 0x20 DUP3 ADD SWAP1 POP SWAP3 SWAP2 POP POP JUMP JUMPDEST PUSH32 0x6E6674207072696365206E6F7420657175616C20746F20616D6F756E74000000 PUSH0 DUP3 ADD MSTORE POP JUMP JUMPDEST PUSH0 PUSH2 0xD9F PUSH1 0x1D DUP4 PUSH2 0xD5B JUMP JUMPDEST SWAP2 POP PUSH2 0xDAA DUP3 PUSH2 0xD6B JUMP JUMPDEST PUSH1 0x20 DUP3 ADD SWAP1 POP SWAP2 SWAP1 POP JUMP JUMPDEST PUSH0 PUSH1 0x20 DUP3 ADD SWAP1 POP DUP2 DUP2 SUB PUSH0 DUP4 ADD MSTORE PUSH2 0xDCC DUP2 PUSH2 0xD93 JUMP JUMPDEST SWAP1 POP SWAP2 SWAP1 POP JUMP JUMPDEST PUSH0 PUSH1 0x60 DUP3 ADD SWAP1 POP PUSH2 0xDE6 PUSH0 DUP4 ADD DUP7 PUSH2 0xCDD JUMP JUMPDEST PUSH2 0xDF3 PUSH1 0x20 DUP4 ADD DUP6 PUSH2 0xCDD JUMP JUMPDEST PUSH2 0xE00 PUSH1 0x40 DUP4 ADD DUP5 PUSH2 0xCEC JUMP JUMPDEST SWAP5 SWAP4 POP POP POP POP JUMP JUMPDEST PUSH0 DUP2 ISZERO ISZERO SWAP1 POP SWAP2 SWAP1 POP JUMP JUMPDEST PUSH2 0xE1C DUP2 PUSH2 0xE08 JUMP JUMPDEST DUP2 EQ PUSH2 0xE26 JUMPI PUSH0 DUP1 REVERT JUMPDEST POP JUMP JUMPDEST PUSH0 DUP2 MLOAD SWAP1 POP PUSH2 0xE37 DUP2 PUSH2 0xE13 JUMP JUMPDEST SWAP3 SWAP2 POP POP JUMP JUMPDEST PUSH0 PUSH1 0x20 DUP3 DUP5 SUB SLT ISZERO PUSH2 0xE52 JUMPI PUSH2 0xE51 PUSH2 0x9C2 JUMP JUMPDEST JUMPDEST PUSH0 PUSH2 0xE5F DUP5 DUP3 DUP6 ADD PUSH2 0xE29 JUMP JUMPDEST SWAP2 POP POP SWAP3 SWAP2 POP POP JUMP JUMPDEST PUSH0 PUSH1 0x20 DUP3 ADD SWAP1 POP PUSH2 0xE7B PUSH0 DUP4 ADD DUP5 PUSH2 0xCEC JUMP JUMPDEST SWAP3 SWAP2 POP POP JUMP JUMPDEST PUSH0 DUP2 MLOAD SWAP1 POP PUSH2 0xE8F DUP2 PUSH2 0x9FA JUMP JUMPDEST SWAP3 SWAP2 POP POP JUMP JUMPDEST PUSH0 PUSH1 0x20 DUP3 DUP5 SUB SLT ISZERO PUSH2 0xEAA JUMPI PUSH2 0xEA9 PUSH2 0x9C2 JUMP JUMPDEST JUMPDEST PUSH0 PUSH2 0xEB7 DUP5 DUP3 DUP6 ADD PUSH2 0xE81 JUMP JUMPDEST SWAP2 POP POP SWAP3 SWAP2 POP POP JUMP JUMPDEST PUSH32 0x596F7520617265206E6F7420746865206F776E6572206F662074686973204E46 PUSH0 DUP3 ADD MSTORE PUSH32 0x5400000000000000000000000000000000000000000000000000000000000000 PUSH1 0x20 DUP3 ADD MSTORE POP JUMP JUMPDEST PUSH0 PUSH2 0xF1A PUSH1 0x21 DUP4 PUSH2 0xD5B JUMP JUMPDEST SWAP2 POP PUSH2 0xF25 DUP3 PUSH2 0xEC0 JUMP JUMPDEST PUSH1 0x40 DUP3 ADD SWAP1 POP SWAP2 SWAP1 POP JUMP JUMPDEST PUSH0 PUSH1 0x20 DUP3 ADD SWAP1 POP DUP2 DUP2 SUB PUSH0 DUP4 ADD MSTORE PUSH2 0xF47 DUP2 PUSH2 0xF0E JUMP JUMPDEST SWAP1 POP SWAP2 SWAP1 POP JUMP JUMPDEST PUSH32 0x5072696365206D7573742062652067726561746572207468616E203000000000 PUSH0 DUP3 ADD MSTORE POP JUMP JUMPDEST PUSH0 PUSH2 0xF82 PUSH1 0x1C DUP4 PUSH2 0xD5B JUMP JUMPDEST SWAP2 POP PUSH2 0xF8D DUP3 PUSH2 0xF4E JUMP JUMPDEST PUSH1 0x20 DUP3 ADD SWAP1 POP SWAP2 SWAP1 POP JUMP JUMPDEST PUSH0 PUSH1 0x20 DUP3 ADD SWAP1 POP DUP2 DUP2 SUB PUSH0 DUP4 ADD MSTORE PUSH2 0xFAF DUP2 PUSH2 0xF76 JUMP JUMPDEST SWAP1 POP SWAP2 SWAP1 POP JUMP JUMPDEST PUSH32 0x4F6E6C7920455243323020746F6B656E207472616E7366657273206163636570 PUSH0 DUP3 ADD MSTORE PUSH32 0x7465640000000000000000000000000000000000000000000000000000000000 PUSH1 0x20 DUP3 ADD MSTORE POP JUMP JUMPDEST PUSH0 PUSH2 0x1010 PUSH1 0x23 DUP4 PUSH2 0xD5B JUMP JUMPDEST SWAP2 POP PUSH2 0x101B DUP3 PUSH2 0xFB6 JUMP JUMPDEST PUSH1 0x40 DUP3 ADD SWAP1 POP SWAP2 SWAP1 POP JUMP JUMPDEST PUSH0 PUSH1 0x20 DUP3 ADD SWAP1 POP DUP2 DUP2 SUB PUSH0 DUP4 ADD MSTORE PUSH2 0x103D DUP2 PUSH2 0x1004 JUMP JUMPDEST SWAP1 POP SWAP2 SWAP1 POP JUMP JUMPDEST PUSH32 0x496E636F727265637420746F6B656E20616D6F756E742073656E740000000000 PUSH0 DUP3 ADD MSTORE POP JUMP JUMPDEST PUSH0 PUSH2 0x1078 PUSH1 0x1B DUP4 PUSH2 0xD5B JUMP JUMPDEST SWAP2 POP PUSH2 0x1083 DUP3 PUSH2 0x1044 JUMP JUMPDEST PUSH1 0x20 DUP3 ADD SWAP1 POP SWAP2 SWAP1 POP JUMP JUMPDEST PUSH0 PUSH1 0x20 DUP3 ADD SWAP1 POP DUP2 DUP2 SUB PUSH0 DUP4 ADD MSTORE PUSH2 0x10A5 DUP2 PUSH2 0x106C JUMP JUMPDEST SWAP1 POP SWAP2 SWAP1 POP JUMP INVALID LOG2 PUSH5 0x6970667358 0x22 SLT KECCAK256 0x2F JUMPDEST SDIV 0xAF EXTCODEHASH PUSH12 0xA25B796E082AAE31C821F5B8 0xE9 0xC5 0xAD 0xD3 SWAP8 BLOCKHASH 0xB3 DUP1 0x4B DUP2 GASPRICE LOG1 0xEA ORIGIN PUSH5 0x736F6C6343 STOP ADDMOD BYTE STOP CALLER "
				},
				"gasEstimates": {
					"creation": {
						"codeDepositCost": "864400",
						"executionCost": "infinite",
						"totalCost": "infinite"
					},
					"external": {
						"buyNFT(uint256,uint256)": "infinite",
						"list(uint256,uint256)": "infinite",
						"listings(uint256)": "infinite",
						"nft()": "infinite",
						"onERC721Received(address,address,uint256,bytes)": "infinite",
						"token()": "infinite",
						"tokenReceived(address,uint256,bytes)": "infinite"
					}
				},
				"methodIdentifiers": {
					"buyNFT(uint256,uint256)": "1d85bf03",
					"list(uint256,uint256)": "50fd7367",
					"listings(uint256)": "de74e57b",
					"nft()": "47ccca02",
					"onERC721Received(address,address,uint256,bytes)": "150b7a02",
					"token()": "fc0c546a",
					"tokenReceived(address,uint256,bytes)": "8943ec02"
				}
			},
			"storageLayout": {
				"storage": [
					{
						"astId": 353,
						"contract": "1014/NFT/NFTMarket.sol:NFTMarket",
						"label": "token",
						"offset": 0,
						"slot": "0",
						"type": "t_contract(IERC20)257"
					},
					{
						"astId": 356,
						"contract": "1014/NFT/NFTMarket.sol:NFTMarket",
						"label": "nft",
						"offset": 0,
						"slot": "1",
						"type": "t_contract(IERC721)717"
					},
					{
						"astId": 366,
						"contract": "1014/NFT/NFTMarket.sol:NFTMarket",
						"label": "listings",
						"offset": 0,
						"slot": "2",
						"type": "t_mapping(t_uint256,t_struct(Listing)361_storage)"
					}
				],
				"types": {
					"t_address": {
						"encoding": "inplace",
						"label": "address",
						"numberOfBytes": "20"
					},
					"t_contract(IERC20)257": {
						"encoding": "inplace",
						"label": "contract IERC20",
						"numberOfBytes": "20"
					},
					"t_contract(IERC721)717": {
						"encoding": "inplace",
						"label": "contract IERC721",
						"numberOfBytes": "20"
					},
					"t_mapping(t_uint256,t_struct(Listing)361_storage)": {
						"encoding": "mapping",
						"key": "t_uint256",
						"label": "mapping(uint256 => struct NFTMarket.Listing)",
						"numberOfBytes": "32",
						"value": "t_struct(Listing)361_storage"
					},
					"t_struct(Listing)361_storage": {
						"encoding": "inplace",
						"label": "struct NFTMarket.Listing",
						"members": [
							{
								"astId": 358,
								"contract": "1014/NFT/NFTMarket.sol:NFTMarket",
								"label": "seller",
								"offset": 0,
								"slot": "0",
								"type": "t_address"
							},
							{
								"astId": 360,
								"contract": "1014/NFT/NFTMarket.sol:NFTMarket",
								"label": "price",
								"offset": 0,
								"slot": "1",
								"type": "t_uint256"
							}
						],
						"numberOfBytes": "64"
					},
					"t_uint256": {
						"encoding": "inplace",
						"label": "uint256",
						"numberOfBytes": "32"
					}
				}
			},
			"userdoc": {
				"kind": "user",
				"methods": {},
				"version": 1
			}
		}
	}
}