{
	"Bank.sol": {
		"Bank": {
			"abi": [
				{
					"inputs": [],
					"stateMutability": "nonpayable",
					"type": "constructor"
				},
				{
					"inputs": [
						{
							"internalType": "address",
							"name": "",
							"type": "address"
						}
					],
					"name": "deposits",
					"outputs": [
						{
							"internalType": "uint256",
							"name": "",
							"type": "uint256"
						}
					],
					"stateMutability": "view",
					"type": "function"
				},
				{
					"inputs": [],
					"name": "getContractBalance",
					"outputs": [
						{
							"internalType": "uint256",
							"name": "",
							"type": "uint256"
						}
					],
					"stateMutability": "view",
					"type": "function"
				},
				{
					"inputs": [],
					"name": "getTopDepositors",
					"outputs": [
						{
							"internalType": "address[3]",
							"name": "",
							"type": "address[3]"
						}
					],
					"stateMutability": "view",
					"type": "function"
				},
				{
					"inputs": [],
					"name": "owner",
					"outputs": [
						{
							"internalType": "address",
							"name": "",
							"type": "address"
						}
					],
					"stateMutability": "view",
					"type": "function"
				},
				{
					"inputs": [
						{
							"internalType": "uint256",
							"name": "",
							"type": "uint256"
						}
					],
					"name": "topDepositors",
					"outputs": [
						{
							"internalType": "address",
							"name": "",
							"type": "address"
						}
					],
					"stateMutability": "view",
					"type": "function"
				},
				{
					"inputs": [
						{
							"internalType": "uint256",
							"name": "amount",
							"type": "uint256"
						}
					],
					"name": "withdraw",
					"outputs": [],
					"stateMutability": "nonpayable",
					"type": "function"
				},
				{
					"stateMutability": "payable",
					"type": "receive"
				}
			],
			"devdoc": {
				"kind": "dev",
				"methods": {},
				"version": 1
			},
			"evm": {
				"assembly": "    /* \"Bank.sol\":57:2044  contract Bank {... */\n  mstore(0x40, 0x80)\n    /* \"Bank.sol\":191:320  constructor () {... */\n  callvalue\n  dup1\n  iszero\n  tag_1\n  jumpi\n  0x00\n  dup1\n  revert\ntag_1:\n  pop\n    /* \"Bank.sol\":224:234  msg.sender */\n  caller\n    /* \"Bank.sol\":216:221  owner */\n  0x00\n  dup1\n    /* \"Bank.sol\":216:234  owner = msg.sender */\n  0x0100\n  exp\n  dup2\n  sload\n  dup2\n  0xffffffffffffffffffffffffffffffffffffffff\n  mul\n  not\n  and\n  swap1\n  dup4\n  0xffffffffffffffffffffffffffffffffffffffff\n  and\n  mul\n  or\n  swap1\n  sstore\n  pop\n    /* \"Bank.sol\":57:2044  contract Bank {... */\n  dataSize(sub_0)\n  dup1\n  dataOffset(sub_0)\n  0x00\n  codecopy\n  0x00\n  return\nstop\n\nsub_0: assembly {\n        /* \"Bank.sol\":57:2044  contract Bank {... */\n      mstore(0x40, 0x80)\n      jumpi(tag_1, lt(calldatasize, 0x04))\n      shr(0xe0, calldataload(0x00))\n      dup1\n      0x2e1a7d4d\n      eq\n      tag_3\n      jumpi\n      dup1\n      0x30861078\n      eq\n      tag_4\n      jumpi\n      dup1\n      0x6f9fb98a\n      eq\n      tag_5\n      jumpi\n      dup1\n      0x81454f71\n      eq\n      tag_6\n      jumpi\n      dup1\n      0x8da5cb5b\n      eq\n      tag_7\n      jumpi\n      dup1\n      0xfc7e286d\n      eq\n      tag_8\n      jumpi\n      jump(tag_2)\n    tag_1:\n      jumpi(tag_2, calldatasize)\n        /* \"Bank.sol\":382:383  0 */\n      0x00\n        /* \"Bank.sol\":372:381  msg.value */\n      callvalue\n        /* \"Bank.sol\":372:383  msg.value>0 */\n      gt\n        /* \"Bank.sol\":364:425  require(msg.value>0, \"Deposit amount must be greater than 0\") */\n      tag_11\n      jumpi\n      mload(0x40)\n      0x08c379a000000000000000000000000000000000000000000000000000000000\n      dup2\n      mstore\n      0x04\n      add\n      tag_12\n      swap1\n      tag_13\n      jump\t// in\n    tag_12:\n      mload(0x40)\n      dup1\n      swap2\n      sub\n      swap1\n      revert\n    tag_11:\n        /* \"Bank.sol\":459:468  msg.value */\n      callvalue\n        /* \"Bank.sol\":435:443  deposits */\n      0x01\n        /* \"Bank.sol\":435:455  deposits[msg.sender] */\n      0x00\n        /* \"Bank.sol\":444:454  msg.sender */\n      caller\n        /* \"Bank.sol\":435:455  deposits[msg.sender] */\n      0xffffffffffffffffffffffffffffffffffffffff\n      and\n      0xffffffffffffffffffffffffffffffffffffffff\n      and\n      dup2\n      mstore\n      0x20\n      add\n      swap1\n      dup2\n      mstore\n      0x20\n      add\n      0x00\n      keccak256\n      0x00\n        /* \"Bank.sol\":435:468  deposits[msg.sender] += msg.value */\n      dup3\n      dup3\n      sload\n      tag_14\n      swap2\n      swap1\n      tag_15\n      jump\t// in\n    tag_14:\n      swap3\n      pop\n      pop\n      dup2\n      swap1\n      sstore\n      pop\n        /* \"Bank.sol\":479:511  _updateTopDepositors(msg.sender) */\n      tag_16\n        /* \"Bank.sol\":500:510  msg.sender */\n      caller\n        /* \"Bank.sol\":479:499  _updateTopDepositors */\n      tag_17\n        /* \"Bank.sol\":479:511  _updateTopDepositors(msg.sender) */\n      jump\t// in\n    tag_16:\n        /* \"Bank.sol\":57:2044  contract Bank {... */\n      stop\n    tag_2:\n      0x00\n      dup1\n      revert\n        /* \"Bank.sol\":524:708  function withdraw(uint256 amount) external onlyOwner{... */\n    tag_3:\n      callvalue\n      dup1\n      iszero\n      tag_18\n      jumpi\n      0x00\n      dup1\n      revert\n    tag_18:\n      pop\n      tag_19\n      0x04\n      dup1\n      calldatasize\n      sub\n      dup2\n      add\n      swap1\n      tag_20\n      swap2\n      swap1\n      tag_21\n      jump\t// in\n    tag_20:\n      tag_22\n      jump\t// in\n    tag_19:\n      stop\n        /* \"Bank.sol\":153:184  address[3] public topDepositors */\n    tag_4:\n      callvalue\n      dup1\n      iszero\n      tag_23\n      jumpi\n      0x00\n      dup1\n      revert\n    tag_23:\n      pop\n      tag_24\n      0x04\n      dup1\n      calldatasize\n      sub\n      dup2\n      add\n      swap1\n      tag_25\n      swap2\n      swap1\n      tag_21\n      jump\t// in\n    tag_25:\n      tag_26\n      jump\t// in\n    tag_24:\n      mload(0x40)\n      tag_27\n      swap2\n      swap1\n      tag_28\n      jump\t// in\n    tag_27:\n      mload(0x40)\n      dup1\n      swap2\n      sub\n      swap1\n      return\n        /* \"Bank.sol\":1935:2042  function getContractBalance() external view returns (uint256) {... */\n    tag_5:\n      callvalue\n      dup1\n      iszero\n      tag_29\n      jumpi\n      0x00\n      dup1\n      revert\n    tag_29:\n      pop\n      tag_30\n      tag_31\n      jump\t// in\n    tag_30:\n      mload(0x40)\n      tag_32\n      swap2\n      swap1\n      tag_33\n      jump\t// in\n    tag_32:\n      mload(0x40)\n      dup1\n      swap2\n      sub\n      swap1\n      return\n        /* \"Bank.sol\":1664:1928  function getTopDepositors() external view returns (address[3] memory) {... */\n    tag_6:\n      callvalue\n      dup1\n      iszero\n      tag_34\n      jumpi\n      0x00\n      dup1\n      revert\n    tag_34:\n      pop\n      tag_35\n      tag_36\n      jump\t// in\n    tag_35:\n      mload(0x40)\n      tag_37\n      swap2\n      swap1\n      tag_38\n      jump\t// in\n    tag_37:\n      mload(0x40)\n      dup1\n      swap2\n      sub\n      swap1\n      return\n        /* \"Bank.sol\":77:97  address public owner */\n    tag_7:\n      callvalue\n      dup1\n      iszero\n      tag_39\n      jumpi\n      0x00\n      dup1\n      revert\n    tag_39:\n      pop\n      tag_40\n      tag_41\n      jump\t// in\n    tag_40:\n      mload(0x40)\n      tag_42\n      swap2\n      swap1\n      tag_28\n      jump\t// in\n    tag_42:\n      mload(0x40)\n      dup1\n      swap2\n      sub\n      swap1\n      return\n        /* \"Bank.sol\":103:147  mapping (address => uint256) public deposits */\n    tag_8:\n      callvalue\n      dup1\n      iszero\n      tag_43\n      jumpi\n      0x00\n      dup1\n      revert\n    tag_43:\n      pop\n      tag_44\n      0x04\n      dup1\n      calldatasize\n      sub\n      dup2\n      add\n      swap1\n      tag_45\n      swap2\n      swap1\n      tag_46\n      jump\t// in\n    tag_45:\n      tag_47\n      jump\t// in\n    tag_44:\n      mload(0x40)\n      tag_48\n      swap2\n      swap1\n      tag_33\n      jump\t// in\n    tag_48:\n      mload(0x40)\n      dup1\n      swap2\n      sub\n      swap1\n      return\n        /* \"Bank.sol\":906:1290  function _updateTopDepositors (address user) internal {... */\n    tag_17:\n        /* \"Bank.sol\":975:984  uint256 i */\n      0x00\n        /* \"Bank.sol\":970:1138  for (uint256 i = 0; i < 3; i++) {... */\n    tag_50:\n        /* \"Bank.sol\":994:995  3 */\n      0x03\n        /* \"Bank.sol\":990:991  i */\n      dup2\n        /* \"Bank.sol\":990:995  i < 3 */\n      lt\n        /* \"Bank.sol\":970:1138  for (uint256 i = 0; i < 3; i++) {... */\n      iszero\n      tag_51\n      jumpi\n        /* \"Bank.sol\":1040:1044  user */\n      dup2\n        /* \"Bank.sol\":1020:1044  topDepositors[i] == user */\n      0xffffffffffffffffffffffffffffffffffffffff\n      and\n        /* \"Bank.sol\":1020:1033  topDepositors */\n      0x02\n        /* \"Bank.sol\":1034:1035  i */\n      dup3\n        /* \"Bank.sol\":1020:1036  topDepositors[i] */\n      0x03\n      dup2\n      lt\n      tag_53\n      jumpi\n      tag_54\n      tag_55\n      jump\t// in\n    tag_54:\n    tag_53:\n      add\n      0x00\n      swap1\n      sload\n      swap1\n      0x0100\n      exp\n      swap1\n      div\n      0xffffffffffffffffffffffffffffffffffffffff\n      and\n        /* \"Bank.sol\":1020:1044  topDepositors[i] == user */\n      0xffffffffffffffffffffffffffffffffffffffff\n      and\n      sub\n        /* \"Bank.sol\":1016:1128  if (topDepositors[i] == user) {... */\n      tag_57\n      jumpi\n        /* \"Bank.sol\":1064:1089  _rearrangeTopDepositors() */\n      tag_58\n        /* \"Bank.sol\":1064:1087  _rearrangeTopDepositors */\n      tag_59\n        /* \"Bank.sol\":1064:1089  _rearrangeTopDepositors() */\n      jump\t// in\n    tag_58:\n        /* \"Bank.sol\":1107:1114  return; */\n      pop\n      jump(tag_49)\n        /* \"Bank.sol\":1016:1128  if (topDepositors[i] == user) {... */\n    tag_57:\n        /* \"Bank.sol\":997:1000  i++ */\n      dup1\n      dup1\n      0x01\n      add\n      swap2\n      pop\n      pop\n        /* \"Bank.sol\":970:1138  for (uint256 i = 0; i < 3; i++) {... */\n      jump(tag_50)\n    tag_51:\n      pop\n        /* \"Bank.sol\":1169:1177  deposits */\n      0x01\n        /* \"Bank.sol\":1169:1195  deposits[topDepositors[2]] */\n      0x00\n        /* \"Bank.sol\":1178:1191  topDepositors */\n      0x02\n        /* \"Bank.sol\":1192:1193  2 */\n      dup1\n        /* \"Bank.sol\":1178:1194  topDepositors[2] */\n      0x03\n      dup2\n      lt\n      tag_60\n      jumpi\n      tag_61\n      tag_55\n      jump\t// in\n    tag_61:\n    tag_60:\n      add\n      0x00\n      swap1\n      sload\n      swap1\n      0x0100\n      exp\n      swap1\n      div\n      0xffffffffffffffffffffffffffffffffffffffff\n      and\n        /* \"Bank.sol\":1169:1195  deposits[topDepositors[2]] */\n      0xffffffffffffffffffffffffffffffffffffffff\n      and\n      0xffffffffffffffffffffffffffffffffffffffff\n      and\n      dup2\n      mstore\n      0x20\n      add\n      swap1\n      dup2\n      mstore\n      0x20\n      add\n      0x00\n      keccak256\n      sload\n        /* \"Bank.sol\":1152:1160  deposits */\n      0x01\n        /* \"Bank.sol\":1152:1166  deposits[user] */\n      0x00\n        /* \"Bank.sol\":1161:1165  user */\n      dup4\n        /* \"Bank.sol\":1152:1166  deposits[user] */\n      0xffffffffffffffffffffffffffffffffffffffff\n      and\n      0xffffffffffffffffffffffffffffffffffffffff\n      and\n      dup2\n      mstore\n      0x20\n      add\n      swap1\n      dup2\n      mstore\n      0x20\n      add\n      0x00\n      keccak256\n      sload\n        /* \"Bank.sol\":1152:1195  deposits[user] > deposits[topDepositors[2]] */\n      gt\n        /* \"Bank.sol\":1148:1284  if (deposits[user] > deposits[topDepositors[2]]) {... */\n      iszero\n      tag_63\n      jumpi\n        /* \"Bank.sol\":1230:1234  user */\n      dup1\n        /* \"Bank.sol\":1211:1224  topDepositors */\n      0x02\n        /* \"Bank.sol\":1225:1226  2 */\n      dup1\n        /* \"Bank.sol\":1211:1227  topDepositors[2] */\n      0x03\n      dup2\n      lt\n      tag_64\n      jumpi\n      tag_65\n      tag_55\n      jump\t// in\n    tag_65:\n    tag_64:\n      add\n      0x00\n        /* \"Bank.sol\":1211:1234  topDepositors[2] = user */\n      0x0100\n      exp\n      dup2\n      sload\n      dup2\n      0xffffffffffffffffffffffffffffffffffffffff\n      mul\n      not\n      and\n      swap1\n      dup4\n      0xffffffffffffffffffffffffffffffffffffffff\n      and\n      mul\n      or\n      swap1\n      sstore\n      pop\n        /* \"Bank.sol\":1248:1273  _rearrangeTopDepositors() */\n      tag_67\n        /* \"Bank.sol\":1248:1271  _rearrangeTopDepositors */\n      tag_59\n        /* \"Bank.sol\":1248:1273  _rearrangeTopDepositors() */\n      jump\t// in\n    tag_67:\n        /* \"Bank.sol\":1148:1284  if (deposits[user] > deposits[topDepositors[2]]) {... */\n    tag_63:\n        /* \"Bank.sol\":906:1290  function _updateTopDepositors (address user) internal {... */\n    tag_49:\n      pop\n      jump\t// out\n        /* \"Bank.sol\":524:708  function withdraw(uint256 amount) external onlyOwner{... */\n    tag_22:\n        /* \"Bank.sol\":767:772  owner */\n      0x00\n      dup1\n      sload\n      swap1\n      0x0100\n      exp\n      swap1\n      div\n      0xffffffffffffffffffffffffffffffffffffffff\n      and\n        /* \"Bank.sol\":753:772  msg.sender == owner */\n      0xffffffffffffffffffffffffffffffffffffffff\n      and\n        /* \"Bank.sol\":753:763  msg.sender */\n      caller\n        /* \"Bank.sol\":753:772  msg.sender == owner */\n      0xffffffffffffffffffffffffffffffffffffffff\n      and\n      eq\n        /* \"Bank.sol\":745:799  require(msg.sender == owner, \"Not the contract owner\") */\n      tag_69\n      jumpi\n      mload(0x40)\n      0x08c379a000000000000000000000000000000000000000000000000000000000\n      dup2\n      mstore\n      0x04\n      add\n      tag_70\n      swap1\n      tag_71\n      jump\t// in\n    tag_70:\n      mload(0x40)\n      dup1\n      swap2\n      sub\n      swap1\n      revert\n    tag_69:\n        /* \"Bank.sol\":604:625  address(this).balance */\n      selfbalance\n        /* \"Bank.sol\":594:600  amount */\n      dup2\n        /* \"Bank.sol\":594:625  amount <= address(this).balance */\n      gt\n      iszero\n        /* \"Bank.sol\":586:660  require(amount <= address(this).balance, \"Not enough balance in contract\") */\n      tag_73\n      jumpi\n      mload(0x40)\n      0x08c379a000000000000000000000000000000000000000000000000000000000\n      dup2\n      mstore\n      0x04\n      add\n      tag_74\n      swap1\n      tag_75\n      jump\t// in\n    tag_74:\n      mload(0x40)\n      dup1\n      swap2\n      sub\n      swap1\n      revert\n    tag_73:\n        /* \"Bank.sol\":678:683  owner */\n      0x00\n      dup1\n      sload\n      swap1\n      0x0100\n      exp\n      swap1\n      div\n      0xffffffffffffffffffffffffffffffffffffffff\n      and\n        /* \"Bank.sol\":670:693  payable(owner).transfer */\n      0xffffffffffffffffffffffffffffffffffffffff\n      and\n        /* \"Bank.sol\":670:701  payable(owner).transfer(amount) */\n      0x08fc\n        /* \"Bank.sol\":694:700  amount */\n      dup3\n        /* \"Bank.sol\":670:701  payable(owner).transfer(amount) */\n      swap1\n      dup2\n      iszero\n      mul\n      swap1\n      mload(0x40)\n      0x00\n      mload(0x40)\n      dup1\n      dup4\n      sub\n      dup2\n      dup6\n      dup9\n      dup9\n      call\n      swap4\n      pop\n      pop\n      pop\n      pop\n      iszero\n      dup1\n      iszero\n      tag_77\n      jumpi\n      returndatasize\n      0x00\n      dup1\n      returndatacopy\n      revert(0x00, returndatasize)\n    tag_77:\n      pop\n        /* \"Bank.sol\":524:708  function withdraw(uint256 amount) external onlyOwner{... */\n      pop\n      jump\t// out\n        /* \"Bank.sol\":153:184  address[3] public topDepositors */\n    tag_26:\n      0x02\n      dup2\n      0x03\n      dup2\n      lt\n      tag_78\n      jumpi\n      0x00\n      dup1\n      revert\n    tag_78:\n      add\n      0x00\n      swap2\n      pop\n      sload\n      swap1\n      0x0100\n      exp\n      swap1\n      div\n      0xffffffffffffffffffffffffffffffffffffffff\n      and\n      dup2\n      jump\t// out\n        /* \"Bank.sol\":1935:2042  function getContractBalance() external view returns (uint256) {... */\n    tag_31:\n        /* \"Bank.sol\":1988:1995  uint256 */\n      0x00\n        /* \"Bank.sol\":2014:2035  address(this).balance */\n      selfbalance\n        /* \"Bank.sol\":2007:2035  return address(this).balance */\n      swap1\n      pop\n        /* \"Bank.sol\":1935:2042  function getContractBalance() external view returns (uint256) {... */\n      swap1\n      jump\t// out\n        /* \"Bank.sol\":1664:1928  function getTopDepositors() external view returns (address[3] memory) {... */\n    tag_36:\n        /* \"Bank.sol\":1715:1732  address[3] memory */\n      tag_81\n      tag_82\n      jump\t// in\n    tag_81:\n        /* \"Bank.sol\":1744:1781  address[3] memory topDepositorsMemory */\n      tag_84\n      tag_82\n      jump\t// in\n    tag_84:\n        /* \"Bank.sol\":1796:1802  uint i */\n      0x00\n        /* \"Bank.sol\":1791:1886  for (uint i = 0; i < 3; i++) {... */\n    tag_85:\n        /* \"Bank.sol\":1812:1813  3 */\n      0x03\n        /* \"Bank.sol\":1808:1809  i */\n      dup2\n        /* \"Bank.sol\":1808:1813  i < 3 */\n      lt\n        /* \"Bank.sol\":1791:1886  for (uint i = 0; i < 3; i++) {... */\n      iszero\n      tag_86\n      jumpi\n        /* \"Bank.sol\":1859:1872  topDepositors */\n      0x02\n        /* \"Bank.sol\":1873:1874  i */\n      dup2\n        /* \"Bank.sol\":1859:1875  topDepositors[i] */\n      0x03\n      dup2\n      lt\n      tag_88\n      jumpi\n      tag_89\n      tag_55\n      jump\t// in\n    tag_89:\n    tag_88:\n      add\n      0x00\n      swap1\n      sload\n      swap1\n      0x0100\n      exp\n      swap1\n      div\n      0xffffffffffffffffffffffffffffffffffffffff\n      and\n        /* \"Bank.sol\":1834:1853  topDepositorsMemory */\n      dup3\n        /* \"Bank.sol\":1854:1855  i */\n      dup3\n        /* \"Bank.sol\":1834:1856  topDepositorsMemory[i] */\n      0x03\n      dup2\n      lt\n      tag_91\n      jumpi\n      tag_92\n      tag_55\n      jump\t// in\n    tag_92:\n    tag_91:\n      0x20\n      mul\n      add\n        /* \"Bank.sol\":1834:1875  topDepositorsMemory[i] = topDepositors[i] */\n      swap1\n      0xffffffffffffffffffffffffffffffffffffffff\n      and\n      swap1\n      dup2\n      0xffffffffffffffffffffffffffffffffffffffff\n      and\n      dup2\n      mstore\n      pop\n      pop\n        /* \"Bank.sol\":1815:1818  i++ */\n      dup1\n      dup1\n      0x01\n      add\n      swap2\n      pop\n      pop\n        /* \"Bank.sol\":1791:1886  for (uint i = 0; i < 3; i++) {... */\n      jump(tag_85)\n    tag_86:\n      pop\n        /* \"Bank.sol\":1902:1921  topDepositorsMemory */\n      dup1\n        /* \"Bank.sol\":1895:1921  return topDepositorsMemory */\n      swap2\n      pop\n      pop\n        /* \"Bank.sol\":1664:1928  function getTopDepositors() external view returns (address[3] memory) {... */\n      swap1\n      jump\t// out\n        /* \"Bank.sol\":77:97  address public owner */\n    tag_41:\n      0x00\n      dup1\n      sload\n      swap1\n      0x0100\n      exp\n      swap1\n      div\n      0xffffffffffffffffffffffffffffffffffffffff\n      and\n      dup2\n      jump\t// out\n        /* \"Bank.sol\":103:147  mapping (address => uint256) public deposits */\n    tag_47:\n      mstore(0x20, 0x01)\n      dup1\n      0x00\n      mstore\n      keccak256(0x00, 0x40)\n      0x00\n      swap2\n      pop\n      swap1\n      pop\n      sload\n      dup2\n      jump\t// out\n        /* \"Bank.sol\":1296:1658  function _rearrangeTopDepositors() internal {... */\n    tag_59:\n        /* \"Bank.sol\":1355:1364  uint256 i */\n      0x00\n        /* \"Bank.sol\":1365:1366  1 */\n      0x01\n        /* \"Bank.sol\":1355:1366  uint256 i=1 */\n      swap1\n      pop\n        /* \"Bank.sol\":1350:1652  for (uint256 i=1; i<3; i++) {... */\n    tag_94:\n        /* \"Bank.sol\":1370:1371  3 */\n      0x03\n        /* \"Bank.sol\":1368:1369  i */\n      dup2\n        /* \"Bank.sol\":1368:1371  i<3 */\n      lt\n        /* \"Bank.sol\":1350:1652  for (uint256 i=1; i<3; i++) {... */\n      iszero\n      tag_95\n      jumpi\n        /* \"Bank.sol\":1397:1406  uint256 j */\n      0x00\n        /* \"Bank.sol\":1407:1408  i */\n      dup2\n        /* \"Bank.sol\":1397:1408  uint256 j=i */\n      swap1\n      pop\n        /* \"Bank.sol\":1392:1642  for (uint256 j=i; j>0 && deposits[topDepositors[j]]>deposits[topDepositors[j-1]]; j--) {... */\n    tag_97:\n        /* \"Bank.sol\":1412:1413  0 */\n      0x00\n        /* \"Bank.sol\":1410:1411  j */\n      dup2\n        /* \"Bank.sol\":1410:1413  j>0 */\n      gt\n        /* \"Bank.sol\":1410:1472  j>0 && deposits[topDepositors[j]]>deposits[topDepositors[j-1]] */\n      dup1\n      iszero\n      tag_100\n      jumpi\n      pop\n        /* \"Bank.sol\":1444:1452  deposits */\n      0x01\n        /* \"Bank.sol\":1444:1472  deposits[topDepositors[j-1]] */\n      0x00\n        /* \"Bank.sol\":1453:1466  topDepositors */\n      0x02\n        /* \"Bank.sol\":1469:1470  1 */\n      0x01\n        /* \"Bank.sol\":1467:1468  j */\n      dup5\n        /* \"Bank.sol\":1467:1470  j-1 */\n      tag_101\n      swap2\n      swap1\n      tag_102\n      jump\t// in\n    tag_101:\n        /* \"Bank.sol\":1453:1471  topDepositors[j-1] */\n      0x03\n      dup2\n      lt\n      tag_103\n      jumpi\n      tag_104\n      tag_55\n      jump\t// in\n    tag_104:\n    tag_103:\n      add\n      0x00\n      swap1\n      sload\n      swap1\n      0x0100\n      exp\n      swap1\n      div\n      0xffffffffffffffffffffffffffffffffffffffff\n      and\n        /* \"Bank.sol\":1444:1472  deposits[topDepositors[j-1]] */\n      0xffffffffffffffffffffffffffffffffffffffff\n      and\n      0xffffffffffffffffffffffffffffffffffffffff\n      and\n      dup2\n      mstore\n      0x20\n      add\n      swap1\n      dup2\n      mstore\n      0x20\n      add\n      0x00\n      keccak256\n      sload\n        /* \"Bank.sol\":1417:1425  deposits */\n      0x01\n        /* \"Bank.sol\":1417:1443  deposits[topDepositors[j]] */\n      0x00\n        /* \"Bank.sol\":1426:1439  topDepositors */\n      0x02\n        /* \"Bank.sol\":1440:1441  j */\n      dup5\n        /* \"Bank.sol\":1426:1442  topDepositors[j] */\n      0x03\n      dup2\n      lt\n      tag_106\n      jumpi\n      tag_107\n      tag_55\n      jump\t// in\n    tag_107:\n    tag_106:\n      add\n      0x00\n      swap1\n      sload\n      swap1\n      0x0100\n      exp\n      swap1\n      div\n      0xffffffffffffffffffffffffffffffffffffffff\n      and\n        /* \"Bank.sol\":1417:1443  deposits[topDepositors[j]] */\n      0xffffffffffffffffffffffffffffffffffffffff\n      and\n      0xffffffffffffffffffffffffffffffffffffffff\n      and\n      dup2\n      mstore\n      0x20\n      add\n      swap1\n      dup2\n      mstore\n      0x20\n      add\n      0x00\n      keccak256\n      sload\n        /* \"Bank.sol\":1417:1472  deposits[topDepositors[j]]>deposits[topDepositors[j-1]] */\n      gt\n        /* \"Bank.sol\":1410:1472  j>0 && deposits[topDepositors[j]]>deposits[topDepositors[j-1]] */\n    tag_100:\n        /* \"Bank.sol\":1392:1642  for (uint256 j=i; j>0 && deposits[topDepositors[j]]>deposits[topDepositors[j-1]]; j--) {... */\n      iszero\n      tag_98\n      jumpi\n        /* \"Bank.sol\":1497:1509  address temp */\n      0x00\n        /* \"Bank.sol\":1512:1525  topDepositors */\n      0x02\n        /* \"Bank.sol\":1526:1527  j */\n      dup3\n        /* \"Bank.sol\":1512:1528  topDepositors[j] */\n      0x03\n      dup2\n      lt\n      tag_109\n      jumpi\n      tag_110\n      tag_55\n      jump\t// in\n    tag_110:\n    tag_109:\n      add\n      0x00\n      swap1\n      sload\n      swap1\n      0x0100\n      exp\n      swap1\n      div\n      0xffffffffffffffffffffffffffffffffffffffff\n      and\n        /* \"Bank.sol\":1497:1528  address temp = topDepositors[j] */\n      swap1\n      pop\n        /* \"Bank.sol\":1566:1579  topDepositors */\n      0x02\n        /* \"Bank.sol\":1582:1583  1 */\n      0x01\n        /* \"Bank.sol\":1580:1581  j */\n      dup4\n        /* \"Bank.sol\":1580:1583  j-1 */\n      tag_112\n      swap2\n      swap1\n      tag_102\n      jump\t// in\n    tag_112:\n        /* \"Bank.sol\":1566:1584  topDepositors[j-1] */\n      0x03\n      dup2\n      lt\n      tag_113\n      jumpi\n      tag_114\n      tag_55\n      jump\t// in\n    tag_114:\n    tag_113:\n      add\n      0x00\n      swap1\n      sload\n      swap1\n      0x0100\n      exp\n      swap1\n      div\n      0xffffffffffffffffffffffffffffffffffffffff\n      and\n        /* \"Bank.sol\":1547:1560  topDepositors */\n      0x02\n        /* \"Bank.sol\":1561:1562  j */\n      dup4\n        /* \"Bank.sol\":1547:1563  topDepositors[j] */\n      0x03\n      dup2\n      lt\n      tag_116\n      jumpi\n      tag_117\n      tag_55\n      jump\t// in\n    tag_117:\n    tag_116:\n      add\n      0x00\n        /* \"Bank.sol\":1547:1584  topDepositors[j] = topDepositors[j-1] */\n      0x0100\n      exp\n      dup2\n      sload\n      dup2\n      0xffffffffffffffffffffffffffffffffffffffff\n      mul\n      not\n      and\n      swap1\n      dup4\n      0xffffffffffffffffffffffffffffffffffffffff\n      and\n      mul\n      or\n      swap1\n      sstore\n      pop\n        /* \"Bank.sol\":1623:1627  temp */\n      dup1\n        /* \"Bank.sol\":1602:1615  topDepositors */\n      0x02\n        /* \"Bank.sol\":1618:1619  1 */\n      0x01\n        /* \"Bank.sol\":1616:1617  j */\n      dup5\n        /* \"Bank.sol\":1616:1619  j-1 */\n      tag_119\n      swap2\n      swap1\n      tag_102\n      jump\t// in\n    tag_119:\n        /* \"Bank.sol\":1602:1620  topDepositors[j-1] */\n      0x03\n      dup2\n      lt\n      tag_120\n      jumpi\n      tag_121\n      tag_55\n      jump\t// in\n    tag_121:\n    tag_120:\n      add\n      0x00\n        /* \"Bank.sol\":1602:1627  topDepositors[j-1] = temp */\n      0x0100\n      exp\n      dup2\n      sload\n      dup2\n      0xffffffffffffffffffffffffffffffffffffffff\n      mul\n      not\n      and\n      swap1\n      dup4\n      0xffffffffffffffffffffffffffffffffffffffff\n      and\n      mul\n      or\n      swap1\n      sstore\n      pop\n        /* \"Bank.sol\":1479:1642  {... */\n      pop\n        /* \"Bank.sol\":1474:1477  j-- */\n      dup1\n      dup1\n      tag_123\n      swap1\n      tag_124\n      jump\t// in\n    tag_123:\n      swap2\n      pop\n      pop\n        /* \"Bank.sol\":1392:1642  for (uint256 j=i; j>0 && deposits[topDepositors[j]]>deposits[topDepositors[j-1]]; j--) {... */\n      jump(tag_97)\n    tag_98:\n      pop\n        /* \"Bank.sol\":1373:1376  i++ */\n      dup1\n      dup1\n      0x01\n      add\n      swap2\n      pop\n      pop\n        /* \"Bank.sol\":1350:1652  for (uint256 i=1; i<3; i++) {... */\n      jump(tag_94)\n    tag_95:\n      pop\n        /* \"Bank.sol\":1296:1658  function _rearrangeTopDepositors() internal {... */\n      jump\t// out\n    tag_82:\n      mload(0x40)\n      dup1\n      0x60\n      add\n      0x40\n      mstore\n      dup1\n      0x03\n      swap1\n      0x20\n      dup3\n      mul\n      dup1\n      calldatasize\n      dup4\n      calldatacopy\n      dup1\n      dup3\n      add\n      swap2\n      pop\n      pop\n      swap1\n      pop\n      pop\n      swap1\n      jump\t// out\n        /* \"#utility.yul\":7:176   */\n    tag_125:\n        /* \"#utility.yul\":91:102   */\n      0x00\n        /* \"#utility.yul\":125:131   */\n      dup3\n        /* \"#utility.yul\":120:123   */\n      dup3\n        /* \"#utility.yul\":113:132   */\n      mstore\n        /* \"#utility.yul\":165:169   */\n      0x20\n        /* \"#utility.yul\":160:163   */\n      dup3\n        /* \"#utility.yul\":156:170   */\n      add\n        /* \"#utility.yul\":141:170   */\n      swap1\n      pop\n        /* \"#utility.yul\":7:176   */\n      swap3\n      swap2\n      pop\n      pop\n      jump\t// out\n        /* \"#utility.yul\":182:406   */\n    tag_126:\n        /* \"#utility.yul\":322:356   */\n      0x4465706f73697420616d6f756e74206d75737420626520677265617465722074\n        /* \"#utility.yul\":318:319   */\n      0x00\n        /* \"#utility.yul\":310:316   */\n      dup3\n        /* \"#utility.yul\":306:320   */\n      add\n        /* \"#utility.yul\":299:357   */\n      mstore\n        /* \"#utility.yul\":391:398   */\n      0x68616e2030000000000000000000000000000000000000000000000000000000\n        /* \"#utility.yul\":386:388   */\n      0x20\n        /* \"#utility.yul\":378:384   */\n      dup3\n        /* \"#utility.yul\":374:389   */\n      add\n        /* \"#utility.yul\":367:399   */\n      mstore\n        /* \"#utility.yul\":182:406   */\n      pop\n      jump\t// out\n        /* \"#utility.yul\":412:778   */\n    tag_127:\n        /* \"#utility.yul\":554:557   */\n      0x00\n        /* \"#utility.yul\":575:642   */\n      tag_156\n        /* \"#utility.yul\":639:641   */\n      0x25\n        /* \"#utility.yul\":634:637   */\n      dup4\n        /* \"#utility.yul\":575:642   */\n      tag_125\n      jump\t// in\n    tag_156:\n        /* \"#utility.yul\":568:642   */\n      swap2\n      pop\n        /* \"#utility.yul\":651:744   */\n      tag_157\n        /* \"#utility.yul\":740:743   */\n      dup3\n        /* \"#utility.yul\":651:744   */\n      tag_126\n      jump\t// in\n    tag_157:\n        /* \"#utility.yul\":769:771   */\n      0x40\n        /* \"#utility.yul\":764:767   */\n      dup3\n        /* \"#utility.yul\":760:772   */\n      add\n        /* \"#utility.yul\":753:772   */\n      swap1\n      pop\n        /* \"#utility.yul\":412:778   */\n      swap2\n      swap1\n      pop\n      jump\t// out\n        /* \"#utility.yul\":784:1203   */\n    tag_13:\n        /* \"#utility.yul\":950:954   */\n      0x00\n        /* \"#utility.yul\":988:990   */\n      0x20\n        /* \"#utility.yul\":977:986   */\n      dup3\n        /* \"#utility.yul\":973:991   */\n      add\n        /* \"#utility.yul\":965:991   */\n      swap1\n      pop\n        /* \"#utility.yul\":1037:1046   */\n      dup2\n        /* \"#utility.yul\":1031:1035   */\n      dup2\n        /* \"#utility.yul\":1027:1047   */\n      sub\n        /* \"#utility.yul\":1023:1024   */\n      0x00\n        /* \"#utility.yul\":1012:1021   */\n      dup4\n        /* \"#utility.yul\":1008:1025   */\n      add\n        /* \"#utility.yul\":1001:1048   */\n      mstore\n        /* \"#utility.yul\":1065:1196   */\n      tag_159\n        /* \"#utility.yul\":1191:1195   */\n      dup2\n        /* \"#utility.yul\":1065:1196   */\n      tag_127\n      jump\t// in\n    tag_159:\n        /* \"#utility.yul\":1057:1196   */\n      swap1\n      pop\n        /* \"#utility.yul\":784:1203   */\n      swap2\n      swap1\n      pop\n      jump\t// out\n        /* \"#utility.yul\":1209:1286   */\n    tag_128:\n        /* \"#utility.yul\":1246:1253   */\n      0x00\n        /* \"#utility.yul\":1275:1280   */\n      dup2\n        /* \"#utility.yul\":1264:1280   */\n      swap1\n      pop\n        /* \"#utility.yul\":1209:1286   */\n      swap2\n      swap1\n      pop\n      jump\t// out\n        /* \"#utility.yul\":1292:1472   */\n    tag_129:\n        /* \"#utility.yul\":1340:1417   */\n      0x4e487b7100000000000000000000000000000000000000000000000000000000\n        /* \"#utility.yul\":1337:1338   */\n      0x00\n        /* \"#utility.yul\":1330:1418   */\n      mstore\n        /* \"#utility.yul\":1437:1441   */\n      0x11\n        /* \"#utility.yul\":1434:1435   */\n      0x04\n        /* \"#utility.yul\":1427:1442   */\n      mstore\n        /* \"#utility.yul\":1461:1465   */\n      0x24\n        /* \"#utility.yul\":1458:1459   */\n      0x00\n        /* \"#utility.yul\":1451:1466   */\n      revert\n        /* \"#utility.yul\":1478:1669   */\n    tag_15:\n        /* \"#utility.yul\":1518:1521   */\n      0x00\n        /* \"#utility.yul\":1537:1557   */\n      tag_163\n        /* \"#utility.yul\":1555:1556   */\n      dup3\n        /* \"#utility.yul\":1537:1557   */\n      tag_128\n      jump\t// in\n    tag_163:\n        /* \"#utility.yul\":1532:1557   */\n      swap2\n      pop\n        /* \"#utility.yul\":1571:1591   */\n      tag_164\n        /* \"#utility.yul\":1589:1590   */\n      dup4\n        /* \"#utility.yul\":1571:1591   */\n      tag_128\n      jump\t// in\n    tag_164:\n        /* \"#utility.yul\":1566:1591   */\n      swap3\n      pop\n        /* \"#utility.yul\":1614:1615   */\n      dup3\n        /* \"#utility.yul\":1611:1612   */\n      dup3\n        /* \"#utility.yul\":1607:1616   */\n      add\n        /* \"#utility.yul\":1600:1616   */\n      swap1\n      pop\n        /* \"#utility.yul\":1635:1638   */\n      dup1\n        /* \"#utility.yul\":1632:1633   */\n      dup3\n        /* \"#utility.yul\":1629:1639   */\n      gt\n        /* \"#utility.yul\":1626:1662   */\n      iszero\n      tag_165\n      jumpi\n        /* \"#utility.yul\":1642:1660   */\n      tag_166\n      tag_129\n      jump\t// in\n    tag_166:\n        /* \"#utility.yul\":1626:1662   */\n    tag_165:\n        /* \"#utility.yul\":1478:1669   */\n      swap3\n      swap2\n      pop\n      pop\n      jump\t// out\n        /* \"#utility.yul\":1756:1873   */\n    tag_131:\n        /* \"#utility.yul\":1865:1866   */\n      0x00\n        /* \"#utility.yul\":1862:1863   */\n      dup1\n        /* \"#utility.yul\":1855:1867   */\n      revert\n        /* \"#utility.yul\":2002:2124   */\n    tag_133:\n        /* \"#utility.yul\":2075:2099   */\n      tag_171\n        /* \"#utility.yul\":2093:2098   */\n      dup2\n        /* \"#utility.yul\":2075:2099   */\n      tag_128\n      jump\t// in\n    tag_171:\n        /* \"#utility.yul\":2068:2073   */\n      dup2\n        /* \"#utility.yul\":2065:2100   */\n      eq\n        /* \"#utility.yul\":2055:2118   */\n      tag_172\n      jumpi\n        /* \"#utility.yul\":2114:2115   */\n      0x00\n        /* \"#utility.yul\":2111:2112   */\n      dup1\n        /* \"#utility.yul\":2104:2116   */\n      revert\n        /* \"#utility.yul\":2055:2118   */\n    tag_172:\n        /* \"#utility.yul\":2002:2124   */\n      pop\n      jump\t// out\n        /* \"#utility.yul\":2130:2269   */\n    tag_134:\n        /* \"#utility.yul\":2176:2181   */\n      0x00\n        /* \"#utility.yul\":2214:2220   */\n      dup2\n        /* \"#utility.yul\":2201:2221   */\n      calldataload\n        /* \"#utility.yul\":2192:2221   */\n      swap1\n      pop\n        /* \"#utility.yul\":2230:2263   */\n      tag_174\n        /* \"#utility.yul\":2257:2262   */\n      dup2\n        /* \"#utility.yul\":2230:2263   */\n      tag_133\n      jump\t// in\n    tag_174:\n        /* \"#utility.yul\":2130:2269   */\n      swap3\n      swap2\n      pop\n      pop\n      jump\t// out\n        /* \"#utility.yul\":2275:2604   */\n    tag_21:\n        /* \"#utility.yul\":2334:2340   */\n      0x00\n        /* \"#utility.yul\":2383:2385   */\n      0x20\n        /* \"#utility.yul\":2371:2380   */\n      dup3\n        /* \"#utility.yul\":2362:2369   */\n      dup5\n        /* \"#utility.yul\":2358:2381   */\n      sub\n        /* \"#utility.yul\":2354:2386   */\n      slt\n        /* \"#utility.yul\":2351:2470   */\n      iszero\n      tag_176\n      jumpi\n        /* \"#utility.yul\":2389:2468   */\n      tag_177\n      tag_131\n      jump\t// in\n    tag_177:\n        /* \"#utility.yul\":2351:2470   */\n    tag_176:\n        /* \"#utility.yul\":2509:2510   */\n      0x00\n        /* \"#utility.yul\":2534:2587   */\n      tag_178\n        /* \"#utility.yul\":2579:2586   */\n      dup5\n        /* \"#utility.yul\":2570:2576   */\n      dup3\n        /* \"#utility.yul\":2559:2568   */\n      dup6\n        /* \"#utility.yul\":2555:2577   */\n      add\n        /* \"#utility.yul\":2534:2587   */\n      tag_134\n      jump\t// in\n    tag_178:\n        /* \"#utility.yul\":2524:2587   */\n      swap2\n      pop\n        /* \"#utility.yul\":2480:2597   */\n      pop\n        /* \"#utility.yul\":2275:2604   */\n      swap3\n      swap2\n      pop\n      pop\n      jump\t// out\n        /* \"#utility.yul\":2610:2736   */\n    tag_135:\n        /* \"#utility.yul\":2647:2654   */\n      0x00\n        /* \"#utility.yul\":2687:2729   */\n      0xffffffffffffffffffffffffffffffffffffffff\n        /* \"#utility.yul\":2680:2685   */\n      dup3\n        /* \"#utility.yul\":2676:2730   */\n      and\n        /* \"#utility.yul\":2665:2730   */\n      swap1\n      pop\n        /* \"#utility.yul\":2610:2736   */\n      swap2\n      swap1\n      pop\n      jump\t// out\n        /* \"#utility.yul\":2742:2838   */\n    tag_136:\n        /* \"#utility.yul\":2779:2786   */\n      0x00\n        /* \"#utility.yul\":2808:2832   */\n      tag_181\n        /* \"#utility.yul\":2826:2831   */\n      dup3\n        /* \"#utility.yul\":2808:2832   */\n      tag_135\n      jump\t// in\n    tag_181:\n        /* \"#utility.yul\":2797:2832   */\n      swap1\n      pop\n        /* \"#utility.yul\":2742:2838   */\n      swap2\n      swap1\n      pop\n      jump\t// out\n        /* \"#utility.yul\":2844:2962   */\n    tag_137:\n        /* \"#utility.yul\":2931:2955   */\n      tag_183\n        /* \"#utility.yul\":2949:2954   */\n      dup2\n        /* \"#utility.yul\":2931:2955   */\n      tag_136\n      jump\t// in\n    tag_183:\n        /* \"#utility.yul\":2926:2929   */\n      dup3\n        /* \"#utility.yul\":2919:2956   */\n      mstore\n        /* \"#utility.yul\":2844:2962   */\n      pop\n      pop\n      jump\t// out\n        /* \"#utility.yul\":2968:3190   */\n    tag_28:\n        /* \"#utility.yul\":3061:3065   */\n      0x00\n        /* \"#utility.yul\":3099:3101   */\n      0x20\n        /* \"#utility.yul\":3088:3097   */\n      dup3\n        /* \"#utility.yul\":3084:3102   */\n      add\n        /* \"#utility.yul\":3076:3102   */\n      swap1\n      pop\n        /* \"#utility.yul\":3112:3183   */\n      tag_185\n        /* \"#utility.yul\":3180:3181   */\n      0x00\n        /* \"#utility.yul\":3169:3178   */\n      dup4\n        /* \"#utility.yul\":3165:3182   */\n      add\n        /* \"#utility.yul\":3156:3162   */\n      dup5\n        /* \"#utility.yul\":3112:3183   */\n      tag_137\n      jump\t// in\n    tag_185:\n        /* \"#utility.yul\":2968:3190   */\n      swap3\n      swap2\n      pop\n      pop\n      jump\t// out\n        /* \"#utility.yul\":3196:3314   */\n    tag_138:\n        /* \"#utility.yul\":3283:3307   */\n      tag_187\n        /* \"#utility.yul\":3301:3306   */\n      dup2\n        /* \"#utility.yul\":3283:3307   */\n      tag_128\n      jump\t// in\n    tag_187:\n        /* \"#utility.yul\":3278:3281   */\n      dup3\n        /* \"#utility.yul\":3271:3308   */\n      mstore\n        /* \"#utility.yul\":3196:3314   */\n      pop\n      pop\n      jump\t// out\n        /* \"#utility.yul\":3320:3542   */\n    tag_33:\n        /* \"#utility.yul\":3413:3417   */\n      0x00\n        /* \"#utility.yul\":3451:3453   */\n      0x20\n        /* \"#utility.yul\":3440:3449   */\n      dup3\n        /* \"#utility.yul\":3436:3454   */\n      add\n        /* \"#utility.yul\":3428:3454   */\n      swap1\n      pop\n        /* \"#utility.yul\":3464:3535   */\n      tag_189\n        /* \"#utility.yul\":3532:3533   */\n      0x00\n        /* \"#utility.yul\":3521:3530   */\n      dup4\n        /* \"#utility.yul\":3517:3534   */\n      add\n        /* \"#utility.yul\":3508:3514   */\n      dup5\n        /* \"#utility.yul\":3464:3535   */\n      tag_138\n      jump\t// in\n    tag_189:\n        /* \"#utility.yul\":3320:3542   */\n      swap3\n      swap2\n      pop\n      pop\n      jump\t// out\n        /* \"#utility.yul\":3548:3652   */\n    tag_139:\n        /* \"#utility.yul\":3613:3619   */\n      0x00\n        /* \"#utility.yul\":3641:3645   */\n      0x03\n        /* \"#utility.yul\":3631:3645   */\n      swap1\n      pop\n        /* \"#utility.yul\":3548:3652   */\n      swap2\n      swap1\n      pop\n      jump\t// out\n        /* \"#utility.yul\":3658:3801   */\n    tag_140:\n        /* \"#utility.yul\":3755:3766   */\n      0x00\n        /* \"#utility.yul\":3792:3795   */\n      dup2\n        /* \"#utility.yul\":3777:3795   */\n      swap1\n      pop\n        /* \"#utility.yul\":3658:3801   */\n      swap3\n      swap2\n      pop\n      pop\n      jump\t// out\n        /* \"#utility.yul\":3807:3905   */\n    tag_141:\n        /* \"#utility.yul\":3872:3876   */\n      0x00\n        /* \"#utility.yul\":3895:3898   */\n      dup2\n        /* \"#utility.yul\":3887:3898   */\n      swap1\n      pop\n        /* \"#utility.yul\":3807:3905   */\n      swap2\n      swap1\n      pop\n      jump\t// out\n        /* \"#utility.yul\":3911:4019   */\n    tag_142:\n        /* \"#utility.yul\":3988:4012   */\n      tag_194\n        /* \"#utility.yul\":4006:4011   */\n      dup2\n        /* \"#utility.yul\":3988:4012   */\n      tag_136\n      jump\t// in\n    tag_194:\n        /* \"#utility.yul\":3983:3986   */\n      dup3\n        /* \"#utility.yul\":3976:4013   */\n      mstore\n        /* \"#utility.yul\":3911:4019   */\n      pop\n      pop\n      jump\t// out\n        /* \"#utility.yul\":4025:4204   */\n    tag_143:\n        /* \"#utility.yul\":4094:4104   */\n      0x00\n        /* \"#utility.yul\":4115:4161   */\n      tag_196\n        /* \"#utility.yul\":4157:4160   */\n      dup4\n        /* \"#utility.yul\":4149:4155   */\n      dup4\n        /* \"#utility.yul\":4115:4161   */\n      tag_142\n      jump\t// in\n    tag_196:\n        /* \"#utility.yul\":4193:4197   */\n      0x20\n        /* \"#utility.yul\":4188:4191   */\n      dup4\n        /* \"#utility.yul\":4184:4198   */\n      add\n        /* \"#utility.yul\":4170:4198   */\n      swap1\n      pop\n        /* \"#utility.yul\":4025:4204   */\n      swap3\n      swap2\n      pop\n      pop\n      jump\t// out\n        /* \"#utility.yul\":4210:4321   */\n    tag_144:\n        /* \"#utility.yul\":4278:4282   */\n      0x00\n        /* \"#utility.yul\":4310:4314   */\n      0x20\n        /* \"#utility.yul\":4305:4308   */\n      dup3\n        /* \"#utility.yul\":4301:4315   */\n      add\n        /* \"#utility.yul\":4293:4315   */\n      swap1\n      pop\n        /* \"#utility.yul\":4210:4321   */\n      swap2\n      swap1\n      pop\n      jump\t// out\n        /* \"#utility.yul\":4359:5053   */\n    tag_145:\n        /* \"#utility.yul\":4495:4547   */\n      tag_199\n        /* \"#utility.yul\":4541:4546   */\n      dup2\n        /* \"#utility.yul\":4495:4547   */\n      tag_139\n      jump\t// in\n    tag_199:\n        /* \"#utility.yul\":4563:4647   */\n      tag_200\n        /* \"#utility.yul\":4640:4646   */\n      dup2\n        /* \"#utility.yul\":4635:4638   */\n      dup5\n        /* \"#utility.yul\":4563:4647   */\n      tag_140\n      jump\t// in\n    tag_200:\n        /* \"#utility.yul\":4556:4647   */\n      swap3\n      pop\n        /* \"#utility.yul\":4671:4725   */\n      tag_201\n        /* \"#utility.yul\":4719:4724   */\n      dup3\n        /* \"#utility.yul\":4671:4725   */\n      tag_141\n      jump\t// in\n    tag_201:\n        /* \"#utility.yul\":4748:4755   */\n      dup1\n        /* \"#utility.yul\":4779:4780   */\n      0x00\n        /* \"#utility.yul\":4764:5046   */\n    tag_202:\n        /* \"#utility.yul\":4789:4795   */\n      dup4\n        /* \"#utility.yul\":4786:4787   */\n      dup2\n        /* \"#utility.yul\":4783:4796   */\n      lt\n        /* \"#utility.yul\":4764:5046   */\n      iszero\n      tag_204\n      jumpi\n        /* \"#utility.yul\":4865:4871   */\n      dup2\n        /* \"#utility.yul\":4859:4872   */\n      mload\n        /* \"#utility.yul\":4892:4955   */\n      tag_205\n        /* \"#utility.yul\":4951:4954   */\n      dup8\n        /* \"#utility.yul\":4936:4949   */\n      dup3\n        /* \"#utility.yul\":4892:4955   */\n      tag_143\n      jump\t// in\n    tag_205:\n        /* \"#utility.yul\":4885:4955   */\n      swap7\n      pop\n        /* \"#utility.yul\":4978:5036   */\n      tag_206\n        /* \"#utility.yul\":5029:5035   */\n      dup4\n        /* \"#utility.yul\":4978:5036   */\n      tag_144\n      jump\t// in\n    tag_206:\n        /* \"#utility.yul\":4968:5036   */\n      swap3\n      pop\n        /* \"#utility.yul\":4824:5046   */\n      pop\n        /* \"#utility.yul\":4811:4812   */\n      0x01\n        /* \"#utility.yul\":4808:4809   */\n      dup2\n        /* \"#utility.yul\":4804:4813   */\n      add\n        /* \"#utility.yul\":4799:4813   */\n      swap1\n      pop\n        /* \"#utility.yul\":4764:5046   */\n      jump(tag_202)\n    tag_204:\n        /* \"#utility.yul\":4768:4782   */\n      pop\n        /* \"#utility.yul\":4471:5053   */\n      pop\n      pop\n      pop\n        /* \"#utility.yul\":4359:5053   */\n      pop\n      pop\n      jump\t// out\n        /* \"#utility.yul\":5059:5373   */\n    tag_38:\n        /* \"#utility.yul\":5198:5202   */\n      0x00\n        /* \"#utility.yul\":5236:5238   */\n      0x60\n        /* \"#utility.yul\":5225:5234   */\n      dup3\n        /* \"#utility.yul\":5221:5239   */\n      add\n        /* \"#utility.yul\":5213:5239   */\n      swap1\n      pop\n        /* \"#utility.yul\":5249:5366   */\n      tag_208\n        /* \"#utility.yul\":5363:5364   */\n      0x00\n        /* \"#utility.yul\":5352:5361   */\n      dup4\n        /* \"#utility.yul\":5348:5365   */\n      add\n        /* \"#utility.yul\":5339:5345   */\n      dup5\n        /* \"#utility.yul\":5249:5366   */\n      tag_145\n      jump\t// in\n    tag_208:\n        /* \"#utility.yul\":5059:5373   */\n      swap3\n      swap2\n      pop\n      pop\n      jump\t// out\n        /* \"#utility.yul\":5379:5501   */\n    tag_146:\n        /* \"#utility.yul\":5452:5476   */\n      tag_210\n        /* \"#utility.yul\":5470:5475   */\n      dup2\n        /* \"#utility.yul\":5452:5476   */\n      tag_136\n      jump\t// in\n    tag_210:\n        /* \"#utility.yul\":5445:5450   */\n      dup2\n        /* \"#utility.yul\":5442:5477   */\n      eq\n        /* \"#utility.yul\":5432:5495   */\n      tag_211\n      jumpi\n        /* \"#utility.yul\":5491:5492   */\n      0x00\n        /* \"#utility.yul\":5488:5489   */\n      dup1\n        /* \"#utility.yul\":5481:5493   */\n      revert\n        /* \"#utility.yul\":5432:5495   */\n    tag_211:\n        /* \"#utility.yul\":5379:5501   */\n      pop\n      jump\t// out\n        /* \"#utility.yul\":5507:5646   */\n    tag_147:\n        /* \"#utility.yul\":5553:5558   */\n      0x00\n        /* \"#utility.yul\":5591:5597   */\n      dup2\n        /* \"#utility.yul\":5578:5598   */\n      calldataload\n        /* \"#utility.yul\":5569:5598   */\n      swap1\n      pop\n        /* \"#utility.yul\":5607:5640   */\n      tag_213\n        /* \"#utility.yul\":5634:5639   */\n      dup2\n        /* \"#utility.yul\":5607:5640   */\n      tag_146\n      jump\t// in\n    tag_213:\n        /* \"#utility.yul\":5507:5646   */\n      swap3\n      swap2\n      pop\n      pop\n      jump\t// out\n        /* \"#utility.yul\":5652:5981   */\n    tag_46:\n        /* \"#utility.yul\":5711:5717   */\n      0x00\n        /* \"#utility.yul\":5760:5762   */\n      0x20\n        /* \"#utility.yul\":5748:5757   */\n      dup3\n        /* \"#utility.yul\":5739:5746   */\n      dup5\n        /* \"#utility.yul\":5735:5758   */\n      sub\n        /* \"#utility.yul\":5731:5763   */\n      slt\n        /* \"#utility.yul\":5728:5847   */\n      iszero\n      tag_215\n      jumpi\n        /* \"#utility.yul\":5766:5845   */\n      tag_216\n      tag_131\n      jump\t// in\n    tag_216:\n        /* \"#utility.yul\":5728:5847   */\n    tag_215:\n        /* \"#utility.yul\":5886:5887   */\n      0x00\n        /* \"#utility.yul\":5911:5964   */\n      tag_217\n        /* \"#utility.yul\":5956:5963   */\n      dup5\n        /* \"#utility.yul\":5947:5953   */\n      dup3\n        /* \"#utility.yul\":5936:5945   */\n      dup6\n        /* \"#utility.yul\":5932:5954   */\n      add\n        /* \"#utility.yul\":5911:5964   */\n      tag_147\n      jump\t// in\n    tag_217:\n        /* \"#utility.yul\":5901:5964   */\n      swap2\n      pop\n        /* \"#utility.yul\":5857:5974   */\n      pop\n        /* \"#utility.yul\":5652:5981   */\n      swap3\n      swap2\n      pop\n      pop\n      jump\t// out\n        /* \"#utility.yul\":5987:6167   */\n    tag_55:\n        /* \"#utility.yul\":6035:6112   */\n      0x4e487b7100000000000000000000000000000000000000000000000000000000\n        /* \"#utility.yul\":6032:6033   */\n      0x00\n        /* \"#utility.yul\":6025:6113   */\n      mstore\n        /* \"#utility.yul\":6132:6136   */\n      0x32\n        /* \"#utility.yul\":6129:6130   */\n      0x04\n        /* \"#utility.yul\":6122:6137   */\n      mstore\n        /* \"#utility.yul\":6156:6160   */\n      0x24\n        /* \"#utility.yul\":6153:6154   */\n      0x00\n        /* \"#utility.yul\":6146:6161   */\n      revert\n        /* \"#utility.yul\":6173:6345   */\n    tag_148:\n        /* \"#utility.yul\":6313:6337   */\n      0x4e6f742074686520636f6e7472616374206f776e657200000000000000000000\n        /* \"#utility.yul\":6309:6310   */\n      0x00\n        /* \"#utility.yul\":6301:6307   */\n      dup3\n        /* \"#utility.yul\":6297:6311   */\n      add\n        /* \"#utility.yul\":6290:6338   */\n      mstore\n        /* \"#utility.yul\":6173:6345   */\n      pop\n      jump\t// out\n        /* \"#utility.yul\":6351:6717   */\n    tag_149:\n        /* \"#utility.yul\":6493:6496   */\n      0x00\n        /* \"#utility.yul\":6514:6581   */\n      tag_221\n        /* \"#utility.yul\":6578:6580   */\n      0x16\n        /* \"#utility.yul\":6573:6576   */\n      dup4\n        /* \"#utility.yul\":6514:6581   */\n      tag_125\n      jump\t// in\n    tag_221:\n        /* \"#utility.yul\":6507:6581   */\n      swap2\n      pop\n        /* \"#utility.yul\":6590:6683   */\n      tag_222\n        /* \"#utility.yul\":6679:6682   */\n      dup3\n        /* \"#utility.yul\":6590:6683   */\n      tag_148\n      jump\t// in\n    tag_222:\n        /* \"#utility.yul\":6708:6710   */\n      0x20\n        /* \"#utility.yul\":6703:6706   */\n      dup3\n        /* \"#utility.yul\":6699:6711   */\n      add\n        /* \"#utility.yul\":6692:6711   */\n      swap1\n      pop\n        /* \"#utility.yul\":6351:6717   */\n      swap2\n      swap1\n      pop\n      jump\t// out\n        /* \"#utility.yul\":6723:7142   */\n    tag_71:\n        /* \"#utility.yul\":6889:6893   */\n      0x00\n        /* \"#utility.yul\":6927:6929   */\n      0x20\n        /* \"#utility.yul\":6916:6925   */\n      dup3\n        /* \"#utility.yul\":6912:6930   */\n      add\n        /* \"#utility.yul\":6904:6930   */\n      swap1\n      pop\n        /* \"#utility.yul\":6976:6985   */\n      dup2\n        /* \"#utility.yul\":6970:6974   */\n      dup2\n        /* \"#utility.yul\":6966:6986   */\n      sub\n        /* \"#utility.yul\":6962:6963   */\n      0x00\n        /* \"#utility.yul\":6951:6960   */\n      dup4\n        /* \"#utility.yul\":6947:6964   */\n      add\n        /* \"#utility.yul\":6940:6987   */\n      mstore\n        /* \"#utility.yul\":7004:7135   */\n      tag_224\n        /* \"#utility.yul\":7130:7134   */\n      dup2\n        /* \"#utility.yul\":7004:7135   */\n      tag_149\n      jump\t// in\n    tag_224:\n        /* \"#utility.yul\":6996:7135   */\n      swap1\n      pop\n        /* \"#utility.yul\":6723:7142   */\n      swap2\n      swap1\n      pop\n      jump\t// out\n        /* \"#utility.yul\":7148:7328   */\n    tag_150:\n        /* \"#utility.yul\":7288:7320   */\n      0x4e6f7420656e6f7567682062616c616e636520696e20636f6e74726163740000\n        /* \"#utility.yul\":7284:7285   */\n      0x00\n        /* \"#utility.yul\":7276:7282   */\n      dup3\n        /* \"#utility.yul\":7272:7286   */\n      add\n        /* \"#utility.yul\":7265:7321   */\n      mstore\n        /* \"#utility.yul\":7148:7328   */\n      pop\n      jump\t// out\n        /* \"#utility.yul\":7334:7700   */\n    tag_151:\n        /* \"#utility.yul\":7476:7479   */\n      0x00\n        /* \"#utility.yul\":7497:7564   */\n      tag_227\n        /* \"#utility.yul\":7561:7563   */\n      0x1e\n        /* \"#utility.yul\":7556:7559   */\n      dup4\n        /* \"#utility.yul\":7497:7564   */\n      tag_125\n      jump\t// in\n    tag_227:\n        /* \"#utility.yul\":7490:7564   */\n      swap2\n      pop\n        /* \"#utility.yul\":7573:7666   */\n      tag_228\n        /* \"#utility.yul\":7662:7665   */\n      dup3\n        /* \"#utility.yul\":7573:7666   */\n      tag_150\n      jump\t// in\n    tag_228:\n        /* \"#utility.yul\":7691:7693   */\n      0x20\n        /* \"#utility.yul\":7686:7689   */\n      dup3\n        /* \"#utility.yul\":7682:7694   */\n      add\n        /* \"#utility.yul\":7675:7694   */\n      swap1\n      pop\n        /* \"#utility.yul\":7334:7700   */\n      swap2\n      swap1\n      pop\n      jump\t// out\n        /* \"#utility.yul\":7706:8125   */\n    tag_75:\n        /* \"#utility.yul\":7872:7876   */\n      0x00\n        /* \"#utility.yul\":7910:7912   */\n      0x20\n        /* \"#utility.yul\":7899:7908   */\n      dup3\n        /* \"#utility.yul\":7895:7913   */\n      add\n        /* \"#utility.yul\":7887:7913   */\n      swap1\n      pop\n        /* \"#utility.yul\":7959:7968   */\n      dup2\n        /* \"#utility.yul\":7953:7957   */\n      dup2\n        /* \"#utility.yul\":7949:7969   */\n      sub\n        /* \"#utility.yul\":7945:7946   */\n      0x00\n        /* \"#utility.yul\":7934:7943   */\n      dup4\n        /* \"#utility.yul\":7930:7947   */\n      add\n        /* \"#utility.yul\":7923:7970   */\n      mstore\n        /* \"#utility.yul\":7987:8118   */\n      tag_230\n        /* \"#utility.yul\":8113:8117   */\n      dup2\n        /* \"#utility.yul\":7987:8118   */\n      tag_151\n      jump\t// in\n    tag_230:\n        /* \"#utility.yul\":7979:8118   */\n      swap1\n      pop\n        /* \"#utility.yul\":7706:8125   */\n      swap2\n      swap1\n      pop\n      jump\t// out\n        /* \"#utility.yul\":8131:8325   */\n    tag_102:\n        /* \"#utility.yul\":8171:8175   */\n      0x00\n        /* \"#utility.yul\":8191:8211   */\n      tag_232\n        /* \"#utility.yul\":8209:8210   */\n      dup3\n        /* \"#utility.yul\":8191:8211   */\n      tag_128\n      jump\t// in\n    tag_232:\n        /* \"#utility.yul\":8186:8211   */\n      swap2\n      pop\n        /* \"#utility.yul\":8225:8245   */\n      tag_233\n        /* \"#utility.yul\":8243:8244   */\n      dup4\n        /* \"#utility.yul\":8225:8245   */\n      tag_128\n      jump\t// in\n    tag_233:\n        /* \"#utility.yul\":8220:8245   */\n      swap3\n      pop\n        /* \"#utility.yul\":8269:8270   */\n      dup3\n        /* \"#utility.yul\":8266:8267   */\n      dup3\n        /* \"#utility.yul\":8262:8271   */\n      sub\n        /* \"#utility.yul\":8254:8271   */\n      swap1\n      pop\n        /* \"#utility.yul\":8293:8294   */\n      dup2\n        /* \"#utility.yul\":8287:8291   */\n      dup2\n        /* \"#utility.yul\":8284:8295   */\n      gt\n        /* \"#utility.yul\":8281:8318   */\n      iszero\n      tag_234\n      jumpi\n        /* \"#utility.yul\":8298:8316   */\n      tag_235\n      tag_129\n      jump\t// in\n    tag_235:\n        /* \"#utility.yul\":8281:8318   */\n    tag_234:\n        /* \"#utility.yul\":8131:8325   */\n      swap3\n      swap2\n      pop\n      pop\n      jump\t// out\n        /* \"#utility.yul\":8331:8502   */\n    tag_124:\n        /* \"#utility.yul\":8370:8373   */\n      0x00\n        /* \"#utility.yul\":8393:8417   */\n      tag_237\n        /* \"#utility.yul\":8411:8416   */\n      dup3\n        /* \"#utility.yul\":8393:8417   */\n      tag_128\n      jump\t// in\n    tag_237:\n        /* \"#utility.yul\":8384:8417   */\n      swap2\n      pop\n        /* \"#utility.yul\":8439:8443   */\n      0x00\n        /* \"#utility.yul\":8432:8437   */\n      dup3\n        /* \"#utility.yul\":8429:8444   */\n      sub\n        /* \"#utility.yul\":8426:8467   */\n      tag_238\n      jumpi\n        /* \"#utility.yul\":8447:8465   */\n      tag_239\n      tag_129\n      jump\t// in\n    tag_239:\n        /* \"#utility.yul\":8426:8467   */\n    tag_238:\n        /* \"#utility.yul\":8494:8495   */\n      0x01\n        /* \"#utility.yul\":8487:8492   */\n      dup3\n        /* \"#utility.yul\":8483:8496   */\n      sub\n        /* \"#utility.yul\":8476:8496   */\n      swap1\n      pop\n        /* \"#utility.yul\":8331:8502   */\n      swap2\n      swap1\n      pop\n      jump\t// out\n\n    auxdata: 0xa2646970667358221220284f55483a983ec50caa3993d4848a0f43d6c467cda5ccc2cbbca6fa1eb571e864736f6c634300081a0033\n}\n",
				"bytecode": {
					"linkReferences": {},
					"object": "6080604052348015600e575f80fd5b50335f806101000a81548173ffffffffffffffffffffffffffffffffffffffff021916908373ffffffffffffffffffffffffffffffffffffffff160217905550610d218061005b5f395ff3fe608060405260043610610058575f3560e01c80632e1a7d4d1461010157806330861078146101295780636f9fb98a1461016557806381454f711461018f5780638da5cb5b146101b9578063fc7e286d146101e3576100fd565b366100fd575f341161009f576040517f08c379a000000000000000000000000000000000000000000000000000000000815260040161009690610921565b60405180910390fd5b3460015f3373ffffffffffffffffffffffffffffffffffffffff1673ffffffffffffffffffffffffffffffffffffffff1681526020019081526020015f205f8282546100eb9190610975565b925050819055506100fb3361021f565b005b5f80fd5b34801561010c575f80fd5b50610127600480360381019061012291906109d6565b6103c3565b005b348015610134575f80fd5b5061014f600480360381019061014a91906109d6565b6104f9565b60405161015c9190610a40565b60405180910390f35b348015610170575f80fd5b5061017961052d565b6040516101869190610a68565b60405180910390f35b34801561019a575f80fd5b506101a3610534565b6040516101b09190610b26565b60405180910390f35b3480156101c4575f80fd5b506101cd6105e3565b6040516101da9190610a40565b60405180910390f35b3480156101ee575f80fd5b5061020960048036038101906102049190610b69565b610606565b6040516102169190610a68565b60405180910390f35b5f5b60038110156102ac578173ffffffffffffffffffffffffffffffffffffffff166002826003811061025557610254610b94565b5b015f9054906101000a900473ffffffffffffffffffffffffffffffffffffffff1673ffffffffffffffffffffffffffffffffffffffff160361029f5761029961061b565b506103c0565b8080600101915050610221565b5060015f600280600381106102c4576102c3610b94565b5b015f9054906101000a900473ffffffffffffffffffffffffffffffffffffffff1673ffffffffffffffffffffffffffffffffffffffff1673ffffffffffffffffffffffffffffffffffffffff1681526020019081526020015f205460015f8373ffffffffffffffffffffffffffffffffffffffff1673ffffffffffffffffffffffffffffffffffffffff1681526020019081526020015f205411156103bf57806002806003811061037857610377610b94565b5b015f6101000a81548173ffffffffffffffffffffffffffffffffffffffff021916908373ffffffffffffffffffffffffffffffffffffffff1602179055506103be61061b565b5b5b50565b5f8054906101000a900473ffffffffffffffffffffffffffffffffffffffff1673ffffffffffffffffffffffffffffffffffffffff163373ffffffffffffffffffffffffffffffffffffffff1614610450576040517f08c379a000000000000000000000000000000000000000000000000000000000815260040161044790610c0b565b60405180910390fd5b47811115610493576040517f08c379a000000000000000000000000000000000000000000000000000000000815260040161048a90610c73565b60405180910390fd5b5f8054906101000a900473ffffffffffffffffffffffffffffffffffffffff1673ffffffffffffffffffffffffffffffffffffffff166108fc8290811502906040515f60405180830381858888f193505050501580156104f5573d5f803e3d5ffd5b5050565b60028160038110610508575f80fd5b015f915054906101000a900473ffffffffffffffffffffffffffffffffffffffff1681565b5f47905090565b61053c61087f565b61054461087f565b5f5b60038110156105db576002816003811061056357610562610b94565b5b015f9054906101000a900473ffffffffffffffffffffffffffffffffffffffff1682826003811061059757610596610b94565b5b602002019073ffffffffffffffffffffffffffffffffffffffff16908173ffffffffffffffffffffffffffffffffffffffff16815250508080600101915050610546565b508091505090565b5f8054906101000a900473ffffffffffffffffffffffffffffffffffffffff1681565b6001602052805f5260405f205f915090505481565b5f600190505b600381101561087c575f8190505b5f8111801561072b575060015f600260018461064b9190610c91565b6003811061065c5761065b610b94565b5b015f9054906101000a900473ffffffffffffffffffffffffffffffffffffffff1673ffffffffffffffffffffffffffffffffffffffff1673ffffffffffffffffffffffffffffffffffffffff1681526020019081526020015f205460015f600284600381106106ce576106cd610b94565b5b015f9054906101000a900473ffffffffffffffffffffffffffffffffffffffff1673ffffffffffffffffffffffffffffffffffffffff1673ffffffffffffffffffffffffffffffffffffffff1681526020019081526020015f2054115b1561086e575f6002826003811061074557610744610b94565b5b015f9054906101000a900473ffffffffffffffffffffffffffffffffffffffff16905060026001836107779190610c91565b6003811061078857610787610b94565b5b015f9054906101000a900473ffffffffffffffffffffffffffffffffffffffff16600283600381106107bd576107bc610b94565b5b015f6101000a81548173ffffffffffffffffffffffffffffffffffffffff021916908373ffffffffffffffffffffffffffffffffffffffff16021790555080600260018461080b9190610c91565b6003811061081c5761081b610b94565b5b015f6101000a81548173ffffffffffffffffffffffffffffffffffffffff021916908373ffffffffffffffffffffffffffffffffffffffff16021790555050808061086690610cc4565b91505061062f565b508080600101915050610621565b50565b6040518060600160405280600390602082028036833780820191505090505090565b5f82825260208201905092915050565b7f4465706f73697420616d6f756e74206d757374206265206772656174657220745f8201527f68616e2030000000000000000000000000000000000000000000000000000000602082015250565b5f61090b6025836108a1565b9150610916826108b1565b604082019050919050565b5f6020820190508181035f830152610938816108ff565b9050919050565b5f819050919050565b7f4e487b71000000000000000000000000000000000000000000000000000000005f52601160045260245ffd5b5f61097f8261093f565b915061098a8361093f565b92508282019050808211156109a2576109a1610948565b5b92915050565b5f80fd5b6109b58161093f565b81146109bf575f80fd5b50565b5f813590506109d0816109ac565b92915050565b5f602082840312156109eb576109ea6109a8565b5b5f6109f8848285016109c2565b91505092915050565b5f73ffffffffffffffffffffffffffffffffffffffff82169050919050565b5f610a2a82610a01565b9050919050565b610a3a81610a20565b82525050565b5f602082019050610a535f830184610a31565b92915050565b610a628161093f565b82525050565b5f602082019050610a7b5f830184610a59565b92915050565b5f60039050919050565b5f81905092915050565b5f819050919050565b610aa781610a20565b82525050565b5f610ab88383610a9e565b60208301905092915050565b5f602082019050919050565b610ad981610a81565b610ae38184610a8b565b9250610aee82610a95565b805f5b83811015610b1e578151610b058782610aad565b9650610b1083610ac4565b925050600181019050610af1565b505050505050565b5f606082019050610b395f830184610ad0565b92915050565b610b4881610a20565b8114610b52575f80fd5b50565b5f81359050610b6381610b3f565b92915050565b5f60208284031215610b7e57610b7d6109a8565b5b5f610b8b84828501610b55565b91505092915050565b7f4e487b71000000000000000000000000000000000000000000000000000000005f52603260045260245ffd5b7f4e6f742074686520636f6e7472616374206f776e6572000000000000000000005f82015250565b5f610bf56016836108a1565b9150610c0082610bc1565b602082019050919050565b5f6020820190508181035f830152610c2281610be9565b9050919050565b7f4e6f7420656e6f7567682062616c616e636520696e20636f6e747261637400005f82015250565b5f610c5d601e836108a1565b9150610c6882610c29565b602082019050919050565b5f6020820190508181035f830152610c8a81610c51565b9050919050565b5f610c9b8261093f565b9150610ca68361093f565b9250828203905081811115610cbe57610cbd610948565b5b92915050565b5f610cce8261093f565b91505f8203610ce057610cdf610948565b5b60018203905091905056fea2646970667358221220284f55483a983ec50caa3993d4848a0f43d6c467cda5ccc2cbbca6fa1eb571e864736f6c634300081a0033",
					"opcodes": "PUSH1 0x80 PUSH1 0x40 MSTORE CALLVALUE DUP1 ISZERO PUSH1 0xE JUMPI PUSH0 DUP1 REVERT JUMPDEST POP CALLER PUSH0 DUP1 PUSH2 0x100 EXP DUP2 SLOAD DUP2 PUSH20 0xFFFFFFFFFFFFFFFFFFFFFFFFFFFFFFFFFFFFFFFF MUL NOT AND SWAP1 DUP4 PUSH20 0xFFFFFFFFFFFFFFFFFFFFFFFFFFFFFFFFFFFFFFFF AND MUL OR SWAP1 SSTORE POP PUSH2 0xD21 DUP1 PUSH2 0x5B PUSH0 CODECOPY PUSH0 RETURN INVALID PUSH1 0x80 PUSH1 0x40 MSTORE PUSH1 0x4 CALLDATASIZE LT PUSH2 0x58 JUMPI PUSH0 CALLDATALOAD PUSH1 0xE0 SHR DUP1 PUSH4 0x2E1A7D4D EQ PUSH2 0x101 JUMPI DUP1 PUSH4 0x30861078 EQ PUSH2 0x129 JUMPI DUP1 PUSH4 0x6F9FB98A EQ PUSH2 0x165 JUMPI DUP1 PUSH4 0x81454F71 EQ PUSH2 0x18F JUMPI DUP1 PUSH4 0x8DA5CB5B EQ PUSH2 0x1B9 JUMPI DUP1 PUSH4 0xFC7E286D EQ PUSH2 0x1E3 JUMPI PUSH2 0xFD JUMP JUMPDEST CALLDATASIZE PUSH2 0xFD JUMPI PUSH0 CALLVALUE GT PUSH2 0x9F JUMPI PUSH1 0x40 MLOAD PUSH32 0x8C379A000000000000000000000000000000000000000000000000000000000 DUP2 MSTORE PUSH1 0x4 ADD PUSH2 0x96 SWAP1 PUSH2 0x921 JUMP JUMPDEST PUSH1 0x40 MLOAD DUP1 SWAP2 SUB SWAP1 REVERT JUMPDEST CALLVALUE PUSH1 0x1 PUSH0 CALLER PUSH20 0xFFFFFFFFFFFFFFFFFFFFFFFFFFFFFFFFFFFFFFFF AND PUSH20 0xFFFFFFFFFFFFFFFFFFFFFFFFFFFFFFFFFFFFFFFF AND DUP2 MSTORE PUSH1 0x20 ADD SWAP1 DUP2 MSTORE PUSH1 0x20 ADD PUSH0 KECCAK256 PUSH0 DUP3 DUP3 SLOAD PUSH2 0xEB SWAP2 SWAP1 PUSH2 0x975 JUMP JUMPDEST SWAP3 POP POP DUP2 SWAP1 SSTORE POP PUSH2 0xFB CALLER PUSH2 0x21F JUMP JUMPDEST STOP JUMPDEST PUSH0 DUP1 REVERT JUMPDEST CALLVALUE DUP1 ISZERO PUSH2 0x10C JUMPI PUSH0 DUP1 REVERT JUMPDEST POP PUSH2 0x127 PUSH1 0x4 DUP1 CALLDATASIZE SUB DUP2 ADD SWAP1 PUSH2 0x122 SWAP2 SWAP1 PUSH2 0x9D6 JUMP JUMPDEST PUSH2 0x3C3 JUMP JUMPDEST STOP JUMPDEST CALLVALUE DUP1 ISZERO PUSH2 0x134 JUMPI PUSH0 DUP1 REVERT JUMPDEST POP PUSH2 0x14F PUSH1 0x4 DUP1 CALLDATASIZE SUB DUP2 ADD SWAP1 PUSH2 0x14A SWAP2 SWAP1 PUSH2 0x9D6 JUMP JUMPDEST PUSH2 0x4F9 JUMP JUMPDEST PUSH1 0x40 MLOAD PUSH2 0x15C SWAP2 SWAP1 PUSH2 0xA40 JUMP JUMPDEST PUSH1 0x40 MLOAD DUP1 SWAP2 SUB SWAP1 RETURN JUMPDEST CALLVALUE DUP1 ISZERO PUSH2 0x170 JUMPI PUSH0 DUP1 REVERT JUMPDEST POP PUSH2 0x179 PUSH2 0x52D JUMP JUMPDEST PUSH1 0x40 MLOAD PUSH2 0x186 SWAP2 SWAP1 PUSH2 0xA68 JUMP JUMPDEST PUSH1 0x40 MLOAD DUP1 SWAP2 SUB SWAP1 RETURN JUMPDEST CALLVALUE DUP1 ISZERO PUSH2 0x19A JUMPI PUSH0 DUP1 REVERT JUMPDEST POP PUSH2 0x1A3 PUSH2 0x534 JUMP JUMPDEST PUSH1 0x40 MLOAD PUSH2 0x1B0 SWAP2 SWAP1 PUSH2 0xB26 JUMP JUMPDEST PUSH1 0x40 MLOAD DUP1 SWAP2 SUB SWAP1 RETURN JUMPDEST CALLVALUE DUP1 ISZERO PUSH2 0x1C4 JUMPI PUSH0 DUP1 REVERT JUMPDEST POP PUSH2 0x1CD PUSH2 0x5E3 JUMP JUMPDEST PUSH1 0x40 MLOAD PUSH2 0x1DA SWAP2 SWAP1 PUSH2 0xA40 JUMP JUMPDEST PUSH1 0x40 MLOAD DUP1 SWAP2 SUB SWAP1 RETURN JUMPDEST CALLVALUE DUP1 ISZERO PUSH2 0x1EE JUMPI PUSH0 DUP1 REVERT JUMPDEST POP PUSH2 0x209 PUSH1 0x4 DUP1 CALLDATASIZE SUB DUP2 ADD SWAP1 PUSH2 0x204 SWAP2 SWAP1 PUSH2 0xB69 JUMP JUMPDEST PUSH2 0x606 JUMP JUMPDEST PUSH1 0x40 MLOAD PUSH2 0x216 SWAP2 SWAP1 PUSH2 0xA68 JUMP JUMPDEST PUSH1 0x40 MLOAD DUP1 SWAP2 SUB SWAP1 RETURN JUMPDEST PUSH0 JUMPDEST PUSH1 0x3 DUP2 LT ISZERO PUSH2 0x2AC JUMPI DUP2 PUSH20 0xFFFFFFFFFFFFFFFFFFFFFFFFFFFFFFFFFFFFFFFF AND PUSH1 0x2 DUP3 PUSH1 0x3 DUP2 LT PUSH2 0x255 JUMPI PUSH2 0x254 PUSH2 0xB94 JUMP JUMPDEST JUMPDEST ADD PUSH0 SWAP1 SLOAD SWAP1 PUSH2 0x100 EXP SWAP1 DIV PUSH20 0xFFFFFFFFFFFFFFFFFFFFFFFFFFFFFFFFFFFFFFFF AND PUSH20 0xFFFFFFFFFFFFFFFFFFFFFFFFFFFFFFFFFFFFFFFF AND SUB PUSH2 0x29F JUMPI PUSH2 0x299 PUSH2 0x61B JUMP JUMPDEST POP PUSH2 0x3C0 JUMP JUMPDEST DUP1 DUP1 PUSH1 0x1 ADD SWAP2 POP POP PUSH2 0x221 JUMP JUMPDEST POP PUSH1 0x1 PUSH0 PUSH1 0x2 DUP1 PUSH1 0x3 DUP2 LT PUSH2 0x2C4 JUMPI PUSH2 0x2C3 PUSH2 0xB94 JUMP JUMPDEST JUMPDEST ADD PUSH0 SWAP1 SLOAD SWAP1 PUSH2 0x100 EXP SWAP1 DIV PUSH20 0xFFFFFFFFFFFFFFFFFFFFFFFFFFFFFFFFFFFFFFFF AND PUSH20 0xFFFFFFFFFFFFFFFFFFFFFFFFFFFFFFFFFFFFFFFF AND PUSH20 0xFFFFFFFFFFFFFFFFFFFFFFFFFFFFFFFFFFFFFFFF AND DUP2 MSTORE PUSH1 0x20 ADD SWAP1 DUP2 MSTORE PUSH1 0x20 ADD PUSH0 KECCAK256 SLOAD PUSH1 0x1 PUSH0 DUP4 PUSH20 0xFFFFFFFFFFFFFFFFFFFFFFFFFFFFFFFFFFFFFFFF AND PUSH20 0xFFFFFFFFFFFFFFFFFFFFFFFFFFFFFFFFFFFFFFFF AND DUP2 MSTORE PUSH1 0x20 ADD SWAP1 DUP2 MSTORE PUSH1 0x20 ADD PUSH0 KECCAK256 SLOAD GT ISZERO PUSH2 0x3BF JUMPI DUP1 PUSH1 0x2 DUP1 PUSH1 0x3 DUP2 LT PUSH2 0x378 JUMPI PUSH2 0x377 PUSH2 0xB94 JUMP JUMPDEST JUMPDEST ADD PUSH0 PUSH2 0x100 EXP DUP2 SLOAD DUP2 PUSH20 0xFFFFFFFFFFFFFFFFFFFFFFFFFFFFFFFFFFFFFFFF MUL NOT AND SWAP1 DUP4 PUSH20 0xFFFFFFFFFFFFFFFFFFFFFFFFFFFFFFFFFFFFFFFF AND MUL OR SWAP1 SSTORE POP PUSH2 0x3BE PUSH2 0x61B JUMP JUMPDEST JUMPDEST JUMPDEST POP JUMP JUMPDEST PUSH0 DUP1 SLOAD SWAP1 PUSH2 0x100 EXP SWAP1 DIV PUSH20 0xFFFFFFFFFFFFFFFFFFFFFFFFFFFFFFFFFFFFFFFF AND PUSH20 0xFFFFFFFFFFFFFFFFFFFFFFFFFFFFFFFFFFFFFFFF AND CALLER PUSH20 0xFFFFFFFFFFFFFFFFFFFFFFFFFFFFFFFFFFFFFFFF AND EQ PUSH2 0x450 JUMPI PUSH1 0x40 MLOAD PUSH32 0x8C379A000000000000000000000000000000000000000000000000000000000 DUP2 MSTORE PUSH1 0x4 ADD PUSH2 0x447 SWAP1 PUSH2 0xC0B JUMP JUMPDEST PUSH1 0x40 MLOAD DUP1 SWAP2 SUB SWAP1 REVERT JUMPDEST SELFBALANCE DUP2 GT ISZERO PUSH2 0x493 JUMPI PUSH1 0x40 MLOAD PUSH32 0x8C379A000000000000000000000000000000000000000000000000000000000 DUP2 MSTORE PUSH1 0x4 ADD PUSH2 0x48A SWAP1 PUSH2 0xC73 JUMP JUMPDEST PUSH1 0x40 MLOAD DUP1 SWAP2 SUB SWAP1 REVERT JUMPDEST PUSH0 DUP1 SLOAD SWAP1 PUSH2 0x100 EXP SWAP1 DIV PUSH20 0xFFFFFFFFFFFFFFFFFFFFFFFFFFFFFFFFFFFFFFFF AND PUSH20 0xFFFFFFFFFFFFFFFFFFFFFFFFFFFFFFFFFFFFFFFF AND PUSH2 0x8FC DUP3 SWAP1 DUP2 ISZERO MUL SWAP1 PUSH1 0x40 MLOAD PUSH0 PUSH1 0x40 MLOAD DUP1 DUP4 SUB DUP2 DUP6 DUP9 DUP9 CALL SWAP4 POP POP POP POP ISZERO DUP1 ISZERO PUSH2 0x4F5 JUMPI RETURNDATASIZE PUSH0 DUP1 RETURNDATACOPY RETURNDATASIZE PUSH0 REVERT JUMPDEST POP POP JUMP JUMPDEST PUSH1 0x2 DUP2 PUSH1 0x3 DUP2 LT PUSH2 0x508 JUMPI PUSH0 DUP1 REVERT JUMPDEST ADD PUSH0 SWAP2 POP SLOAD SWAP1 PUSH2 0x100 EXP SWAP1 DIV PUSH20 0xFFFFFFFFFFFFFFFFFFFFFFFFFFFFFFFFFFFFFFFF AND DUP2 JUMP JUMPDEST PUSH0 SELFBALANCE SWAP1 POP SWAP1 JUMP JUMPDEST PUSH2 0x53C PUSH2 0x87F JUMP JUMPDEST PUSH2 0x544 PUSH2 0x87F JUMP JUMPDEST PUSH0 JUMPDEST PUSH1 0x3 DUP2 LT ISZERO PUSH2 0x5DB JUMPI PUSH1 0x2 DUP2 PUSH1 0x3 DUP2 LT PUSH2 0x563 JUMPI PUSH2 0x562 PUSH2 0xB94 JUMP JUMPDEST JUMPDEST ADD PUSH0 SWAP1 SLOAD SWAP1 PUSH2 0x100 EXP SWAP1 DIV PUSH20 0xFFFFFFFFFFFFFFFFFFFFFFFFFFFFFFFFFFFFFFFF AND DUP3 DUP3 PUSH1 0x3 DUP2 LT PUSH2 0x597 JUMPI PUSH2 0x596 PUSH2 0xB94 JUMP JUMPDEST JUMPDEST PUSH1 0x20 MUL ADD SWAP1 PUSH20 0xFFFFFFFFFFFFFFFFFFFFFFFFFFFFFFFFFFFFFFFF AND SWAP1 DUP2 PUSH20 0xFFFFFFFFFFFFFFFFFFFFFFFFFFFFFFFFFFFFFFFF AND DUP2 MSTORE POP POP DUP1 DUP1 PUSH1 0x1 ADD SWAP2 POP POP PUSH2 0x546 JUMP JUMPDEST POP DUP1 SWAP2 POP POP SWAP1 JUMP JUMPDEST PUSH0 DUP1 SLOAD SWAP1 PUSH2 0x100 EXP SWAP1 DIV PUSH20 0xFFFFFFFFFFFFFFFFFFFFFFFFFFFFFFFFFFFFFFFF AND DUP2 JUMP JUMPDEST PUSH1 0x1 PUSH1 0x20 MSTORE DUP1 PUSH0 MSTORE PUSH1 0x40 PUSH0 KECCAK256 PUSH0 SWAP2 POP SWAP1 POP SLOAD DUP2 JUMP JUMPDEST PUSH0 PUSH1 0x1 SWAP1 POP JUMPDEST PUSH1 0x3 DUP2 LT ISZERO PUSH2 0x87C JUMPI PUSH0 DUP2 SWAP1 POP JUMPDEST PUSH0 DUP2 GT DUP1 ISZERO PUSH2 0x72B JUMPI POP PUSH1 0x1 PUSH0 PUSH1 0x2 PUSH1 0x1 DUP5 PUSH2 0x64B SWAP2 SWAP1 PUSH2 0xC91 JUMP JUMPDEST PUSH1 0x3 DUP2 LT PUSH2 0x65C JUMPI PUSH2 0x65B PUSH2 0xB94 JUMP JUMPDEST JUMPDEST ADD PUSH0 SWAP1 SLOAD SWAP1 PUSH2 0x100 EXP SWAP1 DIV PUSH20 0xFFFFFFFFFFFFFFFFFFFFFFFFFFFFFFFFFFFFFFFF AND PUSH20 0xFFFFFFFFFFFFFFFFFFFFFFFFFFFFFFFFFFFFFFFF AND PUSH20 0xFFFFFFFFFFFFFFFFFFFFFFFFFFFFFFFFFFFFFFFF AND DUP2 MSTORE PUSH1 0x20 ADD SWAP1 DUP2 MSTORE PUSH1 0x20 ADD PUSH0 KECCAK256 SLOAD PUSH1 0x1 PUSH0 PUSH1 0x2 DUP5 PUSH1 0x3 DUP2 LT PUSH2 0x6CE JUMPI PUSH2 0x6CD PUSH2 0xB94 JUMP JUMPDEST JUMPDEST ADD PUSH0 SWAP1 SLOAD SWAP1 PUSH2 0x100 EXP SWAP1 DIV PUSH20 0xFFFFFFFFFFFFFFFFFFFFFFFFFFFFFFFFFFFFFFFF AND PUSH20 0xFFFFFFFFFFFFFFFFFFFFFFFFFFFFFFFFFFFFFFFF AND PUSH20 0xFFFFFFFFFFFFFFFFFFFFFFFFFFFFFFFFFFFFFFFF AND DUP2 MSTORE PUSH1 0x20 ADD SWAP1 DUP2 MSTORE PUSH1 0x20 ADD PUSH0 KECCAK256 SLOAD GT JUMPDEST ISZERO PUSH2 0x86E JUMPI PUSH0 PUSH1 0x2 DUP3 PUSH1 0x3 DUP2 LT PUSH2 0x745 JUMPI PUSH2 0x744 PUSH2 0xB94 JUMP JUMPDEST JUMPDEST ADD PUSH0 SWAP1 SLOAD SWAP1 PUSH2 0x100 EXP SWAP1 DIV PUSH20 0xFFFFFFFFFFFFFFFFFFFFFFFFFFFFFFFFFFFFFFFF AND SWAP1 POP PUSH1 0x2 PUSH1 0x1 DUP4 PUSH2 0x777 SWAP2 SWAP1 PUSH2 0xC91 JUMP JUMPDEST PUSH1 0x3 DUP2 LT PUSH2 0x788 JUMPI PUSH2 0x787 PUSH2 0xB94 JUMP JUMPDEST JUMPDEST ADD PUSH0 SWAP1 SLOAD SWAP1 PUSH2 0x100 EXP SWAP1 DIV PUSH20 0xFFFFFFFFFFFFFFFFFFFFFFFFFFFFFFFFFFFFFFFF AND PUSH1 0x2 DUP4 PUSH1 0x3 DUP2 LT PUSH2 0x7BD JUMPI PUSH2 0x7BC PUSH2 0xB94 JUMP JUMPDEST JUMPDEST ADD PUSH0 PUSH2 0x100 EXP DUP2 SLOAD DUP2 PUSH20 0xFFFFFFFFFFFFFFFFFFFFFFFFFFFFFFFFFFFFFFFF MUL NOT AND SWAP1 DUP4 PUSH20 0xFFFFFFFFFFFFFFFFFFFFFFFFFFFFFFFFFFFFFFFF AND MUL OR SWAP1 SSTORE POP DUP1 PUSH1 0x2 PUSH1 0x1 DUP5 PUSH2 0x80B SWAP2 SWAP1 PUSH2 0xC91 JUMP JUMPDEST PUSH1 0x3 DUP2 LT PUSH2 0x81C JUMPI PUSH2 0x81B PUSH2 0xB94 JUMP JUMPDEST JUMPDEST ADD PUSH0 PUSH2 0x100 EXP DUP2 SLOAD DUP2 PUSH20 0xFFFFFFFFFFFFFFFFFFFFFFFFFFFFFFFFFFFFFFFF MUL NOT AND SWAP1 DUP4 PUSH20 0xFFFFFFFFFFFFFFFFFFFFFFFFFFFFFFFFFFFFFFFF AND MUL OR SWAP1 SSTORE POP POP DUP1 DUP1 PUSH2 0x866 SWAP1 PUSH2 0xCC4 JUMP JUMPDEST SWAP2 POP POP PUSH2 0x62F JUMP JUMPDEST POP DUP1 DUP1 PUSH1 0x1 ADD SWAP2 POP POP PUSH2 0x621 JUMP JUMPDEST POP JUMP JUMPDEST PUSH1 0x40 MLOAD DUP1 PUSH1 0x60 ADD PUSH1 0x40 MSTORE DUP1 PUSH1 0x3 SWAP1 PUSH1 0x20 DUP3 MUL DUP1 CALLDATASIZE DUP4 CALLDATACOPY DUP1 DUP3 ADD SWAP2 POP POP SWAP1 POP POP SWAP1 JUMP JUMPDEST PUSH0 DUP3 DUP3 MSTORE PUSH1 0x20 DUP3 ADD SWAP1 POP SWAP3 SWAP2 POP POP JUMP JUMPDEST PUSH32 0x4465706F73697420616D6F756E74206D75737420626520677265617465722074 PUSH0 DUP3 ADD MSTORE PUSH32 0x68616E2030000000000000000000000000000000000000000000000000000000 PUSH1 0x20 DUP3 ADD MSTORE POP JUMP JUMPDEST PUSH0 PUSH2 0x90B PUSH1 0x25 DUP4 PUSH2 0x8A1 JUMP JUMPDEST SWAP2 POP PUSH2 0x916 DUP3 PUSH2 0x8B1 JUMP JUMPDEST PUSH1 0x40 DUP3 ADD SWAP1 POP SWAP2 SWAP1 POP JUMP JUMPDEST PUSH0 PUSH1 0x20 DUP3 ADD SWAP1 POP DUP2 DUP2 SUB PUSH0 DUP4 ADD MSTORE PUSH2 0x938 DUP2 PUSH2 0x8FF JUMP JUMPDEST SWAP1 POP SWAP2 SWAP1 POP JUMP JUMPDEST PUSH0 DUP2 SWAP1 POP SWAP2 SWAP1 POP JUMP JUMPDEST PUSH32 0x4E487B7100000000000000000000000000000000000000000000000000000000 PUSH0 MSTORE PUSH1 0x11 PUSH1 0x4 MSTORE PUSH1 0x24 PUSH0 REVERT JUMPDEST PUSH0 PUSH2 0x97F DUP3 PUSH2 0x93F JUMP JUMPDEST SWAP2 POP PUSH2 0x98A DUP4 PUSH2 0x93F JUMP JUMPDEST SWAP3 POP DUP3 DUP3 ADD SWAP1 POP DUP1 DUP3 GT ISZERO PUSH2 0x9A2 JUMPI PUSH2 0x9A1 PUSH2 0x948 JUMP JUMPDEST JUMPDEST SWAP3 SWAP2 POP POP JUMP JUMPDEST PUSH0 DUP1 REVERT JUMPDEST PUSH2 0x9B5 DUP2 PUSH2 0x93F JUMP JUMPDEST DUP2 EQ PUSH2 0x9BF JUMPI PUSH0 DUP1 REVERT JUMPDEST POP JUMP JUMPDEST PUSH0 DUP2 CALLDATALOAD SWAP1 POP PUSH2 0x9D0 DUP2 PUSH2 0x9AC JUMP JUMPDEST SWAP3 SWAP2 POP POP JUMP JUMPDEST PUSH0 PUSH1 0x20 DUP3 DUP5 SUB SLT ISZERO PUSH2 0x9EB JUMPI PUSH2 0x9EA PUSH2 0x9A8 JUMP JUMPDEST JUMPDEST PUSH0 PUSH2 0x9F8 DUP5 DUP3 DUP6 ADD PUSH2 0x9C2 JUMP JUMPDEST SWAP2 POP POP SWAP3 SWAP2 POP POP JUMP JUMPDEST PUSH0 PUSH20 0xFFFFFFFFFFFFFFFFFFFFFFFFFFFFFFFFFFFFFFFF DUP3 AND SWAP1 POP SWAP2 SWAP1 POP JUMP JUMPDEST PUSH0 PUSH2 0xA2A DUP3 PUSH2 0xA01 JUMP JUMPDEST SWAP1 POP SWAP2 SWAP1 POP JUMP JUMPDEST PUSH2 0xA3A DUP2 PUSH2 0xA20 JUMP JUMPDEST DUP3 MSTORE POP POP JUMP JUMPDEST PUSH0 PUSH1 0x20 DUP3 ADD SWAP1 POP PUSH2 0xA53 PUSH0 DUP4 ADD DUP5 PUSH2 0xA31 JUMP JUMPDEST SWAP3 SWAP2 POP POP JUMP JUMPDEST PUSH2 0xA62 DUP2 PUSH2 0x93F JUMP JUMPDEST DUP3 MSTORE POP POP JUMP JUMPDEST PUSH0 PUSH1 0x20 DUP3 ADD SWAP1 POP PUSH2 0xA7B PUSH0 DUP4 ADD DUP5 PUSH2 0xA59 JUMP JUMPDEST SWAP3 SWAP2 POP POP JUMP JUMPDEST PUSH0 PUSH1 0x3 SWAP1 POP SWAP2 SWAP1 POP JUMP JUMPDEST PUSH0 DUP2 SWAP1 POP SWAP3 SWAP2 POP POP JUMP JUMPDEST PUSH0 DUP2 SWAP1 POP SWAP2 SWAP1 POP JUMP JUMPDEST PUSH2 0xAA7 DUP2 PUSH2 0xA20 JUMP JUMPDEST DUP3 MSTORE POP POP JUMP JUMPDEST PUSH0 PUSH2 0xAB8 DUP4 DUP4 PUSH2 0xA9E JUMP JUMPDEST PUSH1 0x20 DUP4 ADD SWAP1 POP SWAP3 SWAP2 POP POP JUMP JUMPDEST PUSH0 PUSH1 0x20 DUP3 ADD SWAP1 POP SWAP2 SWAP1 POP JUMP JUMPDEST PUSH2 0xAD9 DUP2 PUSH2 0xA81 JUMP JUMPDEST PUSH2 0xAE3 DUP2 DUP5 PUSH2 0xA8B JUMP JUMPDEST SWAP3 POP PUSH2 0xAEE DUP3 PUSH2 0xA95 JUMP JUMPDEST DUP1 PUSH0 JUMPDEST DUP4 DUP2 LT ISZERO PUSH2 0xB1E JUMPI DUP2 MLOAD PUSH2 0xB05 DUP8 DUP3 PUSH2 0xAAD JUMP JUMPDEST SWAP7 POP PUSH2 0xB10 DUP4 PUSH2 0xAC4 JUMP JUMPDEST SWAP3 POP POP PUSH1 0x1 DUP2 ADD SWAP1 POP PUSH2 0xAF1 JUMP JUMPDEST POP POP POP POP POP POP JUMP JUMPDEST PUSH0 PUSH1 0x60 DUP3 ADD SWAP1 POP PUSH2 0xB39 PUSH0 DUP4 ADD DUP5 PUSH2 0xAD0 JUMP JUMPDEST SWAP3 SWAP2 POP POP JUMP JUMPDEST PUSH2 0xB48 DUP2 PUSH2 0xA20 JUMP JUMPDEST DUP2 EQ PUSH2 0xB52 JUMPI PUSH0 DUP1 REVERT JUMPDEST POP JUMP JUMPDEST PUSH0 DUP2 CALLDATALOAD SWAP1 POP PUSH2 0xB63 DUP2 PUSH2 0xB3F JUMP JUMPDEST SWAP3 SWAP2 POP POP JUMP JUMPDEST PUSH0 PUSH1 0x20 DUP3 DUP5 SUB SLT ISZERO PUSH2 0xB7E JUMPI PUSH2 0xB7D PUSH2 0x9A8 JUMP JUMPDEST JUMPDEST PUSH0 PUSH2 0xB8B DUP5 DUP3 DUP6 ADD PUSH2 0xB55 JUMP JUMPDEST SWAP2 POP POP SWAP3 SWAP2 POP POP JUMP JUMPDEST PUSH32 0x4E487B7100000000000000000000000000000000000000000000000000000000 PUSH0 MSTORE PUSH1 0x32 PUSH1 0x4 MSTORE PUSH1 0x24 PUSH0 REVERT JUMPDEST PUSH32 0x4E6F742074686520636F6E7472616374206F776E657200000000000000000000 PUSH0 DUP3 ADD MSTORE POP JUMP JUMPDEST PUSH0 PUSH2 0xBF5 PUSH1 0x16 DUP4 PUSH2 0x8A1 JUMP JUMPDEST SWAP2 POP PUSH2 0xC00 DUP3 PUSH2 0xBC1 JUMP JUMPDEST PUSH1 0x20 DUP3 ADD SWAP1 POP SWAP2 SWAP1 POP JUMP JUMPDEST PUSH0 PUSH1 0x20 DUP3 ADD SWAP1 POP DUP2 DUP2 SUB PUSH0 DUP4 ADD MSTORE PUSH2 0xC22 DUP2 PUSH2 0xBE9 JUMP JUMPDEST SWAP1 POP SWAP2 SWAP1 POP JUMP JUMPDEST PUSH32 0x4E6F7420656E6F7567682062616C616E636520696E20636F6E74726163740000 PUSH0 DUP3 ADD MSTORE POP JUMP JUMPDEST PUSH0 PUSH2 0xC5D PUSH1 0x1E DUP4 PUSH2 0x8A1 JUMP JUMPDEST SWAP2 POP PUSH2 0xC68 DUP3 PUSH2 0xC29 JUMP JUMPDEST PUSH1 0x20 DUP3 ADD SWAP1 POP SWAP2 SWAP1 POP JUMP JUMPDEST PUSH0 PUSH1 0x20 DUP3 ADD SWAP1 POP DUP2 DUP2 SUB PUSH0 DUP4 ADD MSTORE PUSH2 0xC8A DUP2 PUSH2 0xC51 JUMP JUMPDEST SWAP1 POP SWAP2 SWAP1 POP JUMP JUMPDEST PUSH0 PUSH2 0xC9B DUP3 PUSH2 0x93F JUMP JUMPDEST SWAP2 POP PUSH2 0xCA6 DUP4 PUSH2 0x93F JUMP JUMPDEST SWAP3 POP DUP3 DUP3 SUB SWAP1 POP DUP2 DUP2 GT ISZERO PUSH2 0xCBE JUMPI PUSH2 0xCBD PUSH2 0x948 JUMP JUMPDEST JUMPDEST SWAP3 SWAP2 POP POP JUMP JUMPDEST PUSH0 PUSH2 0xCCE DUP3 PUSH2 0x93F JUMP JUMPDEST SWAP2 POP PUSH0 DUP3 SUB PUSH2 0xCE0 JUMPI PUSH2 0xCDF PUSH2 0x948 JUMP JUMPDEST JUMPDEST PUSH1 0x1 DUP3 SUB SWAP1 POP SWAP2 SWAP1 POP JUMP INVALID LOG2 PUSH5 0x6970667358 0x22 SLT KECCAK256 0x28 0x4F SSTORE BASEFEE GASPRICE SWAP9 RETURNDATACOPY 0xC5 0xC 0xAA CODECOPY SWAP4 0xD4 DUP5 DUP11 0xF NUMBER 0xD6 0xC4 PUSH8 0xCDA5CCC2CBBCA6FA 0x1E 0xB5 PUSH18 0xE864736F6C634300081A0033000000000000 "
				},
				"gasEstimates": {
					"creation": {
						"codeDepositCost": "672200",
						"executionCost": "24971",
						"totalCost": "697171"
					},
					"external": {
						"deposits(address)": "2890",
						"getContractBalance()": "356",
						"getTopDepositors()": "infinite",
						"owner()": "2571",
						"topDepositors(uint256)": "2795",
						"withdraw(uint256)": "infinite"
					},
					"internal": {
						"_rearrangeTopDepositors()": "infinite",
						"_updateTopDepositors(address)": "infinite"
					}
				},
				"methodIdentifiers": {
					"deposits(address)": "fc7e286d",
					"getContractBalance()": "6f9fb98a",
					"getTopDepositors()": "81454f71",
					"owner()": "8da5cb5b",
					"topDepositors(uint256)": "30861078",
					"withdraw(uint256)": "2e1a7d4d"
				}
			},
			"storageLayout": {
				"storage": [
					{
						"astId": 3,
						"contract": "Bank.sol:Bank",
						"label": "owner",
						"offset": 0,
						"slot": "0",
						"type": "t_address"
					},
					{
						"astId": 7,
						"contract": "Bank.sol:Bank",
						"label": "deposits",
						"offset": 0,
						"slot": "1",
						"type": "t_mapping(t_address,t_uint256)"
					},
					{
						"astId": 11,
						"contract": "Bank.sol:Bank",
						"label": "topDepositors",
						"offset": 0,
						"slot": "2",
						"type": "t_array(t_address)3_storage"
					}
				],
				"types": {
					"t_address": {
						"encoding": "inplace",
						"label": "address",
						"numberOfBytes": "20"
					},
					"t_array(t_address)3_storage": {
						"base": "t_address",
						"encoding": "inplace",
						"label": "address[3]",
						"numberOfBytes": "96"
					},
					"t_mapping(t_address,t_uint256)": {
						"encoding": "mapping",
						"key": "t_address",
						"label": "mapping(address => uint256)",
						"numberOfBytes": "32",
						"value": "t_uint256"
					},
					"t_uint256": {
						"encoding": "inplace",
						"label": "uint256",
						"numberOfBytes": "32"
					}
				}
			},
			"userdoc": {
				"kind": "user",
				"methods": {},
				"version": 1
			}
		}
	}
}