{
	"1012/BigBank.sol": {
		"BigBank": {
			"abi": [
				{
					"inputs": [
						{
							"internalType": "address",
							"name": "sender",
							"type": "address"
						},
						{
							"internalType": "uint256",
							"name": "value",
							"type": "uint256"
						}
					],
					"name": "ValueIsTooSmall",
					"type": "error"
				},
				{
					"inputs": [
						{
							"internalType": "address",
							"name": "",
							"type": "address"
						}
					],
					"name": "deposits",
					"outputs": [
						{
							"internalType": "uint256",
							"name": "",
							"type": "uint256"
						}
					],
					"stateMutability": "view",
					"type": "function"
				},
				{
					"inputs": [],
					"name": "getContractBalance",
					"outputs": [
						{
							"internalType": "uint256",
							"name": "",
							"type": "uint256"
						}
					],
					"stateMutability": "view",
					"type": "function"
				},
				{
					"inputs": [],
					"name": "getTopDepositors",
					"outputs": [
						{
							"internalType": "address[3]",
							"name": "",
							"type": "address[3]"
						}
					],
					"stateMutability": "view",
					"type": "function"
				},
				{
					"inputs": [],
					"name": "owner",
					"outputs": [
						{
							"internalType": "address",
							"name": "",
							"type": "address"
						}
					],
					"stateMutability": "view",
					"type": "function"
				},
				{
					"inputs": [
						{
							"internalType": "uint256",
							"name": "",
							"type": "uint256"
						}
					],
					"name": "topDepositors",
					"outputs": [
						{
							"internalType": "address",
							"name": "",
							"type": "address"
						}
					],
					"stateMutability": "view",
					"type": "function"
				},
				{
					"inputs": [
						{
							"internalType": "address",
							"name": "newOwner",
							"type": "address"
						}
					],
					"name": "transferOwner",
					"outputs": [],
					"stateMutability": "nonpayable",
					"type": "function"
				},
				{
					"inputs": [],
					"name": "withdraw",
					"outputs": [],
					"stateMutability": "nonpayable",
					"type": "function"
				},
				{
					"stateMutability": "payable",
					"type": "receive"
				}
			],
			"devdoc": {
				"kind": "dev",
				"methods": {},
				"version": 1
			},
			"evm": {
				"assembly": "    /* \"1012/BigBank.sol\":79:531  contract BigBank is Bank {... */\n  mstore(0x40, 0x80)\n  callvalue\n  dup1\n  iszero\n  tag_1\n  jumpi\n  0x00\n  dup1\n  revert\ntag_1:\n  pop\n    /* \"1012/Bank.sol\":256:266  msg.sender */\n  caller\n    /* \"1012/Bank.sol\":248:253  owner */\n  0x00\n  dup1\n    /* \"1012/Bank.sol\":248:266  owner = msg.sender */\n  0x0100\n  exp\n  dup2\n  sload\n  dup2\n  0xffffffffffffffffffffffffffffffffffffffff\n  mul\n  not\n  and\n  swap1\n  dup4\n  0xffffffffffffffffffffffffffffffffffffffff\n  and\n  mul\n  or\n  swap1\n  sstore\n  pop\n    /* \"1012/BigBank.sol\":79:531  contract BigBank is Bank {... */\n  dataSize(sub_0)\n  dup1\n  dataOffset(sub_0)\n  0x00\n  codecopy\n  0x00\n  return\nstop\n\nsub_0: assembly {\n        /* \"1012/BigBank.sol\":79:531  contract BigBank is Bank {... */\n      mstore(0x40, 0x80)\n      jumpi(tag_1, lt(calldatasize, 0x04))\n      shr(0xe0, calldataload(0x00))\n      dup1\n      0x6f9fb98a\n      gt\n      tag_10\n      jumpi\n      dup1\n      0x6f9fb98a\n      eq\n      tag_6\n      jumpi\n      dup1\n      0x81454f71\n      eq\n      tag_7\n      jumpi\n      dup1\n      0x8da5cb5b\n      eq\n      tag_8\n      jumpi\n      dup1\n      0xfc7e286d\n      eq\n      tag_9\n      jumpi\n      jump(tag_2)\n    tag_10:\n      dup1\n      0x30861078\n      eq\n      tag_3\n      jumpi\n      dup1\n      0x3ccfd60b\n      eq\n      tag_4\n      jumpi\n      dup1\n      0x4fb2e45d\n      eq\n      tag_5\n      jumpi\n      jump(tag_2)\n    tag_1:\n      jumpi(tag_2, calldatasize)\n        /* \"1012/BigBank.sol\":213:223  0.01 ether */\n      0x2386f26fc10000\n        /* \"1012/BigBank.sol\":203:212  msg.value */\n      callvalue\n        /* \"1012/BigBank.sol\":203:223  msg.value<0.01 ether */\n      lt\n        /* \"1012/BigBank.sol\":200:270  if(msg.value<0.01 ether) revert ValueIsTooSmall(msg.sender, msg.value) */\n      iszero\n      tag_13\n      jumpi\n        /* \"1012/BigBank.sol\":248:258  msg.sender */\n      caller\n        /* \"1012/BigBank.sol\":260:269  msg.value */\n      callvalue\n        /* \"1012/BigBank.sol\":232:270  ValueIsTooSmall(msg.sender, msg.value) */\n      mload(0x40)\n      0x6ff3115900000000000000000000000000000000000000000000000000000000\n      dup2\n      mstore\n      0x04\n      add\n      tag_14\n      swap3\n      swap2\n      swap1\n      tag_15\n      jump\t// in\n    tag_14:\n      mload(0x40)\n      dup1\n      swap2\n      sub\n      swap1\n      revert\n        /* \"1012/BigBank.sol\":200:270  if(msg.value<0.01 ether) revert ValueIsTooSmall(msg.sender, msg.value) */\n    tag_13:\n        /* \"1012/BigBank.sol\":373:382  msg.value */\n      callvalue\n        /* \"1012/BigBank.sol\":349:357  deposits */\n      0x01\n        /* \"1012/BigBank.sol\":349:369  deposits[msg.sender] */\n      0x00\n        /* \"1012/BigBank.sol\":358:368  msg.sender */\n      caller\n        /* \"1012/BigBank.sol\":349:369  deposits[msg.sender] */\n      0xffffffffffffffffffffffffffffffffffffffff\n      and\n      0xffffffffffffffffffffffffffffffffffffffff\n      and\n      dup2\n      mstore\n      0x20\n      add\n      swap1\n      dup2\n      mstore\n      0x20\n      add\n      0x00\n      keccak256\n      0x00\n        /* \"1012/BigBank.sol\":349:382  deposits[msg.sender] += msg.value */\n      dup3\n      dup3\n      sload\n      tag_17\n      swap2\n      swap1\n      tag_18\n      jump\t// in\n    tag_17:\n      swap3\n      pop\n      pop\n      dup2\n      swap1\n      sstore\n      pop\n        /* \"1012/BigBank.sol\":392:424  _updateTopDepositors(msg.sender) */\n      tag_19\n        /* \"1012/BigBank.sol\":413:423  msg.sender */\n      caller\n        /* \"1012/BigBank.sol\":392:412  _updateTopDepositors */\n      tag_20\n        /* \"1012/BigBank.sol\":392:424  _updateTopDepositors(msg.sender) */\n      jump\t// in\n    tag_19:\n        /* \"1012/BigBank.sol\":79:531  contract BigBank is Bank {... */\n      stop\n    tag_2:\n      0x00\n      dup1\n      revert\n        /* \"1012/Bank.sol\":185:216  address[3] public topDepositors */\n    tag_3:\n      callvalue\n      dup1\n      iszero\n      tag_21\n      jumpi\n      0x00\n      dup1\n      revert\n    tag_21:\n      pop\n      tag_22\n      0x04\n      dup1\n      calldatasize\n      sub\n      dup2\n      add\n      swap1\n      tag_23\n      swap2\n      swap1\n      tag_24\n      jump\t// in\n    tag_23:\n      tag_25\n      jump\t// in\n    tag_22:\n      mload(0x40)\n      tag_26\n      swap2\n      swap1\n      tag_27\n      jump\t// in\n    tag_26:\n      mload(0x40)\n      dup1\n      swap2\n      sub\n      swap1\n      return\n        /* \"1012/Bank.sol\":563:664  function withdraw() external onlyOwner{... */\n    tag_4:\n      callvalue\n      dup1\n      iszero\n      tag_28\n      jumpi\n      0x00\n      dup1\n      revert\n    tag_28:\n      pop\n      tag_29\n      tag_30\n      jump\t// in\n    tag_29:\n      stop\n        /* \"1012/BigBank.sol\":437:529  function transferOwner(address newOwner) external onlyOwner{... */\n    tag_5:\n      callvalue\n      dup1\n      iszero\n      tag_31\n      jumpi\n      0x00\n      dup1\n      revert\n    tag_31:\n      pop\n      tag_32\n      0x04\n      dup1\n      calldatasize\n      sub\n      dup2\n      add\n      swap1\n      tag_33\n      swap2\n      swap1\n      tag_34\n      jump\t// in\n    tag_33:\n      tag_35\n      jump\t// in\n    tag_32:\n      stop\n        /* \"1012/Bank.sol\":1891:1998  function getContractBalance() external view returns (uint256) {... */\n    tag_6:\n      callvalue\n      dup1\n      iszero\n      tag_36\n      jumpi\n      0x00\n      dup1\n      revert\n    tag_36:\n      pop\n      tag_37\n      tag_38\n      jump\t// in\n    tag_37:\n      mload(0x40)\n      tag_39\n      swap2\n      swap1\n      tag_40\n      jump\t// in\n    tag_39:\n      mload(0x40)\n      dup1\n      swap2\n      sub\n      swap1\n      return\n        /* \"1012/Bank.sol\":1620:1884  function getTopDepositors() external view returns (address[3] memory) {... */\n    tag_7:\n      callvalue\n      dup1\n      iszero\n      tag_41\n      jumpi\n      0x00\n      dup1\n      revert\n    tag_41:\n      pop\n      tag_42\n      tag_43\n      jump\t// in\n    tag_42:\n      mload(0x40)\n      tag_44\n      swap2\n      swap1\n      tag_45\n      jump\t// in\n    tag_44:\n      mload(0x40)\n      dup1\n      swap2\n      sub\n      swap1\n      return\n        /* \"1012/Bank.sol\":109:129  address public owner */\n    tag_8:\n      callvalue\n      dup1\n      iszero\n      tag_46\n      jumpi\n      0x00\n      dup1\n      revert\n    tag_46:\n      pop\n      tag_47\n      tag_48\n      jump\t// in\n    tag_47:\n      mload(0x40)\n      tag_49\n      swap2\n      swap1\n      tag_27\n      jump\t// in\n    tag_49:\n      mload(0x40)\n      dup1\n      swap2\n      sub\n      swap1\n      return\n        /* \"1012/Bank.sol\":135:179  mapping (address => uint256) public deposits */\n    tag_9:\n      callvalue\n      dup1\n      iszero\n      tag_50\n      jumpi\n      0x00\n      dup1\n      revert\n    tag_50:\n      pop\n      tag_51\n      0x04\n      dup1\n      calldatasize\n      sub\n      dup2\n      add\n      swap1\n      tag_52\n      swap2\n      swap1\n      tag_34\n      jump\t// in\n    tag_52:\n      tag_53\n      jump\t// in\n    tag_51:\n      mload(0x40)\n      tag_54\n      swap2\n      swap1\n      tag_40\n      jump\t// in\n    tag_54:\n      mload(0x40)\n      dup1\n      swap2\n      sub\n      swap1\n      return\n        /* \"1012/Bank.sol\":862:1246  function _updateTopDepositors (address user) internal {... */\n    tag_20:\n        /* \"1012/Bank.sol\":931:940  uint256 i */\n      0x00\n        /* \"1012/Bank.sol\":926:1094  for (uint256 i = 0; i < 3; i++) {... */\n    tag_56:\n        /* \"1012/Bank.sol\":950:951  3 */\n      0x03\n        /* \"1012/Bank.sol\":946:947  i */\n      dup2\n        /* \"1012/Bank.sol\":946:951  i < 3 */\n      lt\n        /* \"1012/Bank.sol\":926:1094  for (uint256 i = 0; i < 3; i++) {... */\n      iszero\n      tag_57\n      jumpi\n        /* \"1012/Bank.sol\":996:1000  user */\n      dup2\n        /* \"1012/Bank.sol\":976:1000  topDepositors[i] == user */\n      0xffffffffffffffffffffffffffffffffffffffff\n      and\n        /* \"1012/Bank.sol\":976:989  topDepositors */\n      0x02\n        /* \"1012/Bank.sol\":990:991  i */\n      dup3\n        /* \"1012/Bank.sol\":976:992  topDepositors[i] */\n      0x03\n      dup2\n      lt\n      tag_59\n      jumpi\n      tag_60\n      tag_61\n      jump\t// in\n    tag_60:\n    tag_59:\n      add\n      0x00\n      swap1\n      sload\n      swap1\n      0x0100\n      exp\n      swap1\n      div\n      0xffffffffffffffffffffffffffffffffffffffff\n      and\n        /* \"1012/Bank.sol\":976:1000  topDepositors[i] == user */\n      0xffffffffffffffffffffffffffffffffffffffff\n      and\n      sub\n        /* \"1012/Bank.sol\":972:1084  if (topDepositors[i] == user) {... */\n      tag_63\n      jumpi\n        /* \"1012/Bank.sol\":1020:1045  _rearrangeTopDepositors() */\n      tag_64\n        /* \"1012/Bank.sol\":1020:1043  _rearrangeTopDepositors */\n      tag_65\n        /* \"1012/Bank.sol\":1020:1045  _rearrangeTopDepositors() */\n      jump\t// in\n    tag_64:\n        /* \"1012/Bank.sol\":1063:1070  return; */\n      pop\n      jump(tag_55)\n        /* \"1012/Bank.sol\":972:1084  if (topDepositors[i] == user) {... */\n    tag_63:\n        /* \"1012/Bank.sol\":953:956  i++ */\n      dup1\n      dup1\n      0x01\n      add\n      swap2\n      pop\n      pop\n        /* \"1012/Bank.sol\":926:1094  for (uint256 i = 0; i < 3; i++) {... */\n      jump(tag_56)\n    tag_57:\n      pop\n        /* \"1012/Bank.sol\":1125:1133  deposits */\n      0x01\n        /* \"1012/Bank.sol\":1125:1151  deposits[topDepositors[2]] */\n      0x00\n        /* \"1012/Bank.sol\":1134:1147  topDepositors */\n      0x02\n        /* \"1012/Bank.sol\":1148:1149  2 */\n      dup1\n        /* \"1012/Bank.sol\":1134:1150  topDepositors[2] */\n      0x03\n      dup2\n      lt\n      tag_66\n      jumpi\n      tag_67\n      tag_61\n      jump\t// in\n    tag_67:\n    tag_66:\n      add\n      0x00\n      swap1\n      sload\n      swap1\n      0x0100\n      exp\n      swap1\n      div\n      0xffffffffffffffffffffffffffffffffffffffff\n      and\n        /* \"1012/Bank.sol\":1125:1151  deposits[topDepositors[2]] */\n      0xffffffffffffffffffffffffffffffffffffffff\n      and\n      0xffffffffffffffffffffffffffffffffffffffff\n      and\n      dup2\n      mstore\n      0x20\n      add\n      swap1\n      dup2\n      mstore\n      0x20\n      add\n      0x00\n      keccak256\n      sload\n        /* \"1012/Bank.sol\":1108:1116  deposits */\n      0x01\n        /* \"1012/Bank.sol\":1108:1122  deposits[user] */\n      0x00\n        /* \"1012/Bank.sol\":1117:1121  user */\n      dup4\n        /* \"1012/Bank.sol\":1108:1122  deposits[user] */\n      0xffffffffffffffffffffffffffffffffffffffff\n      and\n      0xffffffffffffffffffffffffffffffffffffffff\n      and\n      dup2\n      mstore\n      0x20\n      add\n      swap1\n      dup2\n      mstore\n      0x20\n      add\n      0x00\n      keccak256\n      sload\n        /* \"1012/Bank.sol\":1108:1151  deposits[user] > deposits[topDepositors[2]] */\n      gt\n        /* \"1012/Bank.sol\":1104:1240  if (deposits[user] > deposits[topDepositors[2]]) {... */\n      iszero\n      tag_69\n      jumpi\n        /* \"1012/Bank.sol\":1186:1190  user */\n      dup1\n        /* \"1012/Bank.sol\":1167:1180  topDepositors */\n      0x02\n        /* \"1012/Bank.sol\":1181:1182  2 */\n      dup1\n        /* \"1012/Bank.sol\":1167:1183  topDepositors[2] */\n      0x03\n      dup2\n      lt\n      tag_70\n      jumpi\n      tag_71\n      tag_61\n      jump\t// in\n    tag_71:\n    tag_70:\n      add\n      0x00\n        /* \"1012/Bank.sol\":1167:1190  topDepositors[2] = user */\n      0x0100\n      exp\n      dup2\n      sload\n      dup2\n      0xffffffffffffffffffffffffffffffffffffffff\n      mul\n      not\n      and\n      swap1\n      dup4\n      0xffffffffffffffffffffffffffffffffffffffff\n      and\n      mul\n      or\n      swap1\n      sstore\n      pop\n        /* \"1012/Bank.sol\":1204:1229  _rearrangeTopDepositors() */\n      tag_73\n        /* \"1012/Bank.sol\":1204:1227  _rearrangeTopDepositors */\n      tag_65\n        /* \"1012/Bank.sol\":1204:1229  _rearrangeTopDepositors() */\n      jump\t// in\n    tag_73:\n        /* \"1012/Bank.sol\":1104:1240  if (deposits[user] > deposits[topDepositors[2]]) {... */\n    tag_69:\n        /* \"1012/Bank.sol\":862:1246  function _updateTopDepositors (address user) internal {... */\n    tag_55:\n      pop\n      jump\t// out\n        /* \"1012/Bank.sol\":185:216  address[3] public topDepositors */\n    tag_25:\n      0x02\n      dup2\n      0x03\n      dup2\n      lt\n      tag_74\n      jumpi\n      0x00\n      dup1\n      revert\n    tag_74:\n      add\n      0x00\n      swap2\n      pop\n      sload\n      swap1\n      0x0100\n      exp\n      swap1\n      div\n      0xffffffffffffffffffffffffffffffffffffffff\n      and\n      dup2\n      jump\t// out\n        /* \"1012/Bank.sol\":563:664  function withdraw() external onlyOwner{... */\n    tag_30:\n        /* \"1012/Bank.sol\":723:728  owner */\n      0x00\n      dup1\n      sload\n      swap1\n      0x0100\n      exp\n      swap1\n      div\n      0xffffffffffffffffffffffffffffffffffffffff\n      and\n        /* \"1012/Bank.sol\":709:728  msg.sender == owner */\n      0xffffffffffffffffffffffffffffffffffffffff\n      and\n        /* \"1012/Bank.sol\":709:719  msg.sender */\n      caller\n        /* \"1012/Bank.sol\":709:728  msg.sender == owner */\n      0xffffffffffffffffffffffffffffffffffffffff\n      and\n      eq\n        /* \"1012/Bank.sol\":701:755  require(msg.sender == owner, \"Not the contract owner\") */\n      tag_77\n      jumpi\n      mload(0x40)\n      0x08c379a000000000000000000000000000000000000000000000000000000000\n      dup2\n      mstore\n      0x04\n      add\n      tag_78\n      swap1\n      tag_79\n      jump\t// in\n    tag_78:\n      mload(0x40)\n      dup1\n      swap2\n      sub\n      swap1\n      revert\n    tag_77:\n        /* \"1012/Bank.sol\":619:624  owner */\n      0x00\n      dup1\n      sload\n      swap1\n      0x0100\n      exp\n      swap1\n      div\n      0xffffffffffffffffffffffffffffffffffffffff\n      and\n        /* \"1012/Bank.sol\":611:634  payable(owner).transfer */\n      0xffffffffffffffffffffffffffffffffffffffff\n      and\n        /* \"1012/Bank.sol\":611:657  payable(owner).transfer(address(this).balance) */\n      0x08fc\n        /* \"1012/Bank.sol\":635:656  address(this).balance */\n      selfbalance\n        /* \"1012/Bank.sol\":611:657  payable(owner).transfer(address(this).balance) */\n      swap1\n      dup2\n      iszero\n      mul\n      swap1\n      mload(0x40)\n      0x00\n      mload(0x40)\n      dup1\n      dup4\n      sub\n      dup2\n      dup6\n      dup9\n      dup9\n      call\n      swap4\n      pop\n      pop\n      pop\n      pop\n      iszero\n      dup1\n      iszero\n      tag_82\n      jumpi\n      returndatasize\n      0x00\n      dup1\n      returndatacopy\n      revert(0x00, returndatasize)\n    tag_82:\n      pop\n        /* \"1012/Bank.sol\":563:664  function withdraw() external onlyOwner{... */\n      jump\t// out\n        /* \"1012/BigBank.sol\":437:529  function transferOwner(address newOwner) external onlyOwner{... */\n    tag_35:\n        /* \"1012/Bank.sol\":723:728  owner */\n      0x00\n      dup1\n      sload\n      swap1\n      0x0100\n      exp\n      swap1\n      div\n      0xffffffffffffffffffffffffffffffffffffffff\n      and\n        /* \"1012/Bank.sol\":709:728  msg.sender == owner */\n      0xffffffffffffffffffffffffffffffffffffffff\n      and\n        /* \"1012/Bank.sol\":709:719  msg.sender */\n      caller\n        /* \"1012/Bank.sol\":709:728  msg.sender == owner */\n      0xffffffffffffffffffffffffffffffffffffffff\n      and\n      eq\n        /* \"1012/Bank.sol\":701:755  require(msg.sender == owner, \"Not the contract owner\") */\n      tag_84\n      jumpi\n      mload(0x40)\n      0x08c379a000000000000000000000000000000000000000000000000000000000\n      dup2\n      mstore\n      0x04\n      add\n      tag_85\n      swap1\n      tag_79\n      jump\t// in\n    tag_85:\n      mload(0x40)\n      dup1\n      swap2\n      sub\n      swap1\n      revert\n    tag_84:\n        /* \"1012/BigBank.sol\":514:522  newOwner */\n      dup1\n        /* \"1012/BigBank.sol\":506:511  owner */\n      0x00\n      dup1\n        /* \"1012/BigBank.sol\":506:522  owner = newOwner */\n      0x0100\n      exp\n      dup2\n      sload\n      dup2\n      0xffffffffffffffffffffffffffffffffffffffff\n      mul\n      not\n      and\n      swap1\n      dup4\n      0xffffffffffffffffffffffffffffffffffffffff\n      and\n      mul\n      or\n      swap1\n      sstore\n      pop\n        /* \"1012/BigBank.sol\":437:529  function transferOwner(address newOwner) external onlyOwner{... */\n      pop\n      jump\t// out\n        /* \"1012/Bank.sol\":1891:1998  function getContractBalance() external view returns (uint256) {... */\n    tag_38:\n        /* \"1012/Bank.sol\":1944:1951  uint256 */\n      0x00\n        /* \"1012/Bank.sol\":1970:1991  address(this).balance */\n      selfbalance\n        /* \"1012/Bank.sol\":1963:1991  return address(this).balance */\n      swap1\n      pop\n        /* \"1012/Bank.sol\":1891:1998  function getContractBalance() external view returns (uint256) {... */\n      swap1\n      jump\t// out\n        /* \"1012/Bank.sol\":1620:1884  function getTopDepositors() external view returns (address[3] memory) {... */\n    tag_43:\n        /* \"1012/Bank.sol\":1671:1688  address[3] memory */\n      tag_88\n      tag_89\n      jump\t// in\n    tag_88:\n        /* \"1012/Bank.sol\":1700:1737  address[3] memory topDepositorsMemory */\n      tag_91\n      tag_89\n      jump\t// in\n    tag_91:\n        /* \"1012/Bank.sol\":1752:1758  uint i */\n      0x00\n        /* \"1012/Bank.sol\":1747:1842  for (uint i = 0; i < 3; i++) {... */\n    tag_92:\n        /* \"1012/Bank.sol\":1768:1769  3 */\n      0x03\n        /* \"1012/Bank.sol\":1764:1765  i */\n      dup2\n        /* \"1012/Bank.sol\":1764:1769  i < 3 */\n      lt\n        /* \"1012/Bank.sol\":1747:1842  for (uint i = 0; i < 3; i++) {... */\n      iszero\n      tag_93\n      jumpi\n        /* \"1012/Bank.sol\":1815:1828  topDepositors */\n      0x02\n        /* \"1012/Bank.sol\":1829:1830  i */\n      dup2\n        /* \"1012/Bank.sol\":1815:1831  topDepositors[i] */\n      0x03\n      dup2\n      lt\n      tag_95\n      jumpi\n      tag_96\n      tag_61\n      jump\t// in\n    tag_96:\n    tag_95:\n      add\n      0x00\n      swap1\n      sload\n      swap1\n      0x0100\n      exp\n      swap1\n      div\n      0xffffffffffffffffffffffffffffffffffffffff\n      and\n        /* \"1012/Bank.sol\":1790:1809  topDepositorsMemory */\n      dup3\n        /* \"1012/Bank.sol\":1810:1811  i */\n      dup3\n        /* \"1012/Bank.sol\":1790:1812  topDepositorsMemory[i] */\n      0x03\n      dup2\n      lt\n      tag_98\n      jumpi\n      tag_99\n      tag_61\n      jump\t// in\n    tag_99:\n    tag_98:\n      0x20\n      mul\n      add\n        /* \"1012/Bank.sol\":1790:1831  topDepositorsMemory[i] = topDepositors[i] */\n      swap1\n      0xffffffffffffffffffffffffffffffffffffffff\n      and\n      swap1\n      dup2\n      0xffffffffffffffffffffffffffffffffffffffff\n      and\n      dup2\n      mstore\n      pop\n      pop\n        /* \"1012/Bank.sol\":1771:1774  i++ */\n      dup1\n      dup1\n      0x01\n      add\n      swap2\n      pop\n      pop\n        /* \"1012/Bank.sol\":1747:1842  for (uint i = 0; i < 3; i++) {... */\n      jump(tag_92)\n    tag_93:\n      pop\n        /* \"1012/Bank.sol\":1858:1877  topDepositorsMemory */\n      dup1\n        /* \"1012/Bank.sol\":1851:1877  return topDepositorsMemory */\n      swap2\n      pop\n      pop\n        /* \"1012/Bank.sol\":1620:1884  function getTopDepositors() external view returns (address[3] memory) {... */\n      swap1\n      jump\t// out\n        /* \"1012/Bank.sol\":109:129  address public owner */\n    tag_48:\n      0x00\n      dup1\n      sload\n      swap1\n      0x0100\n      exp\n      swap1\n      div\n      0xffffffffffffffffffffffffffffffffffffffff\n      and\n      dup2\n      jump\t// out\n        /* \"1012/Bank.sol\":135:179  mapping (address => uint256) public deposits */\n    tag_53:\n      mstore(0x20, 0x01)\n      dup1\n      0x00\n      mstore\n      keccak256(0x00, 0x40)\n      0x00\n      swap2\n      pop\n      swap1\n      pop\n      sload\n      dup2\n      jump\t// out\n        /* \"1012/Bank.sol\":1252:1614  function _rearrangeTopDepositors() internal {... */\n    tag_65:\n        /* \"1012/Bank.sol\":1311:1320  uint256 i */\n      0x00\n        /* \"1012/Bank.sol\":1321:1322  1 */\n      0x01\n        /* \"1012/Bank.sol\":1311:1322  uint256 i=1 */\n      swap1\n      pop\n        /* \"1012/Bank.sol\":1306:1608  for (uint256 i=1; i<3; i++) {... */\n    tag_101:\n        /* \"1012/Bank.sol\":1326:1327  3 */\n      0x03\n        /* \"1012/Bank.sol\":1324:1325  i */\n      dup2\n        /* \"1012/Bank.sol\":1324:1327  i<3 */\n      lt\n        /* \"1012/Bank.sol\":1306:1608  for (uint256 i=1; i<3; i++) {... */\n      iszero\n      tag_102\n      jumpi\n        /* \"1012/Bank.sol\":1353:1362  uint256 j */\n      0x00\n        /* \"1012/Bank.sol\":1363:1364  i */\n      dup2\n        /* \"1012/Bank.sol\":1353:1364  uint256 j=i */\n      swap1\n      pop\n        /* \"1012/Bank.sol\":1348:1598  for (uint256 j=i; j>0 && deposits[topDepositors[j]]>deposits[topDepositors[j-1]]; j--) {... */\n    tag_104:\n        /* \"1012/Bank.sol\":1368:1369  0 */\n      0x00\n        /* \"1012/Bank.sol\":1366:1367  j */\n      dup2\n        /* \"1012/Bank.sol\":1366:1369  j>0 */\n      gt\n        /* \"1012/Bank.sol\":1366:1428  j>0 && deposits[topDepositors[j]]>deposits[topDepositors[j-1]] */\n      dup1\n      iszero\n      tag_107\n      jumpi\n      pop\n        /* \"1012/Bank.sol\":1400:1408  deposits */\n      0x01\n        /* \"1012/Bank.sol\":1400:1428  deposits[topDepositors[j-1]] */\n      0x00\n        /* \"1012/Bank.sol\":1409:1422  topDepositors */\n      0x02\n        /* \"1012/Bank.sol\":1425:1426  1 */\n      0x01\n        /* \"1012/Bank.sol\":1423:1424  j */\n      dup5\n        /* \"1012/Bank.sol\":1423:1426  j-1 */\n      tag_108\n      swap2\n      swap1\n      tag_109\n      jump\t// in\n    tag_108:\n        /* \"1012/Bank.sol\":1409:1427  topDepositors[j-1] */\n      0x03\n      dup2\n      lt\n      tag_110\n      jumpi\n      tag_111\n      tag_61\n      jump\t// in\n    tag_111:\n    tag_110:\n      add\n      0x00\n      swap1\n      sload\n      swap1\n      0x0100\n      exp\n      swap1\n      div\n      0xffffffffffffffffffffffffffffffffffffffff\n      and\n        /* \"1012/Bank.sol\":1400:1428  deposits[topDepositors[j-1]] */\n      0xffffffffffffffffffffffffffffffffffffffff\n      and\n      0xffffffffffffffffffffffffffffffffffffffff\n      and\n      dup2\n      mstore\n      0x20\n      add\n      swap1\n      dup2\n      mstore\n      0x20\n      add\n      0x00\n      keccak256\n      sload\n        /* \"1012/Bank.sol\":1373:1381  deposits */\n      0x01\n        /* \"1012/Bank.sol\":1373:1399  deposits[topDepositors[j]] */\n      0x00\n        /* \"1012/Bank.sol\":1382:1395  topDepositors */\n      0x02\n        /* \"1012/Bank.sol\":1396:1397  j */\n      dup5\n        /* \"1012/Bank.sol\":1382:1398  topDepositors[j] */\n      0x03\n      dup2\n      lt\n      tag_113\n      jumpi\n      tag_114\n      tag_61\n      jump\t// in\n    tag_114:\n    tag_113:\n      add\n      0x00\n      swap1\n      sload\n      swap1\n      0x0100\n      exp\n      swap1\n      div\n      0xffffffffffffffffffffffffffffffffffffffff\n      and\n        /* \"1012/Bank.sol\":1373:1399  deposits[topDepositors[j]] */\n      0xffffffffffffffffffffffffffffffffffffffff\n      and\n      0xffffffffffffffffffffffffffffffffffffffff\n      and\n      dup2\n      mstore\n      0x20\n      add\n      swap1\n      dup2\n      mstore\n      0x20\n      add\n      0x00\n      keccak256\n      sload\n        /* \"1012/Bank.sol\":1373:1428  deposits[topDepositors[j]]>deposits[topDepositors[j-1]] */\n      gt\n        /* \"1012/Bank.sol\":1366:1428  j>0 && deposits[topDepositors[j]]>deposits[topDepositors[j-1]] */\n    tag_107:\n        /* \"1012/Bank.sol\":1348:1598  for (uint256 j=i; j>0 && deposits[topDepositors[j]]>deposits[topDepositors[j-1]]; j--) {... */\n      iszero\n      tag_105\n      jumpi\n        /* \"1012/Bank.sol\":1453:1465  address temp */\n      0x00\n        /* \"1012/Bank.sol\":1468:1481  topDepositors */\n      0x02\n        /* \"1012/Bank.sol\":1482:1483  j */\n      dup3\n        /* \"1012/Bank.sol\":1468:1484  topDepositors[j] */\n      0x03\n      dup2\n      lt\n      tag_116\n      jumpi\n      tag_117\n      tag_61\n      jump\t// in\n    tag_117:\n    tag_116:\n      add\n      0x00\n      swap1\n      sload\n      swap1\n      0x0100\n      exp\n      swap1\n      div\n      0xffffffffffffffffffffffffffffffffffffffff\n      and\n        /* \"1012/Bank.sol\":1453:1484  address temp = topDepositors[j] */\n      swap1\n      pop\n        /* \"1012/Bank.sol\":1522:1535  topDepositors */\n      0x02\n        /* \"1012/Bank.sol\":1538:1539  1 */\n      0x01\n        /* \"1012/Bank.sol\":1536:1537  j */\n      dup4\n        /* \"1012/Bank.sol\":1536:1539  j-1 */\n      tag_119\n      swap2\n      swap1\n      tag_109\n      jump\t// in\n    tag_119:\n        /* \"1012/Bank.sol\":1522:1540  topDepositors[j-1] */\n      0x03\n      dup2\n      lt\n      tag_120\n      jumpi\n      tag_121\n      tag_61\n      jump\t// in\n    tag_121:\n    tag_120:\n      add\n      0x00\n      swap1\n      sload\n      swap1\n      0x0100\n      exp\n      swap1\n      div\n      0xffffffffffffffffffffffffffffffffffffffff\n      and\n        /* \"1012/Bank.sol\":1503:1516  topDepositors */\n      0x02\n        /* \"1012/Bank.sol\":1517:1518  j */\n      dup4\n        /* \"1012/Bank.sol\":1503:1519  topDepositors[j] */\n      0x03\n      dup2\n      lt\n      tag_123\n      jumpi\n      tag_124\n      tag_61\n      jump\t// in\n    tag_124:\n    tag_123:\n      add\n      0x00\n        /* \"1012/Bank.sol\":1503:1540  topDepositors[j] = topDepositors[j-1] */\n      0x0100\n      exp\n      dup2\n      sload\n      dup2\n      0xffffffffffffffffffffffffffffffffffffffff\n      mul\n      not\n      and\n      swap1\n      dup4\n      0xffffffffffffffffffffffffffffffffffffffff\n      and\n      mul\n      or\n      swap1\n      sstore\n      pop\n        /* \"1012/Bank.sol\":1579:1583  temp */\n      dup1\n        /* \"1012/Bank.sol\":1558:1571  topDepositors */\n      0x02\n        /* \"1012/Bank.sol\":1574:1575  1 */\n      0x01\n        /* \"1012/Bank.sol\":1572:1573  j */\n      dup5\n        /* \"1012/Bank.sol\":1572:1575  j-1 */\n      tag_126\n      swap2\n      swap1\n      tag_109\n      jump\t// in\n    tag_126:\n        /* \"1012/Bank.sol\":1558:1576  topDepositors[j-1] */\n      0x03\n      dup2\n      lt\n      tag_127\n      jumpi\n      tag_128\n      tag_61\n      jump\t// in\n    tag_128:\n    tag_127:\n      add\n      0x00\n        /* \"1012/Bank.sol\":1558:1583  topDepositors[j-1] = temp */\n      0x0100\n      exp\n      dup2\n      sload\n      dup2\n      0xffffffffffffffffffffffffffffffffffffffff\n      mul\n      not\n      and\n      swap1\n      dup4\n      0xffffffffffffffffffffffffffffffffffffffff\n      and\n      mul\n      or\n      swap1\n      sstore\n      pop\n        /* \"1012/Bank.sol\":1435:1598  {... */\n      pop\n        /* \"1012/Bank.sol\":1430:1433  j-- */\n      dup1\n      dup1\n      tag_130\n      swap1\n      tag_131\n      jump\t// in\n    tag_130:\n      swap2\n      pop\n      pop\n        /* \"1012/Bank.sol\":1348:1598  for (uint256 j=i; j>0 && deposits[topDepositors[j]]>deposits[topDepositors[j-1]]; j--) {... */\n      jump(tag_104)\n    tag_105:\n      pop\n        /* \"1012/Bank.sol\":1329:1332  i++ */\n      dup1\n      dup1\n      0x01\n      add\n      swap2\n      pop\n      pop\n        /* \"1012/Bank.sol\":1306:1608  for (uint256 i=1; i<3; i++) {... */\n      jump(tag_101)\n    tag_102:\n      pop\n        /* \"1012/Bank.sol\":1252:1614  function _rearrangeTopDepositors() internal {... */\n      jump\t// out\n    tag_89:\n      mload(0x40)\n      dup1\n      0x60\n      add\n      0x40\n      mstore\n      dup1\n      0x03\n      swap1\n      0x20\n      dup3\n      mul\n      dup1\n      calldatasize\n      dup4\n      calldatacopy\n      dup1\n      dup3\n      add\n      swap2\n      pop\n      pop\n      swap1\n      pop\n      pop\n      swap1\n      jump\t// out\n        /* \"#utility.yul\":7:133   */\n    tag_132:\n        /* \"#utility.yul\":44:51   */\n      0x00\n        /* \"#utility.yul\":84:126   */\n      0xffffffffffffffffffffffffffffffffffffffff\n        /* \"#utility.yul\":77:82   */\n      dup3\n        /* \"#utility.yul\":73:127   */\n      and\n        /* \"#utility.yul\":62:127   */\n      swap1\n      pop\n        /* \"#utility.yul\":7:133   */\n      swap2\n      swap1\n      pop\n      jump\t// out\n        /* \"#utility.yul\":139:235   */\n    tag_133:\n        /* \"#utility.yul\":176:183   */\n      0x00\n        /* \"#utility.yul\":205:229   */\n      tag_158\n        /* \"#utility.yul\":223:228   */\n      dup3\n        /* \"#utility.yul\":205:229   */\n      tag_132\n      jump\t// in\n    tag_158:\n        /* \"#utility.yul\":194:229   */\n      swap1\n      pop\n        /* \"#utility.yul\":139:235   */\n      swap2\n      swap1\n      pop\n      jump\t// out\n        /* \"#utility.yul\":241:359   */\n    tag_134:\n        /* \"#utility.yul\":328:352   */\n      tag_160\n        /* \"#utility.yul\":346:351   */\n      dup2\n        /* \"#utility.yul\":328:352   */\n      tag_133\n      jump\t// in\n    tag_160:\n        /* \"#utility.yul\":323:326   */\n      dup3\n        /* \"#utility.yul\":316:353   */\n      mstore\n        /* \"#utility.yul\":241:359   */\n      pop\n      pop\n      jump\t// out\n        /* \"#utility.yul\":365:442   */\n    tag_135:\n        /* \"#utility.yul\":402:409   */\n      0x00\n        /* \"#utility.yul\":431:436   */\n      dup2\n        /* \"#utility.yul\":420:436   */\n      swap1\n      pop\n        /* \"#utility.yul\":365:442   */\n      swap2\n      swap1\n      pop\n      jump\t// out\n        /* \"#utility.yul\":448:566   */\n    tag_136:\n        /* \"#utility.yul\":535:559   */\n      tag_163\n        /* \"#utility.yul\":553:558   */\n      dup2\n        /* \"#utility.yul\":535:559   */\n      tag_135\n      jump\t// in\n    tag_163:\n        /* \"#utility.yul\":530:533   */\n      dup3\n        /* \"#utility.yul\":523:560   */\n      mstore\n        /* \"#utility.yul\":448:566   */\n      pop\n      pop\n      jump\t// out\n        /* \"#utility.yul\":572:904   */\n    tag_15:\n        /* \"#utility.yul\":693:697   */\n      0x00\n        /* \"#utility.yul\":731:733   */\n      0x40\n        /* \"#utility.yul\":720:729   */\n      dup3\n        /* \"#utility.yul\":716:734   */\n      add\n        /* \"#utility.yul\":708:734   */\n      swap1\n      pop\n        /* \"#utility.yul\":744:815   */\n      tag_165\n        /* \"#utility.yul\":812:813   */\n      0x00\n        /* \"#utility.yul\":801:810   */\n      dup4\n        /* \"#utility.yul\":797:814   */\n      add\n        /* \"#utility.yul\":788:794   */\n      dup6\n        /* \"#utility.yul\":744:815   */\n      tag_134\n      jump\t// in\n    tag_165:\n        /* \"#utility.yul\":825:897   */\n      tag_166\n        /* \"#utility.yul\":893:895   */\n      0x20\n        /* \"#utility.yul\":882:891   */\n      dup4\n        /* \"#utility.yul\":878:896   */\n      add\n        /* \"#utility.yul\":869:875   */\n      dup5\n        /* \"#utility.yul\":825:897   */\n      tag_136\n      jump\t// in\n    tag_166:\n        /* \"#utility.yul\":572:904   */\n      swap4\n      swap3\n      pop\n      pop\n      pop\n      jump\t// out\n        /* \"#utility.yul\":910:1090   */\n    tag_137:\n        /* \"#utility.yul\":958:1035   */\n      0x4e487b7100000000000000000000000000000000000000000000000000000000\n        /* \"#utility.yul\":955:956   */\n      0x00\n        /* \"#utility.yul\":948:1036   */\n      mstore\n        /* \"#utility.yul\":1055:1059   */\n      0x11\n        /* \"#utility.yul\":1052:1053   */\n      0x04\n        /* \"#utility.yul\":1045:1060   */\n      mstore\n        /* \"#utility.yul\":1079:1083   */\n      0x24\n        /* \"#utility.yul\":1076:1077   */\n      0x00\n        /* \"#utility.yul\":1069:1084   */\n      revert\n        /* \"#utility.yul\":1096:1287   */\n    tag_18:\n        /* \"#utility.yul\":1136:1139   */\n      0x00\n        /* \"#utility.yul\":1155:1175   */\n      tag_169\n        /* \"#utility.yul\":1173:1174   */\n      dup3\n        /* \"#utility.yul\":1155:1175   */\n      tag_135\n      jump\t// in\n    tag_169:\n        /* \"#utility.yul\":1150:1175   */\n      swap2\n      pop\n        /* \"#utility.yul\":1189:1209   */\n      tag_170\n        /* \"#utility.yul\":1207:1208   */\n      dup4\n        /* \"#utility.yul\":1189:1209   */\n      tag_135\n      jump\t// in\n    tag_170:\n        /* \"#utility.yul\":1184:1209   */\n      swap3\n      pop\n        /* \"#utility.yul\":1232:1233   */\n      dup3\n        /* \"#utility.yul\":1229:1230   */\n      dup3\n        /* \"#utility.yul\":1225:1234   */\n      add\n        /* \"#utility.yul\":1218:1234   */\n      swap1\n      pop\n        /* \"#utility.yul\":1253:1256   */\n      dup1\n        /* \"#utility.yul\":1250:1251   */\n      dup3\n        /* \"#utility.yul\":1247:1257   */\n      gt\n        /* \"#utility.yul\":1244:1280   */\n      iszero\n      tag_171\n      jumpi\n        /* \"#utility.yul\":1260:1278   */\n      tag_172\n      tag_137\n      jump\t// in\n    tag_172:\n        /* \"#utility.yul\":1244:1280   */\n    tag_171:\n        /* \"#utility.yul\":1096:1287   */\n      swap3\n      swap2\n      pop\n      pop\n      jump\t// out\n        /* \"#utility.yul\":1374:1491   */\n    tag_139:\n        /* \"#utility.yul\":1483:1484   */\n      0x00\n        /* \"#utility.yul\":1480:1481   */\n      dup1\n        /* \"#utility.yul\":1473:1485   */\n      revert\n        /* \"#utility.yul\":1620:1742   */\n    tag_141:\n        /* \"#utility.yul\":1693:1717   */\n      tag_177\n        /* \"#utility.yul\":1711:1716   */\n      dup2\n        /* \"#utility.yul\":1693:1717   */\n      tag_135\n      jump\t// in\n    tag_177:\n        /* \"#utility.yul\":1686:1691   */\n      dup2\n        /* \"#utility.yul\":1683:1718   */\n      eq\n        /* \"#utility.yul\":1673:1736   */\n      tag_178\n      jumpi\n        /* \"#utility.yul\":1732:1733   */\n      0x00\n        /* \"#utility.yul\":1729:1730   */\n      dup1\n        /* \"#utility.yul\":1722:1734   */\n      revert\n        /* \"#utility.yul\":1673:1736   */\n    tag_178:\n        /* \"#utility.yul\":1620:1742   */\n      pop\n      jump\t// out\n        /* \"#utility.yul\":1748:1887   */\n    tag_142:\n        /* \"#utility.yul\":1794:1799   */\n      0x00\n        /* \"#utility.yul\":1832:1838   */\n      dup2\n        /* \"#utility.yul\":1819:1839   */\n      calldataload\n        /* \"#utility.yul\":1810:1839   */\n      swap1\n      pop\n        /* \"#utility.yul\":1848:1881   */\n      tag_180\n        /* \"#utility.yul\":1875:1880   */\n      dup2\n        /* \"#utility.yul\":1848:1881   */\n      tag_141\n      jump\t// in\n    tag_180:\n        /* \"#utility.yul\":1748:1887   */\n      swap3\n      swap2\n      pop\n      pop\n      jump\t// out\n        /* \"#utility.yul\":1893:2222   */\n    tag_24:\n        /* \"#utility.yul\":1952:1958   */\n      0x00\n        /* \"#utility.yul\":2001:2003   */\n      0x20\n        /* \"#utility.yul\":1989:1998   */\n      dup3\n        /* \"#utility.yul\":1980:1987   */\n      dup5\n        /* \"#utility.yul\":1976:1999   */\n      sub\n        /* \"#utility.yul\":1972:2004   */\n      slt\n        /* \"#utility.yul\":1969:2088   */\n      iszero\n      tag_182\n      jumpi\n        /* \"#utility.yul\":2007:2086   */\n      tag_183\n      tag_139\n      jump\t// in\n    tag_183:\n        /* \"#utility.yul\":1969:2088   */\n    tag_182:\n        /* \"#utility.yul\":2127:2128   */\n      0x00\n        /* \"#utility.yul\":2152:2205   */\n      tag_184\n        /* \"#utility.yul\":2197:2204   */\n      dup5\n        /* \"#utility.yul\":2188:2194   */\n      dup3\n        /* \"#utility.yul\":2177:2186   */\n      dup6\n        /* \"#utility.yul\":2173:2195   */\n      add\n        /* \"#utility.yul\":2152:2205   */\n      tag_142\n      jump\t// in\n    tag_184:\n        /* \"#utility.yul\":2142:2205   */\n      swap2\n      pop\n        /* \"#utility.yul\":2098:2215   */\n      pop\n        /* \"#utility.yul\":1893:2222   */\n      swap3\n      swap2\n      pop\n      pop\n      jump\t// out\n        /* \"#utility.yul\":2228:2450   */\n    tag_27:\n        /* \"#utility.yul\":2321:2325   */\n      0x00\n        /* \"#utility.yul\":2359:2361   */\n      0x20\n        /* \"#utility.yul\":2348:2357   */\n      dup3\n        /* \"#utility.yul\":2344:2362   */\n      add\n        /* \"#utility.yul\":2336:2362   */\n      swap1\n      pop\n        /* \"#utility.yul\":2372:2443   */\n      tag_186\n        /* \"#utility.yul\":2440:2441   */\n      0x00\n        /* \"#utility.yul\":2429:2438   */\n      dup4\n        /* \"#utility.yul\":2425:2442   */\n      add\n        /* \"#utility.yul\":2416:2422   */\n      dup5\n        /* \"#utility.yul\":2372:2443   */\n      tag_134\n      jump\t// in\n    tag_186:\n        /* \"#utility.yul\":2228:2450   */\n      swap3\n      swap2\n      pop\n      pop\n      jump\t// out\n        /* \"#utility.yul\":2456:2578   */\n    tag_143:\n        /* \"#utility.yul\":2529:2553   */\n      tag_188\n        /* \"#utility.yul\":2547:2552   */\n      dup2\n        /* \"#utility.yul\":2529:2553   */\n      tag_133\n      jump\t// in\n    tag_188:\n        /* \"#utility.yul\":2522:2527   */\n      dup2\n        /* \"#utility.yul\":2519:2554   */\n      eq\n        /* \"#utility.yul\":2509:2572   */\n      tag_189\n      jumpi\n        /* \"#utility.yul\":2568:2569   */\n      0x00\n        /* \"#utility.yul\":2565:2566   */\n      dup1\n        /* \"#utility.yul\":2558:2570   */\n      revert\n        /* \"#utility.yul\":2509:2572   */\n    tag_189:\n        /* \"#utility.yul\":2456:2578   */\n      pop\n      jump\t// out\n        /* \"#utility.yul\":2584:2723   */\n    tag_144:\n        /* \"#utility.yul\":2630:2635   */\n      0x00\n        /* \"#utility.yul\":2668:2674   */\n      dup2\n        /* \"#utility.yul\":2655:2675   */\n      calldataload\n        /* \"#utility.yul\":2646:2675   */\n      swap1\n      pop\n        /* \"#utility.yul\":2684:2717   */\n      tag_191\n        /* \"#utility.yul\":2711:2716   */\n      dup2\n        /* \"#utility.yul\":2684:2717   */\n      tag_143\n      jump\t// in\n    tag_191:\n        /* \"#utility.yul\":2584:2723   */\n      swap3\n      swap2\n      pop\n      pop\n      jump\t// out\n        /* \"#utility.yul\":2729:3058   */\n    tag_34:\n        /* \"#utility.yul\":2788:2794   */\n      0x00\n        /* \"#utility.yul\":2837:2839   */\n      0x20\n        /* \"#utility.yul\":2825:2834   */\n      dup3\n        /* \"#utility.yul\":2816:2823   */\n      dup5\n        /* \"#utility.yul\":2812:2835   */\n      sub\n        /* \"#utility.yul\":2808:2840   */\n      slt\n        /* \"#utility.yul\":2805:2924   */\n      iszero\n      tag_193\n      jumpi\n        /* \"#utility.yul\":2843:2922   */\n      tag_194\n      tag_139\n      jump\t// in\n    tag_194:\n        /* \"#utility.yul\":2805:2924   */\n    tag_193:\n        /* \"#utility.yul\":2963:2964   */\n      0x00\n        /* \"#utility.yul\":2988:3041   */\n      tag_195\n        /* \"#utility.yul\":3033:3040   */\n      dup5\n        /* \"#utility.yul\":3024:3030   */\n      dup3\n        /* \"#utility.yul\":3013:3022   */\n      dup6\n        /* \"#utility.yul\":3009:3031   */\n      add\n        /* \"#utility.yul\":2988:3041   */\n      tag_144\n      jump\t// in\n    tag_195:\n        /* \"#utility.yul\":2978:3041   */\n      swap2\n      pop\n        /* \"#utility.yul\":2934:3051   */\n      pop\n        /* \"#utility.yul\":2729:3058   */\n      swap3\n      swap2\n      pop\n      pop\n      jump\t// out\n        /* \"#utility.yul\":3064:3286   */\n    tag_40:\n        /* \"#utility.yul\":3157:3161   */\n      0x00\n        /* \"#utility.yul\":3195:3197   */\n      0x20\n        /* \"#utility.yul\":3184:3193   */\n      dup3\n        /* \"#utility.yul\":3180:3198   */\n      add\n        /* \"#utility.yul\":3172:3198   */\n      swap1\n      pop\n        /* \"#utility.yul\":3208:3279   */\n      tag_197\n        /* \"#utility.yul\":3276:3277   */\n      0x00\n        /* \"#utility.yul\":3265:3274   */\n      dup4\n        /* \"#utility.yul\":3261:3278   */\n      add\n        /* \"#utility.yul\":3252:3258   */\n      dup5\n        /* \"#utility.yul\":3208:3279   */\n      tag_136\n      jump\t// in\n    tag_197:\n        /* \"#utility.yul\":3064:3286   */\n      swap3\n      swap2\n      pop\n      pop\n      jump\t// out\n        /* \"#utility.yul\":3292:3396   */\n    tag_145:\n        /* \"#utility.yul\":3357:3363   */\n      0x00\n        /* \"#utility.yul\":3385:3389   */\n      0x03\n        /* \"#utility.yul\":3375:3389   */\n      swap1\n      pop\n        /* \"#utility.yul\":3292:3396   */\n      swap2\n      swap1\n      pop\n      jump\t// out\n        /* \"#utility.yul\":3402:3545   */\n    tag_146:\n        /* \"#utility.yul\":3499:3510   */\n      0x00\n        /* \"#utility.yul\":3536:3539   */\n      dup2\n        /* \"#utility.yul\":3521:3539   */\n      swap1\n      pop\n        /* \"#utility.yul\":3402:3545   */\n      swap3\n      swap2\n      pop\n      pop\n      jump\t// out\n        /* \"#utility.yul\":3551:3649   */\n    tag_147:\n        /* \"#utility.yul\":3616:3620   */\n      0x00\n        /* \"#utility.yul\":3639:3642   */\n      dup2\n        /* \"#utility.yul\":3631:3642   */\n      swap1\n      pop\n        /* \"#utility.yul\":3551:3649   */\n      swap2\n      swap1\n      pop\n      jump\t// out\n        /* \"#utility.yul\":3655:3763   */\n    tag_148:\n        /* \"#utility.yul\":3732:3756   */\n      tag_202\n        /* \"#utility.yul\":3750:3755   */\n      dup2\n        /* \"#utility.yul\":3732:3756   */\n      tag_133\n      jump\t// in\n    tag_202:\n        /* \"#utility.yul\":3727:3730   */\n      dup3\n        /* \"#utility.yul\":3720:3757   */\n      mstore\n        /* \"#utility.yul\":3655:3763   */\n      pop\n      pop\n      jump\t// out\n        /* \"#utility.yul\":3769:3948   */\n    tag_149:\n        /* \"#utility.yul\":3838:3848   */\n      0x00\n        /* \"#utility.yul\":3859:3905   */\n      tag_204\n        /* \"#utility.yul\":3901:3904   */\n      dup4\n        /* \"#utility.yul\":3893:3899   */\n      dup4\n        /* \"#utility.yul\":3859:3905   */\n      tag_148\n      jump\t// in\n    tag_204:\n        /* \"#utility.yul\":3937:3941   */\n      0x20\n        /* \"#utility.yul\":3932:3935   */\n      dup4\n        /* \"#utility.yul\":3928:3942   */\n      add\n        /* \"#utility.yul\":3914:3942   */\n      swap1\n      pop\n        /* \"#utility.yul\":3769:3948   */\n      swap3\n      swap2\n      pop\n      pop\n      jump\t// out\n        /* \"#utility.yul\":3954:4065   */\n    tag_150:\n        /* \"#utility.yul\":4022:4026   */\n      0x00\n        /* \"#utility.yul\":4054:4058   */\n      0x20\n        /* \"#utility.yul\":4049:4052   */\n      dup3\n        /* \"#utility.yul\":4045:4059   */\n      add\n        /* \"#utility.yul\":4037:4059   */\n      swap1\n      pop\n        /* \"#utility.yul\":3954:4065   */\n      swap2\n      swap1\n      pop\n      jump\t// out\n        /* \"#utility.yul\":4103:4797   */\n    tag_151:\n        /* \"#utility.yul\":4239:4291   */\n      tag_207\n        /* \"#utility.yul\":4285:4290   */\n      dup2\n        /* \"#utility.yul\":4239:4291   */\n      tag_145\n      jump\t// in\n    tag_207:\n        /* \"#utility.yul\":4307:4391   */\n      tag_208\n        /* \"#utility.yul\":4384:4390   */\n      dup2\n        /* \"#utility.yul\":4379:4382   */\n      dup5\n        /* \"#utility.yul\":4307:4391   */\n      tag_146\n      jump\t// in\n    tag_208:\n        /* \"#utility.yul\":4300:4391   */\n      swap3\n      pop\n        /* \"#utility.yul\":4415:4469   */\n      tag_209\n        /* \"#utility.yul\":4463:4468   */\n      dup3\n        /* \"#utility.yul\":4415:4469   */\n      tag_147\n      jump\t// in\n    tag_209:\n        /* \"#utility.yul\":4492:4499   */\n      dup1\n        /* \"#utility.yul\":4523:4524   */\n      0x00\n        /* \"#utility.yul\":4508:4790   */\n    tag_210:\n        /* \"#utility.yul\":4533:4539   */\n      dup4\n        /* \"#utility.yul\":4530:4531   */\n      dup2\n        /* \"#utility.yul\":4527:4540   */\n      lt\n        /* \"#utility.yul\":4508:4790   */\n      iszero\n      tag_212\n      jumpi\n        /* \"#utility.yul\":4609:4615   */\n      dup2\n        /* \"#utility.yul\":4603:4616   */\n      mload\n        /* \"#utility.yul\":4636:4699   */\n      tag_213\n        /* \"#utility.yul\":4695:4698   */\n      dup8\n        /* \"#utility.yul\":4680:4693   */\n      dup3\n        /* \"#utility.yul\":4636:4699   */\n      tag_149\n      jump\t// in\n    tag_213:\n        /* \"#utility.yul\":4629:4699   */\n      swap7\n      pop\n        /* \"#utility.yul\":4722:4780   */\n      tag_214\n        /* \"#utility.yul\":4773:4779   */\n      dup4\n        /* \"#utility.yul\":4722:4780   */\n      tag_150\n      jump\t// in\n    tag_214:\n        /* \"#utility.yul\":4712:4780   */\n      swap3\n      pop\n        /* \"#utility.yul\":4568:4790   */\n      pop\n        /* \"#utility.yul\":4555:4556   */\n      0x01\n        /* \"#utility.yul\":4552:4553   */\n      dup2\n        /* \"#utility.yul\":4548:4557   */\n      add\n        /* \"#utility.yul\":4543:4557   */\n      swap1\n      pop\n        /* \"#utility.yul\":4508:4790   */\n      jump(tag_210)\n    tag_212:\n        /* \"#utility.yul\":4512:4526   */\n      pop\n        /* \"#utility.yul\":4215:4797   */\n      pop\n      pop\n      pop\n        /* \"#utility.yul\":4103:4797   */\n      pop\n      pop\n      jump\t// out\n        /* \"#utility.yul\":4803:5117   */\n    tag_45:\n        /* \"#utility.yul\":4942:4946   */\n      0x00\n        /* \"#utility.yul\":4980:4982   */\n      0x60\n        /* \"#utility.yul\":4969:4978   */\n      dup3\n        /* \"#utility.yul\":4965:4983   */\n      add\n        /* \"#utility.yul\":4957:4983   */\n      swap1\n      pop\n        /* \"#utility.yul\":4993:5110   */\n      tag_216\n        /* \"#utility.yul\":5107:5108   */\n      0x00\n        /* \"#utility.yul\":5096:5105   */\n      dup4\n        /* \"#utility.yul\":5092:5109   */\n      add\n        /* \"#utility.yul\":5083:5089   */\n      dup5\n        /* \"#utility.yul\":4993:5110   */\n      tag_151\n      jump\t// in\n    tag_216:\n        /* \"#utility.yul\":4803:5117   */\n      swap3\n      swap2\n      pop\n      pop\n      jump\t// out\n        /* \"#utility.yul\":5123:5303   */\n    tag_61:\n        /* \"#utility.yul\":5171:5248   */\n      0x4e487b7100000000000000000000000000000000000000000000000000000000\n        /* \"#utility.yul\":5168:5169   */\n      0x00\n        /* \"#utility.yul\":5161:5249   */\n      mstore\n        /* \"#utility.yul\":5268:5272   */\n      0x32\n        /* \"#utility.yul\":5265:5266   */\n      0x04\n        /* \"#utility.yul\":5258:5273   */\n      mstore\n        /* \"#utility.yul\":5292:5296   */\n      0x24\n        /* \"#utility.yul\":5289:5290   */\n      0x00\n        /* \"#utility.yul\":5282:5297   */\n      revert\n        /* \"#utility.yul\":5309:5478   */\n    tag_152:\n        /* \"#utility.yul\":5393:5404   */\n      0x00\n        /* \"#utility.yul\":5427:5433   */\n      dup3\n        /* \"#utility.yul\":5422:5425   */\n      dup3\n        /* \"#utility.yul\":5415:5434   */\n      mstore\n        /* \"#utility.yul\":5467:5471   */\n      0x20\n        /* \"#utility.yul\":5462:5465   */\n      dup3\n        /* \"#utility.yul\":5458:5472   */\n      add\n        /* \"#utility.yul\":5443:5472   */\n      swap1\n      pop\n        /* \"#utility.yul\":5309:5478   */\n      swap3\n      swap2\n      pop\n      pop\n      jump\t// out\n        /* \"#utility.yul\":5484:5656   */\n    tag_153:\n        /* \"#utility.yul\":5624:5648   */\n      0x4e6f742074686520636f6e7472616374206f776e657200000000000000000000\n        /* \"#utility.yul\":5620:5621   */\n      0x00\n        /* \"#utility.yul\":5612:5618   */\n      dup3\n        /* \"#utility.yul\":5608:5622   */\n      add\n        /* \"#utility.yul\":5601:5649   */\n      mstore\n        /* \"#utility.yul\":5484:5656   */\n      pop\n      jump\t// out\n        /* \"#utility.yul\":5662:6028   */\n    tag_154:\n        /* \"#utility.yul\":5804:5807   */\n      0x00\n        /* \"#utility.yul\":5825:5892   */\n      tag_221\n        /* \"#utility.yul\":5889:5891   */\n      0x16\n        /* \"#utility.yul\":5884:5887   */\n      dup4\n        /* \"#utility.yul\":5825:5892   */\n      tag_152\n      jump\t// in\n    tag_221:\n        /* \"#utility.yul\":5818:5892   */\n      swap2\n      pop\n        /* \"#utility.yul\":5901:5994   */\n      tag_222\n        /* \"#utility.yul\":5990:5993   */\n      dup3\n        /* \"#utility.yul\":5901:5994   */\n      tag_153\n      jump\t// in\n    tag_222:\n        /* \"#utility.yul\":6019:6021   */\n      0x20\n        /* \"#utility.yul\":6014:6017   */\n      dup3\n        /* \"#utility.yul\":6010:6022   */\n      add\n        /* \"#utility.yul\":6003:6022   */\n      swap1\n      pop\n        /* \"#utility.yul\":5662:6028   */\n      swap2\n      swap1\n      pop\n      jump\t// out\n        /* \"#utility.yul\":6034:6453   */\n    tag_79:\n        /* \"#utility.yul\":6200:6204   */\n      0x00\n        /* \"#utility.yul\":6238:6240   */\n      0x20\n        /* \"#utility.yul\":6227:6236   */\n      dup3\n        /* \"#utility.yul\":6223:6241   */\n      add\n        /* \"#utility.yul\":6215:6241   */\n      swap1\n      pop\n        /* \"#utility.yul\":6287:6296   */\n      dup2\n        /* \"#utility.yul\":6281:6285   */\n      dup2\n        /* \"#utility.yul\":6277:6297   */\n      sub\n        /* \"#utility.yul\":6273:6274   */\n      0x00\n        /* \"#utility.yul\":6262:6271   */\n      dup4\n        /* \"#utility.yul\":6258:6275   */\n      add\n        /* \"#utility.yul\":6251:6298   */\n      mstore\n        /* \"#utility.yul\":6315:6446   */\n      tag_224\n        /* \"#utility.yul\":6441:6445   */\n      dup2\n        /* \"#utility.yul\":6315:6446   */\n      tag_154\n      jump\t// in\n    tag_224:\n        /* \"#utility.yul\":6307:6446   */\n      swap1\n      pop\n        /* \"#utility.yul\":6034:6453   */\n      swap2\n      swap1\n      pop\n      jump\t// out\n        /* \"#utility.yul\":6459:6653   */\n    tag_109:\n        /* \"#utility.yul\":6499:6503   */\n      0x00\n        /* \"#utility.yul\":6519:6539   */\n      tag_226\n        /* \"#utility.yul\":6537:6538   */\n      dup3\n        /* \"#utility.yul\":6519:6539   */\n      tag_135\n      jump\t// in\n    tag_226:\n        /* \"#utility.yul\":6514:6539   */\n      swap2\n      pop\n        /* \"#utility.yul\":6553:6573   */\n      tag_227\n        /* \"#utility.yul\":6571:6572   */\n      dup4\n        /* \"#utility.yul\":6553:6573   */\n      tag_135\n      jump\t// in\n    tag_227:\n        /* \"#utility.yul\":6548:6573   */\n      swap3\n      pop\n        /* \"#utility.yul\":6597:6598   */\n      dup3\n        /* \"#utility.yul\":6594:6595   */\n      dup3\n        /* \"#utility.yul\":6590:6599   */\n      sub\n        /* \"#utility.yul\":6582:6599   */\n      swap1\n      pop\n        /* \"#utility.yul\":6621:6622   */\n      dup2\n        /* \"#utility.yul\":6615:6619   */\n      dup2\n        /* \"#utility.yul\":6612:6623   */\n      gt\n        /* \"#utility.yul\":6609:6646   */\n      iszero\n      tag_228\n      jumpi\n        /* \"#utility.yul\":6626:6644   */\n      tag_229\n      tag_137\n      jump\t// in\n    tag_229:\n        /* \"#utility.yul\":6609:6646   */\n    tag_228:\n        /* \"#utility.yul\":6459:6653   */\n      swap3\n      swap2\n      pop\n      pop\n      jump\t// out\n        /* \"#utility.yul\":6659:6830   */\n    tag_131:\n        /* \"#utility.yul\":6698:6701   */\n      0x00\n        /* \"#utility.yul\":6721:6745   */\n      tag_231\n        /* \"#utility.yul\":6739:6744   */\n      dup3\n        /* \"#utility.yul\":6721:6745   */\n      tag_135\n      jump\t// in\n    tag_231:\n        /* \"#utility.yul\":6712:6745   */\n      swap2\n      pop\n        /* \"#utility.yul\":6767:6771   */\n      0x00\n        /* \"#utility.yul\":6760:6765   */\n      dup3\n        /* \"#utility.yul\":6757:6772   */\n      sub\n        /* \"#utility.yul\":6754:6795   */\n      tag_232\n      jumpi\n        /* \"#utility.yul\":6775:6793   */\n      tag_233\n      tag_137\n      jump\t// in\n    tag_233:\n        /* \"#utility.yul\":6754:6795   */\n    tag_232:\n        /* \"#utility.yul\":6822:6823   */\n      0x01\n        /* \"#utility.yul\":6815:6820   */\n      dup3\n        /* \"#utility.yul\":6811:6824   */\n      sub\n        /* \"#utility.yul\":6804:6824   */\n      swap1\n      pop\n        /* \"#utility.yul\":6659:6830   */\n      swap2\n      swap1\n      pop\n      jump\t// out\n\n    auxdata: 0xa264697066735822122042f88f6fdb3061c3e14334d5cf40513ee90c414f33c1c6ad9d651946843360e164736f6c634300081a0033\n}\n",
				"bytecode": {
					"linkReferences": {},
					"object": "6080604052348015600e575f80fd5b50335f806101000a81548173ffffffffffffffffffffffffffffffffffffffff021916908373ffffffffffffffffffffffffffffffffffffffff160217905550610d1a8061005b5f395ff3fe608060405260043610610073575f3560e01c80636f9fb98a1161004d5780636f9fb98a146101a257806381454f71146101cc5780638da5cb5b146101f6578063fc7e286d1461022057610124565b806330861078146101285780633ccfd60b146101645780634fb2e45d1461017a57610124565b3661012457662386f26fc100003410156100c65733346040517f6ff311590000000000000000000000000000000000000000000000000000000081526004016100bd9291906109c0565b60405180910390fd5b3460015f3373ffffffffffffffffffffffffffffffffffffffff1673ffffffffffffffffffffffffffffffffffffffff1681526020019081526020015f205f8282546101129190610a14565b925050819055506101223361025c565b005b5f80fd5b348015610133575f80fd5b5061014e60048036038101906101499190610a75565b610400565b60405161015b9190610aa0565b60405180910390f35b34801561016f575f80fd5b50610178610434565b005b348015610185575f80fd5b506101a0600480360381019061019b9190610ae3565b610526565b005b3480156101ad575f80fd5b506101b66105f5565b6040516101c39190610b0e565b60405180910390f35b3480156101d7575f80fd5b506101e06105fc565b6040516101ed9190610bcc565b60405180910390f35b348015610201575f80fd5b5061020a6106ab565b6040516102179190610aa0565b60405180910390f35b34801561022b575f80fd5b5061024660048036038101906102419190610ae3565b6106ce565b6040516102539190610b0e565b60405180910390f35b5f5b60038110156102e9578173ffffffffffffffffffffffffffffffffffffffff166002826003811061029257610291610be5565b5b015f9054906101000a900473ffffffffffffffffffffffffffffffffffffffff1673ffffffffffffffffffffffffffffffffffffffff16036102dc576102d66106e3565b506103fd565b808060010191505061025e565b5060015f6002806003811061030157610300610be5565b5b015f9054906101000a900473ffffffffffffffffffffffffffffffffffffffff1673ffffffffffffffffffffffffffffffffffffffff1673ffffffffffffffffffffffffffffffffffffffff1681526020019081526020015f205460015f8373ffffffffffffffffffffffffffffffffffffffff1673ffffffffffffffffffffffffffffffffffffffff1681526020019081526020015f205411156103fc5780600280600381106103b5576103b4610be5565b5b015f6101000a81548173ffffffffffffffffffffffffffffffffffffffff021916908373ffffffffffffffffffffffffffffffffffffffff1602179055506103fb6106e3565b5b5b50565b6002816003811061040f575f80fd5b015f915054906101000a900473ffffffffffffffffffffffffffffffffffffffff1681565b5f8054906101000a900473ffffffffffffffffffffffffffffffffffffffff1673ffffffffffffffffffffffffffffffffffffffff163373ffffffffffffffffffffffffffffffffffffffff16146104c1576040517f08c379a00000000000000000000000000000000000000000000000000000000081526004016104b890610c6c565b60405180910390fd5b5f8054906101000a900473ffffffffffffffffffffffffffffffffffffffff1673ffffffffffffffffffffffffffffffffffffffff166108fc4790811502906040515f60405180830381858888f19350505050158015610523573d5f803e3d5ffd5b50565b5f8054906101000a900473ffffffffffffffffffffffffffffffffffffffff1673ffffffffffffffffffffffffffffffffffffffff163373ffffffffffffffffffffffffffffffffffffffff16146105b3576040517f08c379a00000000000000000000000000000000000000000000000000000000081526004016105aa90610c6c565b60405180910390fd5b805f806101000a81548173ffffffffffffffffffffffffffffffffffffffff021916908373ffffffffffffffffffffffffffffffffffffffff16021790555050565b5f47905090565b610604610947565b61060c610947565b5f5b60038110156106a3576002816003811061062b5761062a610be5565b5b015f9054906101000a900473ffffffffffffffffffffffffffffffffffffffff1682826003811061065f5761065e610be5565b5b602002019073ffffffffffffffffffffffffffffffffffffffff16908173ffffffffffffffffffffffffffffffffffffffff1681525050808060010191505061060e565b508091505090565b5f8054906101000a900473ffffffffffffffffffffffffffffffffffffffff1681565b6001602052805f5260405f205f915090505481565b5f600190505b6003811015610944575f8190505b5f811180156107f3575060015f60026001846107139190610c8a565b6003811061072457610723610be5565b5b015f9054906101000a900473ffffffffffffffffffffffffffffffffffffffff1673ffffffffffffffffffffffffffffffffffffffff1673ffffffffffffffffffffffffffffffffffffffff1681526020019081526020015f205460015f6002846003811061079657610795610be5565b5b015f9054906101000a900473ffffffffffffffffffffffffffffffffffffffff1673ffffffffffffffffffffffffffffffffffffffff1673ffffffffffffffffffffffffffffffffffffffff1681526020019081526020015f2054115b15610936575f6002826003811061080d5761080c610be5565b5b015f9054906101000a900473ffffffffffffffffffffffffffffffffffffffff169050600260018361083f9190610c8a565b600381106108505761084f610be5565b5b015f9054906101000a900473ffffffffffffffffffffffffffffffffffffffff166002836003811061088557610884610be5565b5b015f6101000a81548173ffffffffffffffffffffffffffffffffffffffff021916908373ffffffffffffffffffffffffffffffffffffffff1602179055508060026001846108d39190610c8a565b600381106108e4576108e3610be5565b5b015f6101000a81548173ffffffffffffffffffffffffffffffffffffffff021916908373ffffffffffffffffffffffffffffffffffffffff16021790555050808061092e90610cbd565b9150506106f7565b5080806001019150506106e9565b50565b6040518060600160405280600390602082028036833780820191505090505090565b5f73ffffffffffffffffffffffffffffffffffffffff82169050919050565b5f61099282610969565b9050919050565b6109a281610988565b82525050565b5f819050919050565b6109ba816109a8565b82525050565b5f6040820190506109d35f830185610999565b6109e060208301846109b1565b9392505050565b7f4e487b71000000000000000000000000000000000000000000000000000000005f52601160045260245ffd5b5f610a1e826109a8565b9150610a29836109a8565b9250828201905080821115610a4157610a406109e7565b5b92915050565b5f80fd5b610a54816109a8565b8114610a5e575f80fd5b50565b5f81359050610a6f81610a4b565b92915050565b5f60208284031215610a8a57610a89610a47565b5b5f610a9784828501610a61565b91505092915050565b5f602082019050610ab35f830184610999565b92915050565b610ac281610988565b8114610acc575f80fd5b50565b5f81359050610add81610ab9565b92915050565b5f60208284031215610af857610af7610a47565b5b5f610b0584828501610acf565b91505092915050565b5f602082019050610b215f8301846109b1565b92915050565b5f60039050919050565b5f81905092915050565b5f819050919050565b610b4d81610988565b82525050565b5f610b5e8383610b44565b60208301905092915050565b5f602082019050919050565b610b7f81610b27565b610b898184610b31565b9250610b9482610b3b565b805f5b83811015610bc4578151610bab8782610b53565b9650610bb683610b6a565b925050600181019050610b97565b505050505050565b5f606082019050610bdf5f830184610b76565b92915050565b7f4e487b71000000000000000000000000000000000000000000000000000000005f52603260045260245ffd5b5f82825260208201905092915050565b7f4e6f742074686520636f6e7472616374206f776e6572000000000000000000005f82015250565b5f610c56601683610c12565b9150610c6182610c22565b602082019050919050565b5f6020820190508181035f830152610c8381610c4a565b9050919050565b5f610c94826109a8565b9150610c9f836109a8565b9250828203905081811115610cb757610cb66109e7565b5b92915050565b5f610cc7826109a8565b91505f8203610cd957610cd86109e7565b5b60018203905091905056fea264697066735822122042f88f6fdb3061c3e14334d5cf40513ee90c414f33c1c6ad9d651946843360e164736f6c634300081a0033",
					"opcodes": "PUSH1 0x80 PUSH1 0x40 MSTORE CALLVALUE DUP1 ISZERO PUSH1 0xE JUMPI PUSH0 DUP1 REVERT JUMPDEST POP CALLER PUSH0 DUP1 PUSH2 0x100 EXP DUP2 SLOAD DUP2 PUSH20 0xFFFFFFFFFFFFFFFFFFFFFFFFFFFFFFFFFFFFFFFF MUL NOT AND SWAP1 DUP4 PUSH20 0xFFFFFFFFFFFFFFFFFFFFFFFFFFFFFFFFFFFFFFFF AND MUL OR SWAP1 SSTORE POP PUSH2 0xD1A DUP1 PUSH2 0x5B PUSH0 CODECOPY PUSH0 RETURN INVALID PUSH1 0x80 PUSH1 0x40 MSTORE PUSH1 0x4 CALLDATASIZE LT PUSH2 0x73 JUMPI PUSH0 CALLDATALOAD PUSH1 0xE0 SHR DUP1 PUSH4 0x6F9FB98A GT PUSH2 0x4D JUMPI DUP1 PUSH4 0x6F9FB98A EQ PUSH2 0x1A2 JUMPI DUP1 PUSH4 0x81454F71 EQ PUSH2 0x1CC JUMPI DUP1 PUSH4 0x8DA5CB5B EQ PUSH2 0x1F6 JUMPI DUP1 PUSH4 0xFC7E286D EQ PUSH2 0x220 JUMPI PUSH2 0x124 JUMP JUMPDEST DUP1 PUSH4 0x30861078 EQ PUSH2 0x128 JUMPI DUP1 PUSH4 0x3CCFD60B EQ PUSH2 0x164 JUMPI DUP1 PUSH4 0x4FB2E45D EQ PUSH2 0x17A JUMPI PUSH2 0x124 JUMP JUMPDEST CALLDATASIZE PUSH2 0x124 JUMPI PUSH7 0x2386F26FC10000 CALLVALUE LT ISZERO PUSH2 0xC6 JUMPI CALLER CALLVALUE PUSH1 0x40 MLOAD PUSH32 0x6FF3115900000000000000000000000000000000000000000000000000000000 DUP2 MSTORE PUSH1 0x4 ADD PUSH2 0xBD SWAP3 SWAP2 SWAP1 PUSH2 0x9C0 JUMP JUMPDEST PUSH1 0x40 MLOAD DUP1 SWAP2 SUB SWAP1 REVERT JUMPDEST CALLVALUE PUSH1 0x1 PUSH0 CALLER PUSH20 0xFFFFFFFFFFFFFFFFFFFFFFFFFFFFFFFFFFFFFFFF AND PUSH20 0xFFFFFFFFFFFFFFFFFFFFFFFFFFFFFFFFFFFFFFFF AND DUP2 MSTORE PUSH1 0x20 ADD SWAP1 DUP2 MSTORE PUSH1 0x20 ADD PUSH0 KECCAK256 PUSH0 DUP3 DUP3 SLOAD PUSH2 0x112 SWAP2 SWAP1 PUSH2 0xA14 JUMP JUMPDEST SWAP3 POP POP DUP2 SWAP1 SSTORE POP PUSH2 0x122 CALLER PUSH2 0x25C JUMP JUMPDEST STOP JUMPDEST PUSH0 DUP1 REVERT JUMPDEST CALLVALUE DUP1 ISZERO PUSH2 0x133 JUMPI PUSH0 DUP1 REVERT JUMPDEST POP PUSH2 0x14E PUSH1 0x4 DUP1 CALLDATASIZE SUB DUP2 ADD SWAP1 PUSH2 0x149 SWAP2 SWAP1 PUSH2 0xA75 JUMP JUMPDEST PUSH2 0x400 JUMP JUMPDEST PUSH1 0x40 MLOAD PUSH2 0x15B SWAP2 SWAP1 PUSH2 0xAA0 JUMP JUMPDEST PUSH1 0x40 MLOAD DUP1 SWAP2 SUB SWAP1 RETURN JUMPDEST CALLVALUE DUP1 ISZERO PUSH2 0x16F JUMPI PUSH0 DUP1 REVERT JUMPDEST POP PUSH2 0x178 PUSH2 0x434 JUMP JUMPDEST STOP JUMPDEST CALLVALUE DUP1 ISZERO PUSH2 0x185 JUMPI PUSH0 DUP1 REVERT JUMPDEST POP PUSH2 0x1A0 PUSH1 0x4 DUP1 CALLDATASIZE SUB DUP2 ADD SWAP1 PUSH2 0x19B SWAP2 SWAP1 PUSH2 0xAE3 JUMP JUMPDEST PUSH2 0x526 JUMP JUMPDEST STOP JUMPDEST CALLVALUE DUP1 ISZERO PUSH2 0x1AD JUMPI PUSH0 DUP1 REVERT JUMPDEST POP PUSH2 0x1B6 PUSH2 0x5F5 JUMP JUMPDEST PUSH1 0x40 MLOAD PUSH2 0x1C3 SWAP2 SWAP1 PUSH2 0xB0E JUMP JUMPDEST PUSH1 0x40 MLOAD DUP1 SWAP2 SUB SWAP1 RETURN JUMPDEST CALLVALUE DUP1 ISZERO PUSH2 0x1D7 JUMPI PUSH0 DUP1 REVERT JUMPDEST POP PUSH2 0x1E0 PUSH2 0x5FC JUMP JUMPDEST PUSH1 0x40 MLOAD PUSH2 0x1ED SWAP2 SWAP1 PUSH2 0xBCC JUMP JUMPDEST PUSH1 0x40 MLOAD DUP1 SWAP2 SUB SWAP1 RETURN JUMPDEST CALLVALUE DUP1 ISZERO PUSH2 0x201 JUMPI PUSH0 DUP1 REVERT JUMPDEST POP PUSH2 0x20A PUSH2 0x6AB JUMP JUMPDEST PUSH1 0x40 MLOAD PUSH2 0x217 SWAP2 SWAP1 PUSH2 0xAA0 JUMP JUMPDEST PUSH1 0x40 MLOAD DUP1 SWAP2 SUB SWAP1 RETURN JUMPDEST CALLVALUE DUP1 ISZERO PUSH2 0x22B JUMPI PUSH0 DUP1 REVERT JUMPDEST POP PUSH2 0x246 PUSH1 0x4 DUP1 CALLDATASIZE SUB DUP2 ADD SWAP1 PUSH2 0x241 SWAP2 SWAP1 PUSH2 0xAE3 JUMP JUMPDEST PUSH2 0x6CE JUMP JUMPDEST PUSH1 0x40 MLOAD PUSH2 0x253 SWAP2 SWAP1 PUSH2 0xB0E JUMP JUMPDEST PUSH1 0x40 MLOAD DUP1 SWAP2 SUB SWAP1 RETURN JUMPDEST PUSH0 JUMPDEST PUSH1 0x3 DUP2 LT ISZERO PUSH2 0x2E9 JUMPI DUP2 PUSH20 0xFFFFFFFFFFFFFFFFFFFFFFFFFFFFFFFFFFFFFFFF AND PUSH1 0x2 DUP3 PUSH1 0x3 DUP2 LT PUSH2 0x292 JUMPI PUSH2 0x291 PUSH2 0xBE5 JUMP JUMPDEST JUMPDEST ADD PUSH0 SWAP1 SLOAD SWAP1 PUSH2 0x100 EXP SWAP1 DIV PUSH20 0xFFFFFFFFFFFFFFFFFFFFFFFFFFFFFFFFFFFFFFFF AND PUSH20 0xFFFFFFFFFFFFFFFFFFFFFFFFFFFFFFFFFFFFFFFF AND SUB PUSH2 0x2DC JUMPI PUSH2 0x2D6 PUSH2 0x6E3 JUMP JUMPDEST POP PUSH2 0x3FD JUMP JUMPDEST DUP1 DUP1 PUSH1 0x1 ADD SWAP2 POP POP PUSH2 0x25E JUMP JUMPDEST POP PUSH1 0x1 PUSH0 PUSH1 0x2 DUP1 PUSH1 0x3 DUP2 LT PUSH2 0x301 JUMPI PUSH2 0x300 PUSH2 0xBE5 JUMP JUMPDEST JUMPDEST ADD PUSH0 SWAP1 SLOAD SWAP1 PUSH2 0x100 EXP SWAP1 DIV PUSH20 0xFFFFFFFFFFFFFFFFFFFFFFFFFFFFFFFFFFFFFFFF AND PUSH20 0xFFFFFFFFFFFFFFFFFFFFFFFFFFFFFFFFFFFFFFFF AND PUSH20 0xFFFFFFFFFFFFFFFFFFFFFFFFFFFFFFFFFFFFFFFF AND DUP2 MSTORE PUSH1 0x20 ADD SWAP1 DUP2 MSTORE PUSH1 0x20 ADD PUSH0 KECCAK256 SLOAD PUSH1 0x1 PUSH0 DUP4 PUSH20 0xFFFFFFFFFFFFFFFFFFFFFFFFFFFFFFFFFFFFFFFF AND PUSH20 0xFFFFFFFFFFFFFFFFFFFFFFFFFFFFFFFFFFFFFFFF AND DUP2 MSTORE PUSH1 0x20 ADD SWAP1 DUP2 MSTORE PUSH1 0x20 ADD PUSH0 KECCAK256 SLOAD GT ISZERO PUSH2 0x3FC JUMPI DUP1 PUSH1 0x2 DUP1 PUSH1 0x3 DUP2 LT PUSH2 0x3B5 JUMPI PUSH2 0x3B4 PUSH2 0xBE5 JUMP JUMPDEST JUMPDEST ADD PUSH0 PUSH2 0x100 EXP DUP2 SLOAD DUP2 PUSH20 0xFFFFFFFFFFFFFFFFFFFFFFFFFFFFFFFFFFFFFFFF MUL NOT AND SWAP1 DUP4 PUSH20 0xFFFFFFFFFFFFFFFFFFFFFFFFFFFFFFFFFFFFFFFF AND MUL OR SWAP1 SSTORE POP PUSH2 0x3FB PUSH2 0x6E3 JUMP JUMPDEST JUMPDEST JUMPDEST POP JUMP JUMPDEST PUSH1 0x2 DUP2 PUSH1 0x3 DUP2 LT PUSH2 0x40F JUMPI PUSH0 DUP1 REVERT JUMPDEST ADD PUSH0 SWAP2 POP SLOAD SWAP1 PUSH2 0x100 EXP SWAP1 DIV PUSH20 0xFFFFFFFFFFFFFFFFFFFFFFFFFFFFFFFFFFFFFFFF AND DUP2 JUMP JUMPDEST PUSH0 DUP1 SLOAD SWAP1 PUSH2 0x100 EXP SWAP1 DIV PUSH20 0xFFFFFFFFFFFFFFFFFFFFFFFFFFFFFFFFFFFFFFFF AND PUSH20 0xFFFFFFFFFFFFFFFFFFFFFFFFFFFFFFFFFFFFFFFF AND CALLER PUSH20 0xFFFFFFFFFFFFFFFFFFFFFFFFFFFFFFFFFFFFFFFF AND EQ PUSH2 0x4C1 JUMPI PUSH1 0x40 MLOAD PUSH32 0x8C379A000000000000000000000000000000000000000000000000000000000 DUP2 MSTORE PUSH1 0x4 ADD PUSH2 0x4B8 SWAP1 PUSH2 0xC6C JUMP JUMPDEST PUSH1 0x40 MLOAD DUP1 SWAP2 SUB SWAP1 REVERT JUMPDEST PUSH0 DUP1 SLOAD SWAP1 PUSH2 0x100 EXP SWAP1 DIV PUSH20 0xFFFFFFFFFFFFFFFFFFFFFFFFFFFFFFFFFFFFFFFF AND PUSH20 0xFFFFFFFFFFFFFFFFFFFFFFFFFFFFFFFFFFFFFFFF AND PUSH2 0x8FC SELFBALANCE SWAP1 DUP2 ISZERO MUL SWAP1 PUSH1 0x40 MLOAD PUSH0 PUSH1 0x40 MLOAD DUP1 DUP4 SUB DUP2 DUP6 DUP9 DUP9 CALL SWAP4 POP POP POP POP ISZERO DUP1 ISZERO PUSH2 0x523 JUMPI RETURNDATASIZE PUSH0 DUP1 RETURNDATACOPY RETURNDATASIZE PUSH0 REVERT JUMPDEST POP JUMP JUMPDEST PUSH0 DUP1 SLOAD SWAP1 PUSH2 0x100 EXP SWAP1 DIV PUSH20 0xFFFFFFFFFFFFFFFFFFFFFFFFFFFFFFFFFFFFFFFF AND PUSH20 0xFFFFFFFFFFFFFFFFFFFFFFFFFFFFFFFFFFFFFFFF AND CALLER PUSH20 0xFFFFFFFFFFFFFFFFFFFFFFFFFFFFFFFFFFFFFFFF AND EQ PUSH2 0x5B3 JUMPI PUSH1 0x40 MLOAD PUSH32 0x8C379A000000000000000000000000000000000000000000000000000000000 DUP2 MSTORE PUSH1 0x4 ADD PUSH2 0x5AA SWAP1 PUSH2 0xC6C JUMP JUMPDEST PUSH1 0x40 MLOAD DUP1 SWAP2 SUB SWAP1 REVERT JUMPDEST DUP1 PUSH0 DUP1 PUSH2 0x100 EXP DUP2 SLOAD DUP2 PUSH20 0xFFFFFFFFFFFFFFFFFFFFFFFFFFFFFFFFFFFFFFFF MUL NOT AND SWAP1 DUP4 PUSH20 0xFFFFFFFFFFFFFFFFFFFFFFFFFFFFFFFFFFFFFFFF AND MUL OR SWAP1 SSTORE POP POP JUMP JUMPDEST PUSH0 SELFBALANCE SWAP1 POP SWAP1 JUMP JUMPDEST PUSH2 0x604 PUSH2 0x947 JUMP JUMPDEST PUSH2 0x60C PUSH2 0x947 JUMP JUMPDEST PUSH0 JUMPDEST PUSH1 0x3 DUP2 LT ISZERO PUSH2 0x6A3 JUMPI PUSH1 0x2 DUP2 PUSH1 0x3 DUP2 LT PUSH2 0x62B JUMPI PUSH2 0x62A PUSH2 0xBE5 JUMP JUMPDEST JUMPDEST ADD PUSH0 SWAP1 SLOAD SWAP1 PUSH2 0x100 EXP SWAP1 DIV PUSH20 0xFFFFFFFFFFFFFFFFFFFFFFFFFFFFFFFFFFFFFFFF AND DUP3 DUP3 PUSH1 0x3 DUP2 LT PUSH2 0x65F JUMPI PUSH2 0x65E PUSH2 0xBE5 JUMP JUMPDEST JUMPDEST PUSH1 0x20 MUL ADD SWAP1 PUSH20 0xFFFFFFFFFFFFFFFFFFFFFFFFFFFFFFFFFFFFFFFF AND SWAP1 DUP2 PUSH20 0xFFFFFFFFFFFFFFFFFFFFFFFFFFFFFFFFFFFFFFFF AND DUP2 MSTORE POP POP DUP1 DUP1 PUSH1 0x1 ADD SWAP2 POP POP PUSH2 0x60E JUMP JUMPDEST POP DUP1 SWAP2 POP POP SWAP1 JUMP JUMPDEST PUSH0 DUP1 SLOAD SWAP1 PUSH2 0x100 EXP SWAP1 DIV PUSH20 0xFFFFFFFFFFFFFFFFFFFFFFFFFFFFFFFFFFFFFFFF AND DUP2 JUMP JUMPDEST PUSH1 0x1 PUSH1 0x20 MSTORE DUP1 PUSH0 MSTORE PUSH1 0x40 PUSH0 KECCAK256 PUSH0 SWAP2 POP SWAP1 POP SLOAD DUP2 JUMP JUMPDEST PUSH0 PUSH1 0x1 SWAP1 POP JUMPDEST PUSH1 0x3 DUP2 LT ISZERO PUSH2 0x944 JUMPI PUSH0 DUP2 SWAP1 POP JUMPDEST PUSH0 DUP2 GT DUP1 ISZERO PUSH2 0x7F3 JUMPI POP PUSH1 0x1 PUSH0 PUSH1 0x2 PUSH1 0x1 DUP5 PUSH2 0x713 SWAP2 SWAP1 PUSH2 0xC8A JUMP JUMPDEST PUSH1 0x3 DUP2 LT PUSH2 0x724 JUMPI PUSH2 0x723 PUSH2 0xBE5 JUMP JUMPDEST JUMPDEST ADD PUSH0 SWAP1 SLOAD SWAP1 PUSH2 0x100 EXP SWAP1 DIV PUSH20 0xFFFFFFFFFFFFFFFFFFFFFFFFFFFFFFFFFFFFFFFF AND PUSH20 0xFFFFFFFFFFFFFFFFFFFFFFFFFFFFFFFFFFFFFFFF AND PUSH20 0xFFFFFFFFFFFFFFFFFFFFFFFFFFFFFFFFFFFFFFFF AND DUP2 MSTORE PUSH1 0x20 ADD SWAP1 DUP2 MSTORE PUSH1 0x20 ADD PUSH0 KECCAK256 SLOAD PUSH1 0x1 PUSH0 PUSH1 0x2 DUP5 PUSH1 0x3 DUP2 LT PUSH2 0x796 JUMPI PUSH2 0x795 PUSH2 0xBE5 JUMP JUMPDEST JUMPDEST ADD PUSH0 SWAP1 SLOAD SWAP1 PUSH2 0x100 EXP SWAP1 DIV PUSH20 0xFFFFFFFFFFFFFFFFFFFFFFFFFFFFFFFFFFFFFFFF AND PUSH20 0xFFFFFFFFFFFFFFFFFFFFFFFFFFFFFFFFFFFFFFFF AND PUSH20 0xFFFFFFFFFFFFFFFFFFFFFFFFFFFFFFFFFFFFFFFF AND DUP2 MSTORE PUSH1 0x20 ADD SWAP1 DUP2 MSTORE PUSH1 0x20 ADD PUSH0 KECCAK256 SLOAD GT JUMPDEST ISZERO PUSH2 0x936 JUMPI PUSH0 PUSH1 0x2 DUP3 PUSH1 0x3 DUP2 LT PUSH2 0x80D JUMPI PUSH2 0x80C PUSH2 0xBE5 JUMP JUMPDEST JUMPDEST ADD PUSH0 SWAP1 SLOAD SWAP1 PUSH2 0x100 EXP SWAP1 DIV PUSH20 0xFFFFFFFFFFFFFFFFFFFFFFFFFFFFFFFFFFFFFFFF AND SWAP1 POP PUSH1 0x2 PUSH1 0x1 DUP4 PUSH2 0x83F SWAP2 SWAP1 PUSH2 0xC8A JUMP JUMPDEST PUSH1 0x3 DUP2 LT PUSH2 0x850 JUMPI PUSH2 0x84F PUSH2 0xBE5 JUMP JUMPDEST JUMPDEST ADD PUSH0 SWAP1 SLOAD SWAP1 PUSH2 0x100 EXP SWAP1 DIV PUSH20 0xFFFFFFFFFFFFFFFFFFFFFFFFFFFFFFFFFFFFFFFF AND PUSH1 0x2 DUP4 PUSH1 0x3 DUP2 LT PUSH2 0x885 JUMPI PUSH2 0x884 PUSH2 0xBE5 JUMP JUMPDEST JUMPDEST ADD PUSH0 PUSH2 0x100 EXP DUP2 SLOAD DUP2 PUSH20 0xFFFFFFFFFFFFFFFFFFFFFFFFFFFFFFFFFFFFFFFF MUL NOT AND SWAP1 DUP4 PUSH20 0xFFFFFFFFFFFFFFFFFFFFFFFFFFFFFFFFFFFFFFFF AND MUL OR SWAP1 SSTORE POP DUP1 PUSH1 0x2 PUSH1 0x1 DUP5 PUSH2 0x8D3 SWAP2 SWAP1 PUSH2 0xC8A JUMP JUMPDEST PUSH1 0x3 DUP2 LT PUSH2 0x8E4 JUMPI PUSH2 0x8E3 PUSH2 0xBE5 JUMP JUMPDEST JUMPDEST ADD PUSH0 PUSH2 0x100 EXP DUP2 SLOAD DUP2 PUSH20 0xFFFFFFFFFFFFFFFFFFFFFFFFFFFFFFFFFFFFFFFF MUL NOT AND SWAP1 DUP4 PUSH20 0xFFFFFFFFFFFFFFFFFFFFFFFFFFFFFFFFFFFFFFFF AND MUL OR SWAP1 SSTORE POP POP DUP1 DUP1 PUSH2 0x92E SWAP1 PUSH2 0xCBD JUMP JUMPDEST SWAP2 POP POP PUSH2 0x6F7 JUMP JUMPDEST POP DUP1 DUP1 PUSH1 0x1 ADD SWAP2 POP POP PUSH2 0x6E9 JUMP JUMPDEST POP JUMP JUMPDEST PUSH1 0x40 MLOAD DUP1 PUSH1 0x60 ADD PUSH1 0x40 MSTORE DUP1 PUSH1 0x3 SWAP1 PUSH1 0x20 DUP3 MUL DUP1 CALLDATASIZE DUP4 CALLDATACOPY DUP1 DUP3 ADD SWAP2 POP POP SWAP1 POP POP SWAP1 JUMP JUMPDEST PUSH0 PUSH20 0xFFFFFFFFFFFFFFFFFFFFFFFFFFFFFFFFFFFFFFFF DUP3 AND SWAP1 POP SWAP2 SWAP1 POP JUMP JUMPDEST PUSH0 PUSH2 0x992 DUP3 PUSH2 0x969 JUMP JUMPDEST SWAP1 POP SWAP2 SWAP1 POP JUMP JUMPDEST PUSH2 0x9A2 DUP2 PUSH2 0x988 JUMP JUMPDEST DUP3 MSTORE POP POP JUMP JUMPDEST PUSH0 DUP2 SWAP1 POP SWAP2 SWAP1 POP JUMP JUMPDEST PUSH2 0x9BA DUP2 PUSH2 0x9A8 JUMP JUMPDEST DUP3 MSTORE POP POP JUMP JUMPDEST PUSH0 PUSH1 0x40 DUP3 ADD SWAP1 POP PUSH2 0x9D3 PUSH0 DUP4 ADD DUP6 PUSH2 0x999 JUMP JUMPDEST PUSH2 0x9E0 PUSH1 0x20 DUP4 ADD DUP5 PUSH2 0x9B1 JUMP JUMPDEST SWAP4 SWAP3 POP POP POP JUMP JUMPDEST PUSH32 0x4E487B7100000000000000000000000000000000000000000000000000000000 PUSH0 MSTORE PUSH1 0x11 PUSH1 0x4 MSTORE PUSH1 0x24 PUSH0 REVERT JUMPDEST PUSH0 PUSH2 0xA1E DUP3 PUSH2 0x9A8 JUMP JUMPDEST SWAP2 POP PUSH2 0xA29 DUP4 PUSH2 0x9A8 JUMP JUMPDEST SWAP3 POP DUP3 DUP3 ADD SWAP1 POP DUP1 DUP3 GT ISZERO PUSH2 0xA41 JUMPI PUSH2 0xA40 PUSH2 0x9E7 JUMP JUMPDEST JUMPDEST SWAP3 SWAP2 POP POP JUMP JUMPDEST PUSH0 DUP1 REVERT JUMPDEST PUSH2 0xA54 DUP2 PUSH2 0x9A8 JUMP JUMPDEST DUP2 EQ PUSH2 0xA5E JUMPI PUSH0 DUP1 REVERT JUMPDEST POP JUMP JUMPDEST PUSH0 DUP2 CALLDATALOAD SWAP1 POP PUSH2 0xA6F DUP2 PUSH2 0xA4B JUMP JUMPDEST SWAP3 SWAP2 POP POP JUMP JUMPDEST PUSH0 PUSH1 0x20 DUP3 DUP5 SUB SLT ISZERO PUSH2 0xA8A JUMPI PUSH2 0xA89 PUSH2 0xA47 JUMP JUMPDEST JUMPDEST PUSH0 PUSH2 0xA97 DUP5 DUP3 DUP6 ADD PUSH2 0xA61 JUMP JUMPDEST SWAP2 POP POP SWAP3 SWAP2 POP POP JUMP JUMPDEST PUSH0 PUSH1 0x20 DUP3 ADD SWAP1 POP PUSH2 0xAB3 PUSH0 DUP4 ADD DUP5 PUSH2 0x999 JUMP JUMPDEST SWAP3 SWAP2 POP POP JUMP JUMPDEST PUSH2 0xAC2 DUP2 PUSH2 0x988 JUMP JUMPDEST DUP2 EQ PUSH2 0xACC JUMPI PUSH0 DUP1 REVERT JUMPDEST POP JUMP JUMPDEST PUSH0 DUP2 CALLDATALOAD SWAP1 POP PUSH2 0xADD DUP2 PUSH2 0xAB9 JUMP JUMPDEST SWAP3 SWAP2 POP POP JUMP JUMPDEST PUSH0 PUSH1 0x20 DUP3 DUP5 SUB SLT ISZERO PUSH2 0xAF8 JUMPI PUSH2 0xAF7 PUSH2 0xA47 JUMP JUMPDEST JUMPDEST PUSH0 PUSH2 0xB05 DUP5 DUP3 DUP6 ADD PUSH2 0xACF JUMP JUMPDEST SWAP2 POP POP SWAP3 SWAP2 POP POP JUMP JUMPDEST PUSH0 PUSH1 0x20 DUP3 ADD SWAP1 POP PUSH2 0xB21 PUSH0 DUP4 ADD DUP5 PUSH2 0x9B1 JUMP JUMPDEST SWAP3 SWAP2 POP POP JUMP JUMPDEST PUSH0 PUSH1 0x3 SWAP1 POP SWAP2 SWAP1 POP JUMP JUMPDEST PUSH0 DUP2 SWAP1 POP SWAP3 SWAP2 POP POP JUMP JUMPDEST PUSH0 DUP2 SWAP1 POP SWAP2 SWAP1 POP JUMP JUMPDEST PUSH2 0xB4D DUP2 PUSH2 0x988 JUMP JUMPDEST DUP3 MSTORE POP POP JUMP JUMPDEST PUSH0 PUSH2 0xB5E DUP4 DUP4 PUSH2 0xB44 JUMP JUMPDEST PUSH1 0x20 DUP4 ADD SWAP1 POP SWAP3 SWAP2 POP POP JUMP JUMPDEST PUSH0 PUSH1 0x20 DUP3 ADD SWAP1 POP SWAP2 SWAP1 POP JUMP JUMPDEST PUSH2 0xB7F DUP2 PUSH2 0xB27 JUMP JUMPDEST PUSH2 0xB89 DUP2 DUP5 PUSH2 0xB31 JUMP JUMPDEST SWAP3 POP PUSH2 0xB94 DUP3 PUSH2 0xB3B JUMP JUMPDEST DUP1 PUSH0 JUMPDEST DUP4 DUP2 LT ISZERO PUSH2 0xBC4 JUMPI DUP2 MLOAD PUSH2 0xBAB DUP8 DUP3 PUSH2 0xB53 JUMP JUMPDEST SWAP7 POP PUSH2 0xBB6 DUP4 PUSH2 0xB6A JUMP JUMPDEST SWAP3 POP POP PUSH1 0x1 DUP2 ADD SWAP1 POP PUSH2 0xB97 JUMP JUMPDEST POP POP POP POP POP POP JUMP JUMPDEST PUSH0 PUSH1 0x60 DUP3 ADD SWAP1 POP PUSH2 0xBDF PUSH0 DUP4 ADD DUP5 PUSH2 0xB76 JUMP JUMPDEST SWAP3 SWAP2 POP POP JUMP JUMPDEST PUSH32 0x4E487B7100000000000000000000000000000000000000000000000000000000 PUSH0 MSTORE PUSH1 0x32 PUSH1 0x4 MSTORE PUSH1 0x24 PUSH0 REVERT JUMPDEST PUSH0 DUP3 DUP3 MSTORE PUSH1 0x20 DUP3 ADD SWAP1 POP SWAP3 SWAP2 POP POP JUMP JUMPDEST PUSH32 0x4E6F742074686520636F6E7472616374206F776E657200000000000000000000 PUSH0 DUP3 ADD MSTORE POP JUMP JUMPDEST PUSH0 PUSH2 0xC56 PUSH1 0x16 DUP4 PUSH2 0xC12 JUMP JUMPDEST SWAP2 POP PUSH2 0xC61 DUP3 PUSH2 0xC22 JUMP JUMPDEST PUSH1 0x20 DUP3 ADD SWAP1 POP SWAP2 SWAP1 POP JUMP JUMPDEST PUSH0 PUSH1 0x20 DUP3 ADD SWAP1 POP DUP2 DUP2 SUB PUSH0 DUP4 ADD MSTORE PUSH2 0xC83 DUP2 PUSH2 0xC4A JUMP JUMPDEST SWAP1 POP SWAP2 SWAP1 POP JUMP JUMPDEST PUSH0 PUSH2 0xC94 DUP3 PUSH2 0x9A8 JUMP JUMPDEST SWAP2 POP PUSH2 0xC9F DUP4 PUSH2 0x9A8 JUMP JUMPDEST SWAP3 POP DUP3 DUP3 SUB SWAP1 POP DUP2 DUP2 GT ISZERO PUSH2 0xCB7 JUMPI PUSH2 0xCB6 PUSH2 0x9E7 JUMP JUMPDEST JUMPDEST SWAP3 SWAP2 POP POP JUMP JUMPDEST PUSH0 PUSH2 0xCC7 DUP3 PUSH2 0x9A8 JUMP JUMPDEST SWAP2 POP PUSH0 DUP3 SUB PUSH2 0xCD9 JUMPI PUSH2 0xCD8 PUSH2 0x9E7 JUMP JUMPDEST JUMPDEST PUSH1 0x1 DUP3 SUB SWAP1 POP SWAP2 SWAP1 POP JUMP INVALID LOG2 PUSH5 0x6970667358 0x22 SLT KECCAK256 TIMESTAMP 0xF8 DUP16 PUSH16 0xDB3061C3E14334D5CF40513EE90C414F CALLER 0xC1 0xC6 0xAD SWAP14 PUSH6 0x1946843360E1 PUSH5 0x736F6C6343 STOP ADDMOD BYTE STOP CALLER "
				},
				"gasEstimates": {
					"creation": {
						"codeDepositCost": "670800",
						"executionCost": "24965",
						"totalCost": "695765"
					},
					"external": {
						"deposits(address)": "2868",
						"getContractBalance()": "334",
						"getTopDepositors()": "infinite",
						"owner()": "2549",
						"topDepositors(uint256)": "2796",
						"transferOwner(address)": "26926",
						"withdraw()": "infinite"
					}
				},
				"methodIdentifiers": {
					"deposits(address)": "fc7e286d",
					"getContractBalance()": "6f9fb98a",
					"getTopDepositors()": "81454f71",
					"owner()": "8da5cb5b",
					"topDepositors(uint256)": "30861078",
					"transferOwner(address)": "4fb2e45d",
					"withdraw()": "3ccfd60b"
				}
			},
			"storageLayout": {
				"storage": [
					{
						"astId": 6,
						"contract": "1012/BigBank.sol:BigBank",
						"label": "owner",
						"offset": 0,
						"slot": "0",
						"type": "t_address"
					},
					{
						"astId": 10,
						"contract": "1012/BigBank.sol:BigBank",
						"label": "deposits",
						"offset": 0,
						"slot": "1",
						"type": "t_mapping(t_address,t_uint256)"
					},
					{
						"astId": 14,
						"contract": "1012/BigBank.sol:BigBank",
						"label": "topDepositors",
						"offset": 0,
						"slot": "2",
						"type": "t_array(t_address)3_storage"
					}
				],
				"types": {
					"t_address": {
						"encoding": "inplace",
						"label": "address",
						"numberOfBytes": "20"
					},
					"t_array(t_address)3_storage": {
						"base": "t_address",
						"encoding": "inplace",
						"label": "address[3]",
						"numberOfBytes": "96"
					},
					"t_mapping(t_address,t_uint256)": {
						"encoding": "mapping",
						"key": "t_address",
						"label": "mapping(address => uint256)",
						"numberOfBytes": "32",
						"value": "t_uint256"
					},
					"t_uint256": {
						"encoding": "inplace",
						"label": "uint256",
						"numberOfBytes": "32"
					}
				}
			},
			"userdoc": {
				"kind": "user",
				"methods": {},
				"version": 1
			}
		}
	}
}