{
	"1012/Bank.sol": {
		"Bank": {
			"abi": [
				{
					"inputs": [],
					"stateMutability": "nonpayable",
					"type": "constructor"
				},
				{
					"inputs": [
						{
							"internalType": "address",
							"name": "",
							"type": "address"
						}
					],
					"name": "deposits",
					"outputs": [
						{
							"internalType": "uint256",
							"name": "",
							"type": "uint256"
						}
					],
					"stateMutability": "view",
					"type": "function"
				},
				{
					"inputs": [],
					"name": "getContractBalance",
					"outputs": [
						{
							"internalType": "uint256",
							"name": "",
							"type": "uint256"
						}
					],
					"stateMutability": "view",
					"type": "function"
				},
				{
					"inputs": [],
					"name": "getTopDepositors",
					"outputs": [
						{
							"internalType": "address[3]",
							"name": "",
							"type": "address[3]"
						}
					],
					"stateMutability": "view",
					"type": "function"
				},
				{
					"inputs": [],
					"name": "owner",
					"outputs": [
						{
							"internalType": "address",
							"name": "",
							"type": "address"
						}
					],
					"stateMutability": "view",
					"type": "function"
				},
				{
					"inputs": [
						{
							"internalType": "uint256",
							"name": "",
							"type": "uint256"
						}
					],
					"name": "topDepositors",
					"outputs": [
						{
							"internalType": "address",
							"name": "",
							"type": "address"
						}
					],
					"stateMutability": "view",
					"type": "function"
				},
				{
					"inputs": [],
					"name": "withdraw",
					"outputs": [],
					"stateMutability": "nonpayable",
					"type": "function"
				},
				{
					"stateMutability": "payable",
					"type": "receive"
				}
			],
			"devdoc": {
				"kind": "dev",
				"methods": {},
				"version": 1
			},
			"evm": {
				"assembly": "    /* \"1012/Bank.sol\":80:2000  contract Bank is IBank {... */\n  mstore(0x40, 0x80)\n    /* \"1012/Bank.sol\":223:352  constructor () {... */\n  callvalue\n  dup1\n  iszero\n  tag_1\n  jumpi\n  0x00\n  dup1\n  revert\ntag_1:\n  pop\n    /* \"1012/Bank.sol\":256:266  msg.sender */\n  caller\n    /* \"1012/Bank.sol\":248:253  owner */\n  0x00\n  dup1\n    /* \"1012/Bank.sol\":248:266  owner = msg.sender */\n  0x0100\n  exp\n  dup2\n  sload\n  dup2\n  0xffffffffffffffffffffffffffffffffffffffff\n  mul\n  not\n  and\n  swap1\n  dup4\n  0xffffffffffffffffffffffffffffffffffffffff\n  and\n  mul\n  or\n  swap1\n  sstore\n  pop\n    /* \"1012/Bank.sol\":80:2000  contract Bank is IBank {... */\n  dataSize(sub_0)\n  dup1\n  dataOffset(sub_0)\n  0x00\n  codecopy\n  0x00\n  return\nstop\n\nsub_0: assembly {\n        /* \"1012/Bank.sol\":80:2000  contract Bank is IBank {... */\n      mstore(0x40, 0x80)\n      jumpi(tag_1, lt(calldatasize, 0x04))\n      shr(0xe0, calldataload(0x00))\n      dup1\n      0x30861078\n      eq\n      tag_3\n      jumpi\n      dup1\n      0x3ccfd60b\n      eq\n      tag_4\n      jumpi\n      dup1\n      0x6f9fb98a\n      eq\n      tag_5\n      jumpi\n      dup1\n      0x81454f71\n      eq\n      tag_6\n      jumpi\n      dup1\n      0x8da5cb5b\n      eq\n      tag_7\n      jumpi\n      dup1\n      0xfc7e286d\n      eq\n      tag_8\n      jumpi\n      jump(tag_2)\n    tag_1:\n      jumpi(tag_2, calldatasize)\n        /* \"1012/Bank.sol\":422:423  0 */\n      0x00\n        /* \"1012/Bank.sol\":412:421  msg.value */\n      callvalue\n        /* \"1012/Bank.sol\":412:423  msg.value>0 */\n      gt\n        /* \"1012/Bank.sol\":404:465  require(msg.value>0, \"Deposit amount must be greater than 0\") */\n      tag_11\n      jumpi\n      mload(0x40)\n      0x08c379a000000000000000000000000000000000000000000000000000000000\n      dup2\n      mstore\n      0x04\n      add\n      tag_12\n      swap1\n      tag_13\n      jump\t// in\n    tag_12:\n      mload(0x40)\n      dup1\n      swap2\n      sub\n      swap1\n      revert\n    tag_11:\n        /* \"1012/Bank.sol\":499:508  msg.value */\n      callvalue\n        /* \"1012/Bank.sol\":475:483  deposits */\n      0x01\n        /* \"1012/Bank.sol\":475:495  deposits[msg.sender] */\n      0x00\n        /* \"1012/Bank.sol\":484:494  msg.sender */\n      caller\n        /* \"1012/Bank.sol\":475:495  deposits[msg.sender] */\n      0xffffffffffffffffffffffffffffffffffffffff\n      and\n      0xffffffffffffffffffffffffffffffffffffffff\n      and\n      dup2\n      mstore\n      0x20\n      add\n      swap1\n      dup2\n      mstore\n      0x20\n      add\n      0x00\n      keccak256\n      0x00\n        /* \"1012/Bank.sol\":475:508  deposits[msg.sender] += msg.value */\n      dup3\n      dup3\n      sload\n      tag_14\n      swap2\n      swap1\n      tag_15\n      jump\t// in\n    tag_14:\n      swap3\n      pop\n      pop\n      dup2\n      swap1\n      sstore\n      pop\n        /* \"1012/Bank.sol\":518:550  _updateTopDepositors(msg.sender) */\n      tag_16\n        /* \"1012/Bank.sol\":539:549  msg.sender */\n      caller\n        /* \"1012/Bank.sol\":518:538  _updateTopDepositors */\n      tag_17\n        /* \"1012/Bank.sol\":518:550  _updateTopDepositors(msg.sender) */\n      jump\t// in\n    tag_16:\n        /* \"1012/Bank.sol\":80:2000  contract Bank is IBank {... */\n      stop\n    tag_2:\n      0x00\n      dup1\n      revert\n        /* \"1012/Bank.sol\":185:216  address[3] public topDepositors */\n    tag_3:\n      callvalue\n      dup1\n      iszero\n      tag_18\n      jumpi\n      0x00\n      dup1\n      revert\n    tag_18:\n      pop\n      tag_19\n      0x04\n      dup1\n      calldatasize\n      sub\n      dup2\n      add\n      swap1\n      tag_20\n      swap2\n      swap1\n      tag_21\n      jump\t// in\n    tag_20:\n      tag_22\n      jump\t// in\n    tag_19:\n      mload(0x40)\n      tag_23\n      swap2\n      swap1\n      tag_24\n      jump\t// in\n    tag_23:\n      mload(0x40)\n      dup1\n      swap2\n      sub\n      swap1\n      return\n        /* \"1012/Bank.sol\":563:664  function withdraw() external onlyOwner{... */\n    tag_4:\n      callvalue\n      dup1\n      iszero\n      tag_25\n      jumpi\n      0x00\n      dup1\n      revert\n    tag_25:\n      pop\n      tag_26\n      tag_27\n      jump\t// in\n    tag_26:\n      stop\n        /* \"1012/Bank.sol\":1891:1998  function getContractBalance() external view returns (uint256) {... */\n    tag_5:\n      callvalue\n      dup1\n      iszero\n      tag_28\n      jumpi\n      0x00\n      dup1\n      revert\n    tag_28:\n      pop\n      tag_29\n      tag_30\n      jump\t// in\n    tag_29:\n      mload(0x40)\n      tag_31\n      swap2\n      swap1\n      tag_32\n      jump\t// in\n    tag_31:\n      mload(0x40)\n      dup1\n      swap2\n      sub\n      swap1\n      return\n        /* \"1012/Bank.sol\":1620:1884  function getTopDepositors() external view returns (address[3] memory) {... */\n    tag_6:\n      callvalue\n      dup1\n      iszero\n      tag_33\n      jumpi\n      0x00\n      dup1\n      revert\n    tag_33:\n      pop\n      tag_34\n      tag_35\n      jump\t// in\n    tag_34:\n      mload(0x40)\n      tag_36\n      swap2\n      swap1\n      tag_37\n      jump\t// in\n    tag_36:\n      mload(0x40)\n      dup1\n      swap2\n      sub\n      swap1\n      return\n        /* \"1012/Bank.sol\":109:129  address public owner */\n    tag_7:\n      callvalue\n      dup1\n      iszero\n      tag_38\n      jumpi\n      0x00\n      dup1\n      revert\n    tag_38:\n      pop\n      tag_39\n      tag_40\n      jump\t// in\n    tag_39:\n      mload(0x40)\n      tag_41\n      swap2\n      swap1\n      tag_24\n      jump\t// in\n    tag_41:\n      mload(0x40)\n      dup1\n      swap2\n      sub\n      swap1\n      return\n        /* \"1012/Bank.sol\":135:179  mapping (address => uint256) public deposits */\n    tag_8:\n      callvalue\n      dup1\n      iszero\n      tag_42\n      jumpi\n      0x00\n      dup1\n      revert\n    tag_42:\n      pop\n      tag_43\n      0x04\n      dup1\n      calldatasize\n      sub\n      dup2\n      add\n      swap1\n      tag_44\n      swap2\n      swap1\n      tag_45\n      jump\t// in\n    tag_44:\n      tag_46\n      jump\t// in\n    tag_43:\n      mload(0x40)\n      tag_47\n      swap2\n      swap1\n      tag_32\n      jump\t// in\n    tag_47:\n      mload(0x40)\n      dup1\n      swap2\n      sub\n      swap1\n      return\n        /* \"1012/Bank.sol\":862:1246  function _updateTopDepositors (address user) internal {... */\n    tag_17:\n        /* \"1012/Bank.sol\":931:940  uint256 i */\n      0x00\n        /* \"1012/Bank.sol\":926:1094  for (uint256 i = 0; i < 3; i++) {... */\n    tag_49:\n        /* \"1012/Bank.sol\":950:951  3 */\n      0x03\n        /* \"1012/Bank.sol\":946:947  i */\n      dup2\n        /* \"1012/Bank.sol\":946:951  i < 3 */\n      lt\n        /* \"1012/Bank.sol\":926:1094  for (uint256 i = 0; i < 3; i++) {... */\n      iszero\n      tag_50\n      jumpi\n        /* \"1012/Bank.sol\":996:1000  user */\n      dup2\n        /* \"1012/Bank.sol\":976:1000  topDepositors[i] == user */\n      0xffffffffffffffffffffffffffffffffffffffff\n      and\n        /* \"1012/Bank.sol\":976:989  topDepositors */\n      0x02\n        /* \"1012/Bank.sol\":990:991  i */\n      dup3\n        /* \"1012/Bank.sol\":976:992  topDepositors[i] */\n      0x03\n      dup2\n      lt\n      tag_52\n      jumpi\n      tag_53\n      tag_54\n      jump\t// in\n    tag_53:\n    tag_52:\n      add\n      0x00\n      swap1\n      sload\n      swap1\n      0x0100\n      exp\n      swap1\n      div\n      0xffffffffffffffffffffffffffffffffffffffff\n      and\n        /* \"1012/Bank.sol\":976:1000  topDepositors[i] == user */\n      0xffffffffffffffffffffffffffffffffffffffff\n      and\n      sub\n        /* \"1012/Bank.sol\":972:1084  if (topDepositors[i] == user) {... */\n      tag_56\n      jumpi\n        /* \"1012/Bank.sol\":1020:1045  _rearrangeTopDepositors() */\n      tag_57\n        /* \"1012/Bank.sol\":1020:1043  _rearrangeTopDepositors */\n      tag_58\n        /* \"1012/Bank.sol\":1020:1045  _rearrangeTopDepositors() */\n      jump\t// in\n    tag_57:\n        /* \"1012/Bank.sol\":1063:1070  return; */\n      pop\n      jump(tag_48)\n        /* \"1012/Bank.sol\":972:1084  if (topDepositors[i] == user) {... */\n    tag_56:\n        /* \"1012/Bank.sol\":953:956  i++ */\n      dup1\n      dup1\n      0x01\n      add\n      swap2\n      pop\n      pop\n        /* \"1012/Bank.sol\":926:1094  for (uint256 i = 0; i < 3; i++) {... */\n      jump(tag_49)\n    tag_50:\n      pop\n        /* \"1012/Bank.sol\":1125:1133  deposits */\n      0x01\n        /* \"1012/Bank.sol\":1125:1151  deposits[topDepositors[2]] */\n      0x00\n        /* \"1012/Bank.sol\":1134:1147  topDepositors */\n      0x02\n        /* \"1012/Bank.sol\":1148:1149  2 */\n      dup1\n        /* \"1012/Bank.sol\":1134:1150  topDepositors[2] */\n      0x03\n      dup2\n      lt\n      tag_59\n      jumpi\n      tag_60\n      tag_54\n      jump\t// in\n    tag_60:\n    tag_59:\n      add\n      0x00\n      swap1\n      sload\n      swap1\n      0x0100\n      exp\n      swap1\n      div\n      0xffffffffffffffffffffffffffffffffffffffff\n      and\n        /* \"1012/Bank.sol\":1125:1151  deposits[topDepositors[2]] */\n      0xffffffffffffffffffffffffffffffffffffffff\n      and\n      0xffffffffffffffffffffffffffffffffffffffff\n      and\n      dup2\n      mstore\n      0x20\n      add\n      swap1\n      dup2\n      mstore\n      0x20\n      add\n      0x00\n      keccak256\n      sload\n        /* \"1012/Bank.sol\":1108:1116  deposits */\n      0x01\n        /* \"1012/Bank.sol\":1108:1122  deposits[user] */\n      0x00\n        /* \"1012/Bank.sol\":1117:1121  user */\n      dup4\n        /* \"1012/Bank.sol\":1108:1122  deposits[user] */\n      0xffffffffffffffffffffffffffffffffffffffff\n      and\n      0xffffffffffffffffffffffffffffffffffffffff\n      and\n      dup2\n      mstore\n      0x20\n      add\n      swap1\n      dup2\n      mstore\n      0x20\n      add\n      0x00\n      keccak256\n      sload\n        /* \"1012/Bank.sol\":1108:1151  deposits[user] > deposits[topDepositors[2]] */\n      gt\n        /* \"1012/Bank.sol\":1104:1240  if (deposits[user] > deposits[topDepositors[2]]) {... */\n      iszero\n      tag_62\n      jumpi\n        /* \"1012/Bank.sol\":1186:1190  user */\n      dup1\n        /* \"1012/Bank.sol\":1167:1180  topDepositors */\n      0x02\n        /* \"1012/Bank.sol\":1181:1182  2 */\n      dup1\n        /* \"1012/Bank.sol\":1167:1183  topDepositors[2] */\n      0x03\n      dup2\n      lt\n      tag_63\n      jumpi\n      tag_64\n      tag_54\n      jump\t// in\n    tag_64:\n    tag_63:\n      add\n      0x00\n        /* \"1012/Bank.sol\":1167:1190  topDepositors[2] = user */\n      0x0100\n      exp\n      dup2\n      sload\n      dup2\n      0xffffffffffffffffffffffffffffffffffffffff\n      mul\n      not\n      and\n      swap1\n      dup4\n      0xffffffffffffffffffffffffffffffffffffffff\n      and\n      mul\n      or\n      swap1\n      sstore\n      pop\n        /* \"1012/Bank.sol\":1204:1229  _rearrangeTopDepositors() */\n      tag_66\n        /* \"1012/Bank.sol\":1204:1227  _rearrangeTopDepositors */\n      tag_58\n        /* \"1012/Bank.sol\":1204:1229  _rearrangeTopDepositors() */\n      jump\t// in\n    tag_66:\n        /* \"1012/Bank.sol\":1104:1240  if (deposits[user] > deposits[topDepositors[2]]) {... */\n    tag_62:\n        /* \"1012/Bank.sol\":862:1246  function _updateTopDepositors (address user) internal {... */\n    tag_48:\n      pop\n      jump\t// out\n        /* \"1012/Bank.sol\":185:216  address[3] public topDepositors */\n    tag_22:\n      0x02\n      dup2\n      0x03\n      dup2\n      lt\n      tag_67\n      jumpi\n      0x00\n      dup1\n      revert\n    tag_67:\n      add\n      0x00\n      swap2\n      pop\n      sload\n      swap1\n      0x0100\n      exp\n      swap1\n      div\n      0xffffffffffffffffffffffffffffffffffffffff\n      and\n      dup2\n      jump\t// out\n        /* \"1012/Bank.sol\":563:664  function withdraw() external onlyOwner{... */\n    tag_27:\n        /* \"1012/Bank.sol\":723:728  owner */\n      0x00\n      dup1\n      sload\n      swap1\n      0x0100\n      exp\n      swap1\n      div\n      0xffffffffffffffffffffffffffffffffffffffff\n      and\n        /* \"1012/Bank.sol\":709:728  msg.sender == owner */\n      0xffffffffffffffffffffffffffffffffffffffff\n      and\n        /* \"1012/Bank.sol\":709:719  msg.sender */\n      caller\n        /* \"1012/Bank.sol\":709:728  msg.sender == owner */\n      0xffffffffffffffffffffffffffffffffffffffff\n      and\n      eq\n        /* \"1012/Bank.sol\":701:755  require(msg.sender == owner, \"Not the contract owner\") */\n      tag_70\n      jumpi\n      mload(0x40)\n      0x08c379a000000000000000000000000000000000000000000000000000000000\n      dup2\n      mstore\n      0x04\n      add\n      tag_71\n      swap1\n      tag_72\n      jump\t// in\n    tag_71:\n      mload(0x40)\n      dup1\n      swap2\n      sub\n      swap1\n      revert\n    tag_70:\n        /* \"1012/Bank.sol\":619:624  owner */\n      0x00\n      dup1\n      sload\n      swap1\n      0x0100\n      exp\n      swap1\n      div\n      0xffffffffffffffffffffffffffffffffffffffff\n      and\n        /* \"1012/Bank.sol\":611:634  payable(owner).transfer */\n      0xffffffffffffffffffffffffffffffffffffffff\n      and\n        /* \"1012/Bank.sol\":611:657  payable(owner).transfer(address(this).balance) */\n      0x08fc\n        /* \"1012/Bank.sol\":635:656  address(this).balance */\n      selfbalance\n        /* \"1012/Bank.sol\":611:657  payable(owner).transfer(address(this).balance) */\n      swap1\n      dup2\n      iszero\n      mul\n      swap1\n      mload(0x40)\n      0x00\n      mload(0x40)\n      dup1\n      dup4\n      sub\n      dup2\n      dup6\n      dup9\n      dup9\n      call\n      swap4\n      pop\n      pop\n      pop\n      pop\n      iszero\n      dup1\n      iszero\n      tag_75\n      jumpi\n      returndatasize\n      0x00\n      dup1\n      returndatacopy\n      revert(0x00, returndatasize)\n    tag_75:\n      pop\n        /* \"1012/Bank.sol\":563:664  function withdraw() external onlyOwner{... */\n      jump\t// out\n        /* \"1012/Bank.sol\":1891:1998  function getContractBalance() external view returns (uint256) {... */\n    tag_30:\n        /* \"1012/Bank.sol\":1944:1951  uint256 */\n      0x00\n        /* \"1012/Bank.sol\":1970:1991  address(this).balance */\n      selfbalance\n        /* \"1012/Bank.sol\":1963:1991  return address(this).balance */\n      swap1\n      pop\n        /* \"1012/Bank.sol\":1891:1998  function getContractBalance() external view returns (uint256) {... */\n      swap1\n      jump\t// out\n        /* \"1012/Bank.sol\":1620:1884  function getTopDepositors() external view returns (address[3] memory) {... */\n    tag_35:\n        /* \"1012/Bank.sol\":1671:1688  address[3] memory */\n      tag_77\n      tag_78\n      jump\t// in\n    tag_77:\n        /* \"1012/Bank.sol\":1700:1737  address[3] memory topDepositorsMemory */\n      tag_80\n      tag_78\n      jump\t// in\n    tag_80:\n        /* \"1012/Bank.sol\":1752:1758  uint i */\n      0x00\n        /* \"1012/Bank.sol\":1747:1842  for (uint i = 0; i < 3; i++) {... */\n    tag_81:\n        /* \"1012/Bank.sol\":1768:1769  3 */\n      0x03\n        /* \"1012/Bank.sol\":1764:1765  i */\n      dup2\n        /* \"1012/Bank.sol\":1764:1769  i < 3 */\n      lt\n        /* \"1012/Bank.sol\":1747:1842  for (uint i = 0; i < 3; i++) {... */\n      iszero\n      tag_82\n      jumpi\n        /* \"1012/Bank.sol\":1815:1828  topDepositors */\n      0x02\n        /* \"1012/Bank.sol\":1829:1830  i */\n      dup2\n        /* \"1012/Bank.sol\":1815:1831  topDepositors[i] */\n      0x03\n      dup2\n      lt\n      tag_84\n      jumpi\n      tag_85\n      tag_54\n      jump\t// in\n    tag_85:\n    tag_84:\n      add\n      0x00\n      swap1\n      sload\n      swap1\n      0x0100\n      exp\n      swap1\n      div\n      0xffffffffffffffffffffffffffffffffffffffff\n      and\n        /* \"1012/Bank.sol\":1790:1809  topDepositorsMemory */\n      dup3\n        /* \"1012/Bank.sol\":1810:1811  i */\n      dup3\n        /* \"1012/Bank.sol\":1790:1812  topDepositorsMemory[i] */\n      0x03\n      dup2\n      lt\n      tag_87\n      jumpi\n      tag_88\n      tag_54\n      jump\t// in\n    tag_88:\n    tag_87:\n      0x20\n      mul\n      add\n        /* \"1012/Bank.sol\":1790:1831  topDepositorsMemory[i] = topDepositors[i] */\n      swap1\n      0xffffffffffffffffffffffffffffffffffffffff\n      and\n      swap1\n      dup2\n      0xffffffffffffffffffffffffffffffffffffffff\n      and\n      dup2\n      mstore\n      pop\n      pop\n        /* \"1012/Bank.sol\":1771:1774  i++ */\n      dup1\n      dup1\n      0x01\n      add\n      swap2\n      pop\n      pop\n        /* \"1012/Bank.sol\":1747:1842  for (uint i = 0; i < 3; i++) {... */\n      jump(tag_81)\n    tag_82:\n      pop\n        /* \"1012/Bank.sol\":1858:1877  topDepositorsMemory */\n      dup1\n        /* \"1012/Bank.sol\":1851:1877  return topDepositorsMemory */\n      swap2\n      pop\n      pop\n        /* \"1012/Bank.sol\":1620:1884  function getTopDepositors() external view returns (address[3] memory) {... */\n      swap1\n      jump\t// out\n        /* \"1012/Bank.sol\":109:129  address public owner */\n    tag_40:\n      0x00\n      dup1\n      sload\n      swap1\n      0x0100\n      exp\n      swap1\n      div\n      0xffffffffffffffffffffffffffffffffffffffff\n      and\n      dup2\n      jump\t// out\n        /* \"1012/Bank.sol\":135:179  mapping (address => uint256) public deposits */\n    tag_46:\n      mstore(0x20, 0x01)\n      dup1\n      0x00\n      mstore\n      keccak256(0x00, 0x40)\n      0x00\n      swap2\n      pop\n      swap1\n      pop\n      sload\n      dup2\n      jump\t// out\n        /* \"1012/Bank.sol\":1252:1614  function _rearrangeTopDepositors() internal {... */\n    tag_58:\n        /* \"1012/Bank.sol\":1311:1320  uint256 i */\n      0x00\n        /* \"1012/Bank.sol\":1321:1322  1 */\n      0x01\n        /* \"1012/Bank.sol\":1311:1322  uint256 i=1 */\n      swap1\n      pop\n        /* \"1012/Bank.sol\":1306:1608  for (uint256 i=1; i<3; i++) {... */\n    tag_90:\n        /* \"1012/Bank.sol\":1326:1327  3 */\n      0x03\n        /* \"1012/Bank.sol\":1324:1325  i */\n      dup2\n        /* \"1012/Bank.sol\":1324:1327  i<3 */\n      lt\n        /* \"1012/Bank.sol\":1306:1608  for (uint256 i=1; i<3; i++) {... */\n      iszero\n      tag_91\n      jumpi\n        /* \"1012/Bank.sol\":1353:1362  uint256 j */\n      0x00\n        /* \"1012/Bank.sol\":1363:1364  i */\n      dup2\n        /* \"1012/Bank.sol\":1353:1364  uint256 j=i */\n      swap1\n      pop\n        /* \"1012/Bank.sol\":1348:1598  for (uint256 j=i; j>0 && deposits[topDepositors[j]]>deposits[topDepositors[j-1]]; j--) {... */\n    tag_93:\n        /* \"1012/Bank.sol\":1368:1369  0 */\n      0x00\n        /* \"1012/Bank.sol\":1366:1367  j */\n      dup2\n        /* \"1012/Bank.sol\":1366:1369  j>0 */\n      gt\n        /* \"1012/Bank.sol\":1366:1428  j>0 && deposits[topDepositors[j]]>deposits[topDepositors[j-1]] */\n      dup1\n      iszero\n      tag_96\n      jumpi\n      pop\n        /* \"1012/Bank.sol\":1400:1408  deposits */\n      0x01\n        /* \"1012/Bank.sol\":1400:1428  deposits[topDepositors[j-1]] */\n      0x00\n        /* \"1012/Bank.sol\":1409:1422  topDepositors */\n      0x02\n        /* \"1012/Bank.sol\":1425:1426  1 */\n      0x01\n        /* \"1012/Bank.sol\":1423:1424  j */\n      dup5\n        /* \"1012/Bank.sol\":1423:1426  j-1 */\n      tag_97\n      swap2\n      swap1\n      tag_98\n      jump\t// in\n    tag_97:\n        /* \"1012/Bank.sol\":1409:1427  topDepositors[j-1] */\n      0x03\n      dup2\n      lt\n      tag_99\n      jumpi\n      tag_100\n      tag_54\n      jump\t// in\n    tag_100:\n    tag_99:\n      add\n      0x00\n      swap1\n      sload\n      swap1\n      0x0100\n      exp\n      swap1\n      div\n      0xffffffffffffffffffffffffffffffffffffffff\n      and\n        /* \"1012/Bank.sol\":1400:1428  deposits[topDepositors[j-1]] */\n      0xffffffffffffffffffffffffffffffffffffffff\n      and\n      0xffffffffffffffffffffffffffffffffffffffff\n      and\n      dup2\n      mstore\n      0x20\n      add\n      swap1\n      dup2\n      mstore\n      0x20\n      add\n      0x00\n      keccak256\n      sload\n        /* \"1012/Bank.sol\":1373:1381  deposits */\n      0x01\n        /* \"1012/Bank.sol\":1373:1399  deposits[topDepositors[j]] */\n      0x00\n        /* \"1012/Bank.sol\":1382:1395  topDepositors */\n      0x02\n        /* \"1012/Bank.sol\":1396:1397  j */\n      dup5\n        /* \"1012/Bank.sol\":1382:1398  topDepositors[j] */\n      0x03\n      dup2\n      lt\n      tag_102\n      jumpi\n      tag_103\n      tag_54\n      jump\t// in\n    tag_103:\n    tag_102:\n      add\n      0x00\n      swap1\n      sload\n      swap1\n      0x0100\n      exp\n      swap1\n      div\n      0xffffffffffffffffffffffffffffffffffffffff\n      and\n        /* \"1012/Bank.sol\":1373:1399  deposits[topDepositors[j]] */\n      0xffffffffffffffffffffffffffffffffffffffff\n      and\n      0xffffffffffffffffffffffffffffffffffffffff\n      and\n      dup2\n      mstore\n      0x20\n      add\n      swap1\n      dup2\n      mstore\n      0x20\n      add\n      0x00\n      keccak256\n      sload\n        /* \"1012/Bank.sol\":1373:1428  deposits[topDepositors[j]]>deposits[topDepositors[j-1]] */\n      gt\n        /* \"1012/Bank.sol\":1366:1428  j>0 && deposits[topDepositors[j]]>deposits[topDepositors[j-1]] */\n    tag_96:\n        /* \"1012/Bank.sol\":1348:1598  for (uint256 j=i; j>0 && deposits[topDepositors[j]]>deposits[topDepositors[j-1]]; j--) {... */\n      iszero\n      tag_94\n      jumpi\n        /* \"1012/Bank.sol\":1453:1465  address temp */\n      0x00\n        /* \"1012/Bank.sol\":1468:1481  topDepositors */\n      0x02\n        /* \"1012/Bank.sol\":1482:1483  j */\n      dup3\n        /* \"1012/Bank.sol\":1468:1484  topDepositors[j] */\n      0x03\n      dup2\n      lt\n      tag_105\n      jumpi\n      tag_106\n      tag_54\n      jump\t// in\n    tag_106:\n    tag_105:\n      add\n      0x00\n      swap1\n      sload\n      swap1\n      0x0100\n      exp\n      swap1\n      div\n      0xffffffffffffffffffffffffffffffffffffffff\n      and\n        /* \"1012/Bank.sol\":1453:1484  address temp = topDepositors[j] */\n      swap1\n      pop\n        /* \"1012/Bank.sol\":1522:1535  topDepositors */\n      0x02\n        /* \"1012/Bank.sol\":1538:1539  1 */\n      0x01\n        /* \"1012/Bank.sol\":1536:1537  j */\n      dup4\n        /* \"1012/Bank.sol\":1536:1539  j-1 */\n      tag_108\n      swap2\n      swap1\n      tag_98\n      jump\t// in\n    tag_108:\n        /* \"1012/Bank.sol\":1522:1540  topDepositors[j-1] */\n      0x03\n      dup2\n      lt\n      tag_109\n      jumpi\n      tag_110\n      tag_54\n      jump\t// in\n    tag_110:\n    tag_109:\n      add\n      0x00\n      swap1\n      sload\n      swap1\n      0x0100\n      exp\n      swap1\n      div\n      0xffffffffffffffffffffffffffffffffffffffff\n      and\n        /* \"1012/Bank.sol\":1503:1516  topDepositors */\n      0x02\n        /* \"1012/Bank.sol\":1517:1518  j */\n      dup4\n        /* \"1012/Bank.sol\":1503:1519  topDepositors[j] */\n      0x03\n      dup2\n      lt\n      tag_112\n      jumpi\n      tag_113\n      tag_54\n      jump\t// in\n    tag_113:\n    tag_112:\n      add\n      0x00\n        /* \"1012/Bank.sol\":1503:1540  topDepositors[j] = topDepositors[j-1] */\n      0x0100\n      exp\n      dup2\n      sload\n      dup2\n      0xffffffffffffffffffffffffffffffffffffffff\n      mul\n      not\n      and\n      swap1\n      dup4\n      0xffffffffffffffffffffffffffffffffffffffff\n      and\n      mul\n      or\n      swap1\n      sstore\n      pop\n        /* \"1012/Bank.sol\":1579:1583  temp */\n      dup1\n        /* \"1012/Bank.sol\":1558:1571  topDepositors */\n      0x02\n        /* \"1012/Bank.sol\":1574:1575  1 */\n      0x01\n        /* \"1012/Bank.sol\":1572:1573  j */\n      dup5\n        /* \"1012/Bank.sol\":1572:1575  j-1 */\n      tag_115\n      swap2\n      swap1\n      tag_98\n      jump\t// in\n    tag_115:\n        /* \"1012/Bank.sol\":1558:1576  topDepositors[j-1] */\n      0x03\n      dup2\n      lt\n      tag_116\n      jumpi\n      tag_117\n      tag_54\n      jump\t// in\n    tag_117:\n    tag_116:\n      add\n      0x00\n        /* \"1012/Bank.sol\":1558:1583  topDepositors[j-1] = temp */\n      0x0100\n      exp\n      dup2\n      sload\n      dup2\n      0xffffffffffffffffffffffffffffffffffffffff\n      mul\n      not\n      and\n      swap1\n      dup4\n      0xffffffffffffffffffffffffffffffffffffffff\n      and\n      mul\n      or\n      swap1\n      sstore\n      pop\n        /* \"1012/Bank.sol\":1435:1598  {... */\n      pop\n        /* \"1012/Bank.sol\":1430:1433  j-- */\n      dup1\n      dup1\n      tag_119\n      swap1\n      tag_120\n      jump\t// in\n    tag_119:\n      swap2\n      pop\n      pop\n        /* \"1012/Bank.sol\":1348:1598  for (uint256 j=i; j>0 && deposits[topDepositors[j]]>deposits[topDepositors[j-1]]; j--) {... */\n      jump(tag_93)\n    tag_94:\n      pop\n        /* \"1012/Bank.sol\":1329:1332  i++ */\n      dup1\n      dup1\n      0x01\n      add\n      swap2\n      pop\n      pop\n        /* \"1012/Bank.sol\":1306:1608  for (uint256 i=1; i<3; i++) {... */\n      jump(tag_90)\n    tag_91:\n      pop\n        /* \"1012/Bank.sol\":1252:1614  function _rearrangeTopDepositors() internal {... */\n      jump\t// out\n    tag_78:\n      mload(0x40)\n      dup1\n      0x60\n      add\n      0x40\n      mstore\n      dup1\n      0x03\n      swap1\n      0x20\n      dup3\n      mul\n      dup1\n      calldatasize\n      dup4\n      calldatacopy\n      dup1\n      dup3\n      add\n      swap2\n      pop\n      pop\n      swap1\n      pop\n      pop\n      swap1\n      jump\t// out\n        /* \"#utility.yul\":7:176   */\n    tag_121:\n        /* \"#utility.yul\":91:102   */\n      0x00\n        /* \"#utility.yul\":125:131   */\n      dup3\n        /* \"#utility.yul\":120:123   */\n      dup3\n        /* \"#utility.yul\":113:132   */\n      mstore\n        /* \"#utility.yul\":165:169   */\n      0x20\n        /* \"#utility.yul\":160:163   */\n      dup3\n        /* \"#utility.yul\":156:170   */\n      add\n        /* \"#utility.yul\":141:170   */\n      swap1\n      pop\n        /* \"#utility.yul\":7:176   */\n      swap3\n      swap2\n      pop\n      pop\n      jump\t// out\n        /* \"#utility.yul\":182:406   */\n    tag_122:\n        /* \"#utility.yul\":322:356   */\n      0x4465706f73697420616d6f756e74206d75737420626520677265617465722074\n        /* \"#utility.yul\":318:319   */\n      0x00\n        /* \"#utility.yul\":310:316   */\n      dup3\n        /* \"#utility.yul\":306:320   */\n      add\n        /* \"#utility.yul\":299:357   */\n      mstore\n        /* \"#utility.yul\":391:398   */\n      0x68616e2030000000000000000000000000000000000000000000000000000000\n        /* \"#utility.yul\":386:388   */\n      0x20\n        /* \"#utility.yul\":378:384   */\n      dup3\n        /* \"#utility.yul\":374:389   */\n      add\n        /* \"#utility.yul\":367:399   */\n      mstore\n        /* \"#utility.yul\":182:406   */\n      pop\n      jump\t// out\n        /* \"#utility.yul\":412:778   */\n    tag_123:\n        /* \"#utility.yul\":554:557   */\n      0x00\n        /* \"#utility.yul\":575:642   */\n      tag_150\n        /* \"#utility.yul\":639:641   */\n      0x25\n        /* \"#utility.yul\":634:637   */\n      dup4\n        /* \"#utility.yul\":575:642   */\n      tag_121\n      jump\t// in\n    tag_150:\n        /* \"#utility.yul\":568:642   */\n      swap2\n      pop\n        /* \"#utility.yul\":651:744   */\n      tag_151\n        /* \"#utility.yul\":740:743   */\n      dup3\n        /* \"#utility.yul\":651:744   */\n      tag_122\n      jump\t// in\n    tag_151:\n        /* \"#utility.yul\":769:771   */\n      0x40\n        /* \"#utility.yul\":764:767   */\n      dup3\n        /* \"#utility.yul\":760:772   */\n      add\n        /* \"#utility.yul\":753:772   */\n      swap1\n      pop\n        /* \"#utility.yul\":412:778   */\n      swap2\n      swap1\n      pop\n      jump\t// out\n        /* \"#utility.yul\":784:1203   */\n    tag_13:\n        /* \"#utility.yul\":950:954   */\n      0x00\n        /* \"#utility.yul\":988:990   */\n      0x20\n        /* \"#utility.yul\":977:986   */\n      dup3\n        /* \"#utility.yul\":973:991   */\n      add\n        /* \"#utility.yul\":965:991   */\n      swap1\n      pop\n        /* \"#utility.yul\":1037:1046   */\n      dup2\n        /* \"#utility.yul\":1031:1035   */\n      dup2\n        /* \"#utility.yul\":1027:1047   */\n      sub\n        /* \"#utility.yul\":1023:1024   */\n      0x00\n        /* \"#utility.yul\":1012:1021   */\n      dup4\n        /* \"#utility.yul\":1008:1025   */\n      add\n        /* \"#utility.yul\":1001:1048   */\n      mstore\n        /* \"#utility.yul\":1065:1196   */\n      tag_153\n        /* \"#utility.yul\":1191:1195   */\n      dup2\n        /* \"#utility.yul\":1065:1196   */\n      tag_123\n      jump\t// in\n    tag_153:\n        /* \"#utility.yul\":1057:1196   */\n      swap1\n      pop\n        /* \"#utility.yul\":784:1203   */\n      swap2\n      swap1\n      pop\n      jump\t// out\n        /* \"#utility.yul\":1209:1286   */\n    tag_124:\n        /* \"#utility.yul\":1246:1253   */\n      0x00\n        /* \"#utility.yul\":1275:1280   */\n      dup2\n        /* \"#utility.yul\":1264:1280   */\n      swap1\n      pop\n        /* \"#utility.yul\":1209:1286   */\n      swap2\n      swap1\n      pop\n      jump\t// out\n        /* \"#utility.yul\":1292:1472   */\n    tag_125:\n        /* \"#utility.yul\":1340:1417   */\n      0x4e487b7100000000000000000000000000000000000000000000000000000000\n        /* \"#utility.yul\":1337:1338   */\n      0x00\n        /* \"#utility.yul\":1330:1418   */\n      mstore\n        /* \"#utility.yul\":1437:1441   */\n      0x11\n        /* \"#utility.yul\":1434:1435   */\n      0x04\n        /* \"#utility.yul\":1427:1442   */\n      mstore\n        /* \"#utility.yul\":1461:1465   */\n      0x24\n        /* \"#utility.yul\":1458:1459   */\n      0x00\n        /* \"#utility.yul\":1451:1466   */\n      revert\n        /* \"#utility.yul\":1478:1669   */\n    tag_15:\n        /* \"#utility.yul\":1518:1521   */\n      0x00\n        /* \"#utility.yul\":1537:1557   */\n      tag_157\n        /* \"#utility.yul\":1555:1556   */\n      dup3\n        /* \"#utility.yul\":1537:1557   */\n      tag_124\n      jump\t// in\n    tag_157:\n        /* \"#utility.yul\":1532:1557   */\n      swap2\n      pop\n        /* \"#utility.yul\":1571:1591   */\n      tag_158\n        /* \"#utility.yul\":1589:1590   */\n      dup4\n        /* \"#utility.yul\":1571:1591   */\n      tag_124\n      jump\t// in\n    tag_158:\n        /* \"#utility.yul\":1566:1591   */\n      swap3\n      pop\n        /* \"#utility.yul\":1614:1615   */\n      dup3\n        /* \"#utility.yul\":1611:1612   */\n      dup3\n        /* \"#utility.yul\":1607:1616   */\n      add\n        /* \"#utility.yul\":1600:1616   */\n      swap1\n      pop\n        /* \"#utility.yul\":1635:1638   */\n      dup1\n        /* \"#utility.yul\":1632:1633   */\n      dup3\n        /* \"#utility.yul\":1629:1639   */\n      gt\n        /* \"#utility.yul\":1626:1662   */\n      iszero\n      tag_159\n      jumpi\n        /* \"#utility.yul\":1642:1660   */\n      tag_160\n      tag_125\n      jump\t// in\n    tag_160:\n        /* \"#utility.yul\":1626:1662   */\n    tag_159:\n        /* \"#utility.yul\":1478:1669   */\n      swap3\n      swap2\n      pop\n      pop\n      jump\t// out\n        /* \"#utility.yul\":1756:1873   */\n    tag_127:\n        /* \"#utility.yul\":1865:1866   */\n      0x00\n        /* \"#utility.yul\":1862:1863   */\n      dup1\n        /* \"#utility.yul\":1855:1867   */\n      revert\n        /* \"#utility.yul\":2002:2124   */\n    tag_129:\n        /* \"#utility.yul\":2075:2099   */\n      tag_165\n        /* \"#utility.yul\":2093:2098   */\n      dup2\n        /* \"#utility.yul\":2075:2099   */\n      tag_124\n      jump\t// in\n    tag_165:\n        /* \"#utility.yul\":2068:2073   */\n      dup2\n        /* \"#utility.yul\":2065:2100   */\n      eq\n        /* \"#utility.yul\":2055:2118   */\n      tag_166\n      jumpi\n        /* \"#utility.yul\":2114:2115   */\n      0x00\n        /* \"#utility.yul\":2111:2112   */\n      dup1\n        /* \"#utility.yul\":2104:2116   */\n      revert\n        /* \"#utility.yul\":2055:2118   */\n    tag_166:\n        /* \"#utility.yul\":2002:2124   */\n      pop\n      jump\t// out\n        /* \"#utility.yul\":2130:2269   */\n    tag_130:\n        /* \"#utility.yul\":2176:2181   */\n      0x00\n        /* \"#utility.yul\":2214:2220   */\n      dup2\n        /* \"#utility.yul\":2201:2221   */\n      calldataload\n        /* \"#utility.yul\":2192:2221   */\n      swap1\n      pop\n        /* \"#utility.yul\":2230:2263   */\n      tag_168\n        /* \"#utility.yul\":2257:2262   */\n      dup2\n        /* \"#utility.yul\":2230:2263   */\n      tag_129\n      jump\t// in\n    tag_168:\n        /* \"#utility.yul\":2130:2269   */\n      swap3\n      swap2\n      pop\n      pop\n      jump\t// out\n        /* \"#utility.yul\":2275:2604   */\n    tag_21:\n        /* \"#utility.yul\":2334:2340   */\n      0x00\n        /* \"#utility.yul\":2383:2385   */\n      0x20\n        /* \"#utility.yul\":2371:2380   */\n      dup3\n        /* \"#utility.yul\":2362:2369   */\n      dup5\n        /* \"#utility.yul\":2358:2381   */\n      sub\n        /* \"#utility.yul\":2354:2386   */\n      slt\n        /* \"#utility.yul\":2351:2470   */\n      iszero\n      tag_170\n      jumpi\n        /* \"#utility.yul\":2389:2468   */\n      tag_171\n      tag_127\n      jump\t// in\n    tag_171:\n        /* \"#utility.yul\":2351:2470   */\n    tag_170:\n        /* \"#utility.yul\":2509:2510   */\n      0x00\n        /* \"#utility.yul\":2534:2587   */\n      tag_172\n        /* \"#utility.yul\":2579:2586   */\n      dup5\n        /* \"#utility.yul\":2570:2576   */\n      dup3\n        /* \"#utility.yul\":2559:2568   */\n      dup6\n        /* \"#utility.yul\":2555:2577   */\n      add\n        /* \"#utility.yul\":2534:2587   */\n      tag_130\n      jump\t// in\n    tag_172:\n        /* \"#utility.yul\":2524:2587   */\n      swap2\n      pop\n        /* \"#utility.yul\":2480:2597   */\n      pop\n        /* \"#utility.yul\":2275:2604   */\n      swap3\n      swap2\n      pop\n      pop\n      jump\t// out\n        /* \"#utility.yul\":2610:2736   */\n    tag_131:\n        /* \"#utility.yul\":2647:2654   */\n      0x00\n        /* \"#utility.yul\":2687:2729   */\n      0xffffffffffffffffffffffffffffffffffffffff\n        /* \"#utility.yul\":2680:2685   */\n      dup3\n        /* \"#utility.yul\":2676:2730   */\n      and\n        /* \"#utility.yul\":2665:2730   */\n      swap1\n      pop\n        /* \"#utility.yul\":2610:2736   */\n      swap2\n      swap1\n      pop\n      jump\t// out\n        /* \"#utility.yul\":2742:2838   */\n    tag_132:\n        /* \"#utility.yul\":2779:2786   */\n      0x00\n        /* \"#utility.yul\":2808:2832   */\n      tag_175\n        /* \"#utility.yul\":2826:2831   */\n      dup3\n        /* \"#utility.yul\":2808:2832   */\n      tag_131\n      jump\t// in\n    tag_175:\n        /* \"#utility.yul\":2797:2832   */\n      swap1\n      pop\n        /* \"#utility.yul\":2742:2838   */\n      swap2\n      swap1\n      pop\n      jump\t// out\n        /* \"#utility.yul\":2844:2962   */\n    tag_133:\n        /* \"#utility.yul\":2931:2955   */\n      tag_177\n        /* \"#utility.yul\":2949:2954   */\n      dup2\n        /* \"#utility.yul\":2931:2955   */\n      tag_132\n      jump\t// in\n    tag_177:\n        /* \"#utility.yul\":2926:2929   */\n      dup3\n        /* \"#utility.yul\":2919:2956   */\n      mstore\n        /* \"#utility.yul\":2844:2962   */\n      pop\n      pop\n      jump\t// out\n        /* \"#utility.yul\":2968:3190   */\n    tag_24:\n        /* \"#utility.yul\":3061:3065   */\n      0x00\n        /* \"#utility.yul\":3099:3101   */\n      0x20\n        /* \"#utility.yul\":3088:3097   */\n      dup3\n        /* \"#utility.yul\":3084:3102   */\n      add\n        /* \"#utility.yul\":3076:3102   */\n      swap1\n      pop\n        /* \"#utility.yul\":3112:3183   */\n      tag_179\n        /* \"#utility.yul\":3180:3181   */\n      0x00\n        /* \"#utility.yul\":3169:3178   */\n      dup4\n        /* \"#utility.yul\":3165:3182   */\n      add\n        /* \"#utility.yul\":3156:3162   */\n      dup5\n        /* \"#utility.yul\":3112:3183   */\n      tag_133\n      jump\t// in\n    tag_179:\n        /* \"#utility.yul\":2968:3190   */\n      swap3\n      swap2\n      pop\n      pop\n      jump\t// out\n        /* \"#utility.yul\":3196:3314   */\n    tag_134:\n        /* \"#utility.yul\":3283:3307   */\n      tag_181\n        /* \"#utility.yul\":3301:3306   */\n      dup2\n        /* \"#utility.yul\":3283:3307   */\n      tag_124\n      jump\t// in\n    tag_181:\n        /* \"#utility.yul\":3278:3281   */\n      dup3\n        /* \"#utility.yul\":3271:3308   */\n      mstore\n        /* \"#utility.yul\":3196:3314   */\n      pop\n      pop\n      jump\t// out\n        /* \"#utility.yul\":3320:3542   */\n    tag_32:\n        /* \"#utility.yul\":3413:3417   */\n      0x00\n        /* \"#utility.yul\":3451:3453   */\n      0x20\n        /* \"#utility.yul\":3440:3449   */\n      dup3\n        /* \"#utility.yul\":3436:3454   */\n      add\n        /* \"#utility.yul\":3428:3454   */\n      swap1\n      pop\n        /* \"#utility.yul\":3464:3535   */\n      tag_183\n        /* \"#utility.yul\":3532:3533   */\n      0x00\n        /* \"#utility.yul\":3521:3530   */\n      dup4\n        /* \"#utility.yul\":3517:3534   */\n      add\n        /* \"#utility.yul\":3508:3514   */\n      dup5\n        /* \"#utility.yul\":3464:3535   */\n      tag_134\n      jump\t// in\n    tag_183:\n        /* \"#utility.yul\":3320:3542   */\n      swap3\n      swap2\n      pop\n      pop\n      jump\t// out\n        /* \"#utility.yul\":3548:3652   */\n    tag_135:\n        /* \"#utility.yul\":3613:3619   */\n      0x00\n        /* \"#utility.yul\":3641:3645   */\n      0x03\n        /* \"#utility.yul\":3631:3645   */\n      swap1\n      pop\n        /* \"#utility.yul\":3548:3652   */\n      swap2\n      swap1\n      pop\n      jump\t// out\n        /* \"#utility.yul\":3658:3801   */\n    tag_136:\n        /* \"#utility.yul\":3755:3766   */\n      0x00\n        /* \"#utility.yul\":3792:3795   */\n      dup2\n        /* \"#utility.yul\":3777:3795   */\n      swap1\n      pop\n        /* \"#utility.yul\":3658:3801   */\n      swap3\n      swap2\n      pop\n      pop\n      jump\t// out\n        /* \"#utility.yul\":3807:3905   */\n    tag_137:\n        /* \"#utility.yul\":3872:3876   */\n      0x00\n        /* \"#utility.yul\":3895:3898   */\n      dup2\n        /* \"#utility.yul\":3887:3898   */\n      swap1\n      pop\n        /* \"#utility.yul\":3807:3905   */\n      swap2\n      swap1\n      pop\n      jump\t// out\n        /* \"#utility.yul\":3911:4019   */\n    tag_138:\n        /* \"#utility.yul\":3988:4012   */\n      tag_188\n        /* \"#utility.yul\":4006:4011   */\n      dup2\n        /* \"#utility.yul\":3988:4012   */\n      tag_132\n      jump\t// in\n    tag_188:\n        /* \"#utility.yul\":3983:3986   */\n      dup3\n        /* \"#utility.yul\":3976:4013   */\n      mstore\n        /* \"#utility.yul\":3911:4019   */\n      pop\n      pop\n      jump\t// out\n        /* \"#utility.yul\":4025:4204   */\n    tag_139:\n        /* \"#utility.yul\":4094:4104   */\n      0x00\n        /* \"#utility.yul\":4115:4161   */\n      tag_190\n        /* \"#utility.yul\":4157:4160   */\n      dup4\n        /* \"#utility.yul\":4149:4155   */\n      dup4\n        /* \"#utility.yul\":4115:4161   */\n      tag_138\n      jump\t// in\n    tag_190:\n        /* \"#utility.yul\":4193:4197   */\n      0x20\n        /* \"#utility.yul\":4188:4191   */\n      dup4\n        /* \"#utility.yul\":4184:4198   */\n      add\n        /* \"#utility.yul\":4170:4198   */\n      swap1\n      pop\n        /* \"#utility.yul\":4025:4204   */\n      swap3\n      swap2\n      pop\n      pop\n      jump\t// out\n        /* \"#utility.yul\":4210:4321   */\n    tag_140:\n        /* \"#utility.yul\":4278:4282   */\n      0x00\n        /* \"#utility.yul\":4310:4314   */\n      0x20\n        /* \"#utility.yul\":4305:4308   */\n      dup3\n        /* \"#utility.yul\":4301:4315   */\n      add\n        /* \"#utility.yul\":4293:4315   */\n      swap1\n      pop\n        /* \"#utility.yul\":4210:4321   */\n      swap2\n      swap1\n      pop\n      jump\t// out\n        /* \"#utility.yul\":4359:5053   */\n    tag_141:\n        /* \"#utility.yul\":4495:4547   */\n      tag_193\n        /* \"#utility.yul\":4541:4546   */\n      dup2\n        /* \"#utility.yul\":4495:4547   */\n      tag_135\n      jump\t// in\n    tag_193:\n        /* \"#utility.yul\":4563:4647   */\n      tag_194\n        /* \"#utility.yul\":4640:4646   */\n      dup2\n        /* \"#utility.yul\":4635:4638   */\n      dup5\n        /* \"#utility.yul\":4563:4647   */\n      tag_136\n      jump\t// in\n    tag_194:\n        /* \"#utility.yul\":4556:4647   */\n      swap3\n      pop\n        /* \"#utility.yul\":4671:4725   */\n      tag_195\n        /* \"#utility.yul\":4719:4724   */\n      dup3\n        /* \"#utility.yul\":4671:4725   */\n      tag_137\n      jump\t// in\n    tag_195:\n        /* \"#utility.yul\":4748:4755   */\n      dup1\n        /* \"#utility.yul\":4779:4780   */\n      0x00\n        /* \"#utility.yul\":4764:5046   */\n    tag_196:\n        /* \"#utility.yul\":4789:4795   */\n      dup4\n        /* \"#utility.yul\":4786:4787   */\n      dup2\n        /* \"#utility.yul\":4783:4796   */\n      lt\n        /* \"#utility.yul\":4764:5046   */\n      iszero\n      tag_198\n      jumpi\n        /* \"#utility.yul\":4865:4871   */\n      dup2\n        /* \"#utility.yul\":4859:4872   */\n      mload\n        /* \"#utility.yul\":4892:4955   */\n      tag_199\n        /* \"#utility.yul\":4951:4954   */\n      dup8\n        /* \"#utility.yul\":4936:4949   */\n      dup3\n        /* \"#utility.yul\":4892:4955   */\n      tag_139\n      jump\t// in\n    tag_199:\n        /* \"#utility.yul\":4885:4955   */\n      swap7\n      pop\n        /* \"#utility.yul\":4978:5036   */\n      tag_200\n        /* \"#utility.yul\":5029:5035   */\n      dup4\n        /* \"#utility.yul\":4978:5036   */\n      tag_140\n      jump\t// in\n    tag_200:\n        /* \"#utility.yul\":4968:5036   */\n      swap3\n      pop\n        /* \"#utility.yul\":4824:5046   */\n      pop\n        /* \"#utility.yul\":4811:4812   */\n      0x01\n        /* \"#utility.yul\":4808:4809   */\n      dup2\n        /* \"#utility.yul\":4804:4813   */\n      add\n        /* \"#utility.yul\":4799:4813   */\n      swap1\n      pop\n        /* \"#utility.yul\":4764:5046   */\n      jump(tag_196)\n    tag_198:\n        /* \"#utility.yul\":4768:4782   */\n      pop\n        /* \"#utility.yul\":4471:5053   */\n      pop\n      pop\n      pop\n        /* \"#utility.yul\":4359:5053   */\n      pop\n      pop\n      jump\t// out\n        /* \"#utility.yul\":5059:5373   */\n    tag_37:\n        /* \"#utility.yul\":5198:5202   */\n      0x00\n        /* \"#utility.yul\":5236:5238   */\n      0x60\n        /* \"#utility.yul\":5225:5234   */\n      dup3\n        /* \"#utility.yul\":5221:5239   */\n      add\n        /* \"#utility.yul\":5213:5239   */\n      swap1\n      pop\n        /* \"#utility.yul\":5249:5366   */\n      tag_202\n        /* \"#utility.yul\":5363:5364   */\n      0x00\n        /* \"#utility.yul\":5352:5361   */\n      dup4\n        /* \"#utility.yul\":5348:5365   */\n      add\n        /* \"#utility.yul\":5339:5345   */\n      dup5\n        /* \"#utility.yul\":5249:5366   */\n      tag_141\n      jump\t// in\n    tag_202:\n        /* \"#utility.yul\":5059:5373   */\n      swap3\n      swap2\n      pop\n      pop\n      jump\t// out\n        /* \"#utility.yul\":5379:5501   */\n    tag_142:\n        /* \"#utility.yul\":5452:5476   */\n      tag_204\n        /* \"#utility.yul\":5470:5475   */\n      dup2\n        /* \"#utility.yul\":5452:5476   */\n      tag_132\n      jump\t// in\n    tag_204:\n        /* \"#utility.yul\":5445:5450   */\n      dup2\n        /* \"#utility.yul\":5442:5477   */\n      eq\n        /* \"#utility.yul\":5432:5495   */\n      tag_205\n      jumpi\n        /* \"#utility.yul\":5491:5492   */\n      0x00\n        /* \"#utility.yul\":5488:5489   */\n      dup1\n        /* \"#utility.yul\":5481:5493   */\n      revert\n        /* \"#utility.yul\":5432:5495   */\n    tag_205:\n        /* \"#utility.yul\":5379:5501   */\n      pop\n      jump\t// out\n        /* \"#utility.yul\":5507:5646   */\n    tag_143:\n        /* \"#utility.yul\":5553:5558   */\n      0x00\n        /* \"#utility.yul\":5591:5597   */\n      dup2\n        /* \"#utility.yul\":5578:5598   */\n      calldataload\n        /* \"#utility.yul\":5569:5598   */\n      swap1\n      pop\n        /* \"#utility.yul\":5607:5640   */\n      tag_207\n        /* \"#utility.yul\":5634:5639   */\n      dup2\n        /* \"#utility.yul\":5607:5640   */\n      tag_142\n      jump\t// in\n    tag_207:\n        /* \"#utility.yul\":5507:5646   */\n      swap3\n      swap2\n      pop\n      pop\n      jump\t// out\n        /* \"#utility.yul\":5652:5981   */\n    tag_45:\n        /* \"#utility.yul\":5711:5717   */\n      0x00\n        /* \"#utility.yul\":5760:5762   */\n      0x20\n        /* \"#utility.yul\":5748:5757   */\n      dup3\n        /* \"#utility.yul\":5739:5746   */\n      dup5\n        /* \"#utility.yul\":5735:5758   */\n      sub\n        /* \"#utility.yul\":5731:5763   */\n      slt\n        /* \"#utility.yul\":5728:5847   */\n      iszero\n      tag_209\n      jumpi\n        /* \"#utility.yul\":5766:5845   */\n      tag_210\n      tag_127\n      jump\t// in\n    tag_210:\n        /* \"#utility.yul\":5728:5847   */\n    tag_209:\n        /* \"#utility.yul\":5886:5887   */\n      0x00\n        /* \"#utility.yul\":5911:5964   */\n      tag_211\n        /* \"#utility.yul\":5956:5963   */\n      dup5\n        /* \"#utility.yul\":5947:5953   */\n      dup3\n        /* \"#utility.yul\":5936:5945   */\n      dup6\n        /* \"#utility.yul\":5932:5954   */\n      add\n        /* \"#utility.yul\":5911:5964   */\n      tag_143\n      jump\t// in\n    tag_211:\n        /* \"#utility.yul\":5901:5964   */\n      swap2\n      pop\n        /* \"#utility.yul\":5857:5974   */\n      pop\n        /* \"#utility.yul\":5652:5981   */\n      swap3\n      swap2\n      pop\n      pop\n      jump\t// out\n        /* \"#utility.yul\":5987:6167   */\n    tag_54:\n        /* \"#utility.yul\":6035:6112   */\n      0x4e487b7100000000000000000000000000000000000000000000000000000000\n        /* \"#utility.yul\":6032:6033   */\n      0x00\n        /* \"#utility.yul\":6025:6113   */\n      mstore\n        /* \"#utility.yul\":6132:6136   */\n      0x32\n        /* \"#utility.yul\":6129:6130   */\n      0x04\n        /* \"#utility.yul\":6122:6137   */\n      mstore\n        /* \"#utility.yul\":6156:6160   */\n      0x24\n        /* \"#utility.yul\":6153:6154   */\n      0x00\n        /* \"#utility.yul\":6146:6161   */\n      revert\n        /* \"#utility.yul\":6173:6345   */\n    tag_144:\n        /* \"#utility.yul\":6313:6337   */\n      0x4e6f742074686520636f6e7472616374206f776e657200000000000000000000\n        /* \"#utility.yul\":6309:6310   */\n      0x00\n        /* \"#utility.yul\":6301:6307   */\n      dup3\n        /* \"#utility.yul\":6297:6311   */\n      add\n        /* \"#utility.yul\":6290:6338   */\n      mstore\n        /* \"#utility.yul\":6173:6345   */\n      pop\n      jump\t// out\n        /* \"#utility.yul\":6351:6717   */\n    tag_145:\n        /* \"#utility.yul\":6493:6496   */\n      0x00\n        /* \"#utility.yul\":6514:6581   */\n      tag_215\n        /* \"#utility.yul\":6578:6580   */\n      0x16\n        /* \"#utility.yul\":6573:6576   */\n      dup4\n        /* \"#utility.yul\":6514:6581   */\n      tag_121\n      jump\t// in\n    tag_215:\n        /* \"#utility.yul\":6507:6581   */\n      swap2\n      pop\n        /* \"#utility.yul\":6590:6683   */\n      tag_216\n        /* \"#utility.yul\":6679:6682   */\n      dup3\n        /* \"#utility.yul\":6590:6683   */\n      tag_144\n      jump\t// in\n    tag_216:\n        /* \"#utility.yul\":6708:6710   */\n      0x20\n        /* \"#utility.yul\":6703:6706   */\n      dup3\n        /* \"#utility.yul\":6699:6711   */\n      add\n        /* \"#utility.yul\":6692:6711   */\n      swap1\n      pop\n        /* \"#utility.yul\":6351:6717   */\n      swap2\n      swap1\n      pop\n      jump\t// out\n        /* \"#utility.yul\":6723:7142   */\n    tag_72:\n        /* \"#utility.yul\":6889:6893   */\n      0x00\n        /* \"#utility.yul\":6927:6929   */\n      0x20\n        /* \"#utility.yul\":6916:6925   */\n      dup3\n        /* \"#utility.yul\":6912:6930   */\n      add\n        /* \"#utility.yul\":6904:6930   */\n      swap1\n      pop\n        /* \"#utility.yul\":6976:6985   */\n      dup2\n        /* \"#utility.yul\":6970:6974   */\n      dup2\n        /* \"#utility.yul\":6966:6986   */\n      sub\n        /* \"#utility.yul\":6962:6963   */\n      0x00\n        /* \"#utility.yul\":6951:6960   */\n      dup4\n        /* \"#utility.yul\":6947:6964   */\n      add\n        /* \"#utility.yul\":6940:6987   */\n      mstore\n        /* \"#utility.yul\":7004:7135   */\n      tag_218\n        /* \"#utility.yul\":7130:7134   */\n      dup2\n        /* \"#utility.yul\":7004:7135   */\n      tag_145\n      jump\t// in\n    tag_218:\n        /* \"#utility.yul\":6996:7135   */\n      swap1\n      pop\n        /* \"#utility.yul\":6723:7142   */\n      swap2\n      swap1\n      pop\n      jump\t// out\n        /* \"#utility.yul\":7148:7342   */\n    tag_98:\n        /* \"#utility.yul\":7188:7192   */\n      0x00\n        /* \"#utility.yul\":7208:7228   */\n      tag_220\n        /* \"#utility.yul\":7226:7227   */\n      dup3\n        /* \"#utility.yul\":7208:7228   */\n      tag_124\n      jump\t// in\n    tag_220:\n        /* \"#utility.yul\":7203:7228   */\n      swap2\n      pop\n        /* \"#utility.yul\":7242:7262   */\n      tag_221\n        /* \"#utility.yul\":7260:7261   */\n      dup4\n        /* \"#utility.yul\":7242:7262   */\n      tag_124\n      jump\t// in\n    tag_221:\n        /* \"#utility.yul\":7237:7262   */\n      swap3\n      pop\n        /* \"#utility.yul\":7286:7287   */\n      dup3\n        /* \"#utility.yul\":7283:7284   */\n      dup3\n        /* \"#utility.yul\":7279:7288   */\n      sub\n        /* \"#utility.yul\":7271:7288   */\n      swap1\n      pop\n        /* \"#utility.yul\":7310:7311   */\n      dup2\n        /* \"#utility.yul\":7304:7308   */\n      dup2\n        /* \"#utility.yul\":7301:7312   */\n      gt\n        /* \"#utility.yul\":7298:7335   */\n      iszero\n      tag_222\n      jumpi\n        /* \"#utility.yul\":7315:7333   */\n      tag_223\n      tag_125\n      jump\t// in\n    tag_223:\n        /* \"#utility.yul\":7298:7335   */\n    tag_222:\n        /* \"#utility.yul\":7148:7342   */\n      swap3\n      swap2\n      pop\n      pop\n      jump\t// out\n        /* \"#utility.yul\":7348:7519   */\n    tag_120:\n        /* \"#utility.yul\":7387:7390   */\n      0x00\n        /* \"#utility.yul\":7410:7434   */\n      tag_225\n        /* \"#utility.yul\":7428:7433   */\n      dup3\n        /* \"#utility.yul\":7410:7434   */\n      tag_124\n      jump\t// in\n    tag_225:\n        /* \"#utility.yul\":7401:7434   */\n      swap2\n      pop\n        /* \"#utility.yul\":7456:7460   */\n      0x00\n        /* \"#utility.yul\":7449:7454   */\n      dup3\n        /* \"#utility.yul\":7446:7461   */\n      sub\n        /* \"#utility.yul\":7443:7484   */\n      tag_226\n      jumpi\n        /* \"#utility.yul\":7464:7482   */\n      tag_227\n      tag_125\n      jump\t// in\n    tag_227:\n        /* \"#utility.yul\":7443:7484   */\n    tag_226:\n        /* \"#utility.yul\":7511:7512   */\n      0x01\n        /* \"#utility.yul\":7504:7509   */\n      dup3\n        /* \"#utility.yul\":7500:7513   */\n      sub\n        /* \"#utility.yul\":7493:7513   */\n      swap1\n      pop\n        /* \"#utility.yul\":7348:7519   */\n      swap2\n      swap1\n      pop\n      jump\t// out\n\n    auxdata: 0xa2646970667358221220ff654fa48f51c0a5fee8253c6ab0c51f2d526936286ef8e7981c5f784318b2de64736f6c634300081a0033\n}\n",
				"bytecode": {
					"linkReferences": {},
					"object": "6080604052348015600e575f80fd5b50335f806101000a81548173ffffffffffffffffffffffffffffffffffffffff021916908373ffffffffffffffffffffffffffffffffffffffff160217905550610c638061005b5f395ff3fe608060405260043610610058575f3560e01c806330861078146101015780633ccfd60b1461013d5780636f9fb98a1461015357806381454f711461017d5780638da5cb5b146101a7578063fc7e286d146101d1576100fd565b366100fd575f341161009f576040517f08c379a0000000000000000000000000000000000000000000000000000000008152600401610096906108cb565b60405180910390fd5b3460015f3373ffffffffffffffffffffffffffffffffffffffff1673ffffffffffffffffffffffffffffffffffffffff1681526020019081526020015f205f8282546100eb919061091f565b925050819055506100fb3361020d565b005b5f80fd5b34801561010c575f80fd5b5061012760048036038101906101229190610980565b6103b1565b60405161013491906109ea565b60405180910390f35b348015610148575f80fd5b506101516103e5565b005b34801561015e575f80fd5b506101676104d7565b6040516101749190610a12565b60405180910390f35b348015610188575f80fd5b506101916104de565b60405161019e9190610ad0565b60405180910390f35b3480156101b2575f80fd5b506101bb61058d565b6040516101c891906109ea565b60405180910390f35b3480156101dc575f80fd5b506101f760048036038101906101f29190610b13565b6105b0565b6040516102049190610a12565b60405180910390f35b5f5b600381101561029a578173ffffffffffffffffffffffffffffffffffffffff166002826003811061024357610242610b3e565b5b015f9054906101000a900473ffffffffffffffffffffffffffffffffffffffff1673ffffffffffffffffffffffffffffffffffffffff160361028d576102876105c5565b506103ae565b808060010191505061020f565b5060015f600280600381106102b2576102b1610b3e565b5b015f9054906101000a900473ffffffffffffffffffffffffffffffffffffffff1673ffffffffffffffffffffffffffffffffffffffff1673ffffffffffffffffffffffffffffffffffffffff1681526020019081526020015f205460015f8373ffffffffffffffffffffffffffffffffffffffff1673ffffffffffffffffffffffffffffffffffffffff1681526020019081526020015f205411156103ad57806002806003811061036657610365610b3e565b5b015f6101000a81548173ffffffffffffffffffffffffffffffffffffffff021916908373ffffffffffffffffffffffffffffffffffffffff1602179055506103ac6105c5565b5b5b50565b600281600381106103c0575f80fd5b015f915054906101000a900473ffffffffffffffffffffffffffffffffffffffff1681565b5f8054906101000a900473ffffffffffffffffffffffffffffffffffffffff1673ffffffffffffffffffffffffffffffffffffffff163373ffffffffffffffffffffffffffffffffffffffff1614610472576040517f08c379a000000000000000000000000000000000000000000000000000000000815260040161046990610bb5565b60405180910390fd5b5f8054906101000a900473ffffffffffffffffffffffffffffffffffffffff1673ffffffffffffffffffffffffffffffffffffffff166108fc4790811502906040515f60405180830381858888f193505050501580156104d4573d5f803e3d5ffd5b50565b5f47905090565b6104e6610829565b6104ee610829565b5f5b6003811015610585576002816003811061050d5761050c610b3e565b5b015f9054906101000a900473ffffffffffffffffffffffffffffffffffffffff1682826003811061054157610540610b3e565b5b602002019073ffffffffffffffffffffffffffffffffffffffff16908173ffffffffffffffffffffffffffffffffffffffff168152505080806001019150506104f0565b508091505090565b5f8054906101000a900473ffffffffffffffffffffffffffffffffffffffff1681565b6001602052805f5260405f205f915090505481565b5f600190505b6003811015610826575f8190505b5f811180156106d5575060015f60026001846105f59190610bd3565b6003811061060657610605610b3e565b5b015f9054906101000a900473ffffffffffffffffffffffffffffffffffffffff1673ffffffffffffffffffffffffffffffffffffffff1673ffffffffffffffffffffffffffffffffffffffff1681526020019081526020015f205460015f6002846003811061067857610677610b3e565b5b015f9054906101000a900473ffffffffffffffffffffffffffffffffffffffff1673ffffffffffffffffffffffffffffffffffffffff1673ffffffffffffffffffffffffffffffffffffffff1681526020019081526020015f2054115b15610818575f600282600381106106ef576106ee610b3e565b5b015f9054906101000a900473ffffffffffffffffffffffffffffffffffffffff16905060026001836107219190610bd3565b6003811061073257610731610b3e565b5b015f9054906101000a900473ffffffffffffffffffffffffffffffffffffffff166002836003811061076757610766610b3e565b5b015f6101000a81548173ffffffffffffffffffffffffffffffffffffffff021916908373ffffffffffffffffffffffffffffffffffffffff1602179055508060026001846107b59190610bd3565b600381106107c6576107c5610b3e565b5b015f6101000a81548173ffffffffffffffffffffffffffffffffffffffff021916908373ffffffffffffffffffffffffffffffffffffffff16021790555050808061081090610c06565b9150506105d9565b5080806001019150506105cb565b50565b6040518060600160405280600390602082028036833780820191505090505090565b5f82825260208201905092915050565b7f4465706f73697420616d6f756e74206d757374206265206772656174657220745f8201527f68616e2030000000000000000000000000000000000000000000000000000000602082015250565b5f6108b560258361084b565b91506108c08261085b565b604082019050919050565b5f6020820190508181035f8301526108e2816108a9565b9050919050565b5f819050919050565b7f4e487b71000000000000000000000000000000000000000000000000000000005f52601160045260245ffd5b5f610929826108e9565b9150610934836108e9565b925082820190508082111561094c5761094b6108f2565b5b92915050565b5f80fd5b61095f816108e9565b8114610969575f80fd5b50565b5f8135905061097a81610956565b92915050565b5f6020828403121561099557610994610952565b5b5f6109a28482850161096c565b91505092915050565b5f73ffffffffffffffffffffffffffffffffffffffff82169050919050565b5f6109d4826109ab565b9050919050565b6109e4816109ca565b82525050565b5f6020820190506109fd5f8301846109db565b92915050565b610a0c816108e9565b82525050565b5f602082019050610a255f830184610a03565b92915050565b5f60039050919050565b5f81905092915050565b5f819050919050565b610a51816109ca565b82525050565b5f610a628383610a48565b60208301905092915050565b5f602082019050919050565b610a8381610a2b565b610a8d8184610a35565b9250610a9882610a3f565b805f5b83811015610ac8578151610aaf8782610a57565b9650610aba83610a6e565b925050600181019050610a9b565b505050505050565b5f606082019050610ae35f830184610a7a565b92915050565b610af2816109ca565b8114610afc575f80fd5b50565b5f81359050610b0d81610ae9565b92915050565b5f60208284031215610b2857610b27610952565b5b5f610b3584828501610aff565b91505092915050565b7f4e487b71000000000000000000000000000000000000000000000000000000005f52603260045260245ffd5b7f4e6f742074686520636f6e7472616374206f776e6572000000000000000000005f82015250565b5f610b9f60168361084b565b9150610baa82610b6b565b602082019050919050565b5f6020820190508181035f830152610bcc81610b93565b9050919050565b5f610bdd826108e9565b9150610be8836108e9565b9250828203905081811115610c0057610bff6108f2565b5b92915050565b5f610c10826108e9565b91505f8203610c2257610c216108f2565b5b60018203905091905056fea2646970667358221220ff654fa48f51c0a5fee8253c6ab0c51f2d526936286ef8e7981c5f784318b2de64736f6c634300081a0033",
					"opcodes": "PUSH1 0x80 PUSH1 0x40 MSTORE CALLVALUE DUP1 ISZERO PUSH1 0xE JUMPI PUSH0 DUP1 REVERT JUMPDEST POP CALLER PUSH0 DUP1 PUSH2 0x100 EXP DUP2 SLOAD DUP2 PUSH20 0xFFFFFFFFFFFFFFFFFFFFFFFFFFFFFFFFFFFFFFFF MUL NOT AND SWAP1 DUP4 PUSH20 0xFFFFFFFFFFFFFFFFFFFFFFFFFFFFFFFFFFFFFFFF AND MUL OR SWAP1 SSTORE POP PUSH2 0xC63 DUP1 PUSH2 0x5B PUSH0 CODECOPY PUSH0 RETURN INVALID PUSH1 0x80 PUSH1 0x40 MSTORE PUSH1 0x4 CALLDATASIZE LT PUSH2 0x58 JUMPI PUSH0 CALLDATALOAD PUSH1 0xE0 SHR DUP1 PUSH4 0x30861078 EQ PUSH2 0x101 JUMPI DUP1 PUSH4 0x3CCFD60B EQ PUSH2 0x13D JUMPI DUP1 PUSH4 0x6F9FB98A EQ PUSH2 0x153 JUMPI DUP1 PUSH4 0x81454F71 EQ PUSH2 0x17D JUMPI DUP1 PUSH4 0x8DA5CB5B EQ PUSH2 0x1A7 JUMPI DUP1 PUSH4 0xFC7E286D EQ PUSH2 0x1D1 JUMPI PUSH2 0xFD JUMP JUMPDEST CALLDATASIZE PUSH2 0xFD JUMPI PUSH0 CALLVALUE GT PUSH2 0x9F JUMPI PUSH1 0x40 MLOAD PUSH32 0x8C379A000000000000000000000000000000000000000000000000000000000 DUP2 MSTORE PUSH1 0x4 ADD PUSH2 0x96 SWAP1 PUSH2 0x8CB JUMP JUMPDEST PUSH1 0x40 MLOAD DUP1 SWAP2 SUB SWAP1 REVERT JUMPDEST CALLVALUE PUSH1 0x1 PUSH0 CALLER PUSH20 0xFFFFFFFFFFFFFFFFFFFFFFFFFFFFFFFFFFFFFFFF AND PUSH20 0xFFFFFFFFFFFFFFFFFFFFFFFFFFFFFFFFFFFFFFFF AND DUP2 MSTORE PUSH1 0x20 ADD SWAP1 DUP2 MSTORE PUSH1 0x20 ADD PUSH0 KECCAK256 PUSH0 DUP3 DUP3 SLOAD PUSH2 0xEB SWAP2 SWAP1 PUSH2 0x91F JUMP JUMPDEST SWAP3 POP POP DUP2 SWAP1 SSTORE POP PUSH2 0xFB CALLER PUSH2 0x20D JUMP JUMPDEST STOP JUMPDEST PUSH0 DUP1 REVERT JUMPDEST CALLVALUE DUP1 ISZERO PUSH2 0x10C JUMPI PUSH0 DUP1 REVERT JUMPDEST POP PUSH2 0x127 PUSH1 0x4 DUP1 CALLDATASIZE SUB DUP2 ADD SWAP1 PUSH2 0x122 SWAP2 SWAP1 PUSH2 0x980 JUMP JUMPDEST PUSH2 0x3B1 JUMP JUMPDEST PUSH1 0x40 MLOAD PUSH2 0x134 SWAP2 SWAP1 PUSH2 0x9EA JUMP JUMPDEST PUSH1 0x40 MLOAD DUP1 SWAP2 SUB SWAP1 RETURN JUMPDEST CALLVALUE DUP1 ISZERO PUSH2 0x148 JUMPI PUSH0 DUP1 REVERT JUMPDEST POP PUSH2 0x151 PUSH2 0x3E5 JUMP JUMPDEST STOP JUMPDEST CALLVALUE DUP1 ISZERO PUSH2 0x15E JUMPI PUSH0 DUP1 REVERT JUMPDEST POP PUSH2 0x167 PUSH2 0x4D7 JUMP JUMPDEST PUSH1 0x40 MLOAD PUSH2 0x174 SWAP2 SWAP1 PUSH2 0xA12 JUMP JUMPDEST PUSH1 0x40 MLOAD DUP1 SWAP2 SUB SWAP1 RETURN JUMPDEST CALLVALUE DUP1 ISZERO PUSH2 0x188 JUMPI PUSH0 DUP1 REVERT JUMPDEST POP PUSH2 0x191 PUSH2 0x4DE JUMP JUMPDEST PUSH1 0x40 MLOAD PUSH2 0x19E SWAP2 SWAP1 PUSH2 0xAD0 JUMP JUMPDEST PUSH1 0x40 MLOAD DUP1 SWAP2 SUB SWAP1 RETURN JUMPDEST CALLVALUE DUP1 ISZERO PUSH2 0x1B2 JUMPI PUSH0 DUP1 REVERT JUMPDEST POP PUSH2 0x1BB PUSH2 0x58D JUMP JUMPDEST PUSH1 0x40 MLOAD PUSH2 0x1C8 SWAP2 SWAP1 PUSH2 0x9EA JUMP JUMPDEST PUSH1 0x40 MLOAD DUP1 SWAP2 SUB SWAP1 RETURN JUMPDEST CALLVALUE DUP1 ISZERO PUSH2 0x1DC JUMPI PUSH0 DUP1 REVERT JUMPDEST POP PUSH2 0x1F7 PUSH1 0x4 DUP1 CALLDATASIZE SUB DUP2 ADD SWAP1 PUSH2 0x1F2 SWAP2 SWAP1 PUSH2 0xB13 JUMP JUMPDEST PUSH2 0x5B0 JUMP JUMPDEST PUSH1 0x40 MLOAD PUSH2 0x204 SWAP2 SWAP1 PUSH2 0xA12 JUMP JUMPDEST PUSH1 0x40 MLOAD DUP1 SWAP2 SUB SWAP1 RETURN JUMPDEST PUSH0 JUMPDEST PUSH1 0x3 DUP2 LT ISZERO PUSH2 0x29A JUMPI DUP2 PUSH20 0xFFFFFFFFFFFFFFFFFFFFFFFFFFFFFFFFFFFFFFFF AND PUSH1 0x2 DUP3 PUSH1 0x3 DUP2 LT PUSH2 0x243 JUMPI PUSH2 0x242 PUSH2 0xB3E JUMP JUMPDEST JUMPDEST ADD PUSH0 SWAP1 SLOAD SWAP1 PUSH2 0x100 EXP SWAP1 DIV PUSH20 0xFFFFFFFFFFFFFFFFFFFFFFFFFFFFFFFFFFFFFFFF AND PUSH20 0xFFFFFFFFFFFFFFFFFFFFFFFFFFFFFFFFFFFFFFFF AND SUB PUSH2 0x28D JUMPI PUSH2 0x287 PUSH2 0x5C5 JUMP JUMPDEST POP PUSH2 0x3AE JUMP JUMPDEST DUP1 DUP1 PUSH1 0x1 ADD SWAP2 POP POP PUSH2 0x20F JUMP JUMPDEST POP PUSH1 0x1 PUSH0 PUSH1 0x2 DUP1 PUSH1 0x3 DUP2 LT PUSH2 0x2B2 JUMPI PUSH2 0x2B1 PUSH2 0xB3E JUMP JUMPDEST JUMPDEST ADD PUSH0 SWAP1 SLOAD SWAP1 PUSH2 0x100 EXP SWAP1 DIV PUSH20 0xFFFFFFFFFFFFFFFFFFFFFFFFFFFFFFFFFFFFFFFF AND PUSH20 0xFFFFFFFFFFFFFFFFFFFFFFFFFFFFFFFFFFFFFFFF AND PUSH20 0xFFFFFFFFFFFFFFFFFFFFFFFFFFFFFFFFFFFFFFFF AND DUP2 MSTORE PUSH1 0x20 ADD SWAP1 DUP2 MSTORE PUSH1 0x20 ADD PUSH0 KECCAK256 SLOAD PUSH1 0x1 PUSH0 DUP4 PUSH20 0xFFFFFFFFFFFFFFFFFFFFFFFFFFFFFFFFFFFFFFFF AND PUSH20 0xFFFFFFFFFFFFFFFFFFFFFFFFFFFFFFFFFFFFFFFF AND DUP2 MSTORE PUSH1 0x20 ADD SWAP1 DUP2 MSTORE PUSH1 0x20 ADD PUSH0 KECCAK256 SLOAD GT ISZERO PUSH2 0x3AD JUMPI DUP1 PUSH1 0x2 DUP1 PUSH1 0x3 DUP2 LT PUSH2 0x366 JUMPI PUSH2 0x365 PUSH2 0xB3E JUMP JUMPDEST JUMPDEST ADD PUSH0 PUSH2 0x100 EXP DUP2 SLOAD DUP2 PUSH20 0xFFFFFFFFFFFFFFFFFFFFFFFFFFFFFFFFFFFFFFFF MUL NOT AND SWAP1 DUP4 PUSH20 0xFFFFFFFFFFFFFFFFFFFFFFFFFFFFFFFFFFFFFFFF AND MUL OR SWAP1 SSTORE POP PUSH2 0x3AC PUSH2 0x5C5 JUMP JUMPDEST JUMPDEST JUMPDEST POP JUMP JUMPDEST PUSH1 0x2 DUP2 PUSH1 0x3 DUP2 LT PUSH2 0x3C0 JUMPI PUSH0 DUP1 REVERT JUMPDEST ADD PUSH0 SWAP2 POP SLOAD SWAP1 PUSH2 0x100 EXP SWAP1 DIV PUSH20 0xFFFFFFFFFFFFFFFFFFFFFFFFFFFFFFFFFFFFFFFF AND DUP2 JUMP JUMPDEST PUSH0 DUP1 SLOAD SWAP1 PUSH2 0x100 EXP SWAP1 DIV PUSH20 0xFFFFFFFFFFFFFFFFFFFFFFFFFFFFFFFFFFFFFFFF AND PUSH20 0xFFFFFFFFFFFFFFFFFFFFFFFFFFFFFFFFFFFFFFFF AND CALLER PUSH20 0xFFFFFFFFFFFFFFFFFFFFFFFFFFFFFFFFFFFFFFFF AND EQ PUSH2 0x472 JUMPI PUSH1 0x40 MLOAD PUSH32 0x8C379A000000000000000000000000000000000000000000000000000000000 DUP2 MSTORE PUSH1 0x4 ADD PUSH2 0x469 SWAP1 PUSH2 0xBB5 JUMP JUMPDEST PUSH1 0x40 MLOAD DUP1 SWAP2 SUB SWAP1 REVERT JUMPDEST PUSH0 DUP1 SLOAD SWAP1 PUSH2 0x100 EXP SWAP1 DIV PUSH20 0xFFFFFFFFFFFFFFFFFFFFFFFFFFFFFFFFFFFFFFFF AND PUSH20 0xFFFFFFFFFFFFFFFFFFFFFFFFFFFFFFFFFFFFFFFF AND PUSH2 0x8FC SELFBALANCE SWAP1 DUP2 ISZERO MUL SWAP1 PUSH1 0x40 MLOAD PUSH0 PUSH1 0x40 MLOAD DUP1 DUP4 SUB DUP2 DUP6 DUP9 DUP9 CALL SWAP4 POP POP POP POP ISZERO DUP1 ISZERO PUSH2 0x4D4 JUMPI RETURNDATASIZE PUSH0 DUP1 RETURNDATACOPY RETURNDATASIZE PUSH0 REVERT JUMPDEST POP JUMP JUMPDEST PUSH0 SELFBALANCE SWAP1 POP SWAP1 JUMP JUMPDEST PUSH2 0x4E6 PUSH2 0x829 JUMP JUMPDEST PUSH2 0x4EE PUSH2 0x829 JUMP JUMPDEST PUSH0 JUMPDEST PUSH1 0x3 DUP2 LT ISZERO PUSH2 0x585 JUMPI PUSH1 0x2 DUP2 PUSH1 0x3 DUP2 LT PUSH2 0x50D JUMPI PUSH2 0x50C PUSH2 0xB3E JUMP JUMPDEST JUMPDEST ADD PUSH0 SWAP1 SLOAD SWAP1 PUSH2 0x100 EXP SWAP1 DIV PUSH20 0xFFFFFFFFFFFFFFFFFFFFFFFFFFFFFFFFFFFFFFFF AND DUP3 DUP3 PUSH1 0x3 DUP2 LT PUSH2 0x541 JUMPI PUSH2 0x540 PUSH2 0xB3E JUMP JUMPDEST JUMPDEST PUSH1 0x20 MUL ADD SWAP1 PUSH20 0xFFFFFFFFFFFFFFFFFFFFFFFFFFFFFFFFFFFFFFFF AND SWAP1 DUP2 PUSH20 0xFFFFFFFFFFFFFFFFFFFFFFFFFFFFFFFFFFFFFFFF AND DUP2 MSTORE POP POP DUP1 DUP1 PUSH1 0x1 ADD SWAP2 POP POP PUSH2 0x4F0 JUMP JUMPDEST POP DUP1 SWAP2 POP POP SWAP1 JUMP JUMPDEST PUSH0 DUP1 SLOAD SWAP1 PUSH2 0x100 EXP SWAP1 DIV PUSH20 0xFFFFFFFFFFFFFFFFFFFFFFFFFFFFFFFFFFFFFFFF AND DUP2 JUMP JUMPDEST PUSH1 0x1 PUSH1 0x20 MSTORE DUP1 PUSH0 MSTORE PUSH1 0x40 PUSH0 KECCAK256 PUSH0 SWAP2 POP SWAP1 POP SLOAD DUP2 JUMP JUMPDEST PUSH0 PUSH1 0x1 SWAP1 POP JUMPDEST PUSH1 0x3 DUP2 LT ISZERO PUSH2 0x826 JUMPI PUSH0 DUP2 SWAP1 POP JUMPDEST PUSH0 DUP2 GT DUP1 ISZERO PUSH2 0x6D5 JUMPI POP PUSH1 0x1 PUSH0 PUSH1 0x2 PUSH1 0x1 DUP5 PUSH2 0x5F5 SWAP2 SWAP1 PUSH2 0xBD3 JUMP JUMPDEST PUSH1 0x3 DUP2 LT PUSH2 0x606 JUMPI PUSH2 0x605 PUSH2 0xB3E JUMP JUMPDEST JUMPDEST ADD PUSH0 SWAP1 SLOAD SWAP1 PUSH2 0x100 EXP SWAP1 DIV PUSH20 0xFFFFFFFFFFFFFFFFFFFFFFFFFFFFFFFFFFFFFFFF AND PUSH20 0xFFFFFFFFFFFFFFFFFFFFFFFFFFFFFFFFFFFFFFFF AND PUSH20 0xFFFFFFFFFFFFFFFFFFFFFFFFFFFFFFFFFFFFFFFF AND DUP2 MSTORE PUSH1 0x20 ADD SWAP1 DUP2 MSTORE PUSH1 0x20 ADD PUSH0 KECCAK256 SLOAD PUSH1 0x1 PUSH0 PUSH1 0x2 DUP5 PUSH1 0x3 DUP2 LT PUSH2 0x678 JUMPI PUSH2 0x677 PUSH2 0xB3E JUMP JUMPDEST JUMPDEST ADD PUSH0 SWAP1 SLOAD SWAP1 PUSH2 0x100 EXP SWAP1 DIV PUSH20 0xFFFFFFFFFFFFFFFFFFFFFFFFFFFFFFFFFFFFFFFF AND PUSH20 0xFFFFFFFFFFFFFFFFFFFFFFFFFFFFFFFFFFFFFFFF AND PUSH20 0xFFFFFFFFFFFFFFFFFFFFFFFFFFFFFFFFFFFFFFFF AND DUP2 MSTORE PUSH1 0x20 ADD SWAP1 DUP2 MSTORE PUSH1 0x20 ADD PUSH0 KECCAK256 SLOAD GT JUMPDEST ISZERO PUSH2 0x818 JUMPI PUSH0 PUSH1 0x2 DUP3 PUSH1 0x3 DUP2 LT PUSH2 0x6EF JUMPI PUSH2 0x6EE PUSH2 0xB3E JUMP JUMPDEST JUMPDEST ADD PUSH0 SWAP1 SLOAD SWAP1 PUSH2 0x100 EXP SWAP1 DIV PUSH20 0xFFFFFFFFFFFFFFFFFFFFFFFFFFFFFFFFFFFFFFFF AND SWAP1 POP PUSH1 0x2 PUSH1 0x1 DUP4 PUSH2 0x721 SWAP2 SWAP1 PUSH2 0xBD3 JUMP JUMPDEST PUSH1 0x3 DUP2 LT PUSH2 0x732 JUMPI PUSH2 0x731 PUSH2 0xB3E JUMP JUMPDEST JUMPDEST ADD PUSH0 SWAP1 SLOAD SWAP1 PUSH2 0x100 EXP SWAP1 DIV PUSH20 0xFFFFFFFFFFFFFFFFFFFFFFFFFFFFFFFFFFFFFFFF AND PUSH1 0x2 DUP4 PUSH1 0x3 DUP2 LT PUSH2 0x767 JUMPI PUSH2 0x766 PUSH2 0xB3E JUMP JUMPDEST JUMPDEST ADD PUSH0 PUSH2 0x100 EXP DUP2 SLOAD DUP2 PUSH20 0xFFFFFFFFFFFFFFFFFFFFFFFFFFFFFFFFFFFFFFFF MUL NOT AND SWAP1 DUP4 PUSH20 0xFFFFFFFFFFFFFFFFFFFFFFFFFFFFFFFFFFFFFFFF AND MUL OR SWAP1 SSTORE POP DUP1 PUSH1 0x2 PUSH1 0x1 DUP5 PUSH2 0x7B5 SWAP2 SWAP1 PUSH2 0xBD3 JUMP JUMPDEST PUSH1 0x3 DUP2 LT PUSH2 0x7C6 JUMPI PUSH2 0x7C5 PUSH2 0xB3E JUMP JUMPDEST JUMPDEST ADD PUSH0 PUSH2 0x100 EXP DUP2 SLOAD DUP2 PUSH20 0xFFFFFFFFFFFFFFFFFFFFFFFFFFFFFFFFFFFFFFFF MUL NOT AND SWAP1 DUP4 PUSH20 0xFFFFFFFFFFFFFFFFFFFFFFFFFFFFFFFFFFFFFFFF AND MUL OR SWAP1 SSTORE POP POP DUP1 DUP1 PUSH2 0x810 SWAP1 PUSH2 0xC06 JUMP JUMPDEST SWAP2 POP POP PUSH2 0x5D9 JUMP JUMPDEST POP DUP1 DUP1 PUSH1 0x1 ADD SWAP2 POP POP PUSH2 0x5CB JUMP JUMPDEST POP JUMP JUMPDEST PUSH1 0x40 MLOAD DUP1 PUSH1 0x60 ADD PUSH1 0x40 MSTORE DUP1 PUSH1 0x3 SWAP1 PUSH1 0x20 DUP3 MUL DUP1 CALLDATASIZE DUP4 CALLDATACOPY DUP1 DUP3 ADD SWAP2 POP POP SWAP1 POP POP SWAP1 JUMP JUMPDEST PUSH0 DUP3 DUP3 MSTORE PUSH1 0x20 DUP3 ADD SWAP1 POP SWAP3 SWAP2 POP POP JUMP JUMPDEST PUSH32 0x4465706F73697420616D6F756E74206D75737420626520677265617465722074 PUSH0 DUP3 ADD MSTORE PUSH32 0x68616E2030000000000000000000000000000000000000000000000000000000 PUSH1 0x20 DUP3 ADD MSTORE POP JUMP JUMPDEST PUSH0 PUSH2 0x8B5 PUSH1 0x25 DUP4 PUSH2 0x84B JUMP JUMPDEST SWAP2 POP PUSH2 0x8C0 DUP3 PUSH2 0x85B JUMP JUMPDEST PUSH1 0x40 DUP3 ADD SWAP1 POP SWAP2 SWAP1 POP JUMP JUMPDEST PUSH0 PUSH1 0x20 DUP3 ADD SWAP1 POP DUP2 DUP2 SUB PUSH0 DUP4 ADD MSTORE PUSH2 0x8E2 DUP2 PUSH2 0x8A9 JUMP JUMPDEST SWAP1 POP SWAP2 SWAP1 POP JUMP JUMPDEST PUSH0 DUP2 SWAP1 POP SWAP2 SWAP1 POP JUMP JUMPDEST PUSH32 0x4E487B7100000000000000000000000000000000000000000000000000000000 PUSH0 MSTORE PUSH1 0x11 PUSH1 0x4 MSTORE PUSH1 0x24 PUSH0 REVERT JUMPDEST PUSH0 PUSH2 0x929 DUP3 PUSH2 0x8E9 JUMP JUMPDEST SWAP2 POP PUSH2 0x934 DUP4 PUSH2 0x8E9 JUMP JUMPDEST SWAP3 POP DUP3 DUP3 ADD SWAP1 POP DUP1 DUP3 GT ISZERO PUSH2 0x94C JUMPI PUSH2 0x94B PUSH2 0x8F2 JUMP JUMPDEST JUMPDEST SWAP3 SWAP2 POP POP JUMP JUMPDEST PUSH0 DUP1 REVERT JUMPDEST PUSH2 0x95F DUP2 PUSH2 0x8E9 JUMP JUMPDEST DUP2 EQ PUSH2 0x969 JUMPI PUSH0 DUP1 REVERT JUMPDEST POP JUMP JUMPDEST PUSH0 DUP2 CALLDATALOAD SWAP1 POP PUSH2 0x97A DUP2 PUSH2 0x956 JUMP JUMPDEST SWAP3 SWAP2 POP POP JUMP JUMPDEST PUSH0 PUSH1 0x20 DUP3 DUP5 SUB SLT ISZERO PUSH2 0x995 JUMPI PUSH2 0x994 PUSH2 0x952 JUMP JUMPDEST JUMPDEST PUSH0 PUSH2 0x9A2 DUP5 DUP3 DUP6 ADD PUSH2 0x96C JUMP JUMPDEST SWAP2 POP POP SWAP3 SWAP2 POP POP JUMP JUMPDEST PUSH0 PUSH20 0xFFFFFFFFFFFFFFFFFFFFFFFFFFFFFFFFFFFFFFFF DUP3 AND SWAP1 POP SWAP2 SWAP1 POP JUMP JUMPDEST PUSH0 PUSH2 0x9D4 DUP3 PUSH2 0x9AB JUMP JUMPDEST SWAP1 POP SWAP2 SWAP1 POP JUMP JUMPDEST PUSH2 0x9E4 DUP2 PUSH2 0x9CA JUMP JUMPDEST DUP3 MSTORE POP POP JUMP JUMPDEST PUSH0 PUSH1 0x20 DUP3 ADD SWAP1 POP PUSH2 0x9FD PUSH0 DUP4 ADD DUP5 PUSH2 0x9DB JUMP JUMPDEST SWAP3 SWAP2 POP POP JUMP JUMPDEST PUSH2 0xA0C DUP2 PUSH2 0x8E9 JUMP JUMPDEST DUP3 MSTORE POP POP JUMP JUMPDEST PUSH0 PUSH1 0x20 DUP3 ADD SWAP1 POP PUSH2 0xA25 PUSH0 DUP4 ADD DUP5 PUSH2 0xA03 JUMP JUMPDEST SWAP3 SWAP2 POP POP JUMP JUMPDEST PUSH0 PUSH1 0x3 SWAP1 POP SWAP2 SWAP1 POP JUMP JUMPDEST PUSH0 DUP2 SWAP1 POP SWAP3 SWAP2 POP POP JUMP JUMPDEST PUSH0 DUP2 SWAP1 POP SWAP2 SWAP1 POP JUMP JUMPDEST PUSH2 0xA51 DUP2 PUSH2 0x9CA JUMP JUMPDEST DUP3 MSTORE POP POP JUMP JUMPDEST PUSH0 PUSH2 0xA62 DUP4 DUP4 PUSH2 0xA48 JUMP JUMPDEST PUSH1 0x20 DUP4 ADD SWAP1 POP SWAP3 SWAP2 POP POP JUMP JUMPDEST PUSH0 PUSH1 0x20 DUP3 ADD SWAP1 POP SWAP2 SWAP1 POP JUMP JUMPDEST PUSH2 0xA83 DUP2 PUSH2 0xA2B JUMP JUMPDEST PUSH2 0xA8D DUP2 DUP5 PUSH2 0xA35 JUMP JUMPDEST SWAP3 POP PUSH2 0xA98 DUP3 PUSH2 0xA3F JUMP JUMPDEST DUP1 PUSH0 JUMPDEST DUP4 DUP2 LT ISZERO PUSH2 0xAC8 JUMPI DUP2 MLOAD PUSH2 0xAAF DUP8 DUP3 PUSH2 0xA57 JUMP JUMPDEST SWAP7 POP PUSH2 0xABA DUP4 PUSH2 0xA6E JUMP JUMPDEST SWAP3 POP POP PUSH1 0x1 DUP2 ADD SWAP1 POP PUSH2 0xA9B JUMP JUMPDEST POP POP POP POP POP POP JUMP JUMPDEST PUSH0 PUSH1 0x60 DUP3 ADD SWAP1 POP PUSH2 0xAE3 PUSH0 DUP4 ADD DUP5 PUSH2 0xA7A JUMP JUMPDEST SWAP3 SWAP2 POP POP JUMP JUMPDEST PUSH2 0xAF2 DUP2 PUSH2 0x9CA JUMP JUMPDEST DUP2 EQ PUSH2 0xAFC JUMPI PUSH0 DUP1 REVERT JUMPDEST POP JUMP JUMPDEST PUSH0 DUP2 CALLDATALOAD SWAP1 POP PUSH2 0xB0D DUP2 PUSH2 0xAE9 JUMP JUMPDEST SWAP3 SWAP2 POP POP JUMP JUMPDEST PUSH0 PUSH1 0x20 DUP3 DUP5 SUB SLT ISZERO PUSH2 0xB28 JUMPI PUSH2 0xB27 PUSH2 0x952 JUMP JUMPDEST JUMPDEST PUSH0 PUSH2 0xB35 DUP5 DUP3 DUP6 ADD PUSH2 0xAFF JUMP JUMPDEST SWAP2 POP POP SWAP3 SWAP2 POP POP JUMP JUMPDEST PUSH32 0x4E487B7100000000000000000000000000000000000000000000000000000000 PUSH0 MSTORE PUSH1 0x32 PUSH1 0x4 MSTORE PUSH1 0x24 PUSH0 REVERT JUMPDEST PUSH32 0x4E6F742074686520636F6E7472616374206F776E657200000000000000000000 PUSH0 DUP3 ADD MSTORE POP JUMP JUMPDEST PUSH0 PUSH2 0xB9F PUSH1 0x16 DUP4 PUSH2 0x84B JUMP JUMPDEST SWAP2 POP PUSH2 0xBAA DUP3 PUSH2 0xB6B JUMP JUMPDEST PUSH1 0x20 DUP3 ADD SWAP1 POP SWAP2 SWAP1 POP JUMP JUMPDEST PUSH0 PUSH1 0x20 DUP3 ADD SWAP1 POP DUP2 DUP2 SUB PUSH0 DUP4 ADD MSTORE PUSH2 0xBCC DUP2 PUSH2 0xB93 JUMP JUMPDEST SWAP1 POP SWAP2 SWAP1 POP JUMP JUMPDEST PUSH0 PUSH2 0xBDD DUP3 PUSH2 0x8E9 JUMP JUMPDEST SWAP2 POP PUSH2 0xBE8 DUP4 PUSH2 0x8E9 JUMP JUMPDEST SWAP3 POP DUP3 DUP3 SUB SWAP1 POP DUP2 DUP2 GT ISZERO PUSH2 0xC00 JUMPI PUSH2 0xBFF PUSH2 0x8F2 JUMP JUMPDEST JUMPDEST SWAP3 SWAP2 POP POP JUMP JUMPDEST PUSH0 PUSH2 0xC10 DUP3 PUSH2 0x8E9 JUMP JUMPDEST SWAP2 POP PUSH0 DUP3 SUB PUSH2 0xC22 JUMPI PUSH2 0xC21 PUSH2 0x8F2 JUMP JUMPDEST JUMPDEST PUSH1 0x1 DUP3 SUB SWAP1 POP SWAP2 SWAP1 POP JUMP INVALID LOG2 PUSH5 0x6970667358 0x22 SLT KECCAK256 SELFDESTRUCT PUSH6 0x4FA48F51C0A5 INVALID 0xE8 0x25 EXTCODECOPY PUSH11 0xB0C51F2D526936286EF8E7 SWAP9 SHR PUSH0 PUSH25 0x4318B2DE64736F6C634300081A003300000000000000000000 "
				},
				"gasEstimates": {
					"creation": {
						"codeDepositCost": "634200",
						"executionCost": "24933",
						"totalCost": "659133"
					},
					"external": {
						"deposits(address)": "2890",
						"getContractBalance()": "356",
						"getTopDepositors()": "infinite",
						"owner()": "2571",
						"topDepositors(uint256)": "2773",
						"withdraw()": "infinite"
					},
					"internal": {
						"_rearrangeTopDepositors()": "infinite",
						"_updateTopDepositors(address)": "infinite"
					}
				},
				"methodIdentifiers": {
					"deposits(address)": "fc7e286d",
					"getContractBalance()": "6f9fb98a",
					"getTopDepositors()": "81454f71",
					"owner()": "8da5cb5b",
					"topDepositors(uint256)": "30861078",
					"withdraw()": "3ccfd60b"
				}
			},
			"storageLayout": {
				"storage": [
					{
						"astId": 6,
						"contract": "1012/Bank.sol:Bank",
						"label": "owner",
						"offset": 0,
						"slot": "0",
						"type": "t_address"
					},
					{
						"astId": 10,
						"contract": "1012/Bank.sol:Bank",
						"label": "deposits",
						"offset": 0,
						"slot": "1",
						"type": "t_mapping(t_address,t_uint256)"
					},
					{
						"astId": 14,
						"contract": "1012/Bank.sol:Bank",
						"label": "topDepositors",
						"offset": 0,
						"slot": "2",
						"type": "t_array(t_address)3_storage"
					}
				],
				"types": {
					"t_address": {
						"encoding": "inplace",
						"label": "address",
						"numberOfBytes": "20"
					},
					"t_array(t_address)3_storage": {
						"base": "t_address",
						"encoding": "inplace",
						"label": "address[3]",
						"numberOfBytes": "96"
					},
					"t_mapping(t_address,t_uint256)": {
						"encoding": "mapping",
						"key": "t_address",
						"label": "mapping(address => uint256)",
						"numberOfBytes": "32",
						"value": "t_uint256"
					},
					"t_uint256": {
						"encoding": "inplace",
						"label": "uint256",
						"numberOfBytes": "32"
					}
				}
			},
			"userdoc": {
				"kind": "user",
				"methods": {},
				"version": 1
			}
		}
	}
}