{
	"TokenBank.sol": {
		"TokenBank": {
			"abi": [
				{
					"inputs": [
						{
							"internalType": "contract IERC20",
							"name": "_token",
							"type": "address"
						}
					],
					"stateMutability": "nonpayable",
					"type": "constructor"
				},
				{
					"inputs": [
						{
							"internalType": "address",
							"name": "",
							"type": "address"
						}
					],
					"name": "balances",
					"outputs": [
						{
							"internalType": "uint256",
							"name": "",
							"type": "uint256"
						}
					],
					"stateMutability": "view",
					"type": "function"
				},
				{
					"inputs": [
						{
							"internalType": "uint256",
							"name": "amount",
							"type": "uint256"
						}
					],
					"name": "deposit",
					"outputs": [],
					"stateMutability": "nonpayable",
					"type": "function"
				},
				{
					"inputs": [],
					"name": "token",
					"outputs": [
						{
							"internalType": "contract IERC20",
							"name": "",
							"type": "address"
						}
					],
					"stateMutability": "view",
					"type": "function"
				},
				{
					"inputs": [
						{
							"internalType": "uint256",
							"name": "value",
							"type": "uint256"
						}
					],
					"name": "withdraw",
					"outputs": [],
					"stateMutability": "nonpayable",
					"type": "function"
				}
			],
			"devdoc": {
				"kind": "dev",
				"methods": {},
				"version": 1
			},
			"evm": {
				"assembly": "    /* \"TokenBank.sol\":79:837  contract TokenBank {... */\n  mstore(0x40, 0x80)\n    /* \"TokenBank.sol\":181:240  constructor (IERC20 _token) {... */\n  callvalue\n  dup1\n  iszero\n  tag_1\n  jumpi\n  0x00\n  dup1\n  revert\ntag_1:\n  pop\n  mload(0x40)\n  sub(codesize, bytecodeSize)\n  dup1\n  bytecodeSize\n  dup4\n  codecopy\n  dup2\n  dup2\n  add\n  0x40\n  mstore\n  dup2\n  add\n  swap1\n  tag_2\n  swap2\n  swap1\n  tag_3\n  jump\t// in\ntag_2:\n    /* \"TokenBank.sol\":227:233  _token */\n  dup1\n    /* \"TokenBank.sol\":219:224  token */\n  0x00\n  dup1\n    /* \"TokenBank.sol\":219:233  token = _token */\n  0x0100\n  exp\n  dup2\n  sload\n  dup2\n  0xffffffffffffffffffffffffffffffffffffffff\n  mul\n  not\n  and\n  swap1\n  dup4\n  0xffffffffffffffffffffffffffffffffffffffff\n  and\n  mul\n  or\n  swap1\n  sstore\n  pop\n    /* \"TokenBank.sol\":181:240  constructor (IERC20 _token) {... */\n  pop\n    /* \"TokenBank.sol\":79:837  contract TokenBank {... */\n  jump(tag_6)\n    /* \"#utility.yul\":88:205   */\ntag_8:\n    /* \"#utility.yul\":197:198   */\n  0x00\n    /* \"#utility.yul\":194:195   */\n  dup1\n    /* \"#utility.yul\":187:199   */\n  revert\n    /* \"#utility.yul\":334:460   */\ntag_10:\n    /* \"#utility.yul\":371:378   */\n  0x00\n    /* \"#utility.yul\":411:453   */\n  0xffffffffffffffffffffffffffffffffffffffff\n    /* \"#utility.yul\":404:409   */\n  dup3\n    /* \"#utility.yul\":400:454   */\n  and\n    /* \"#utility.yul\":389:454   */\n  swap1\n  pop\n    /* \"#utility.yul\":334:460   */\n  swap2\n  swap1\n  pop\n  jump\t// out\n    /* \"#utility.yul\":466:562   */\ntag_11:\n    /* \"#utility.yul\":503:510   */\n  0x00\n    /* \"#utility.yul\":532:556   */\n  tag_21\n    /* \"#utility.yul\":550:555   */\n  dup3\n    /* \"#utility.yul\":532:556   */\n  tag_10\n  jump\t// in\ntag_21:\n    /* \"#utility.yul\":521:556   */\n  swap1\n  pop\n    /* \"#utility.yul\":466:562   */\n  swap2\n  swap1\n  pop\n  jump\t// out\n    /* \"#utility.yul\":568:677   */\ntag_12:\n    /* \"#utility.yul\":618:625   */\n  0x00\n    /* \"#utility.yul\":647:671   */\n  tag_23\n    /* \"#utility.yul\":665:670   */\n  dup3\n    /* \"#utility.yul\":647:671   */\n  tag_11\n  jump\t// in\ntag_23:\n    /* \"#utility.yul\":636:671   */\n  swap1\n  pop\n    /* \"#utility.yul\":568:677   */\n  swap2\n  swap1\n  pop\n  jump\t// out\n    /* \"#utility.yul\":683:831   */\ntag_13:\n    /* \"#utility.yul\":769:806   */\n  tag_25\n    /* \"#utility.yul\":800:805   */\n  dup2\n    /* \"#utility.yul\":769:806   */\n  tag_12\n  jump\t// in\ntag_25:\n    /* \"#utility.yul\":762:767   */\n  dup2\n    /* \"#utility.yul\":759:807   */\n  eq\n    /* \"#utility.yul\":749:825   */\n  tag_26\n  jumpi\n    /* \"#utility.yul\":821:822   */\n  0x00\n    /* \"#utility.yul\":818:819   */\n  dup1\n    /* \"#utility.yul\":811:823   */\n  revert\n    /* \"#utility.yul\":749:825   */\ntag_26:\n    /* \"#utility.yul\":683:831   */\n  pop\n  jump\t// out\n    /* \"#utility.yul\":837:1006   */\ntag_14:\n    /* \"#utility.yul\":907:912   */\n  0x00\n    /* \"#utility.yul\":938:944   */\n  dup2\n    /* \"#utility.yul\":932:945   */\n  mload\n    /* \"#utility.yul\":923:945   */\n  swap1\n  pop\n    /* \"#utility.yul\":954:1000   */\n  tag_28\n    /* \"#utility.yul\":994:999   */\n  dup2\n    /* \"#utility.yul\":954:1000   */\n  tag_13\n  jump\t// in\ntag_28:\n    /* \"#utility.yul\":837:1006   */\n  swap3\n  swap2\n  pop\n  pop\n  jump\t// out\n    /* \"#utility.yul\":1012:1389   */\ntag_3:\n    /* \"#utility.yul\":1095:1101   */\n  0x00\n    /* \"#utility.yul\":1144:1146   */\n  0x20\n    /* \"#utility.yul\":1132:1141   */\n  dup3\n    /* \"#utility.yul\":1123:1130   */\n  dup5\n    /* \"#utility.yul\":1119:1142   */\n  sub\n    /* \"#utility.yul\":1115:1147   */\n  slt\n    /* \"#utility.yul\":1112:1231   */\n  iszero\n  tag_30\n  jumpi\n    /* \"#utility.yul\":1150:1229   */\n  tag_31\n  tag_8\n  jump\t// in\ntag_31:\n    /* \"#utility.yul\":1112:1231   */\ntag_30:\n    /* \"#utility.yul\":1270:1271   */\n  0x00\n    /* \"#utility.yul\":1295:1372   */\n  tag_32\n    /* \"#utility.yul\":1364:1371   */\n  dup5\n    /* \"#utility.yul\":1355:1361   */\n  dup3\n    /* \"#utility.yul\":1344:1353   */\n  dup6\n    /* \"#utility.yul\":1340:1362   */\n  add\n    /* \"#utility.yul\":1295:1372   */\n  tag_14\n  jump\t// in\ntag_32:\n    /* \"#utility.yul\":1285:1372   */\n  swap2\n  pop\n    /* \"#utility.yul\":1241:1382   */\n  pop\n    /* \"#utility.yul\":1012:1389   */\n  swap3\n  swap2\n  pop\n  pop\n  jump\t// out\n    /* \"TokenBank.sol\":79:837  contract TokenBank {... */\ntag_6:\n  dataSize(sub_0)\n  dup1\n  dataOffset(sub_0)\n  0x00\n  codecopy\n  0x00\n  return\nstop\n\nsub_0: assembly {\n        /* \"TokenBank.sol\":79:837  contract TokenBank {... */\n      mstore(0x40, 0x80)\n      callvalue\n      dup1\n      iszero\n      tag_1\n      jumpi\n      0x00\n      dup1\n      revert\n    tag_1:\n      pop\n      jumpi(tag_2, lt(calldatasize, 0x04))\n      shr(0xe0, calldataload(0x00))\n      dup1\n      0x27e235e3\n      eq\n      tag_3\n      jumpi\n      dup1\n      0x2e1a7d4d\n      eq\n      tag_4\n      jumpi\n      dup1\n      0xb6b55f25\n      eq\n      tag_5\n      jumpi\n      dup1\n      0xfc0c546a\n      eq\n      tag_6\n      jumpi\n    tag_2:\n      0x00\n      dup1\n      revert\n        /* \"TokenBank.sol\":130:174  mapping (address => uint256) public balances */\n    tag_3:\n      tag_7\n      0x04\n      dup1\n      calldatasize\n      sub\n      dup2\n      add\n      swap1\n      tag_8\n      swap2\n      swap1\n      tag_9\n      jump\t// in\n    tag_8:\n      tag_10\n      jump\t// in\n    tag_7:\n      mload(0x40)\n      tag_11\n      swap2\n      swap1\n      tag_12\n      jump\t// in\n    tag_11:\n      mload(0x40)\n      dup1\n      swap2\n      sub\n      swap1\n      return\n        /* \"TokenBank.sol\":569:834  function withdraw(uint256 value) public {... */\n    tag_4:\n      tag_13\n      0x04\n      dup1\n      calldatasize\n      sub\n      dup2\n      add\n      swap1\n      tag_14\n      swap2\n      swap1\n      tag_15\n      jump\t// in\n    tag_14:\n      tag_16\n      jump\t// in\n    tag_13:\n      stop\n        /* \"TokenBank.sol\":284:563  function deposit(uint256 amount) public {... */\n    tag_5:\n      tag_17\n      0x04\n      dup1\n      calldatasize\n      sub\n      dup2\n      add\n      swap1\n      tag_18\n      swap2\n      swap1\n      tag_15\n      jump\t// in\n    tag_18:\n      tag_19\n      jump\t// in\n    tag_17:\n      stop\n        /* \"TokenBank.sol\":105:124  IERC20 public token */\n    tag_6:\n      tag_20\n      tag_21\n      jump\t// in\n    tag_20:\n      mload(0x40)\n      tag_22\n      swap2\n      swap1\n      tag_23\n      jump\t// in\n    tag_22:\n      mload(0x40)\n      dup1\n      swap2\n      sub\n      swap1\n      return\n        /* \"TokenBank.sol\":130:174  mapping (address => uint256) public balances */\n    tag_10:\n      mstore(0x20, 0x01)\n      dup1\n      0x00\n      mstore\n      keccak256(0x00, 0x40)\n      0x00\n      swap2\n      pop\n      swap1\n      pop\n      sload\n      dup2\n      jump\t// out\n        /* \"TokenBank.sol\":569:834  function withdraw(uint256 value) public {... */\n    tag_16:\n        /* \"TokenBank.sol\":634:642  balances */\n      0x01\n        /* \"TokenBank.sol\":634:654  balances[msg.sender] */\n      0x00\n        /* \"TokenBank.sol\":643:653  msg.sender */\n      caller\n        /* \"TokenBank.sol\":634:654  balances[msg.sender] */\n      0xffffffffffffffffffffffffffffffffffffffff\n      and\n      0xffffffffffffffffffffffffffffffffffffffff\n      and\n      dup2\n      mstore\n      0x20\n      add\n      swap1\n      dup2\n      mstore\n      0x20\n      add\n      0x00\n      keccak256\n      sload\n        /* \"TokenBank.sol\":627:632  value */\n      dup2\n        /* \"TokenBank.sol\":627:654  value<=balances[msg.sender] */\n      gt\n      iszero\n        /* \"TokenBank.sol\":619:679  require(value<=balances[msg.sender], \"Insufficient balance\") */\n      tag_25\n      jumpi\n      mload(0x40)\n      0x08c379a000000000000000000000000000000000000000000000000000000000\n      dup2\n      mstore\n      0x04\n      add\n      tag_26\n      swap1\n      tag_27\n      jump\t// in\n    tag_26:\n      mload(0x40)\n      dup1\n      swap2\n      sub\n      swap1\n      revert\n    tag_25:\n        /* \"TokenBank.sol\":689:701  bool success */\n      0x00\n        /* \"TokenBank.sol\":704:709  token */\n      dup1\n      0x00\n      swap1\n      sload\n      swap1\n      0x0100\n      exp\n      swap1\n      div\n      0xffffffffffffffffffffffffffffffffffffffff\n      and\n        /* \"TokenBank.sol\":704:718  token.transfer */\n      0xffffffffffffffffffffffffffffffffffffffff\n      and\n      0xa9059cbb\n        /* \"TokenBank.sol\":719:729  msg.sender */\n      caller\n        /* \"TokenBank.sol\":731:736  value */\n      dup5\n        /* \"TokenBank.sol\":704:737  token.transfer(msg.sender, value) */\n      mload(0x40)\n      dup4\n      0xffffffff\n      and\n      0xe0\n      shl\n      dup2\n      mstore\n      0x04\n      add\n      tag_28\n      swap3\n      swap2\n      swap1\n      tag_29\n      jump\t// in\n    tag_28:\n      0x20\n      mload(0x40)\n      dup1\n      dup4\n      sub\n      dup2\n      0x00\n      dup8\n      gas\n      call\n      iszero\n      dup1\n      iszero\n      tag_31\n      jumpi\n      returndatasize\n      0x00\n      dup1\n      returndatacopy\n      revert(0x00, returndatasize)\n    tag_31:\n      pop\n      pop\n      pop\n      pop\n      mload(0x40)\n      returndatasize\n      not(0x1f)\n      0x1f\n      dup3\n      add\n      and\n      dup3\n      add\n      dup1\n      0x40\n      mstore\n      pop\n      dup2\n      add\n      swap1\n      tag_32\n      swap2\n      swap1\n      tag_33\n      jump\t// in\n    tag_32:\n        /* \"TokenBank.sol\":689:737  bool success = token.transfer(msg.sender, value) */\n      swap1\n      pop\n        /* \"TokenBank.sol\":755:762  success */\n      dup1\n        /* \"TokenBank.sol\":747:788  require(success, \"Token transfer failed\") */\n      tag_34\n      jumpi\n      mload(0x40)\n      0x08c379a000000000000000000000000000000000000000000000000000000000\n      dup2\n      mstore\n      0x04\n      add\n      tag_35\n      swap1\n      tag_36\n      jump\t// in\n    tag_35:\n      mload(0x40)\n      dup1\n      swap2\n      sub\n      swap1\n      revert\n    tag_34:\n        /* \"TokenBank.sol\":822:827  value */\n      dup2\n        /* \"TokenBank.sol\":798:806  balances */\n      0x01\n        /* \"TokenBank.sol\":798:818  balances[msg.sender] */\n      0x00\n        /* \"TokenBank.sol\":807:817  msg.sender */\n      caller\n        /* \"TokenBank.sol\":798:818  balances[msg.sender] */\n      0xffffffffffffffffffffffffffffffffffffffff\n      and\n      0xffffffffffffffffffffffffffffffffffffffff\n      and\n      dup2\n      mstore\n      0x20\n      add\n      swap1\n      dup2\n      mstore\n      0x20\n      add\n      0x00\n      keccak256\n      0x00\n        /* \"TokenBank.sol\":798:827  balances[msg.sender] -= value */\n      dup3\n      dup3\n      sload\n      tag_37\n      swap2\n      swap1\n      tag_38\n      jump\t// in\n    tag_37:\n      swap3\n      pop\n      pop\n      dup2\n      swap1\n      sstore\n      pop\n        /* \"TokenBank.sol\":609:834  {... */\n      pop\n        /* \"TokenBank.sol\":569:834  function withdraw(uint256 value) public {... */\n      pop\n      jump\t// out\n        /* \"TokenBank.sol\":284:563  function deposit(uint256 amount) public {... */\n    tag_19:\n        /* \"TokenBank.sol\":349:350  0 */\n      0x00\n        /* \"TokenBank.sol\":342:348  amount */\n      dup2\n        /* \"TokenBank.sol\":342:350  amount>0 */\n      gt\n        /* \"TokenBank.sol\":334:387  require(amount>0, \"Amount must be greater than zero\") */\n      tag_40\n      jumpi\n      mload(0x40)\n      0x08c379a000000000000000000000000000000000000000000000000000000000\n      dup2\n      mstore\n      0x04\n      add\n      tag_41\n      swap1\n      tag_42\n      jump\t// in\n    tag_41:\n      mload(0x40)\n      dup1\n      swap2\n      sub\n      swap1\n      revert\n    tag_40:\n        /* \"TokenBank.sol\":397:409  bool success */\n      0x00\n        /* \"TokenBank.sol\":412:417  token */\n      dup1\n      0x00\n      swap1\n      sload\n      swap1\n      0x0100\n      exp\n      swap1\n      div\n      0xffffffffffffffffffffffffffffffffffffffff\n      and\n        /* \"TokenBank.sol\":412:430  token.transferFrom */\n      0xffffffffffffffffffffffffffffffffffffffff\n      and\n      0x23b872dd\n        /* \"TokenBank.sol\":431:441  msg.sender */\n      caller\n        /* \"TokenBank.sol\":451:455  this */\n      address\n        /* \"TokenBank.sol\":458:464  amount */\n      dup6\n        /* \"TokenBank.sol\":412:465  token.transferFrom(msg.sender, address(this), amount) */\n      mload(0x40)\n      dup5\n      0xffffffff\n      and\n      0xe0\n      shl\n      dup2\n      mstore\n      0x04\n      add\n      tag_43\n      swap4\n      swap3\n      swap2\n      swap1\n      tag_44\n      jump\t// in\n    tag_43:\n      0x20\n      mload(0x40)\n      dup1\n      dup4\n      sub\n      dup2\n      0x00\n      dup8\n      gas\n      call\n      iszero\n      dup1\n      iszero\n      tag_46\n      jumpi\n      returndatasize\n      0x00\n      dup1\n      returndatacopy\n      revert(0x00, returndatasize)\n    tag_46:\n      pop\n      pop\n      pop\n      pop\n      mload(0x40)\n      returndatasize\n      not(0x1f)\n      0x1f\n      dup3\n      add\n      and\n      dup3\n      add\n      dup1\n      0x40\n      mstore\n      pop\n      dup2\n      add\n      swap1\n      tag_47\n      swap2\n      swap1\n      tag_33\n      jump\t// in\n    tag_47:\n        /* \"TokenBank.sol\":397:465  bool success = token.transferFrom(msg.sender, address(this), amount) */\n      swap1\n      pop\n        /* \"TokenBank.sol\":483:490  success */\n      dup1\n        /* \"TokenBank.sol\":475:516  require(success, \"Token transfer failed\") */\n      tag_48\n      jumpi\n      mload(0x40)\n      0x08c379a000000000000000000000000000000000000000000000000000000000\n      dup2\n      mstore\n      0x04\n      add\n      tag_49\n      swap1\n      tag_36\n      jump\t// in\n    tag_49:\n      mload(0x40)\n      dup1\n      swap2\n      sub\n      swap1\n      revert\n    tag_48:\n        /* \"TokenBank.sol\":550:556  amount */\n      dup2\n        /* \"TokenBank.sol\":526:534  balances */\n      0x01\n        /* \"TokenBank.sol\":526:546  balances[msg.sender] */\n      0x00\n        /* \"TokenBank.sol\":535:545  msg.sender */\n      caller\n        /* \"TokenBank.sol\":526:546  balances[msg.sender] */\n      0xffffffffffffffffffffffffffffffffffffffff\n      and\n      0xffffffffffffffffffffffffffffffffffffffff\n      and\n      dup2\n      mstore\n      0x20\n      add\n      swap1\n      dup2\n      mstore\n      0x20\n      add\n      0x00\n      keccak256\n      0x00\n        /* \"TokenBank.sol\":526:556  balances[msg.sender] += amount */\n      dup3\n      dup3\n      sload\n      tag_50\n      swap2\n      swap1\n      tag_51\n      jump\t// in\n    tag_50:\n      swap3\n      pop\n      pop\n      dup2\n      swap1\n      sstore\n      pop\n        /* \"TokenBank.sol\":324:563  {... */\n      pop\n        /* \"TokenBank.sol\":284:563  function deposit(uint256 amount) public {... */\n      pop\n      jump\t// out\n        /* \"TokenBank.sol\":105:124  IERC20 public token */\n    tag_21:\n      0x00\n      dup1\n      sload\n      swap1\n      0x0100\n      exp\n      swap1\n      div\n      0xffffffffffffffffffffffffffffffffffffffff\n      and\n      dup2\n      jump\t// out\n        /* \"#utility.yul\":88:205   */\n    tag_53:\n        /* \"#utility.yul\":197:198   */\n      0x00\n        /* \"#utility.yul\":194:195   */\n      dup1\n        /* \"#utility.yul\":187:199   */\n      revert\n        /* \"#utility.yul\":334:460   */\n    tag_55:\n        /* \"#utility.yul\":371:378   */\n      0x00\n        /* \"#utility.yul\":411:453   */\n      0xffffffffffffffffffffffffffffffffffffffff\n        /* \"#utility.yul\":404:409   */\n      dup3\n        /* \"#utility.yul\":400:454   */\n      and\n        /* \"#utility.yul\":389:454   */\n      swap1\n      pop\n        /* \"#utility.yul\":334:460   */\n      swap2\n      swap1\n      pop\n      jump\t// out\n        /* \"#utility.yul\":466:562   */\n    tag_56:\n        /* \"#utility.yul\":503:510   */\n      0x00\n        /* \"#utility.yul\":532:556   */\n      tag_86\n        /* \"#utility.yul\":550:555   */\n      dup3\n        /* \"#utility.yul\":532:556   */\n      tag_55\n      jump\t// in\n    tag_86:\n        /* \"#utility.yul\":521:556   */\n      swap1\n      pop\n        /* \"#utility.yul\":466:562   */\n      swap2\n      swap1\n      pop\n      jump\t// out\n        /* \"#utility.yul\":568:690   */\n    tag_57:\n        /* \"#utility.yul\":641:665   */\n      tag_88\n        /* \"#utility.yul\":659:664   */\n      dup2\n        /* \"#utility.yul\":641:665   */\n      tag_56\n      jump\t// in\n    tag_88:\n        /* \"#utility.yul\":634:639   */\n      dup2\n        /* \"#utility.yul\":631:666   */\n      eq\n        /* \"#utility.yul\":621:684   */\n      tag_89\n      jumpi\n        /* \"#utility.yul\":680:681   */\n      0x00\n        /* \"#utility.yul\":677:678   */\n      dup1\n        /* \"#utility.yul\":670:682   */\n      revert\n        /* \"#utility.yul\":621:684   */\n    tag_89:\n        /* \"#utility.yul\":568:690   */\n      pop\n      jump\t// out\n        /* \"#utility.yul\":696:835   */\n    tag_58:\n        /* \"#utility.yul\":742:747   */\n      0x00\n        /* \"#utility.yul\":780:786   */\n      dup2\n        /* \"#utility.yul\":767:787   */\n      calldataload\n        /* \"#utility.yul\":758:787   */\n      swap1\n      pop\n        /* \"#utility.yul\":796:829   */\n      tag_91\n        /* \"#utility.yul\":823:828   */\n      dup2\n        /* \"#utility.yul\":796:829   */\n      tag_57\n      jump\t// in\n    tag_91:\n        /* \"#utility.yul\":696:835   */\n      swap3\n      swap2\n      pop\n      pop\n      jump\t// out\n        /* \"#utility.yul\":841:1170   */\n    tag_9:\n        /* \"#utility.yul\":900:906   */\n      0x00\n        /* \"#utility.yul\":949:951   */\n      0x20\n        /* \"#utility.yul\":937:946   */\n      dup3\n        /* \"#utility.yul\":928:935   */\n      dup5\n        /* \"#utility.yul\":924:947   */\n      sub\n        /* \"#utility.yul\":920:952   */\n      slt\n        /* \"#utility.yul\":917:1036   */\n      iszero\n      tag_93\n      jumpi\n        /* \"#utility.yul\":955:1034   */\n      tag_94\n      tag_53\n      jump\t// in\n    tag_94:\n        /* \"#utility.yul\":917:1036   */\n    tag_93:\n        /* \"#utility.yul\":1075:1076   */\n      0x00\n        /* \"#utility.yul\":1100:1153   */\n      tag_95\n        /* \"#utility.yul\":1145:1152   */\n      dup5\n        /* \"#utility.yul\":1136:1142   */\n      dup3\n        /* \"#utility.yul\":1125:1134   */\n      dup6\n        /* \"#utility.yul\":1121:1143   */\n      add\n        /* \"#utility.yul\":1100:1153   */\n      tag_58\n      jump\t// in\n    tag_95:\n        /* \"#utility.yul\":1090:1153   */\n      swap2\n      pop\n        /* \"#utility.yul\":1046:1163   */\n      pop\n        /* \"#utility.yul\":841:1170   */\n      swap3\n      swap2\n      pop\n      pop\n      jump\t// out\n        /* \"#utility.yul\":1176:1253   */\n    tag_59:\n        /* \"#utility.yul\":1213:1220   */\n      0x00\n        /* \"#utility.yul\":1242:1247   */\n      dup2\n        /* \"#utility.yul\":1231:1247   */\n      swap1\n      pop\n        /* \"#utility.yul\":1176:1253   */\n      swap2\n      swap1\n      pop\n      jump\t// out\n        /* \"#utility.yul\":1259:1377   */\n    tag_60:\n        /* \"#utility.yul\":1346:1370   */\n      tag_98\n        /* \"#utility.yul\":1364:1369   */\n      dup2\n        /* \"#utility.yul\":1346:1370   */\n      tag_59\n      jump\t// in\n    tag_98:\n        /* \"#utility.yul\":1341:1344   */\n      dup3\n        /* \"#utility.yul\":1334:1371   */\n      mstore\n        /* \"#utility.yul\":1259:1377   */\n      pop\n      pop\n      jump\t// out\n        /* \"#utility.yul\":1383:1605   */\n    tag_12:\n        /* \"#utility.yul\":1476:1480   */\n      0x00\n        /* \"#utility.yul\":1514:1516   */\n      0x20\n        /* \"#utility.yul\":1503:1512   */\n      dup3\n        /* \"#utility.yul\":1499:1517   */\n      add\n        /* \"#utility.yul\":1491:1517   */\n      swap1\n      pop\n        /* \"#utility.yul\":1527:1598   */\n      tag_100\n        /* \"#utility.yul\":1595:1596   */\n      0x00\n        /* \"#utility.yul\":1584:1593   */\n      dup4\n        /* \"#utility.yul\":1580:1597   */\n      add\n        /* \"#utility.yul\":1571:1577   */\n      dup5\n        /* \"#utility.yul\":1527:1598   */\n      tag_60\n      jump\t// in\n    tag_100:\n        /* \"#utility.yul\":1383:1605   */\n      swap3\n      swap2\n      pop\n      pop\n      jump\t// out\n        /* \"#utility.yul\":1611:1733   */\n    tag_61:\n        /* \"#utility.yul\":1684:1708   */\n      tag_102\n        /* \"#utility.yul\":1702:1707   */\n      dup2\n        /* \"#utility.yul\":1684:1708   */\n      tag_59\n      jump\t// in\n    tag_102:\n        /* \"#utility.yul\":1677:1682   */\n      dup2\n        /* \"#utility.yul\":1674:1709   */\n      eq\n        /* \"#utility.yul\":1664:1727   */\n      tag_103\n      jumpi\n        /* \"#utility.yul\":1723:1724   */\n      0x00\n        /* \"#utility.yul\":1720:1721   */\n      dup1\n        /* \"#utility.yul\":1713:1725   */\n      revert\n        /* \"#utility.yul\":1664:1727   */\n    tag_103:\n        /* \"#utility.yul\":1611:1733   */\n      pop\n      jump\t// out\n        /* \"#utility.yul\":1739:1878   */\n    tag_62:\n        /* \"#utility.yul\":1785:1790   */\n      0x00\n        /* \"#utility.yul\":1823:1829   */\n      dup2\n        /* \"#utility.yul\":1810:1830   */\n      calldataload\n        /* \"#utility.yul\":1801:1830   */\n      swap1\n      pop\n        /* \"#utility.yul\":1839:1872   */\n      tag_105\n        /* \"#utility.yul\":1866:1871   */\n      dup2\n        /* \"#utility.yul\":1839:1872   */\n      tag_61\n      jump\t// in\n    tag_105:\n        /* \"#utility.yul\":1739:1878   */\n      swap3\n      swap2\n      pop\n      pop\n      jump\t// out\n        /* \"#utility.yul\":1884:2213   */\n    tag_15:\n        /* \"#utility.yul\":1943:1949   */\n      0x00\n        /* \"#utility.yul\":1992:1994   */\n      0x20\n        /* \"#utility.yul\":1980:1989   */\n      dup3\n        /* \"#utility.yul\":1971:1978   */\n      dup5\n        /* \"#utility.yul\":1967:1990   */\n      sub\n        /* \"#utility.yul\":1963:1995   */\n      slt\n        /* \"#utility.yul\":1960:2079   */\n      iszero\n      tag_107\n      jumpi\n        /* \"#utility.yul\":1998:2077   */\n      tag_108\n      tag_53\n      jump\t// in\n    tag_108:\n        /* \"#utility.yul\":1960:2079   */\n    tag_107:\n        /* \"#utility.yul\":2118:2119   */\n      0x00\n        /* \"#utility.yul\":2143:2196   */\n      tag_109\n        /* \"#utility.yul\":2188:2195   */\n      dup5\n        /* \"#utility.yul\":2179:2185   */\n      dup3\n        /* \"#utility.yul\":2168:2177   */\n      dup6\n        /* \"#utility.yul\":2164:2186   */\n      add\n        /* \"#utility.yul\":2143:2196   */\n      tag_62\n      jump\t// in\n    tag_109:\n        /* \"#utility.yul\":2133:2196   */\n      swap2\n      pop\n        /* \"#utility.yul\":2089:2206   */\n      pop\n        /* \"#utility.yul\":1884:2213   */\n      swap3\n      swap2\n      pop\n      pop\n      jump\t// out\n        /* \"#utility.yul\":2219:2279   */\n    tag_63:\n        /* \"#utility.yul\":2247:2250   */\n      0x00\n        /* \"#utility.yul\":2268:2273   */\n      dup2\n        /* \"#utility.yul\":2261:2273   */\n      swap1\n      pop\n        /* \"#utility.yul\":2219:2279   */\n      swap2\n      swap1\n      pop\n      jump\t// out\n        /* \"#utility.yul\":2285:2427   */\n    tag_64:\n        /* \"#utility.yul\":2335:2344   */\n      0x00\n        /* \"#utility.yul\":2368:2421   */\n      tag_112\n        /* \"#utility.yul\":2386:2420   */\n      tag_113\n        /* \"#utility.yul\":2395:2419   */\n      tag_114\n        /* \"#utility.yul\":2413:2418   */\n      dup5\n        /* \"#utility.yul\":2395:2419   */\n      tag_55\n      jump\t// in\n    tag_114:\n        /* \"#utility.yul\":2386:2420   */\n      tag_63\n      jump\t// in\n    tag_113:\n        /* \"#utility.yul\":2368:2421   */\n      tag_55\n      jump\t// in\n    tag_112:\n        /* \"#utility.yul\":2355:2421   */\n      swap1\n      pop\n        /* \"#utility.yul\":2285:2427   */\n      swap2\n      swap1\n      pop\n      jump\t// out\n        /* \"#utility.yul\":2433:2559   */\n    tag_65:\n        /* \"#utility.yul\":2483:2492   */\n      0x00\n        /* \"#utility.yul\":2516:2553   */\n      tag_116\n        /* \"#utility.yul\":2547:2552   */\n      dup3\n        /* \"#utility.yul\":2516:2553   */\n      tag_64\n      jump\t// in\n    tag_116:\n        /* \"#utility.yul\":2503:2553   */\n      swap1\n      pop\n        /* \"#utility.yul\":2433:2559   */\n      swap2\n      swap1\n      pop\n      jump\t// out\n        /* \"#utility.yul\":2565:2704   */\n    tag_66:\n        /* \"#utility.yul\":2628:2637   */\n      0x00\n        /* \"#utility.yul\":2661:2698   */\n      tag_118\n        /* \"#utility.yul\":2692:2697   */\n      dup3\n        /* \"#utility.yul\":2661:2698   */\n      tag_65\n      jump\t// in\n    tag_118:\n        /* \"#utility.yul\":2648:2698   */\n      swap1\n      pop\n        /* \"#utility.yul\":2565:2704   */\n      swap2\n      swap1\n      pop\n      jump\t// out\n        /* \"#utility.yul\":2710:2867   */\n    tag_67:\n        /* \"#utility.yul\":2810:2860   */\n      tag_120\n        /* \"#utility.yul\":2854:2859   */\n      dup2\n        /* \"#utility.yul\":2810:2860   */\n      tag_66\n      jump\t// in\n    tag_120:\n        /* \"#utility.yul\":2805:2808   */\n      dup3\n        /* \"#utility.yul\":2798:2861   */\n      mstore\n        /* \"#utility.yul\":2710:2867   */\n      pop\n      pop\n      jump\t// out\n        /* \"#utility.yul\":2873:3121   */\n    tag_23:\n        /* \"#utility.yul\":2979:2983   */\n      0x00\n        /* \"#utility.yul\":3017:3019   */\n      0x20\n        /* \"#utility.yul\":3006:3015   */\n      dup3\n        /* \"#utility.yul\":3002:3020   */\n      add\n        /* \"#utility.yul\":2994:3020   */\n      swap1\n      pop\n        /* \"#utility.yul\":3030:3114   */\n      tag_122\n        /* \"#utility.yul\":3111:3112   */\n      0x00\n        /* \"#utility.yul\":3100:3109   */\n      dup4\n        /* \"#utility.yul\":3096:3113   */\n      add\n        /* \"#utility.yul\":3087:3093   */\n      dup5\n        /* \"#utility.yul\":3030:3114   */\n      tag_67\n      jump\t// in\n    tag_122:\n        /* \"#utility.yul\":2873:3121   */\n      swap3\n      swap2\n      pop\n      pop\n      jump\t// out\n        /* \"#utility.yul\":3127:3296   */\n    tag_68:\n        /* \"#utility.yul\":3211:3222   */\n      0x00\n        /* \"#utility.yul\":3245:3251   */\n      dup3\n        /* \"#utility.yul\":3240:3243   */\n      dup3\n        /* \"#utility.yul\":3233:3252   */\n      mstore\n        /* \"#utility.yul\":3285:3289   */\n      0x20\n        /* \"#utility.yul\":3280:3283   */\n      dup3\n        /* \"#utility.yul\":3276:3290   */\n      add\n        /* \"#utility.yul\":3261:3290   */\n      swap1\n      pop\n        /* \"#utility.yul\":3127:3296   */\n      swap3\n      swap2\n      pop\n      pop\n      jump\t// out\n        /* \"#utility.yul\":3302:3472   */\n    tag_69:\n        /* \"#utility.yul\":3442:3464   */\n      0x496e73756666696369656e742062616c616e6365000000000000000000000000\n        /* \"#utility.yul\":3438:3439   */\n      0x00\n        /* \"#utility.yul\":3430:3436   */\n      dup3\n        /* \"#utility.yul\":3426:3440   */\n      add\n        /* \"#utility.yul\":3419:3465   */\n      mstore\n        /* \"#utility.yul\":3302:3472   */\n      pop\n      jump\t// out\n        /* \"#utility.yul\":3478:3844   */\n    tag_70:\n        /* \"#utility.yul\":3620:3623   */\n      0x00\n        /* \"#utility.yul\":3641:3708   */\n      tag_126\n        /* \"#utility.yul\":3705:3707   */\n      0x14\n        /* \"#utility.yul\":3700:3703   */\n      dup4\n        /* \"#utility.yul\":3641:3708   */\n      tag_68\n      jump\t// in\n    tag_126:\n        /* \"#utility.yul\":3634:3708   */\n      swap2\n      pop\n        /* \"#utility.yul\":3717:3810   */\n      tag_127\n        /* \"#utility.yul\":3806:3809   */\n      dup3\n        /* \"#utility.yul\":3717:3810   */\n      tag_69\n      jump\t// in\n    tag_127:\n        /* \"#utility.yul\":3835:3837   */\n      0x20\n        /* \"#utility.yul\":3830:3833   */\n      dup3\n        /* \"#utility.yul\":3826:3838   */\n      add\n        /* \"#utility.yul\":3819:3838   */\n      swap1\n      pop\n        /* \"#utility.yul\":3478:3844   */\n      swap2\n      swap1\n      pop\n      jump\t// out\n        /* \"#utility.yul\":3850:4269   */\n    tag_27:\n        /* \"#utility.yul\":4016:4020   */\n      0x00\n        /* \"#utility.yul\":4054:4056   */\n      0x20\n        /* \"#utility.yul\":4043:4052   */\n      dup3\n        /* \"#utility.yul\":4039:4057   */\n      add\n        /* \"#utility.yul\":4031:4057   */\n      swap1\n      pop\n        /* \"#utility.yul\":4103:4112   */\n      dup2\n        /* \"#utility.yul\":4097:4101   */\n      dup2\n        /* \"#utility.yul\":4093:4113   */\n      sub\n        /* \"#utility.yul\":4089:4090   */\n      0x00\n        /* \"#utility.yul\":4078:4087   */\n      dup4\n        /* \"#utility.yul\":4074:4091   */\n      add\n        /* \"#utility.yul\":4067:4114   */\n      mstore\n        /* \"#utility.yul\":4131:4262   */\n      tag_129\n        /* \"#utility.yul\":4257:4261   */\n      dup2\n        /* \"#utility.yul\":4131:4262   */\n      tag_70\n      jump\t// in\n    tag_129:\n        /* \"#utility.yul\":4123:4262   */\n      swap1\n      pop\n        /* \"#utility.yul\":3850:4269   */\n      swap2\n      swap1\n      pop\n      jump\t// out\n        /* \"#utility.yul\":4275:4393   */\n    tag_71:\n        /* \"#utility.yul\":4362:4386   */\n      tag_131\n        /* \"#utility.yul\":4380:4385   */\n      dup2\n        /* \"#utility.yul\":4362:4386   */\n      tag_56\n      jump\t// in\n    tag_131:\n        /* \"#utility.yul\":4357:4360   */\n      dup3\n        /* \"#utility.yul\":4350:4387   */\n      mstore\n        /* \"#utility.yul\":4275:4393   */\n      pop\n      pop\n      jump\t// out\n        /* \"#utility.yul\":4399:4731   */\n    tag_29:\n        /* \"#utility.yul\":4520:4524   */\n      0x00\n        /* \"#utility.yul\":4558:4560   */\n      0x40\n        /* \"#utility.yul\":4547:4556   */\n      dup3\n        /* \"#utility.yul\":4543:4561   */\n      add\n        /* \"#utility.yul\":4535:4561   */\n      swap1\n      pop\n        /* \"#utility.yul\":4571:4642   */\n      tag_133\n        /* \"#utility.yul\":4639:4640   */\n      0x00\n        /* \"#utility.yul\":4628:4637   */\n      dup4\n        /* \"#utility.yul\":4624:4641   */\n      add\n        /* \"#utility.yul\":4615:4621   */\n      dup6\n        /* \"#utility.yul\":4571:4642   */\n      tag_71\n      jump\t// in\n    tag_133:\n        /* \"#utility.yul\":4652:4724   */\n      tag_134\n        /* \"#utility.yul\":4720:4722   */\n      0x20\n        /* \"#utility.yul\":4709:4718   */\n      dup4\n        /* \"#utility.yul\":4705:4723   */\n      add\n        /* \"#utility.yul\":4696:4702   */\n      dup5\n        /* \"#utility.yul\":4652:4724   */\n      tag_60\n      jump\t// in\n    tag_134:\n        /* \"#utility.yul\":4399:4731   */\n      swap4\n      swap3\n      pop\n      pop\n      pop\n      jump\t// out\n        /* \"#utility.yul\":4737:4827   */\n    tag_72:\n        /* \"#utility.yul\":4771:4778   */\n      0x00\n        /* \"#utility.yul\":4814:4819   */\n      dup2\n        /* \"#utility.yul\":4807:4820   */\n      iszero\n        /* \"#utility.yul\":4800:4821   */\n      iszero\n        /* \"#utility.yul\":4789:4821   */\n      swap1\n      pop\n        /* \"#utility.yul\":4737:4827   */\n      swap2\n      swap1\n      pop\n      jump\t// out\n        /* \"#utility.yul\":4833:4949   */\n    tag_73:\n        /* \"#utility.yul\":4903:4924   */\n      tag_137\n        /* \"#utility.yul\":4918:4923   */\n      dup2\n        /* \"#utility.yul\":4903:4924   */\n      tag_72\n      jump\t// in\n    tag_137:\n        /* \"#utility.yul\":4896:4901   */\n      dup2\n        /* \"#utility.yul\":4893:4925   */\n      eq\n        /* \"#utility.yul\":4883:4943   */\n      tag_138\n      jumpi\n        /* \"#utility.yul\":4939:4940   */\n      0x00\n        /* \"#utility.yul\":4936:4937   */\n      dup1\n        /* \"#utility.yul\":4929:4941   */\n      revert\n        /* \"#utility.yul\":4883:4943   */\n    tag_138:\n        /* \"#utility.yul\":4833:4949   */\n      pop\n      jump\t// out\n        /* \"#utility.yul\":4955:5092   */\n    tag_74:\n        /* \"#utility.yul\":5009:5014   */\n      0x00\n        /* \"#utility.yul\":5040:5046   */\n      dup2\n        /* \"#utility.yul\":5034:5047   */\n      mload\n        /* \"#utility.yul\":5025:5047   */\n      swap1\n      pop\n        /* \"#utility.yul\":5056:5086   */\n      tag_140\n        /* \"#utility.yul\":5080:5085   */\n      dup2\n        /* \"#utility.yul\":5056:5086   */\n      tag_73\n      jump\t// in\n    tag_140:\n        /* \"#utility.yul\":4955:5092   */\n      swap3\n      swap2\n      pop\n      pop\n      jump\t// out\n        /* \"#utility.yul\":5098:5443   */\n    tag_33:\n        /* \"#utility.yul\":5165:5171   */\n      0x00\n        /* \"#utility.yul\":5214:5216   */\n      0x20\n        /* \"#utility.yul\":5202:5211   */\n      dup3\n        /* \"#utility.yul\":5193:5200   */\n      dup5\n        /* \"#utility.yul\":5189:5212   */\n      sub\n        /* \"#utility.yul\":5185:5217   */\n      slt\n        /* \"#utility.yul\":5182:5301   */\n      iszero\n      tag_142\n      jumpi\n        /* \"#utility.yul\":5220:5299   */\n      tag_143\n      tag_53\n      jump\t// in\n    tag_143:\n        /* \"#utility.yul\":5182:5301   */\n    tag_142:\n        /* \"#utility.yul\":5340:5341   */\n      0x00\n        /* \"#utility.yul\":5365:5426   */\n      tag_144\n        /* \"#utility.yul\":5418:5425   */\n      dup5\n        /* \"#utility.yul\":5409:5415   */\n      dup3\n        /* \"#utility.yul\":5398:5407   */\n      dup6\n        /* \"#utility.yul\":5394:5416   */\n      add\n        /* \"#utility.yul\":5365:5426   */\n      tag_74\n      jump\t// in\n    tag_144:\n        /* \"#utility.yul\":5355:5426   */\n      swap2\n      pop\n        /* \"#utility.yul\":5311:5436   */\n      pop\n        /* \"#utility.yul\":5098:5443   */\n      swap3\n      swap2\n      pop\n      pop\n      jump\t// out\n        /* \"#utility.yul\":5449:5620   */\n    tag_75:\n        /* \"#utility.yul\":5589:5612   */\n      0x546f6b656e207472616e73666572206661696c65640000000000000000000000\n        /* \"#utility.yul\":5585:5586   */\n      0x00\n        /* \"#utility.yul\":5577:5583   */\n      dup3\n        /* \"#utility.yul\":5573:5587   */\n      add\n        /* \"#utility.yul\":5566:5613   */\n      mstore\n        /* \"#utility.yul\":5449:5620   */\n      pop\n      jump\t// out\n        /* \"#utility.yul\":5626:5992   */\n    tag_76:\n        /* \"#utility.yul\":5768:5771   */\n      0x00\n        /* \"#utility.yul\":5789:5856   */\n      tag_147\n        /* \"#utility.yul\":5853:5855   */\n      0x15\n        /* \"#utility.yul\":5848:5851   */\n      dup4\n        /* \"#utility.yul\":5789:5856   */\n      tag_68\n      jump\t// in\n    tag_147:\n        /* \"#utility.yul\":5782:5856   */\n      swap2\n      pop\n        /* \"#utility.yul\":5865:5958   */\n      tag_148\n        /* \"#utility.yul\":5954:5957   */\n      dup3\n        /* \"#utility.yul\":5865:5958   */\n      tag_75\n      jump\t// in\n    tag_148:\n        /* \"#utility.yul\":5983:5985   */\n      0x20\n        /* \"#utility.yul\":5978:5981   */\n      dup3\n        /* \"#utility.yul\":5974:5986   */\n      add\n        /* \"#utility.yul\":5967:5986   */\n      swap1\n      pop\n        /* \"#utility.yul\":5626:5992   */\n      swap2\n      swap1\n      pop\n      jump\t// out\n        /* \"#utility.yul\":5998:6417   */\n    tag_36:\n        /* \"#utility.yul\":6164:6168   */\n      0x00\n        /* \"#utility.yul\":6202:6204   */\n      0x20\n        /* \"#utility.yul\":6191:6200   */\n      dup3\n        /* \"#utility.yul\":6187:6205   */\n      add\n        /* \"#utility.yul\":6179:6205   */\n      swap1\n      pop\n        /* \"#utility.yul\":6251:6260   */\n      dup2\n        /* \"#utility.yul\":6245:6249   */\n      dup2\n        /* \"#utility.yul\":6241:6261   */\n      sub\n        /* \"#utility.yul\":6237:6238   */\n      0x00\n        /* \"#utility.yul\":6226:6235   */\n      dup4\n        /* \"#utility.yul\":6222:6239   */\n      add\n        /* \"#utility.yul\":6215:6262   */\n      mstore\n        /* \"#utility.yul\":6279:6410   */\n      tag_150\n        /* \"#utility.yul\":6405:6409   */\n      dup2\n        /* \"#utility.yul\":6279:6410   */\n      tag_76\n      jump\t// in\n    tag_150:\n        /* \"#utility.yul\":6271:6410   */\n      swap1\n      pop\n        /* \"#utility.yul\":5998:6417   */\n      swap2\n      swap1\n      pop\n      jump\t// out\n        /* \"#utility.yul\":6423:6603   */\n    tag_77:\n        /* \"#utility.yul\":6471:6548   */\n      0x4e487b7100000000000000000000000000000000000000000000000000000000\n        /* \"#utility.yul\":6468:6469   */\n      0x00\n        /* \"#utility.yul\":6461:6549   */\n      mstore\n        /* \"#utility.yul\":6568:6572   */\n      0x11\n        /* \"#utility.yul\":6565:6566   */\n      0x04\n        /* \"#utility.yul\":6558:6573   */\n      mstore\n        /* \"#utility.yul\":6592:6596   */\n      0x24\n        /* \"#utility.yul\":6589:6590   */\n      0x00\n        /* \"#utility.yul\":6582:6597   */\n      revert\n        /* \"#utility.yul\":6609:6803   */\n    tag_38:\n        /* \"#utility.yul\":6649:6653   */\n      0x00\n        /* \"#utility.yul\":6669:6689   */\n      tag_153\n        /* \"#utility.yul\":6687:6688   */\n      dup3\n        /* \"#utility.yul\":6669:6689   */\n      tag_59\n      jump\t// in\n    tag_153:\n        /* \"#utility.yul\":6664:6689   */\n      swap2\n      pop\n        /* \"#utility.yul\":6703:6723   */\n      tag_154\n        /* \"#utility.yul\":6721:6722   */\n      dup4\n        /* \"#utility.yul\":6703:6723   */\n      tag_59\n      jump\t// in\n    tag_154:\n        /* \"#utility.yul\":6698:6723   */\n      swap3\n      pop\n        /* \"#utility.yul\":6747:6748   */\n      dup3\n        /* \"#utility.yul\":6744:6745   */\n      dup3\n        /* \"#utility.yul\":6740:6749   */\n      sub\n        /* \"#utility.yul\":6732:6749   */\n      swap1\n      pop\n        /* \"#utility.yul\":6771:6772   */\n      dup2\n        /* \"#utility.yul\":6765:6769   */\n      dup2\n        /* \"#utility.yul\":6762:6773   */\n      gt\n        /* \"#utility.yul\":6759:6796   */\n      iszero\n      tag_155\n      jumpi\n        /* \"#utility.yul\":6776:6794   */\n      tag_156\n      tag_77\n      jump\t// in\n    tag_156:\n        /* \"#utility.yul\":6759:6796   */\n    tag_155:\n        /* \"#utility.yul\":6609:6803   */\n      swap3\n      swap2\n      pop\n      pop\n      jump\t// out\n        /* \"#utility.yul\":6809:6991   */\n    tag_78:\n        /* \"#utility.yul\":6949:6983   */\n      0x416d6f756e74206d7573742062652067726561746572207468616e207a65726f\n        /* \"#utility.yul\":6945:6946   */\n      0x00\n        /* \"#utility.yul\":6937:6943   */\n      dup3\n        /* \"#utility.yul\":6933:6947   */\n      add\n        /* \"#utility.yul\":6926:6984   */\n      mstore\n        /* \"#utility.yul\":6809:6991   */\n      pop\n      jump\t// out\n        /* \"#utility.yul\":6997:7363   */\n    tag_79:\n        /* \"#utility.yul\":7139:7142   */\n      0x00\n        /* \"#utility.yul\":7160:7227   */\n      tag_159\n        /* \"#utility.yul\":7224:7226   */\n      0x20\n        /* \"#utility.yul\":7219:7222   */\n      dup4\n        /* \"#utility.yul\":7160:7227   */\n      tag_68\n      jump\t// in\n    tag_159:\n        /* \"#utility.yul\":7153:7227   */\n      swap2\n      pop\n        /* \"#utility.yul\":7236:7329   */\n      tag_160\n        /* \"#utility.yul\":7325:7328   */\n      dup3\n        /* \"#utility.yul\":7236:7329   */\n      tag_78\n      jump\t// in\n    tag_160:\n        /* \"#utility.yul\":7354:7356   */\n      0x20\n        /* \"#utility.yul\":7349:7352   */\n      dup3\n        /* \"#utility.yul\":7345:7357   */\n      add\n        /* \"#utility.yul\":7338:7357   */\n      swap1\n      pop\n        /* \"#utility.yul\":6997:7363   */\n      swap2\n      swap1\n      pop\n      jump\t// out\n        /* \"#utility.yul\":7369:7788   */\n    tag_42:\n        /* \"#utility.yul\":7535:7539   */\n      0x00\n        /* \"#utility.yul\":7573:7575   */\n      0x20\n        /* \"#utility.yul\":7562:7571   */\n      dup3\n        /* \"#utility.yul\":7558:7576   */\n      add\n        /* \"#utility.yul\":7550:7576   */\n      swap1\n      pop\n        /* \"#utility.yul\":7622:7631   */\n      dup2\n        /* \"#utility.yul\":7616:7620   */\n      dup2\n        /* \"#utility.yul\":7612:7632   */\n      sub\n        /* \"#utility.yul\":7608:7609   */\n      0x00\n        /* \"#utility.yul\":7597:7606   */\n      dup4\n        /* \"#utility.yul\":7593:7610   */\n      add\n        /* \"#utility.yul\":7586:7633   */\n      mstore\n        /* \"#utility.yul\":7650:7781   */\n      tag_162\n        /* \"#utility.yul\":7776:7780   */\n      dup2\n        /* \"#utility.yul\":7650:7781   */\n      tag_79\n      jump\t// in\n    tag_162:\n        /* \"#utility.yul\":7642:7781   */\n      swap1\n      pop\n        /* \"#utility.yul\":7369:7788   */\n      swap2\n      swap1\n      pop\n      jump\t// out\n        /* \"#utility.yul\":7794:8236   */\n    tag_44:\n        /* \"#utility.yul\":7943:7947   */\n      0x00\n        /* \"#utility.yul\":7981:7983   */\n      0x60\n        /* \"#utility.yul\":7970:7979   */\n      dup3\n        /* \"#utility.yul\":7966:7984   */\n      add\n        /* \"#utility.yul\":7958:7984   */\n      swap1\n      pop\n        /* \"#utility.yul\":7994:8065   */\n      tag_164\n        /* \"#utility.yul\":8062:8063   */\n      0x00\n        /* \"#utility.yul\":8051:8060   */\n      dup4\n        /* \"#utility.yul\":8047:8064   */\n      add\n        /* \"#utility.yul\":8038:8044   */\n      dup7\n        /* \"#utility.yul\":7994:8065   */\n      tag_71\n      jump\t// in\n    tag_164:\n        /* \"#utility.yul\":8075:8147   */\n      tag_165\n        /* \"#utility.yul\":8143:8145   */\n      0x20\n        /* \"#utility.yul\":8132:8141   */\n      dup4\n        /* \"#utility.yul\":8128:8146   */\n      add\n        /* \"#utility.yul\":8119:8125   */\n      dup6\n        /* \"#utility.yul\":8075:8147   */\n      tag_71\n      jump\t// in\n    tag_165:\n        /* \"#utility.yul\":8157:8229   */\n      tag_166\n        /* \"#utility.yul\":8225:8227   */\n      0x40\n        /* \"#utility.yul\":8214:8223   */\n      dup4\n        /* \"#utility.yul\":8210:8228   */\n      add\n        /* \"#utility.yul\":8201:8207   */\n      dup5\n        /* \"#utility.yul\":8157:8229   */\n      tag_60\n      jump\t// in\n    tag_166:\n        /* \"#utility.yul\":7794:8236   */\n      swap5\n      swap4\n      pop\n      pop\n      pop\n      pop\n      jump\t// out\n        /* \"#utility.yul\":8242:8433   */\n    tag_51:\n        /* \"#utility.yul\":8282:8285   */\n      0x00\n        /* \"#utility.yul\":8301:8321   */\n      tag_168\n        /* \"#utility.yul\":8319:8320   */\n      dup3\n        /* \"#utility.yul\":8301:8321   */\n      tag_59\n      jump\t// in\n    tag_168:\n        /* \"#utility.yul\":8296:8321   */\n      swap2\n      pop\n        /* \"#utility.yul\":8335:8355   */\n      tag_169\n        /* \"#utility.yul\":8353:8354   */\n      dup4\n        /* \"#utility.yul\":8335:8355   */\n      tag_59\n      jump\t// in\n    tag_169:\n        /* \"#utility.yul\":8330:8355   */\n      swap3\n      pop\n        /* \"#utility.yul\":8378:8379   */\n      dup3\n        /* \"#utility.yul\":8375:8376   */\n      dup3\n        /* \"#utility.yul\":8371:8380   */\n      add\n        /* \"#utility.yul\":8364:8380   */\n      swap1\n      pop\n        /* \"#utility.yul\":8399:8402   */\n      dup1\n        /* \"#utility.yul\":8396:8397   */\n      dup3\n        /* \"#utility.yul\":8393:8403   */\n      gt\n        /* \"#utility.yul\":8390:8426   */\n      iszero\n      tag_170\n      jumpi\n        /* \"#utility.yul\":8406:8424   */\n      tag_171\n      tag_77\n      jump\t// in\n    tag_171:\n        /* \"#utility.yul\":8390:8426   */\n    tag_170:\n        /* \"#utility.yul\":8242:8433   */\n      swap3\n      swap2\n      pop\n      pop\n      jump\t// out\n\n    auxdata: 0xa264697066735822122073539892b28c8be9e8cdb83fd6731380bcb5aa592836d4c397c12979b9fb2f7464736f6c634300081a0033\n}\n",
				"bytecode": {
					"linkReferences": {},
					"object": "608060405234801561000f575f80fd5b506040516109b63803806109b6833981810160405281019061003191906100e5565b805f806101000a81548173ffffffffffffffffffffffffffffffffffffffff021916908373ffffffffffffffffffffffffffffffffffffffff16021790555050610110565b5f80fd5b5f73ffffffffffffffffffffffffffffffffffffffff82169050919050565b5f6100a38261007a565b9050919050565b5f6100b482610099565b9050919050565b6100c4816100aa565b81146100ce575f80fd5b50565b5f815190506100df816100bb565b92915050565b5f602082840312156100fa576100f9610076565b5b5f610107848285016100d1565b91505092915050565b6108998061011d5f395ff3fe608060405234801561000f575f80fd5b506004361061004a575f3560e01c806327e235e31461004e5780632e1a7d4d1461007e578063b6b55f251461009a578063fc0c546a146100b6575b5f80fd5b61006860048036038101906100639190610498565b6100d4565b60405161007591906104db565b60405180910390f35b6100986004803603810190610093919061051e565b6100e9565b005b6100b460048036038101906100af919061051e565b61029e565b005b6100be610417565b6040516100cb91906105a4565b60405180910390f35b6001602052805f5260405f205f915090505481565b60015f3373ffffffffffffffffffffffffffffffffffffffff1673ffffffffffffffffffffffffffffffffffffffff1681526020019081526020015f2054811115610169576040517f08c379a000000000000000000000000000000000000000000000000000000000815260040161016090610617565b60405180910390fd5b5f805f9054906101000a900473ffffffffffffffffffffffffffffffffffffffff1673ffffffffffffffffffffffffffffffffffffffff1663a9059cbb33846040518363ffffffff1660e01b81526004016101c5929190610644565b6020604051808303815f875af11580156101e1573d5f803e3d5ffd5b505050506040513d601f19601f8201168201806040525081019061020591906106a0565b905080610247576040517f08c379a000000000000000000000000000000000000000000000000000000000815260040161023e90610715565b60405180910390fd5b8160015f3373ffffffffffffffffffffffffffffffffffffffff1673ffffffffffffffffffffffffffffffffffffffff1681526020019081526020015f205f8282546102939190610760565b925050819055505050565b5f81116102e0576040517f08c379a00000000000000000000000000000000000000000000000000000000081526004016102d7906107dd565b60405180910390fd5b5f805f9054906101000a900473ffffffffffffffffffffffffffffffffffffffff1673ffffffffffffffffffffffffffffffffffffffff166323b872dd3330856040518463ffffffff1660e01b815260040161033e939291906107fb565b6020604051808303815f875af115801561035a573d5f803e3d5ffd5b505050506040513d601f19601f8201168201806040525081019061037e91906106a0565b9050806103c0576040517f08c379a00000000000000000000000000000000000000000000000000000000081526004016103b790610715565b60405180910390fd5b8160015f3373ffffffffffffffffffffffffffffffffffffffff1673ffffffffffffffffffffffffffffffffffffffff1681526020019081526020015f205f82825461040c9190610830565b925050819055505050565b5f8054906101000a900473ffffffffffffffffffffffffffffffffffffffff1681565b5f80fd5b5f73ffffffffffffffffffffffffffffffffffffffff82169050919050565b5f6104678261043e565b9050919050565b6104778161045d565b8114610481575f80fd5b50565b5f813590506104928161046e565b92915050565b5f602082840312156104ad576104ac61043a565b5b5f6104ba84828501610484565b91505092915050565b5f819050919050565b6104d5816104c3565b82525050565b5f6020820190506104ee5f8301846104cc565b92915050565b6104fd816104c3565b8114610507575f80fd5b50565b5f81359050610518816104f4565b92915050565b5f602082840312156105335761053261043a565b5b5f6105408482850161050a565b91505092915050565b5f819050919050565b5f61056c6105676105628461043e565b610549565b61043e565b9050919050565b5f61057d82610552565b9050919050565b5f61058e82610573565b9050919050565b61059e81610584565b82525050565b5f6020820190506105b75f830184610595565b92915050565b5f82825260208201905092915050565b7f496e73756666696369656e742062616c616e63650000000000000000000000005f82015250565b5f6106016014836105bd565b915061060c826105cd565b602082019050919050565b5f6020820190508181035f83015261062e816105f5565b9050919050565b61063e8161045d565b82525050565b5f6040820190506106575f830185610635565b61066460208301846104cc565b9392505050565b5f8115159050919050565b61067f8161066b565b8114610689575f80fd5b50565b5f8151905061069a81610676565b92915050565b5f602082840312156106b5576106b461043a565b5b5f6106c28482850161068c565b91505092915050565b7f546f6b656e207472616e73666572206661696c656400000000000000000000005f82015250565b5f6106ff6015836105bd565b915061070a826106cb565b602082019050919050565b5f6020820190508181035f83015261072c816106f3565b9050919050565b7f4e487b71000000000000000000000000000000000000000000000000000000005f52601160045260245ffd5b5f61076a826104c3565b9150610775836104c3565b925082820390508181111561078d5761078c610733565b5b92915050565b7f416d6f756e74206d7573742062652067726561746572207468616e207a65726f5f82015250565b5f6107c76020836105bd565b91506107d282610793565b602082019050919050565b5f6020820190508181035f8301526107f4816107bb565b9050919050565b5f60608201905061080e5f830186610635565b61081b6020830185610635565b61082860408301846104cc565b949350505050565b5f61083a826104c3565b9150610845836104c3565b925082820190508082111561085d5761085c610733565b5b9291505056fea264697066735822122073539892b28c8be9e8cdb83fd6731380bcb5aa592836d4c397c12979b9fb2f7464736f6c634300081a0033",
					"opcodes": "PUSH1 0x80 PUSH1 0x40 MSTORE CALLVALUE DUP1 ISZERO PUSH2 0xF JUMPI PUSH0 DUP1 REVERT JUMPDEST POP PUSH1 0x40 MLOAD PUSH2 0x9B6 CODESIZE SUB DUP1 PUSH2 0x9B6 DUP4 CODECOPY DUP2 DUP2 ADD PUSH1 0x40 MSTORE DUP2 ADD SWAP1 PUSH2 0x31 SWAP2 SWAP1 PUSH2 0xE5 JUMP JUMPDEST DUP1 PUSH0 DUP1 PUSH2 0x100 EXP DUP2 SLOAD DUP2 PUSH20 0xFFFFFFFFFFFFFFFFFFFFFFFFFFFFFFFFFFFFFFFF MUL NOT AND SWAP1 DUP4 PUSH20 0xFFFFFFFFFFFFFFFFFFFFFFFFFFFFFFFFFFFFFFFF AND MUL OR SWAP1 SSTORE POP POP PUSH2 0x110 JUMP JUMPDEST PUSH0 DUP1 REVERT JUMPDEST PUSH0 PUSH20 0xFFFFFFFFFFFFFFFFFFFFFFFFFFFFFFFFFFFFFFFF DUP3 AND SWAP1 POP SWAP2 SWAP1 POP JUMP JUMPDEST PUSH0 PUSH2 0xA3 DUP3 PUSH2 0x7A JUMP JUMPDEST SWAP1 POP SWAP2 SWAP1 POP JUMP JUMPDEST PUSH0 PUSH2 0xB4 DUP3 PUSH2 0x99 JUMP JUMPDEST SWAP1 POP SWAP2 SWAP1 POP JUMP JUMPDEST PUSH2 0xC4 DUP2 PUSH2 0xAA JUMP JUMPDEST DUP2 EQ PUSH2 0xCE JUMPI PUSH0 DUP1 REVERT JUMPDEST POP JUMP JUMPDEST PUSH0 DUP2 MLOAD SWAP1 POP PUSH2 0xDF DUP2 PUSH2 0xBB JUMP JUMPDEST SWAP3 SWAP2 POP POP JUMP JUMPDEST PUSH0 PUSH1 0x20 DUP3 DUP5 SUB SLT ISZERO PUSH2 0xFA JUMPI PUSH2 0xF9 PUSH2 0x76 JUMP JUMPDEST JUMPDEST PUSH0 PUSH2 0x107 DUP5 DUP3 DUP6 ADD PUSH2 0xD1 JUMP JUMPDEST SWAP2 POP POP SWAP3 SWAP2 POP POP JUMP JUMPDEST PUSH2 0x899 DUP1 PUSH2 0x11D PUSH0 CODECOPY PUSH0 RETURN INVALID PUSH1 0x80 PUSH1 0x40 MSTORE CALLVALUE DUP1 ISZERO PUSH2 0xF JUMPI PUSH0 DUP1 REVERT JUMPDEST POP PUSH1 0x4 CALLDATASIZE LT PUSH2 0x4A JUMPI PUSH0 CALLDATALOAD PUSH1 0xE0 SHR DUP1 PUSH4 0x27E235E3 EQ PUSH2 0x4E JUMPI DUP1 PUSH4 0x2E1A7D4D EQ PUSH2 0x7E JUMPI DUP1 PUSH4 0xB6B55F25 EQ PUSH2 0x9A JUMPI DUP1 PUSH4 0xFC0C546A EQ PUSH2 0xB6 JUMPI JUMPDEST PUSH0 DUP1 REVERT JUMPDEST PUSH2 0x68 PUSH1 0x4 DUP1 CALLDATASIZE SUB DUP2 ADD SWAP1 PUSH2 0x63 SWAP2 SWAP1 PUSH2 0x498 JUMP JUMPDEST PUSH2 0xD4 JUMP JUMPDEST PUSH1 0x40 MLOAD PUSH2 0x75 SWAP2 SWAP1 PUSH2 0x4DB JUMP JUMPDEST PUSH1 0x40 MLOAD DUP1 SWAP2 SUB SWAP1 RETURN JUMPDEST PUSH2 0x98 PUSH1 0x4 DUP1 CALLDATASIZE SUB DUP2 ADD SWAP1 PUSH2 0x93 SWAP2 SWAP1 PUSH2 0x51E JUMP JUMPDEST PUSH2 0xE9 JUMP JUMPDEST STOP JUMPDEST PUSH2 0xB4 PUSH1 0x4 DUP1 CALLDATASIZE SUB DUP2 ADD SWAP1 PUSH2 0xAF SWAP2 SWAP1 PUSH2 0x51E JUMP JUMPDEST PUSH2 0x29E JUMP JUMPDEST STOP JUMPDEST PUSH2 0xBE PUSH2 0x417 JUMP JUMPDEST PUSH1 0x40 MLOAD PUSH2 0xCB SWAP2 SWAP1 PUSH2 0x5A4 JUMP JUMPDEST PUSH1 0x40 MLOAD DUP1 SWAP2 SUB SWAP1 RETURN JUMPDEST PUSH1 0x1 PUSH1 0x20 MSTORE DUP1 PUSH0 MSTORE PUSH1 0x40 PUSH0 KECCAK256 PUSH0 SWAP2 POP SWAP1 POP SLOAD DUP2 JUMP JUMPDEST PUSH1 0x1 PUSH0 CALLER PUSH20 0xFFFFFFFFFFFFFFFFFFFFFFFFFFFFFFFFFFFFFFFF AND PUSH20 0xFFFFFFFFFFFFFFFFFFFFFFFFFFFFFFFFFFFFFFFF AND DUP2 MSTORE PUSH1 0x20 ADD SWAP1 DUP2 MSTORE PUSH1 0x20 ADD PUSH0 KECCAK256 SLOAD DUP2 GT ISZERO PUSH2 0x169 JUMPI PUSH1 0x40 MLOAD PUSH32 0x8C379A000000000000000000000000000000000000000000000000000000000 DUP2 MSTORE PUSH1 0x4 ADD PUSH2 0x160 SWAP1 PUSH2 0x617 JUMP JUMPDEST PUSH1 0x40 MLOAD DUP1 SWAP2 SUB SWAP1 REVERT JUMPDEST PUSH0 DUP1 PUSH0 SWAP1 SLOAD SWAP1 PUSH2 0x100 EXP SWAP1 DIV PUSH20 0xFFFFFFFFFFFFFFFFFFFFFFFFFFFFFFFFFFFFFFFF AND PUSH20 0xFFFFFFFFFFFFFFFFFFFFFFFFFFFFFFFFFFFFFFFF AND PUSH4 0xA9059CBB CALLER DUP5 PUSH1 0x40 MLOAD DUP4 PUSH4 0xFFFFFFFF AND PUSH1 0xE0 SHL DUP2 MSTORE PUSH1 0x4 ADD PUSH2 0x1C5 SWAP3 SWAP2 SWAP1 PUSH2 0x644 JUMP JUMPDEST PUSH1 0x20 PUSH1 0x40 MLOAD DUP1 DUP4 SUB DUP2 PUSH0 DUP8 GAS CALL ISZERO DUP1 ISZERO PUSH2 0x1E1 JUMPI RETURNDATASIZE PUSH0 DUP1 RETURNDATACOPY RETURNDATASIZE PUSH0 REVERT JUMPDEST POP POP POP POP PUSH1 0x40 MLOAD RETURNDATASIZE PUSH1 0x1F NOT PUSH1 0x1F DUP3 ADD AND DUP3 ADD DUP1 PUSH1 0x40 MSTORE POP DUP2 ADD SWAP1 PUSH2 0x205 SWAP2 SWAP1 PUSH2 0x6A0 JUMP JUMPDEST SWAP1 POP DUP1 PUSH2 0x247 JUMPI PUSH1 0x40 MLOAD PUSH32 0x8C379A000000000000000000000000000000000000000000000000000000000 DUP2 MSTORE PUSH1 0x4 ADD PUSH2 0x23E SWAP1 PUSH2 0x715 JUMP JUMPDEST PUSH1 0x40 MLOAD DUP1 SWAP2 SUB SWAP1 REVERT JUMPDEST DUP2 PUSH1 0x1 PUSH0 CALLER PUSH20 0xFFFFFFFFFFFFFFFFFFFFFFFFFFFFFFFFFFFFFFFF AND PUSH20 0xFFFFFFFFFFFFFFFFFFFFFFFFFFFFFFFFFFFFFFFF AND DUP2 MSTORE PUSH1 0x20 ADD SWAP1 DUP2 MSTORE PUSH1 0x20 ADD PUSH0 KECCAK256 PUSH0 DUP3 DUP3 SLOAD PUSH2 0x293 SWAP2 SWAP1 PUSH2 0x760 JUMP JUMPDEST SWAP3 POP POP DUP2 SWAP1 SSTORE POP POP POP JUMP JUMPDEST PUSH0 DUP2 GT PUSH2 0x2E0 JUMPI PUSH1 0x40 MLOAD PUSH32 0x8C379A000000000000000000000000000000000000000000000000000000000 DUP2 MSTORE PUSH1 0x4 ADD PUSH2 0x2D7 SWAP1 PUSH2 0x7DD JUMP JUMPDEST PUSH1 0x40 MLOAD DUP1 SWAP2 SUB SWAP1 REVERT JUMPDEST PUSH0 DUP1 PUSH0 SWAP1 SLOAD SWAP1 PUSH2 0x100 EXP SWAP1 DIV PUSH20 0xFFFFFFFFFFFFFFFFFFFFFFFFFFFFFFFFFFFFFFFF AND PUSH20 0xFFFFFFFFFFFFFFFFFFFFFFFFFFFFFFFFFFFFFFFF AND PUSH4 0x23B872DD CALLER ADDRESS DUP6 PUSH1 0x40 MLOAD DUP5 PUSH4 0xFFFFFFFF AND PUSH1 0xE0 SHL DUP2 MSTORE PUSH1 0x4 ADD PUSH2 0x33E SWAP4 SWAP3 SWAP2 SWAP1 PUSH2 0x7FB JUMP JUMPDEST PUSH1 0x20 PUSH1 0x40 MLOAD DUP1 DUP4 SUB DUP2 PUSH0 DUP8 GAS CALL ISZERO DUP1 ISZERO PUSH2 0x35A JUMPI RETURNDATASIZE PUSH0 DUP1 RETURNDATACOPY RETURNDATASIZE PUSH0 REVERT JUMPDEST POP POP POP POP PUSH1 0x40 MLOAD RETURNDATASIZE PUSH1 0x1F NOT PUSH1 0x1F DUP3 ADD AND DUP3 ADD DUP1 PUSH1 0x40 MSTORE POP DUP2 ADD SWAP1 PUSH2 0x37E SWAP2 SWAP1 PUSH2 0x6A0 JUMP JUMPDEST SWAP1 POP DUP1 PUSH2 0x3C0 JUMPI PUSH1 0x40 MLOAD PUSH32 0x8C379A000000000000000000000000000000000000000000000000000000000 DUP2 MSTORE PUSH1 0x4 ADD PUSH2 0x3B7 SWAP1 PUSH2 0x715 JUMP JUMPDEST PUSH1 0x40 MLOAD DUP1 SWAP2 SUB SWAP1 REVERT JUMPDEST DUP2 PUSH1 0x1 PUSH0 CALLER PUSH20 0xFFFFFFFFFFFFFFFFFFFFFFFFFFFFFFFFFFFFFFFF AND PUSH20 0xFFFFFFFFFFFFFFFFFFFFFFFFFFFFFFFFFFFFFFFF AND DUP2 MSTORE PUSH1 0x20 ADD SWAP1 DUP2 MSTORE PUSH1 0x20 ADD PUSH0 KECCAK256 PUSH0 DUP3 DUP3 SLOAD PUSH2 0x40C SWAP2 SWAP1 PUSH2 0x830 JUMP JUMPDEST SWAP3 POP POP DUP2 SWAP1 SSTORE POP POP POP JUMP JUMPDEST PUSH0 DUP1 SLOAD SWAP1 PUSH2 0x100 EXP SWAP1 DIV PUSH20 0xFFFFFFFFFFFFFFFFFFFFFFFFFFFFFFFFFFFFFFFF AND DUP2 JUMP JUMPDEST PUSH0 DUP1 REVERT JUMPDEST PUSH0 PUSH20 0xFFFFFFFFFFFFFFFFFFFFFFFFFFFFFFFFFFFFFFFF DUP3 AND SWAP1 POP SWAP2 SWAP1 POP JUMP JUMPDEST PUSH0 PUSH2 0x467 DUP3 PUSH2 0x43E JUMP JUMPDEST SWAP1 POP SWAP2 SWAP1 POP JUMP JUMPDEST PUSH2 0x477 DUP2 PUSH2 0x45D JUMP JUMPDEST DUP2 EQ PUSH2 0x481 JUMPI PUSH0 DUP1 REVERT JUMPDEST POP JUMP JUMPDEST PUSH0 DUP2 CALLDATALOAD SWAP1 POP PUSH2 0x492 DUP2 PUSH2 0x46E JUMP JUMPDEST SWAP3 SWAP2 POP POP JUMP JUMPDEST PUSH0 PUSH1 0x20 DUP3 DUP5 SUB SLT ISZERO PUSH2 0x4AD JUMPI PUSH2 0x4AC PUSH2 0x43A JUMP JUMPDEST JUMPDEST PUSH0 PUSH2 0x4BA DUP5 DUP3 DUP6 ADD PUSH2 0x484 JUMP JUMPDEST SWAP2 POP POP SWAP3 SWAP2 POP POP JUMP JUMPDEST PUSH0 DUP2 SWAP1 POP SWAP2 SWAP1 POP JUMP JUMPDEST PUSH2 0x4D5 DUP2 PUSH2 0x4C3 JUMP JUMPDEST DUP3 MSTORE POP POP JUMP JUMPDEST PUSH0 PUSH1 0x20 DUP3 ADD SWAP1 POP PUSH2 0x4EE PUSH0 DUP4 ADD DUP5 PUSH2 0x4CC JUMP JUMPDEST SWAP3 SWAP2 POP POP JUMP JUMPDEST PUSH2 0x4FD DUP2 PUSH2 0x4C3 JUMP JUMPDEST DUP2 EQ PUSH2 0x507 JUMPI PUSH0 DUP1 REVERT JUMPDEST POP JUMP JUMPDEST PUSH0 DUP2 CALLDATALOAD SWAP1 POP PUSH2 0x518 DUP2 PUSH2 0x4F4 JUMP JUMPDEST SWAP3 SWAP2 POP POP JUMP JUMPDEST PUSH0 PUSH1 0x20 DUP3 DUP5 SUB SLT ISZERO PUSH2 0x533 JUMPI PUSH2 0x532 PUSH2 0x43A JUMP JUMPDEST JUMPDEST PUSH0 PUSH2 0x540 DUP5 DUP3 DUP6 ADD PUSH2 0x50A JUMP JUMPDEST SWAP2 POP POP SWAP3 SWAP2 POP POP JUMP JUMPDEST PUSH0 DUP2 SWAP1 POP SWAP2 SWAP1 POP JUMP JUMPDEST PUSH0 PUSH2 0x56C PUSH2 0x567 PUSH2 0x562 DUP5 PUSH2 0x43E JUMP JUMPDEST PUSH2 0x549 JUMP JUMPDEST PUSH2 0x43E JUMP JUMPDEST SWAP1 POP SWAP2 SWAP1 POP JUMP JUMPDEST PUSH0 PUSH2 0x57D DUP3 PUSH2 0x552 JUMP JUMPDEST SWAP1 POP SWAP2 SWAP1 POP JUMP JUMPDEST PUSH0 PUSH2 0x58E DUP3 PUSH2 0x573 JUMP JUMPDEST SWAP1 POP SWAP2 SWAP1 POP JUMP JUMPDEST PUSH2 0x59E DUP2 PUSH2 0x584 JUMP JUMPDEST DUP3 MSTORE POP POP JUMP JUMPDEST PUSH0 PUSH1 0x20 DUP3 ADD SWAP1 POP PUSH2 0x5B7 PUSH0 DUP4 ADD DUP5 PUSH2 0x595 JUMP JUMPDEST SWAP3 SWAP2 POP POP JUMP JUMPDEST PUSH0 DUP3 DUP3 MSTORE PUSH1 0x20 DUP3 ADD SWAP1 POP SWAP3 SWAP2 POP POP JUMP JUMPDEST PUSH32 0x496E73756666696369656E742062616C616E6365000000000000000000000000 PUSH0 DUP3 ADD MSTORE POP JUMP JUMPDEST PUSH0 PUSH2 0x601 PUSH1 0x14 DUP4 PUSH2 0x5BD JUMP JUMPDEST SWAP2 POP PUSH2 0x60C DUP3 PUSH2 0x5CD JUMP JUMPDEST PUSH1 0x20 DUP3 ADD SWAP1 POP SWAP2 SWAP1 POP JUMP JUMPDEST PUSH0 PUSH1 0x20 DUP3 ADD SWAP1 POP DUP2 DUP2 SUB PUSH0 DUP4 ADD MSTORE PUSH2 0x62E DUP2 PUSH2 0x5F5 JUMP JUMPDEST SWAP1 POP SWAP2 SWAP1 POP JUMP JUMPDEST PUSH2 0x63E DUP2 PUSH2 0x45D JUMP JUMPDEST DUP3 MSTORE POP POP JUMP JUMPDEST PUSH0 PUSH1 0x40 DUP3 ADD SWAP1 POP PUSH2 0x657 PUSH0 DUP4 ADD DUP6 PUSH2 0x635 JUMP JUMPDEST PUSH2 0x664 PUSH1 0x20 DUP4 ADD DUP5 PUSH2 0x4CC JUMP JUMPDEST SWAP4 SWAP3 POP POP POP JUMP JUMPDEST PUSH0 DUP2 ISZERO ISZERO SWAP1 POP SWAP2 SWAP1 POP JUMP JUMPDEST PUSH2 0x67F DUP2 PUSH2 0x66B JUMP JUMPDEST DUP2 EQ PUSH2 0x689 JUMPI PUSH0 DUP1 REVERT JUMPDEST POP JUMP JUMPDEST PUSH0 DUP2 MLOAD SWAP1 POP PUSH2 0x69A DUP2 PUSH2 0x676 JUMP JUMPDEST SWAP3 SWAP2 POP POP JUMP JUMPDEST PUSH0 PUSH1 0x20 DUP3 DUP5 SUB SLT ISZERO PUSH2 0x6B5 JUMPI PUSH2 0x6B4 PUSH2 0x43A JUMP JUMPDEST JUMPDEST PUSH0 PUSH2 0x6C2 DUP5 DUP3 DUP6 ADD PUSH2 0x68C JUMP JUMPDEST SWAP2 POP POP SWAP3 SWAP2 POP POP JUMP JUMPDEST PUSH32 0x546F6B656E207472616E73666572206661696C65640000000000000000000000 PUSH0 DUP3 ADD MSTORE POP JUMP JUMPDEST PUSH0 PUSH2 0x6FF PUSH1 0x15 DUP4 PUSH2 0x5BD JUMP JUMPDEST SWAP2 POP PUSH2 0x70A DUP3 PUSH2 0x6CB JUMP JUMPDEST PUSH1 0x20 DUP3 ADD SWAP1 POP SWAP2 SWAP1 POP JUMP JUMPDEST PUSH0 PUSH1 0x20 DUP3 ADD SWAP1 POP DUP2 DUP2 SUB PUSH0 DUP4 ADD MSTORE PUSH2 0x72C DUP2 PUSH2 0x6F3 JUMP JUMPDEST SWAP1 POP SWAP2 SWAP1 POP JUMP JUMPDEST PUSH32 0x4E487B7100000000000000000000000000000000000000000000000000000000 PUSH0 MSTORE PUSH1 0x11 PUSH1 0x4 MSTORE PUSH1 0x24 PUSH0 REVERT JUMPDEST PUSH0 PUSH2 0x76A DUP3 PUSH2 0x4C3 JUMP JUMPDEST SWAP2 POP PUSH2 0x775 DUP4 PUSH2 0x4C3 JUMP JUMPDEST SWAP3 POP DUP3 DUP3 SUB SWAP1 POP DUP2 DUP2 GT ISZERO PUSH2 0x78D JUMPI PUSH2 0x78C PUSH2 0x733 JUMP JUMPDEST JUMPDEST SWAP3 SWAP2 POP POP JUMP JUMPDEST PUSH32 0x416D6F756E74206D7573742062652067726561746572207468616E207A65726F PUSH0 DUP3 ADD MSTORE POP JUMP JUMPDEST PUSH0 PUSH2 0x7C7 PUSH1 0x20 DUP4 PUSH2 0x5BD JUMP JUMPDEST SWAP2 POP PUSH2 0x7D2 DUP3 PUSH2 0x793 JUMP JUMPDEST PUSH1 0x20 DUP3 ADD SWAP1 POP SWAP2 SWAP1 POP JUMP JUMPDEST PUSH0 PUSH1 0x20 DUP3 ADD SWAP1 POP DUP2 DUP2 SUB PUSH0 DUP4 ADD MSTORE PUSH2 0x7F4 DUP2 PUSH2 0x7BB JUMP JUMPDEST SWAP1 POP SWAP2 SWAP1 POP JUMP JUMPDEST PUSH0 PUSH1 0x60 DUP3 ADD SWAP1 POP PUSH2 0x80E PUSH0 DUP4 ADD DUP7 PUSH2 0x635 JUMP JUMPDEST PUSH2 0x81B PUSH1 0x20 DUP4 ADD DUP6 PUSH2 0x635 JUMP JUMPDEST PUSH2 0x828 PUSH1 0x40 DUP4 ADD DUP5 PUSH2 0x4CC JUMP JUMPDEST SWAP5 SWAP4 POP POP POP POP JUMP JUMPDEST PUSH0 PUSH2 0x83A DUP3 PUSH2 0x4C3 JUMP JUMPDEST SWAP2 POP PUSH2 0x845 DUP4 PUSH2 0x4C3 JUMP JUMPDEST SWAP3 POP DUP3 DUP3 ADD SWAP1 POP DUP1 DUP3 GT ISZERO PUSH2 0x85D JUMPI PUSH2 0x85C PUSH2 0x733 JUMP JUMPDEST JUMPDEST SWAP3 SWAP2 POP POP JUMP INVALID LOG2 PUSH5 0x6970667358 0x22 SLT KECCAK256 PUSH20 0x539892B28C8BE9E8CDB83FD6731380BCB5AA5928 CALLDATASIZE 0xD4 0xC3 SWAP8 0xC1 0x29 PUSH26 0xB9FB2F7464736F6C634300081A00330000000000000000000000 "
				},
				"gasEstimates": {
					"creation": {
						"codeDepositCost": "440200",
						"executionCost": "infinite",
						"totalCost": "infinite"
					},
					"external": {
						"balances(address)": "2780",
						"deposit(uint256)": "infinite",
						"token()": "infinite",
						"withdraw(uint256)": "infinite"
					}
				},
				"methodIdentifiers": {
					"balances(address)": "27e235e3",
					"deposit(uint256)": "b6b55f25",
					"token()": "fc0c546a",
					"withdraw(uint256)": "2e1a7d4d"
				}
			},
			"storageLayout": {
				"storage": [
					{
						"astId": 28,
						"contract": "TokenBank.sol:TokenBank",
						"label": "token",
						"offset": 0,
						"slot": "0",
						"type": "t_contract(IERC20)22"
					},
					{
						"astId": 32,
						"contract": "TokenBank.sol:TokenBank",
						"label": "balances",
						"offset": 0,
						"slot": "1",
						"type": "t_mapping(t_address,t_uint256)"
					}
				],
				"types": {
					"t_address": {
						"encoding": "inplace",
						"label": "address",
						"numberOfBytes": "20"
					},
					"t_contract(IERC20)22": {
						"encoding": "inplace",
						"label": "contract IERC20",
						"numberOfBytes": "20"
					},
					"t_mapping(t_address,t_uint256)": {
						"encoding": "mapping",
						"key": "t_address",
						"label": "mapping(address => uint256)",
						"numberOfBytes": "32",
						"value": "t_uint256"
					},
					"t_uint256": {
						"encoding": "inplace",
						"label": "uint256",
						"numberOfBytes": "32"
					}
				}
			},
			"userdoc": {
				"kind": "user",
				"methods": {},
				"version": 1
			}
		}
	}
}